{
  "contractName": "CloserLookNFT",
  "abi": [
    {
      "inputs": [
        {
          "internalType": "uint256",
          "name": "maxNftSupply",
          "type": "uint256"
        },
        {
          "internalType": "address payable",
          "name": "_treasury",
          "type": "address"
        }
      ],
      "stateMutability": "nonpayable",
      "type": "constructor"
    },
    {
      "anonymous": false,
      "inputs": [
        {
          "indexed": true,
          "internalType": "address",
          "name": "owner",
          "type": "address"
        },
        {
          "indexed": true,
          "internalType": "address",
          "name": "approved",
          "type": "address"
        },
        {
          "indexed": true,
          "internalType": "uint256",
          "name": "tokenId",
          "type": "uint256"
        }
      ],
      "name": "Approval",
      "type": "event"
    },
    {
      "anonymous": false,
      "inputs": [
        {
          "indexed": true,
          "internalType": "address",
          "name": "owner",
          "type": "address"
        },
        {
          "indexed": true,
          "internalType": "address",
          "name": "operator",
          "type": "address"
        },
        {
          "indexed": false,
          "internalType": "bool",
          "name": "approved",
          "type": "bool"
        }
      ],
      "name": "ApprovalForAll",
      "type": "event"
    },
    {
      "anonymous": false,
      "inputs": [
        {
          "indexed": false,
          "internalType": "address",
          "name": "to",
          "type": "address"
        },
        {
          "indexed": false,
          "internalType": "uint256",
          "name": "date",
          "type": "uint256"
        },
        {
          "indexed": false,
          "internalType": "uint256",
          "name": "tokenId",
          "type": "uint256"
        },
        {
          "indexed": false,
          "internalType": "string",
          "name": "tokenURI",
          "type": "string"
        }
      ],
      "name": "NftMinted",
      "type": "event"
    },
    {
      "anonymous": false,
      "inputs": [
        {
          "indexed": true,
          "internalType": "address",
          "name": "previousOwner",
          "type": "address"
        },
        {
          "indexed": true,
          "internalType": "address",
          "name": "newOwner",
          "type": "address"
        }
      ],
      "name": "OwnershipTransferred",
      "type": "event"
    },
    {
      "anonymous": false,
      "inputs": [
        {
          "indexed": true,
          "internalType": "address",
          "name": "from",
          "type": "address"
        },
        {
          "indexed": true,
          "internalType": "address",
          "name": "to",
          "type": "address"
        },
        {
          "indexed": true,
          "internalType": "uint256",
          "name": "tokenId",
          "type": "uint256"
        }
      ],
      "name": "Transfer",
      "type": "event"
    },
    {
      "inputs": [],
      "name": "MAX_SUPPLY",
      "outputs": [
        {
          "internalType": "uint256",
          "name": "",
          "type": "uint256"
        }
      ],
      "stateMutability": "view",
      "type": "function",
      "constant": true
    },
    {
      "inputs": [],
      "name": "MAX_WHITELIST",
      "outputs": [
        {
          "internalType": "uint256",
          "name": "",
          "type": "uint256"
        }
      ],
      "stateMutability": "view",
      "type": "function",
      "constant": true
    },
    {
      "inputs": [],
      "name": "PROVENANCE_HASH",
      "outputs": [
        {
          "internalType": "string",
          "name": "",
          "type": "string"
        }
      ],
      "stateMutability": "view",
      "type": "function",
      "constant": true
    },
    {
      "inputs": [],
      "name": "PROVENANCE_HASH_TIMESTAMP",
      "outputs": [
        {
          "internalType": "uint256",
          "name": "",
          "type": "uint256"
        }
      ],
      "stateMutability": "view",
      "type": "function",
      "constant": true
    },
    {
      "inputs": [
        {
          "internalType": "address",
          "name": "to",
          "type": "address"
        },
        {
          "internalType": "uint256",
          "name": "tokenId",
          "type": "uint256"
        }
      ],
      "name": "approve",
      "outputs": [],
      "stateMutability": "nonpayable",
      "type": "function"
    },
    {
      "inputs": [
        {
          "internalType": "address",
          "name": "owner",
          "type": "address"
        }
      ],
      "name": "balanceOf",
      "outputs": [
        {
          "internalType": "uint256",
          "name": "",
          "type": "uint256"
        }
      ],
      "stateMutability": "view",
      "type": "function",
      "constant": true
    },
    {
      "inputs": [],
      "name": "baseTokenURI",
      "outputs": [
        {
          "internalType": "string",
          "name": "",
          "type": "string"
        }
      ],
      "stateMutability": "view",
      "type": "function",
      "constant": true
    },
    {
      "inputs": [],
      "name": "defaultURI",
      "outputs": [
        {
          "internalType": "string",
          "name": "",
          "type": "string"
        }
      ],
      "stateMutability": "view",
      "type": "function",
      "constant": true
    },
    {
      "inputs": [
        {
          "internalType": "uint256",
          "name": "tokenId",
          "type": "uint256"
        }
      ],
      "name": "getApproved",
      "outputs": [
        {
          "internalType": "address",
          "name": "",
          "type": "address"
        }
      ],
      "stateMutability": "view",
      "type": "function",
      "constant": true
    },
    {
      "inputs": [
        {
          "internalType": "address",
          "name": "owner",
          "type": "address"
        },
        {
          "internalType": "address",
          "name": "operator",
          "type": "address"
        }
      ],
      "name": "isApprovedForAll",
      "outputs": [
        {
          "internalType": "bool",
          "name": "",
          "type": "bool"
        }
      ],
      "stateMutability": "view",
      "type": "function",
      "constant": true
    },
    {
      "inputs": [],
      "name": "merkleRoot",
      "outputs": [
        {
          "internalType": "bytes32",
          "name": "",
          "type": "bytes32"
        }
      ],
      "stateMutability": "view",
      "type": "function",
      "constant": true
    },
    {
      "inputs": [],
      "name": "name",
      "outputs": [
        {
          "internalType": "string",
          "name": "",
          "type": "string"
        }
      ],
      "stateMutability": "view",
      "type": "function",
      "constant": true
    },
    {
      "inputs": [],
      "name": "nftPrice",
      "outputs": [
        {
          "internalType": "uint256",
          "name": "",
          "type": "uint256"
        }
      ],
      "stateMutability": "view",
      "type": "function",
      "constant": true
    },
    {
      "inputs": [],
      "name": "owner",
      "outputs": [
        {
          "internalType": "address",
          "name": "",
          "type": "address"
        }
      ],
      "stateMutability": "view",
      "type": "function",
      "constant": true
    },
    {
      "inputs": [
        {
          "internalType": "uint256",
          "name": "tokenId",
          "type": "uint256"
        }
      ],
      "name": "ownerOf",
      "outputs": [
        {
          "internalType": "address",
          "name": "",
          "type": "address"
        }
      ],
      "stateMutability": "view",
      "type": "function",
      "constant": true
    },
    {
      "inputs": [],
      "name": "preMintActive",
      "outputs": [
        {
          "internalType": "bool",
          "name": "",
          "type": "bool"
        }
      ],
      "stateMutability": "view",
      "type": "function",
      "constant": true
    },
    {
      "inputs": [],
      "name": "renounceOwnership",
      "outputs": [],
      "stateMutability": "nonpayable",
      "type": "function"
    },
    {
      "inputs": [
        {
          "internalType": "address",
          "name": "from",
          "type": "address"
        },
        {
          "internalType": "address",
          "name": "to",
          "type": "address"
        },
        {
          "internalType": "uint256",
          "name": "tokenId",
          "type": "uint256"
        }
      ],
      "name": "safeTransferFrom",
      "outputs": [],
      "stateMutability": "nonpayable",
      "type": "function"
    },
    {
      "inputs": [
        {
          "internalType": "address",
          "name": "from",
          "type": "address"
        },
        {
          "internalType": "address",
          "name": "to",
          "type": "address"
        },
        {
          "internalType": "uint256",
          "name": "tokenId",
          "type": "uint256"
        },
        {
          "internalType": "bytes",
          "name": "_data",
          "type": "bytes"
        }
      ],
      "name": "safeTransferFrom",
      "outputs": [],
      "stateMutability": "nonpayable",
      "type": "function"
    },
    {
      "inputs": [],
      "name": "saleIsActive",
      "outputs": [
        {
          "internalType": "bool",
          "name": "",
          "type": "bool"
        }
      ],
      "stateMutability": "view",
      "type": "function",
      "constant": true
    },
    {
      "inputs": [
        {
          "internalType": "address",
          "name": "operator",
          "type": "address"
        },
        {
          "internalType": "bool",
          "name": "approved",
          "type": "bool"
        }
      ],
      "name": "setApprovalForAll",
      "outputs": [],
      "stateMutability": "nonpayable",
      "type": "function"
    },
    {
      "inputs": [],
      "name": "startingIndex",
      "outputs": [
        {
          "internalType": "uint256",
          "name": "",
          "type": "uint256"
        }
      ],
      "stateMutability": "view",
      "type": "function",
      "constant": true
    },
    {
      "inputs": [],
      "name": "startingIndexBlock",
      "outputs": [
        {
          "internalType": "uint256",
          "name": "",
          "type": "uint256"
        }
      ],
      "stateMutability": "view",
      "type": "function",
      "constant": true
    },
    {
      "inputs": [
        {
          "internalType": "bytes4",
          "name": "interfaceId",
          "type": "bytes4"
        }
      ],
      "name": "supportsInterface",
      "outputs": [
        {
          "internalType": "bool",
          "name": "",
          "type": "bool"
        }
      ],
      "stateMutability": "view",
      "type": "function",
      "constant": true
    },
    {
      "inputs": [],
      "name": "symbol",
      "outputs": [
        {
          "internalType": "string",
          "name": "",
          "type": "string"
        }
      ],
      "stateMutability": "view",
      "type": "function",
      "constant": true
    },
    {
      "inputs": [
        {
          "internalType": "address",
          "name": "from",
          "type": "address"
        },
        {
          "internalType": "address",
          "name": "to",
          "type": "address"
        },
        {
          "internalType": "uint256",
          "name": "tokenId",
          "type": "uint256"
        }
      ],
      "name": "transferFrom",
      "outputs": [],
      "stateMutability": "nonpayable",
      "type": "function"
    },
    {
      "inputs": [
        {
          "internalType": "address",
          "name": "newOwner",
          "type": "address"
        }
      ],
      "name": "transferOwnership",
      "outputs": [],
      "stateMutability": "nonpayable",
      "type": "function"
    },
    {
      "inputs": [],
      "name": "treasury",
      "outputs": [
        {
          "internalType": "address payable",
          "name": "",
          "type": "address"
        }
      ],
      "stateMutability": "view",
      "type": "function",
      "constant": true
    },
    {
      "inputs": [],
      "name": "whiteListActive",
      "outputs": [
        {
          "internalType": "bool",
          "name": "",
          "type": "bool"
        }
      ],
      "stateMutability": "view",
      "type": "function",
      "constant": true
    },
    {
      "inputs": [
        {
          "internalType": "address",
          "name": "",
          "type": "address"
        }
      ],
      "name": "whitelistClaimed",
      "outputs": [
        {
          "internalType": "bool",
          "name": "",
          "type": "bool"
        }
      ],
      "stateMutability": "view",
      "type": "function",
      "constant": true
    },
    {
      "inputs": [
        {
          "internalType": "string",
          "name": "_defaultURI",
          "type": "string"
        }
      ],
      "name": "setDefaultURI",
      "outputs": [],
      "stateMutability": "nonpayable",
      "type": "function"
    },
    {
      "inputs": [
        {
          "internalType": "uint256",
          "name": "max",
          "type": "uint256"
        }
      ],
      "name": "setMaxWhitelist",
      "outputs": [],
      "stateMutability": "nonpayable",
      "type": "function"
    },
    {
      "inputs": [
        {
          "internalType": "string",
          "name": "provenanceHash",
          "type": "string"
        }
      ],
      "name": "setProvenanceHash",
      "outputs": [],
      "stateMutability": "nonpayable",
      "type": "function"
    },
    {
      "inputs": [
        {
          "internalType": "uint256",
          "name": "price",
          "type": "uint256"
        }
      ],
      "name": "setSalePrice",
      "outputs": [],
      "stateMutability": "nonpayable",
      "type": "function"
    },
    {
      "inputs": [
        {
          "internalType": "address payable",
          "name": "_newTreasuryAddress",
          "type": "address"
        }
      ],
      "name": "changeTreasuryAddress",
      "outputs": [],
      "stateMutability": "nonpayable",
      "type": "function"
    },
    {
      "inputs": [
        {
          "internalType": "string",
          "name": "_newBaseURI",
          "type": "string"
        }
      ],
      "name": "setBaseURI",
      "outputs": [],
      "stateMutability": "nonpayable",
      "type": "function"
    },
    {
      "inputs": [
        {
          "internalType": "uint256",
          "name": "tokenID",
          "type": "uint256"
        },
        {
          "internalType": "string",
          "name": "uri",
          "type": "string"
        }
      ],
      "name": "setTokenURI",
      "outputs": [],
      "stateMutability": "nonpayable",
      "type": "function"
    },
    {
      "inputs": [
        {
          "internalType": "uint256",
          "name": "tokenId",
          "type": "uint256"
        }
      ],
      "name": "tokenURI",
      "outputs": [
        {
          "internalType": "string",
          "name": "",
          "type": "string"
        }
      ],
      "stateMutability": "view",
      "type": "function",
      "constant": true
    },
    {
      "inputs": [],
      "name": "totalSupply",
      "outputs": [
        {
          "internalType": "uint256",
          "name": "",
          "type": "uint256"
        }
      ],
      "stateMutability": "view",
      "type": "function",
      "constant": true
    },
    {
      "inputs": [],
      "name": "flipSaleState",
      "outputs": [],
      "stateMutability": "nonpayable",
      "type": "function"
    },
    {
      "inputs": [],
      "name": "flipPremintSaleState",
      "outputs": [],
      "stateMutability": "nonpayable",
      "type": "function"
    },
    {
      "inputs": [],
      "name": "flipWhitelistSaleState",
      "outputs": [],
      "stateMutability": "nonpayable",
      "type": "function"
    },
    {
      "inputs": [
        {
          "internalType": "bytes32[]",
          "name": "_merkleProof",
          "type": "bytes32[]"
        }
      ],
      "name": "whitelistMint",
      "outputs": [],
      "stateMutability": "payable",
      "type": "function",
      "payable": true
    },
    {
      "inputs": [
        {
          "internalType": "uint256",
          "name": "nftsToMint",
          "type": "uint256"
        }
      ],
      "name": "publicMint",
      "outputs": [],
      "stateMutability": "payable",
      "type": "function",
      "payable": true
    },
    {
      "inputs": [
        {
          "internalType": "address",
          "name": "_to",
          "type": "address"
        }
      ],
      "name": "mintFor",
      "outputs": [],
      "stateMutability": "nonpayable",
      "type": "function"
    }
  ],
  "bytecode": "0x60806040526000600960006101000a81548160ff02191690831515021790555060405180602001604052806000815250600a908051906020019062000046929190620002ed565b506000601060006101000a81548160ff0219169083151502179055506000601060016101000a81548160ff0219169083151502179055506000601060026101000a81548160ff021916908315150217905550604051806060016040528060358152602001620057b16035913960169080519060200190620000c9929190620002ed565b50348015620000d757600080fd5b50604051620057e6380380620057e68339818101604052810190620000fd919062000442565b6040518060400160405280600d81526020017f436c6f7365724c6f6f6b4e4654000000000000000000000000000000000000008152506040518060400160405280600381526020017f434c4b0000000000000000000000000000000000000000000000000000000000815250816000908051906020019062000181929190620002ed565b5080600190805190602001906200019a929190620002ed565b505050620001cf620001ba6200021f640100000000026401000000009004565b62000227640100000000026401000000009004565b81600e8190555080601360006101000a81548173ffffffffffffffffffffffffffffffffffffffff021916908373ffffffffffffffffffffffffffffffffffffffff1602179055505050620004ee565b600033905090565b6000600660009054906101000a900473ffffffffffffffffffffffffffffffffffffffff16905081600660006101000a81548173ffffffffffffffffffffffffffffffffffffffff021916908373ffffffffffffffffffffffffffffffffffffffff1602179055508173ffffffffffffffffffffffffffffffffffffffff168173ffffffffffffffffffffffffffffffffffffffff167f8be0079c531659141344cd1fd0a4f28419497f9722a3daafe3b4186f6b6457e060405160405180910390a35050565b828054620002fb90620004b8565b90600052602060002090601f0160209004810192826200031f57600085556200036b565b82601f106200033a57805160ff19168380011785556200036b565b828001600101855582156200036b579182015b828111156200036a5782518255916020019190600101906200034d565b5b5090506200037a91906200037e565b5090565b5b80821115620003995760008160009055506001016200037f565b5090565b600080fd5b6000819050919050565b620003b781620003a2565b8114620003c357600080fd5b50565b600081519050620003d781620003ac565b92915050565b600073ffffffffffffffffffffffffffffffffffffffff82169050919050565b60006200040a82620003dd565b9050919050565b6200041c81620003fd565b81146200042857600080fd5b50565b6000815190506200043c8162000411565b92915050565b600080604083850312156200045c576200045b6200039d565b5b60006200046c85828601620003c6565b92505060206200047f858286016200042b565b9150509250929050565b7f4e487b7100000000000000000000000000000000000000000000000000000000600052602260045260246000fd5b60006002820490506001821680620004d157607f821691505b60208210811415620004e857620004e762000489565b5b50919050565b6152b380620004fe6000396000f3fe60806040526004361061028f576000357c01000000000000000000000000000000000000000000000000000000009004806370a082311161016c578063cb774d47116100de578063e36d649811610097578063e36d649814610919578063e7cadc9a14610944578063e985e9c51461095b578063eb8d244414610998578063f2fde38b146109c3578063ff1b6556146109ec5761028f565b8063cb774d471461081b578063d1beca6414610846578063d547cfb71461085d578063da1b9e0814610888578063db4bec44146108b1578063e322a553146108ee5761028f565b806395d89b411161013057806395d89b411461070d57806395f61c4814610738578063a22cb46514610763578063a6f353f01461078c578063b88d4fde146107b5578063c87b56dd146107de5761028f565b806370a082311461063c578063715018a61461067957806371e578dc1461069057806372d9eb1e146106b95780638da5cb5b146106e25761028f565b80632db1154411610205578063372f657c116101c9578063372f657c1461053b5780633a367a671461055757806342842e0e1461058257806355f804b3146105ab57806361d027b3146105d45780636352211e146105ff5761028f565b80632db11544146104875780632e4355cd146104a35780632eb4a7ab146104ce57806332cb6b0c146104f957806334918dfd146105245761028f565b80631096952311610257578063109695231461038d578063162094c4146103b657806318160ddd146103df5780631919fed71461040a5780631a12c91d1461043357806323b872dd1461045e5761028f565b806301ffc9a71461029457806306fdde03146102d1578063081812fc146102fc578063095ea7b3146103395780630d39fc8114610362575b600080fd5b3480156102a057600080fd5b506102bb60048036038101906102b691906135e0565b610a17565b6040516102c89190613628565b60405180910390f35b3480156102dd57600080fd5b506102e6610af9565b6040516102f391906136dc565b60405180910390f35b34801561030857600080fd5b50610323600480360381019061031e9190613734565b610b8b565b60405161033091906137a2565b60405180910390f35b34801561034557600080fd5b50610360600480360381019061035b91906137e9565b610c10565b005b34801561036e57600080fd5b50610377610d28565b6040516103849190613838565b60405180910390f35b34801561039957600080fd5b506103b460048036038101906103af9190613988565b610d2e565b005b3480156103c257600080fd5b506103dd60048036038101906103d891906139d1565b610e10565b005b3480156103eb57600080fd5b506103f4610eb8565b6040516104019190613838565b60405180910390f35b34801561041657600080fd5b50610431600480360381019061042c9190613734565b610ec9565b005b34801561043f57600080fd5b50610448610f6a565b6040516104559190613628565b60405180910390f35b34801561046a57600080fd5b5061048560048036038101906104809190613a2d565b610f7d565b005b6104a1600480360381019061049c9190613734565b610fdd565b005b3480156104af57600080fd5b506104b86112c8565b6040516104c59190613628565b60405180910390f35b3480156104da57600080fd5b506104e36112db565b6040516104f09190613a99565b60405180910390f35b34801561050557600080fd5b5061050e6112e1565b60405161051b9190613838565b60405180910390f35b34801561053057600080fd5b506105396112e7565b005b61055560048036038101906105509190613b14565b61138f565b005b34801561056357600080fd5b5061056c6117ca565b60405161057991906136dc565b60405180910390f35b34801561058e57600080fd5b506105a960048036038101906105a49190613a2d565b611858565b005b3480156105b757600080fd5b506105d260048036038101906105cd9190613988565b611878565b005b3480156105e057600080fd5b506105e961190e565b6040516105f69190613b82565b60405180910390f35b34801561060b57600080fd5b5061062660048036038101906106219190613734565b611934565b60405161063391906137a2565b60405180910390f35b34801561064857600080fd5b50610663600480360381019061065e9190613b9d565b6119e6565b6040516106709190613838565b60405180910390f35b34801561068557600080fd5b5061068e611a9e565b005b34801561069c57600080fd5b506106b760048036038101906106b29190613b9d565b611b26565b005b3480156106c557600080fd5b506106e060048036038101906106db9190613734565b611c5c565b005b3480156106ee57600080fd5b506106f7611ce2565b60405161070491906137a2565b60405180910390f35b34801561071957600080fd5b50610722611d0c565b60405161072f91906136dc565b60405180910390f35b34801561074457600080fd5b5061074d611d9e565b60405161075a9190613838565b60405180910390f35b34801561076f57600080fd5b5061078a60048036038101906107859190613bf6565b611da4565b005b34801561079857600080fd5b506107b360048036038101906107ae9190613c62565b611dba565b005b3480156107c157600080fd5b506107dc60048036038101906107d79190613d30565b611eea565b005b3480156107ea57600080fd5b5061080560048036038101906108009190613734565b611f4c565b60405161081291906136dc565b60405180910390f35b34801561082757600080fd5b506108306121fa565b60405161083d9190613838565b60405180910390f35b34801561085257600080fd5b5061085b612200565b005b34801561086957600080fd5b506108726122a8565b60405161087f91906136dc565b60405180910390f35b34801561089457600080fd5b506108af60048036038101906108aa9190613988565b612336565b005b3480156108bd57600080fd5b506108d860048036038101906108d39190613b9d565b6123cc565b6040516108e59190613628565b60405180910390f35b3480156108fa57600080fd5b506109036123ec565b6040516109109190613838565b60405180910390f35b34801561092557600080fd5b5061092e6123f2565b60405161093b9190613838565b60405180910390f35b34801561095057600080fd5b506109596123f8565b005b34801561096757600080fd5b50610982600480360381019061097d9190613db3565b6124a0565b60405161098f9190613628565b60405180910390f35b3480156109a457600080fd5b506109ad612534565b6040516109ba9190613628565b60405180910390f35b3480156109cf57600080fd5b506109ea60048036038101906109e59190613b9d565b612547565b005b3480156109f857600080fd5b50610a0161263f565b604051610a0e91906136dc565b60405180910390f35b60007f80ac58cd000000000000000000000000000000000000000000000000000000007bffffffffffffffffffffffffffffffffffffffffffffffffffffffff1916827bffffffffffffffffffffffffffffffffffffffffffffffffffffffff19161480610ae257507f5b5e139f000000000000000000000000000000000000000000000000000000007bffffffffffffffffffffffffffffffffffffffffffffffffffffffff1916827bffffffffffffffffffffffffffffffffffffffffffffffffffffffff1916145b80610af25750610af1826126cd565b5b9050919050565b606060008054610b0890613e22565b80601f0160208091040260200160405190810160405280929190818152602001828054610b3490613e22565b8015610b815780601f10610b5657610100808354040283529160200191610b81565b820191906000526020600020905b815481529060010190602001808311610b6457829003601f168201915b5050505050905090565b6000610b9682612737565b610bd5576040517f08c379a0000000000000000000000000000000000000000000000000000000008152600401610bcc90613ec6565b60405180910390fd5b6004600083815260200190815260200160002060009054906101000a900473ffffffffffffffffffffffffffffffffffffffff169050919050565b6000610c1b82611934565b90508073ffffffffffffffffffffffffffffffffffffffff168373ffffffffffffffffffffffffffffffffffffffff161415610c8c576040517f08c379a0000000000000000000000000000000000000000000000000000000008152600401610c8390613f58565b60405180910390fd5b8073ffffffffffffffffffffffffffffffffffffffff16610cab6127a3565b73ffffffffffffffffffffffffffffffffffffffff161480610cda5750610cd981610cd46127a3565b6124a0565b5b610d19576040517f08c379a0000000000000000000000000000000000000000000000000000000008152600401610d1090613fea565b60405180910390fd5b610d2383836127ab565b505050565b60085481565b610d366127a3565b73ffffffffffffffffffffffffffffffffffffffff16610d54611ce2565b73ffffffffffffffffffffffffffffffffffffffff1614610daa576040517f08c379a0000000000000000000000000000000000000000000000000000000008152600401610da190614056565b60405180910390fd5b6000600b5414610def576040517f08c379a0000000000000000000000000000000000000000000000000000000008152600401610de6906140c2565b60405180910390fd5b42600b8190555080600a9080519060200190610e0c9291906134d1565b5050565b610e186127a3565b73ffffffffffffffffffffffffffffffffffffffff16610e36611ce2565b73ffffffffffffffffffffffffffffffffffffffff1614610e8c576040517f08c379a0000000000000000000000000000000000000000000000000000000008152600401610e8390614056565b60405180910390fd5b80601460008481526020019081526020016000209080519060200190610eb39291906134d1565b505050565b6000610ec46007612864565b905090565b610ed16127a3565b73ffffffffffffffffffffffffffffffffffffffff16610eef611ce2565b73ffffffffffffffffffffffffffffffffffffffff1614610f45576040517f08c379a0000000000000000000000000000000000000000000000000000000008152600401610f3c90614056565b60405180910390fd5b806008819055506001600960006101000a81548160ff02191690831515021790555050565b601060009054906101000a900460ff1681565b610f8e610f886127a3565b82612872565b610fcd576040517f08c379a0000000000000000000000000000000000000000000000000000000008152600401610fc490614154565b60405180910390fd5b610fd8838383612950565b505050565b600960009054906101000a900460ff1661102c576040517f08c379a0000000000000000000000000000000000000000000000000000000008152600401611023906141c0565b60405180910390fd5b600073ffffffffffffffffffffffffffffffffffffffff16601360009054906101000a900473ffffffffffffffffffffffffffffffffffffffff1673ffffffffffffffffffffffffffffffffffffffff1614156110be576040517f08c379a00000000000000000000000000000000000000000000000000000000081526004016110b59061422c565b60405180910390fd5b601060029054906101000a900460ff1661110d576040517f08c379a000000000000000000000000000000000000000000000000000000000815260040161110490614298565b60405180910390fd5b8060085461111b91906142e7565b34101561115d576040517f08c379a00000000000000000000000000000000000000000000000000000000081526004016111549061438d565b60405180910390fd5b601360009054906101000a900473ffffffffffffffffffffffffffffffffffffffff1673ffffffffffffffffffffffffffffffffffffffff166108fc349081150290604051600060405180830381858888f193505050501580156111c5573d6000803e3d6000fd5b5060005b818110156112c457600e5460016111de610eb8565b6111e891906143ad565b1115611229576040517f08c379a000000000000000000000000000000000000000000000000000000000815260040161122090614475565b60405180910390fd5b6112336007612bac565b600061123f6007612864565b905061124b3382612bc2565b7f31675a36120d20190f451db2a87457c351f7c3d124c13b6c3bcbd21657172fc833428361127885611f4c565b6040516112889493929190614495565b60405180910390a1600e5461129d6007612864565b14156112b05743601181905550506112c4565b5080806112bc906144e1565b9150506111c9565b5050565b601060019054906101000a900460ff1681565b600c5481565b600e5481565b6112ef6127a3565b73ffffffffffffffffffffffffffffffffffffffff1661130d611ce2565b73ffffffffffffffffffffffffffffffffffffffff1614611363576040517f08c379a000000000000000000000000000000000000000000000000000000000815260040161135a90614056565b60405180910390fd5b601060029054906101000a900460ff1615601060026101000a81548160ff021916908315150217905550565b601060019054906101000a900460ff166113de576040517f08c379a00000000000000000000000000000000000000000000000000000000081526004016113d59061459c565b60405180910390fd5b600960009054906101000a900460ff1661142d576040517f08c379a0000000000000000000000000000000000000000000000000000000008152600401611424906141c0565b60405180910390fd5b6000600f541415611473576040517f08c379a000000000000000000000000000000000000000000000000000000000815260040161146a9061462e565b60405180910390fd5b600f54600a611480610eb8565b61148a919061464e565b11156114cb576040517f08c379a00000000000000000000000000000000000000000000000000000000081526004016114c2906146f4565b60405180910390fd5b600854341015611510576040517f08c379a00000000000000000000000000000000000000000000000000000000081526004016115079061438d565b60405180910390fd5b600d60003373ffffffffffffffffffffffffffffffffffffffff1673ffffffffffffffffffffffffffffffffffffffff16815260200190815260200160002060009054906101000a900460ff161561159d576040517f08c379a000000000000000000000000000000000000000000000000000000000815260040161159490614760565b60405180910390fd5b6000602060ff16116115e4576040517f08c379a00000000000000000000000000000000000000000000000000000000081526004016115db906147cc565b60405180910390fd5b6000336040516020016115f79190614840565b60405160208183030381529060405280519060200120905061165d838380806020026020016040519081016040528093929190818152602001838360200280828437600081840152601f19601f82011690508083019250505050505050600c5483612be0565b61169c576040517f08c379a0000000000000000000000000000000000000000000000000000000008152600401611693906148a7565b60405180910390fd5b6001600d60003373ffffffffffffffffffffffffffffffffffffffff1673ffffffffffffffffffffffffffffffffffffffff16815260200190815260200160002060006101000a81548160ff021916908315150217905550601360009054906101000a900473ffffffffffffffffffffffffffffffffffffffff1673ffffffffffffffffffffffffffffffffffffffff166108fc349081150290604051600060405180830381858888f1935050505015801561175c573d6000803e3d6000fd5b506117676007612bac565b60006117736007612864565b905061177f3382612bc2565b7f31675a36120d20190f451db2a87457c351f7c3d124c13b6c3bcbd21657172fc83342836117ac85611f4c565b6040516117bc9493929190614495565b60405180910390a150505050565b601680546117d790613e22565b80601f016020809104026020016040519081016040528092919081815260200182805461180390613e22565b80156118505780601f1061182557610100808354040283529160200191611850565b820191906000526020600020905b81548152906001019060200180831161183357829003601f168201915b505050505081565b61187383838360405180602001604052806000815250611eea565b505050565b6118806127a3565b73ffffffffffffffffffffffffffffffffffffffff1661189e611ce2565b73ffffffffffffffffffffffffffffffffffffffff16146118f4576040517f08c379a00000000000000000000000000000000000000000000000000000000081526004016118eb90614056565b60405180910390fd5b806015908051906020019061190a9291906134d1565b5050565b601360009054906101000a900473ffffffffffffffffffffffffffffffffffffffff1681565b6000806002600084815260200190815260200160002060009054906101000a900473ffffffffffffffffffffffffffffffffffffffff169050600073ffffffffffffffffffffffffffffffffffffffff168173ffffffffffffffffffffffffffffffffffffffff1614156119dd576040517f08c379a00000000000000000000000000000000000000000000000000000000081526004016119d490614939565b60405180910390fd5b80915050919050565b60008073ffffffffffffffffffffffffffffffffffffffff168273ffffffffffffffffffffffffffffffffffffffff161415611a57576040517f08c379a0000000000000000000000000000000000000000000000000000000008152600401611a4e906149cb565b60405180910390fd5b600360008373ffffffffffffffffffffffffffffffffffffffff1673ffffffffffffffffffffffffffffffffffffffff168152602001908152602001600020549050919050565b611aa66127a3565b73ffffffffffffffffffffffffffffffffffffffff16611ac4611ce2565b73ffffffffffffffffffffffffffffffffffffffff1614611b1a576040517f08c379a0000000000000000000000000000000000000000000000000000000008152600401611b1190614056565b60405180910390fd5b611b246000612bf7565b565b611b2e6127a3565b73ffffffffffffffffffffffffffffffffffffffff16611b4c611ce2565b73ffffffffffffffffffffffffffffffffffffffff1614611ba2576040517f08c379a0000000000000000000000000000000000000000000000000000000008152600401611b9990614056565b60405180910390fd5b601060009054906101000a900460ff16611bf1576040517f08c379a0000000000000000000000000000000000000000000000000000000008152600401611be890614a5d565b60405180910390fd5b611bfb6007612bac565b6000611c076007612864565b9050611c138282612bc2565b7f31675a36120d20190f451db2a87457c351f7c3d124c13b6c3bcbd21657172fc8334283611c4085611f4c565b604051611c509493929190614495565b60405180910390a15050565b611c646127a3565b73ffffffffffffffffffffffffffffffffffffffff16611c82611ce2565b73ffffffffffffffffffffffffffffffffffffffff1614611cd8576040517f08c379a0000000000000000000000000000000000000000000000000000000008152600401611ccf90614056565b60405180910390fd5b80600f8190555050565b6000600660009054906101000a900473ffffffffffffffffffffffffffffffffffffffff16905090565b606060018054611d1b90613e22565b80601f0160208091040260200160405190810160405280929190818152602001828054611d4790613e22565b8015611d945780601f10611d6957610100808354040283529160200191611d94565b820191906000526020600020905b815481529060010190602001808311611d7757829003601f168201915b5050505050905090565b600f5481565b611db6611daf6127a3565b8383612cbd565b5050565b611dc26127a3565b73ffffffffffffffffffffffffffffffffffffffff16611de0611ce2565b73ffffffffffffffffffffffffffffffffffffffff1614611e36576040517f08c379a0000000000000000000000000000000000000000000000000000000008152600401611e2d90614056565b60405180910390fd5b600073ffffffffffffffffffffffffffffffffffffffff168173ffffffffffffffffffffffffffffffffffffffff161415611ea6576040517f08c379a0000000000000000000000000000000000000000000000000000000008152600401611e9d90614ac9565b60405180910390fd5b80601360006101000a81548173ffffffffffffffffffffffffffffffffffffffff021916908373ffffffffffffffffffffffffffffffffffffffff16021790555050565b611efb611ef56127a3565b83612872565b611f3a576040517f08c379a0000000000000000000000000000000000000000000000000000000008152600401611f3190614154565b60405180910390fd5b611f4684848484612e2a565b50505050565b6060611f5782612737565b611f96576040517f08c379a0000000000000000000000000000000000000000000000000000000008152600401611f8d90614b5b565b60405180910390fd5b6000601460008481526020019081526020016000208054611fb690613e22565b80601f0160208091040260200160405190810160405280929190818152602001828054611fe290613e22565b801561202f5780601f106120045761010080835404028352916020019161202f565b820191906000526020600020905b81548152906001019060200180831161201257829003601f168201915b5050505050905060008151146120e35760146000848152602001908152602001600020805461205d90613e22565b80601f016020809104026020016040519081016040528092919081815260200182805461208990613e22565b80156120d65780601f106120ab576101008083540402835291602001916120d6565b820191906000526020600020905b8154815290600101906020018083116120b957829003601f168201915b50505050509150506121f5565b60006120ed612e86565b905060008151141561218d576016805461210690613e22565b80601f016020809104026020016040519081016040528092919081815260200182805461213290613e22565b801561217f5780601f106121545761010080835404028352916020019161217f565b820191906000526020600020905b81548152906001019060200180831161216257829003601f168201915b5050505050925050506121f5565b60006012548561219d91906143ad565b90506121a7610eb8565b8111156121c4576121b6610eb8565b816121c1919061464e565b90505b60156121cf82612e9d565b6040516020016121e0929190614c4b565b60405160208183030381529060405293505050505b919050565b60125481565b6122086127a3565b73ffffffffffffffffffffffffffffffffffffffff16612226611ce2565b73ffffffffffffffffffffffffffffffffffffffff161461227c576040517f08c379a000000000000000000000000000000000000000000000000000000000815260040161227390614056565b60405180910390fd5b601060019054906101000a900460ff1615601060016101000a81548160ff021916908315150217905550565b601580546122b590613e22565b80601f01602080910402602001604051908101604052809291908181526020018280546122e190613e22565b801561232e5780601f106123035761010080835404028352916020019161232e565b820191906000526020600020905b81548152906001019060200180831161231157829003601f168201915b505050505081565b61233e6127a3565b73ffffffffffffffffffffffffffffffffffffffff1661235c611ce2565b73ffffffffffffffffffffffffffffffffffffffff16146123b2576040517f08c379a00000000000000000000000000000000000000000000000000000000081526004016123a990614056565b60405180910390fd5b80601690805190602001906123c89291906134d1565b5050565b600d6020528060005260406000206000915054906101000a900460ff1681565b600b5481565b60115481565b6124006127a3565b73ffffffffffffffffffffffffffffffffffffffff1661241e611ce2565b73ffffffffffffffffffffffffffffffffffffffff1614612474576040517f08c379a000000000000000000000000000000000000000000000000000000000815260040161246b90614056565b60405180910390fd5b601060009054906101000a900460ff1615601060006101000a81548160ff021916908315150217905550565b6000600560008473ffffffffffffffffffffffffffffffffffffffff1673ffffffffffffffffffffffffffffffffffffffff16815260200190815260200160002060008373ffffffffffffffffffffffffffffffffffffffff1673ffffffffffffffffffffffffffffffffffffffff16815260200190815260200160002060009054906101000a900460ff16905092915050565b601060029054906101000a900460ff1681565b61254f6127a3565b73ffffffffffffffffffffffffffffffffffffffff1661256d611ce2565b73ffffffffffffffffffffffffffffffffffffffff16146125c3576040517f08c379a00000000000000000000000000000000000000000000000000000000081526004016125ba90614056565b60405180910390fd5b600073ffffffffffffffffffffffffffffffffffffffff168173ffffffffffffffffffffffffffffffffffffffff161415612633576040517f08c379a000000000000000000000000000000000000000000000000000000000815260040161262a90614ce1565b60405180910390fd5b61263c81612bf7565b50565b600a805461264c90613e22565b80601f016020809104026020016040519081016040528092919081815260200182805461267890613e22565b80156126c55780601f1061269a576101008083540402835291602001916126c5565b820191906000526020600020905b8154815290600101906020018083116126a857829003601f168201915b505050505081565b60007f01ffc9a7000000000000000000000000000000000000000000000000000000007bffffffffffffffffffffffffffffffffffffffffffffffffffffffff1916827bffffffffffffffffffffffffffffffffffffffffffffffffffffffff1916149050919050565b60008073ffffffffffffffffffffffffffffffffffffffff166002600084815260200190815260200160002060009054906101000a900473ffffffffffffffffffffffffffffffffffffffff1673ffffffffffffffffffffffffffffffffffffffff1614159050919050565b600033905090565b816004600083815260200190815260200160002060006101000a81548173ffffffffffffffffffffffffffffffffffffffff021916908373ffffffffffffffffffffffffffffffffffffffff160217905550808273ffffffffffffffffffffffffffffffffffffffff1661281e83611934565b73ffffffffffffffffffffffffffffffffffffffff167f8c5be1e5ebec7d5bd14f71427d1e84f3dd0314c0f7b2291e5b200ac8c7c3b92560405160405180910390a45050565b600081600001549050919050565b600061287d82612737565b6128bc576040517f08c379a00000000000000000000000000000000000000000000000000000000081526004016128b390614d73565b60405180910390fd5b60006128c783611934565b90508073ffffffffffffffffffffffffffffffffffffffff168473ffffffffffffffffffffffffffffffffffffffff16148061293657508373ffffffffffffffffffffffffffffffffffffffff1661291e84610b8b565b73ffffffffffffffffffffffffffffffffffffffff16145b80612947575061294681856124a0565b5b91505092915050565b8273ffffffffffffffffffffffffffffffffffffffff1661297082611934565b73ffffffffffffffffffffffffffffffffffffffff16146129c6576040517f08c379a00000000000000000000000000000000000000000000000000000000081526004016129bd90614e05565b60405180910390fd5b600073ffffffffffffffffffffffffffffffffffffffff168273ffffffffffffffffffffffffffffffffffffffff161415612a36576040517f08c379a0000000000000000000000000000000000000000000000000000000008152600401612a2d90614e97565b60405180910390fd5b612a4183838361301d565b612a4c6000826127ab565b6001600360008573ffffffffffffffffffffffffffffffffffffffff1673ffffffffffffffffffffffffffffffffffffffff1681526020019081526020016000206000828254612a9c919061464e565b925050819055506001600360008473ffffffffffffffffffffffffffffffffffffffff1673ffffffffffffffffffffffffffffffffffffffff1681526020019081526020016000206000828254612af391906143ad565b92505081905550816002600083815260200190815260200160002060006101000a81548173ffffffffffffffffffffffffffffffffffffffff021916908373ffffffffffffffffffffffffffffffffffffffff160217905550808273ffffffffffffffffffffffffffffffffffffffff168473ffffffffffffffffffffffffffffffffffffffff167fddf252ad1be2c89b69c2b068fc378daa952ba7f163c4a11628f55a4df523b3ef60405160405180910390a4505050565b6001816000016000828254019250508190555050565b612bdc828260405180602001604052806000815250613022565b5050565b600082612bed858461307d565b1490509392505050565b6000600660009054906101000a900473ffffffffffffffffffffffffffffffffffffffff16905081600660006101000a81548173ffffffffffffffffffffffffffffffffffffffff021916908373ffffffffffffffffffffffffffffffffffffffff1602179055508173ffffffffffffffffffffffffffffffffffffffff168173ffffffffffffffffffffffffffffffffffffffff167f8be0079c531659141344cd1fd0a4f28419497f9722a3daafe3b4186f6b6457e060405160405180910390a35050565b8173ffffffffffffffffffffffffffffffffffffffff168373ffffffffffffffffffffffffffffffffffffffff161415612d2c576040517f08c379a0000000000000000000000000000000000000000000000000000000008152600401612d2390614f03565b60405180910390fd5b80600560008573ffffffffffffffffffffffffffffffffffffffff1673ffffffffffffffffffffffffffffffffffffffff16815260200190815260200160002060008473ffffffffffffffffffffffffffffffffffffffff1673ffffffffffffffffffffffffffffffffffffffff16815260200190815260200160002060006101000a81548160ff0219169083151502179055508173ffffffffffffffffffffffffffffffffffffffff168373ffffffffffffffffffffffffffffffffffffffff167f17307eab39ab6107e8899845ad3d59bd9653f200f220920489ca2b5937696c3183604051612e1d9190613628565b60405180910390a3505050565b612e35848484612950565b612e4184848484613130565b612e80576040517f08c379a0000000000000000000000000000000000000000000000000000000008152600401612e7790614f95565b60405180910390fd5b50505050565b606060405180602001604052806000815250905090565b60606000821415612ee5576040518060400160405280600181526020017f30000000000000000000000000000000000000000000000000000000000000008152509050613018565b600082905060005b60008214612f17578080612f00906144e1565b915050600a82612f109190614fe4565b9150612eed565b60008167ffffffffffffffff811115612f3357612f3261385d565b5b6040519080825280601f01601f191660200182016040528015612f655781602001600182028036833780820191505090505b5090505b6000851461301157600182612f7e919061464e565b9150600a85612f8d9190615015565b6030612f9991906143ad565b7f010000000000000000000000000000000000000000000000000000000000000002818381518110612fce57612fcd615046565b5b60200101907effffffffffffffffffffffffffffffffffffffffffffffffffffffffffffff1916908160001a905350600a8561300a9190614fe4565b9450612f69565b8093505050505b919050565b505050565b61302c83836132f0565b6130396000848484613130565b613078576040517f08c379a000000000000000000000000000000000000000000000000000000000815260040161306f90614f95565b60405180910390fd5b505050565b60008082905060005b84518110156131255760008582815181106130a4576130a3615046565b5b602002602001015190508083116130e55782816040516020016130c8929190615096565b604051602081830303815290604052805190602001209250613111565b80836040516020016130f8929190615096565b6040516020818303038152906040528051906020012092505b50808061311d906144e1565b915050613086565b508091505092915050565b60006131518473ffffffffffffffffffffffffffffffffffffffff166134be565b156132e3578373ffffffffffffffffffffffffffffffffffffffff1663150b7a0261317a6127a3565b8786866040518563ffffffff167c01000000000000000000000000000000000000000000000000000000000281526004016131b89493929190615117565b6020604051808303816000875af19250505080156131f457506040513d601f19601f820116820180604052508101906131f19190615178565b60015b613277573d8060008114613224576040519150601f19603f3d011682016040523d82523d6000602084013e613229565b606091505b5060008151141561326f576040517f08c379a000000000000000000000000000000000000000000000000000000000815260040161326690614f95565b60405180910390fd5b805181602001fd5b63150b7a027c0100000000000000000000000000000000000000000000000000000000027bffffffffffffffffffffffffffffffffffffffffffffffffffffffff1916817bffffffffffffffffffffffffffffffffffffffffffffffffffffffff1916149150506132e8565b600190505b949350505050565b600073ffffffffffffffffffffffffffffffffffffffff168273ffffffffffffffffffffffffffffffffffffffff161415613360576040517f08c379a0000000000000000000000000000000000000000000000000000000008152600401613357906151f1565b60405180910390fd5b61336981612737565b156133a9576040517f08c379a00000000000000000000000000000000000000000000000000000000081526004016133a09061525d565b60405180910390fd5b6133b56000838361301d565b6001600360008473ffffffffffffffffffffffffffffffffffffffff1673ffffffffffffffffffffffffffffffffffffffff168152602001908152602001600020600082825461340591906143ad565b92505081905550816002600083815260200190815260200160002060006101000a81548173ffffffffffffffffffffffffffffffffffffffff021916908373ffffffffffffffffffffffffffffffffffffffff160217905550808273ffffffffffffffffffffffffffffffffffffffff16600073ffffffffffffffffffffffffffffffffffffffff167fddf252ad1be2c89b69c2b068fc378daa952ba7f163c4a11628f55a4df523b3ef60405160405180910390a45050565b600080823b905060008111915050919050565b8280546134dd90613e22565b90600052602060002090601f0160209004810192826134ff5760008555613546565b82601f1061351857805160ff1916838001178555613546565b82800160010185558215613546579182015b8281111561354557825182559160200191906001019061352a565b5b5090506135539190613557565b5090565b5b80821115613570576000816000905550600101613558565b5090565b6000604051905090565b600080fd5b600080fd5b60007fffffffff0000000000000000000000000000000000000000000000000000000082169050919050565b6135bd81613588565b81146135c857600080fd5b50565b6000813590506135da816135b4565b92915050565b6000602082840312156135f6576135f561357e565b5b6000613604848285016135cb565b91505092915050565b60008115159050919050565b6136228161360d565b82525050565b600060208201905061363d6000830184613619565b92915050565b600081519050919050565b600082825260208201905092915050565b60005b8381101561367d578082015181840152602081019050613662565b8381111561368c576000848401525b50505050565b6000601f19601f8301169050919050565b60006136ae82613643565b6136b8818561364e565b93506136c881856020860161365f565b6136d181613692565b840191505092915050565b600060208201905081810360008301526136f681846136a3565b905092915050565b6000819050919050565b613711816136fe565b811461371c57600080fd5b50565b60008135905061372e81613708565b92915050565b60006020828403121561374a5761374961357e565b5b60006137588482850161371f565b91505092915050565b600073ffffffffffffffffffffffffffffffffffffffff82169050919050565b600061378c82613761565b9050919050565b61379c81613781565b82525050565b60006020820190506137b76000830184613793565b92915050565b6137c681613781565b81146137d157600080fd5b50565b6000813590506137e3816137bd565b92915050565b60008060408385031215613800576137ff61357e565b5b600061380e858286016137d4565b925050602061381f8582860161371f565b9150509250929050565b613832816136fe565b82525050565b600060208201905061384d6000830184613829565b92915050565b600080fd5b600080fd5b7f4e487b7100000000000000000000000000000000000000000000000000000000600052604160045260246000fd5b61389582613692565b810181811067ffffffffffffffff821117156138b4576138b361385d565b5b80604052505050565b60006138c7613574565b90506138d3828261388c565b919050565b600067ffffffffffffffff8211156138f3576138f261385d565b5b6138fc82613692565b9050602081019050919050565b82818337600083830152505050565b600061392b613926846138d8565b6138bd565b90508281526020810184848401111561394757613946613858565b5b613952848285613909565b509392505050565b600082601f83011261396f5761396e613853565b5b813561397f848260208601613918565b91505092915050565b60006020828403121561399e5761399d61357e565b5b600082013567ffffffffffffffff8111156139bc576139bb613583565b5b6139c88482850161395a565b91505092915050565b600080604083850312156139e8576139e761357e565b5b60006139f68582860161371f565b925050602083013567ffffffffffffffff811115613a1757613a16613583565b5b613a238582860161395a565b9150509250929050565b600080600060608486031215613a4657613a4561357e565b5b6000613a54868287016137d4565b9350506020613a65868287016137d4565b9250506040613a768682870161371f565b9150509250925092565b6000819050919050565b613a9381613a80565b82525050565b6000602082019050613aae6000830184613a8a565b92915050565b600080fd5b600080fd5b60008083601f840112613ad457613ad3613853565b5b8235905067ffffffffffffffff811115613af157613af0613ab4565b5b602083019150836020820283011115613b0d57613b0c613ab9565b5b9250929050565b60008060208385031215613b2b57613b2a61357e565b5b600083013567ffffffffffffffff811115613b4957613b48613583565b5b613b5585828601613abe565b92509250509250929050565b6000613b6c82613761565b9050919050565b613b7c81613b61565b82525050565b6000602082019050613b976000830184613b73565b92915050565b600060208284031215613bb357613bb261357e565b5b6000613bc1848285016137d4565b91505092915050565b613bd38161360d565b8114613bde57600080fd5b50565b600081359050613bf081613bca565b92915050565b60008060408385031215613c0d57613c0c61357e565b5b6000613c1b858286016137d4565b9250506020613c2c85828601613be1565b9150509250929050565b613c3f81613b61565b8114613c4a57600080fd5b50565b600081359050613c5c81613c36565b92915050565b600060208284031215613c7857613c7761357e565b5b6000613c8684828501613c4d565b91505092915050565b600067ffffffffffffffff821115613caa57613ca961385d565b5b613cb382613692565b9050602081019050919050565b6000613cd3613cce84613c8f565b6138bd565b905082815260208101848484011115613cef57613cee613858565b5b613cfa848285613909565b509392505050565b600082601f830112613d1757613d16613853565b5b8135613d27848260208601613cc0565b91505092915050565b60008060008060808587031215613d4a57613d4961357e565b5b6000613d58878288016137d4565b9450506020613d69878288016137d4565b9350506040613d7a8782880161371f565b925050606085013567ffffffffffffffff811115613d9b57613d9a613583565b5b613da787828801613d02565b91505092959194509250565b60008060408385031215613dca57613dc961357e565b5b6000613dd8858286016137d4565b9250506020613de9858286016137d4565b9150509250929050565b7f4e487b7100000000000000000000000000000000000000000000000000000000600052602260045260246000fd5b60006002820490506001821680613e3a57607f821691505b60208210811415613e4e57613e4d613df3565b5b50919050565b7f4552433732313a20617070726f76656420717565727920666f72206e6f6e657860008201527f697374656e7420746f6b656e0000000000000000000000000000000000000000602082015250565b6000613eb0602c8361364e565b9150613ebb82613e54565b604082019050919050565b60006020820190508181036000830152613edf81613ea3565b9050919050565b7f4552433732313a20617070726f76616c20746f2063757272656e74206f776e6560008201527f7200000000000000000000000000000000000000000000000000000000000000602082015250565b6000613f4260218361364e565b9150613f4d82613ee6565b604082019050919050565b60006020820190508181036000830152613f7181613f35565b9050919050565b7f4552433732313a20617070726f76652063616c6c6572206973206e6f74206f7760008201527f6e6572206e6f7220617070726f76656420666f7220616c6c0000000000000000602082015250565b6000613fd460388361364e565b9150613fdf82613f78565b604082019050919050565b6000602082019050818103600083015261400381613fc7565b9050919050565b7f4f776e61626c653a2063616c6c6572206973206e6f7420746865206f776e6572600082015250565b600061404060208361364e565b915061404b8261400a565b602082019050919050565b6000602082019050818103600083015261406f81614033565b9050919050565b7f50726f76656e616e6365206861736820616c7265616479206265656e20736574600082015250565b60006140ac60208361364e565b91506140b782614076565b602082019050919050565b600060208201905081810360008301526140db8161409f565b9050919050565b7f4552433732313a207472616e736665722063616c6c6572206973206e6f74206f60008201527f776e6572206e6f7220617070726f766564000000000000000000000000000000602082015250565b600061413e60318361364e565b9150614149826140e2565b604082019050919050565b6000602082019050818103600083015261416d81614131565b9050919050565b7f4e4654207072696365206e6f7420736574207965740000000000000000000000600082015250565b60006141aa60158361364e565b91506141b582614174565b602082019050919050565b600060208201905081810360008301526141d98161419d565b9050919050565b7f54726561737572792061646472657373206e6f74207365742079657400000000600082015250565b6000614216601c8361364e565b9150614221826141e0565b602082019050919050565b6000602082019050818103600083015261424581614209565b9050919050565b7f53616c65206d7573742062652061637469766520746f206d696e74206e667400600082015250565b6000614282601f8361364e565b915061428d8261424c565b602082019050919050565b600060208201905081810360008301526142b181614275565b9050919050565b7f4e487b7100000000000000000000000000000000000000000000000000000000600052601160045260246000fd5b60006142f2826136fe565b91506142fd836136fe565b9250817fffffffffffffffffffffffffffffffffffffffffffffffffffffffffffffffff0483118215151615614336576143356142b8565b5b828202905092915050565b7f4e6f7420656e6f7567682062616c616e63650000000000000000000000000000600082015250565b600061437760128361364e565b915061438282614341565b602082019050919050565b600060208201905081810360008301526143a68161436a565b9050919050565b60006143b8826136fe565b91506143c3836136fe565b9250827fffffffffffffffffffffffffffffffffffffffffffffffffffffffffffffffff038211156143f8576143f76142b8565b5b828201905092915050565b7f507572636861736520776f756c6420657863656564206d617820737570706c7960008201527f206f66204e465473000000000000000000000000000000000000000000000000602082015250565b600061445f60288361364e565b915061446a82614403565b604082019050919050565b6000602082019050818103600083015261448e81614452565b9050919050565b60006080820190506144aa6000830187613793565b6144b76020830186613829565b6144c46040830185613829565b81810360608301526144d681846136a3565b905095945050505050565b60006144ec826136fe565b91507fffffffffffffffffffffffffffffffffffffffffffffffffffffffffffffffff82141561451f5761451e6142b8565b5b600182019050919050565b7f57686974656c6973742073616c65206973206e6f74206163746976652079657460008201527f2e00000000000000000000000000000000000000000000000000000000000000602082015250565b600061458660218361364e565b91506145918261452a565b604082019050919050565b600060208201905081810360008301526145b581614579565b9050919050565b7f4d6178206e756d626572206f662061646472657373657320666f72207768697460008201527f656c697374206e6f742073657420796574000000000000000000000000000000602082015250565b600061461860318361364e565b9150614623826145bc565b604082019050919050565b600060208201905081810360008301526146478161460b565b9050919050565b6000614659826136fe565b9150614664836136fe565b925082821015614677576146766142b8565b5b828203905092915050565b7f507572636861736520776f756c6420657863656564206d617820737570706c7960008201527f206f66204e46547320666f722077686974656c69737400000000000000000000602082015250565b60006146de60368361364e565b91506146e982614682565b604082019050919050565b6000602082019050818103600083015261470d816146d1565b9050919050565b7f416464726573732068617320616c726561647920636c61696d65640000000000600082015250565b600061474a601b8361364e565b915061475582614714565b602082019050919050565b600060208201905081810360008301526147798161473d565b9050919050565b7f4d65726b6c6520526f6f74206e6f7420646566696e6564207965740000000000600082015250565b60006147b6601b8361364e565b91506147c182614780565b602082019050919050565b600060208201905081810360008301526147e5816147a9565b9050919050565b60006c0100000000000000000000000082029050919050565b6000614810826147ec565b9050919050565b600061482282614805565b9050919050565b61483a61483582613781565b614817565b82525050565b600061484c8284614829565b60148201915081905092915050565b7f496e76616c69642050726f6f6600000000000000000000000000000000000000600082015250565b6000614891600d8361364e565b915061489c8261485b565b602082019050919050565b600060208201905081810360008301526148c081614884565b9050919050565b7f4552433732313a206f776e657220717565727920666f72206e6f6e657869737460008201527f656e7420746f6b656e0000000000000000000000000000000000000000000000602082015250565b600061492360298361364e565b915061492e826148c7565b604082019050919050565b6000602082019050818103600083015261495281614916565b9050919050565b7f4552433732313a2062616c616e636520717565727920666f7220746865207a6560008201527f726f206164647265737300000000000000000000000000000000000000000000602082015250565b60006149b5602a8361364e565b91506149c082614959565b604082019050919050565b600060208201905081810360008301526149e4816149a8565b9050919050565b7f5072656d696e742073616c65206d7573742062652061637469766520746f206d60008201527f696e74206e667400000000000000000000000000000000000000000000000000602082015250565b6000614a4760278361364e565b9150614a52826149eb565b604082019050919050565b60006020820190508181036000830152614a7681614a3a565b9050919050565b7f63616e6e6f742062652061207a65726f20616464726573730000000000000000600082015250565b6000614ab360188361364e565b9150614abe82614a7d565b602082019050919050565b60006020820190508181036000830152614ae281614aa6565b9050919050565b7f4552433732314d657461646174613a2055524920717565727920666f72206e6f60008201527f6e6578697374656e7420746f6b656e0000000000000000000000000000000000602082015250565b6000614b45602f8361364e565b9150614b5082614ae9565b604082019050919050565b60006020820190508181036000830152614b7481614b38565b9050919050565b600081905092915050565b60008190508160005260206000209050919050565b60008154614ba881613e22565b614bb28186614b7b565b94506001821660008114614bcd5760018114614bde57614c11565b60ff19831686528186019350614c11565b614be785614b86565b60005b83811015614c0957815481890152600182019150602081019050614bea565b838801955050505b50505092915050565b6000614c2582613643565b614c2f8185614b7b565b9350614c3f81856020860161365f565b80840191505092915050565b6000614c578285614b9b565b9150614c638284614c1a565b91508190509392505050565b7f4f776e61626c653a206e6577206f776e657220697320746865207a65726f206160008201527f6464726573730000000000000000000000000000000000000000000000000000602082015250565b6000614ccb60268361364e565b9150614cd682614c6f565b604082019050919050565b60006020820190508181036000830152614cfa81614cbe565b9050919050565b7f4552433732313a206f70657261746f7220717565727920666f72206e6f6e657860008201527f697374656e7420746f6b656e0000000000000000000000000000000000000000602082015250565b6000614d5d602c8361364e565b9150614d6882614d01565b604082019050919050565b60006020820190508181036000830152614d8c81614d50565b9050919050565b7f4552433732313a207472616e73666572206f6620746f6b656e2074686174206960008201527f73206e6f74206f776e0000000000000000000000000000000000000000000000602082015250565b6000614def60298361364e565b9150614dfa82614d93565b604082019050919050565b60006020820190508181036000830152614e1e81614de2565b9050919050565b7f4552433732313a207472616e7366657220746f20746865207a65726f2061646460008201527f7265737300000000000000000000000000000000000000000000000000000000602082015250565b6000614e8160248361364e565b9150614e8c82614e25565b604082019050919050565b60006020820190508181036000830152614eb081614e74565b9050919050565b7f4552433732313a20617070726f766520746f2063616c6c657200000000000000600082015250565b6000614eed60198361364e565b9150614ef882614eb7565b602082019050919050565b60006020820190508181036000830152614f1c81614ee0565b9050919050565b7f4552433732313a207472616e7366657220746f206e6f6e20455243373231526560008201527f63656976657220696d706c656d656e7465720000000000000000000000000000602082015250565b6000614f7f60328361364e565b9150614f8a82614f23565b604082019050919050565b60006020820190508181036000830152614fae81614f72565b9050919050565b7f4e487b7100000000000000000000000000000000000000000000000000000000600052601260045260246000fd5b6000614fef826136fe565b9150614ffa836136fe565b92508261500a57615009614fb5565b5b828204905092915050565b6000615020826136fe565b915061502b836136fe565b92508261503b5761503a614fb5565b5b828206905092915050565b7f4e487b7100000000000000000000000000000000000000000000000000000000600052603260045260246000fd5b6000819050919050565b61509061508b82613a80565b615075565b82525050565b60006150a2828561507f565b6020820191506150b2828461507f565b6020820191508190509392505050565b600081519050919050565b600082825260208201905092915050565b60006150e9826150c2565b6150f381856150cd565b935061510381856020860161365f565b61510c81613692565b840191505092915050565b600060808201905061512c6000830187613793565b6151396020830186613793565b6151466040830185613829565b818103606083015261515881846150de565b905095945050505050565b600081519050615172816135b4565b92915050565b60006020828403121561518e5761518d61357e565b5b600061519c84828501615163565b91505092915050565b7f4552433732313a206d696e7420746f20746865207a65726f2061646472657373600082015250565b60006151db60208361364e565b91506151e6826151a5565b602082019050919050565b6000602082019050818103600083015261520a816151ce565b9050919050565b7f4552433732313a20746f6b656e20616c7265616479206d696e74656400000000600082015250565b6000615247601c8361364e565b915061525282615211565b602082019050919050565b600060208201905081810360008301526152768161523a565b905091905056fea2646970667358221220787f72b31cf122acd7525db5ba4db7db37d1adf36e0a9ea11b07983bf79b95f664736f6c634300080a0033697066733a2f2f516d5a596b70446669724c4857714e6e39666b5071796442386471426838333678626b4e66704b754c4a5335366d",
  "immutableReferences": {},
  "source": "// SPDX-License-Identifier: MIT\r\n\r\n/**\r\n * @title CloserLookNFT\r\n * @author Saad Sarwar\r\n */\r\n\r\n\r\npragma solidity ^0.8.4;\r\nimport 'openzeppelin-solidity/contracts/token/ERC20/ERC20.sol';\r\nimport \"openzeppelin-solidity/contracts/token/ERC721/ERC721.sol\";\r\nimport \"openzeppelin-solidity/contracts/utils/math/SafeMath.sol\";\r\nimport \"openzeppelin-solidity/contracts/access/Ownable.sol\";\r\nimport \"openzeppelin-solidity/contracts/utils/Counters.sol\";\r\nimport \"openzeppelin-solidity/contracts/utils/cryptography/MerkleProof.sol\";\r\n\r\ncontract CloserLookNFT is ERC721, Ownable {\r\n    //    using SafeMath for uint256;\r\n    using Strings for uint256;\r\n    using Counters for Counters.Counter;\r\n    Counters.Counter private _tokenIds;\r\n\r\n    uint256 public nftPrice;\r\n    bool isNftPriceSet = false;\r\n\r\n    string public PROVENANCE_HASH = \"\";\r\n\r\n    uint256 public PROVENANCE_HASH_TIMESTAMP; // time when provenance hash was set\r\n\r\n    bytes32 public merkleRoot;\r\n\r\n    mapping(address => bool) public whitelistClaimed;\r\n\r\n    uint256 public MAX_SUPPLY; // max supply of nfts\r\n\r\n    uint public MAX_WHITELIST;\r\n\r\n    bool public preMintActive = false; // for private premint sale\r\n\r\n    bool public whiteListActive = false; // for white listed addressess sale\r\n\r\n    bool public saleIsActive = false; // to control public sale\r\n\r\n    uint256 public startingIndexBlock;\r\n\r\n    uint256 public startingIndex;\r\n\r\n    address payable public treasury;\r\n\r\n    // Optional mapping for token URIs\r\n    mapping(uint256 => string) private _tokenURIs;\r\n\r\n    // Token URI\r\n    string public baseTokenURI;\r\n\r\n    // default URI , before revealing the images or when baseURI is not set\r\n    string public defaultURI = \"ipfs://QmZYkpDfirLHWqNn9fkPqydB8dqBh836xbkNfpKuLJS56m\";\r\n\r\n    event NftMinted(address to, uint date, uint tokenId, string tokenURI); // Used to generate NFT data on external decentralized storage service\r\n\r\n    constructor(uint256 maxNftSupply, address payable _treasury) ERC721(\"CloserLookNFT\", \"CLK\") {\r\n        MAX_SUPPLY = maxNftSupply;\r\n        treasury = _treasury;\r\n    }\r\n\r\n    function setDefaultURI(string memory _defaultURI) public onlyOwner() {\r\n        defaultURI = _defaultURI;\r\n    }\r\n\r\n    function setMaxWhitelist(uint max) public onlyOwner() {\r\n        MAX_WHITELIST = max;\r\n    }\r\n\r\n    function setProvenanceHash(string memory provenanceHash) public onlyOwner() {\r\n        require(PROVENANCE_HASH_TIMESTAMP == 0, \"Provenance hash already been set\");\r\n        PROVENANCE_HASH_TIMESTAMP = block.timestamp;\r\n        PROVENANCE_HASH = provenanceHash;\r\n    }\r\n\r\n    function setSalePrice(uint price) public onlyOwner() {\r\n        nftPrice = price;\r\n        isNftPriceSet = true;\r\n    }\r\n\r\n    function changeTreasuryAddress(address payable _newTreasuryAddress) public onlyOwner() {\r\n        require(_newTreasuryAddress != address(0), \"cannot be a zero address\");\r\n        treasury = _newTreasuryAddress;\r\n    }\r\n\r\n    function setBaseURI(string memory _newBaseURI) public onlyOwner() {\r\n        baseTokenURI = _newBaseURI;\r\n    }\r\n\r\n    function setTokenURI(uint tokenID, string memory uri) public onlyOwner() {\r\n        _tokenURIs[tokenID] = uri;\r\n    }\r\n\r\n    function tokenURI(uint256 tokenId) public view virtual override returns (string memory) {\r\n        require(_exists(tokenId), \"ERC721Metadata: URI query for nonexistent token\");\r\n\r\n        // if token uri is set manually, for first 10 tokens\r\n        bytes memory tokenURIString = bytes(_tokenURIs[tokenId]);\r\n        if (tokenURIString.length != 0) {\r\n            return _tokenURIs[tokenId];\r\n        }\r\n\r\n        // return default hidden address if base URI is not set yet.\r\n        bytes memory baseUriTest = bytes(_baseURI());\r\n        if (baseUriTest.length == 0) {\r\n            return defaultURI;\r\n        }\r\n\r\n        uint256 newTokenID = tokenId + startingIndex;\r\n        if (newTokenID > totalSupply()) {\r\n            newTokenID = newTokenID - totalSupply();\r\n        }\r\n        return string(abi.encodePacked(baseTokenURI, newTokenID.toString()));\r\n\r\n    }\r\n\r\n    function totalSupply() public view returns (uint256) {\r\n        return _tokenIds.current();\r\n    }\r\n\r\n    /*\r\n    * for public sale\r\n    */\r\n    function flipSaleState() public onlyOwner {\r\n        saleIsActive = !saleIsActive;\r\n    }\r\n\r\n    /*\r\n    * for premint private sale\r\n    */\r\n    function flipPremintSaleState() public onlyOwner {\r\n        preMintActive = !preMintActive;\r\n    }\r\n\r\n    /*\r\n    * for whitelist sale\r\n    */\r\n    function flipWhitelistSaleState() public onlyOwner {\r\n        whiteListActive = !whiteListActive;\r\n    }\r\n\r\n    function whitelistMint(bytes32[] calldata _merkleProof) public payable {\r\n        require(whiteListActive, \"Whitelist sale is not active yet.\");\r\n        require(isNftPriceSet, \"NFT price not set yet\");\r\n        require(MAX_WHITELIST != 0, \"Max number of addresses for whitelist not set yet\");\r\n        require((totalSupply() - 10) <= MAX_WHITELIST, \"Purchase would exceed max supply of NFTs for whitelist\");\r\n        require(msg.value >= nftPrice, \"Not enough balance\");\r\n        require(!whitelistClaimed[msg.sender], \"Address has already claimed\");\r\n        require(merkleRoot.length > 0, \"Merkle Root not defined yet\");\r\n        bytes32 leaf = keccak256(abi.encodePacked(msg.sender));\r\n        require(MerkleProof.verify(_merkleProof, merkleRoot, leaf), \"Invalid Proof\");\r\n        whitelistClaimed[msg.sender] = true;\r\n        treasury.transfer(msg.value);\r\n        _tokenIds.increment();\r\n        uint256 newNftId = _tokenIds.current();\r\n        _safeMint(msg.sender, newNftId);\r\n        emit NftMinted(msg.sender, block.timestamp, newNftId, tokenURI(newNftId));\r\n    }\r\n\r\n    // the default mint function for public sale\r\n    function publicMint(uint nftsToMint) public payable {\r\n        require(isNftPriceSet, \"NFT price not set yet\");\r\n        require(treasury != address(0), \"Treasury address not set yet\");\r\n        require(saleIsActive, \"Sale must be active to mint nft\");\r\n        require(msg.value >= nftPrice * nftsToMint, \"Not enough balance\");\r\n        treasury.transfer(msg.value);\r\n        for (uint index = 0; index < nftsToMint; index++) {\r\n            require((totalSupply() + 1) <= MAX_SUPPLY, \"Purchase would exceed max supply of NFTs\");\r\n            _tokenIds.increment();\r\n            uint256 newNftId = _tokenIds.current();\r\n            _safeMint(msg.sender, newNftId);\r\n            emit NftMinted(msg.sender, block.timestamp, newNftId, tokenURI(newNftId));\r\n            if (_tokenIds.current() == MAX_SUPPLY) {\r\n                startingIndexBlock = block.number;\r\n                break;\r\n            }\r\n        }\r\n    }\r\n\r\n    // mint for function to mint an nft for a given address, for private premint sale\r\n    function mintFor(address _to) public onlyOwner() {\r\n        require(preMintActive, \"Premint sale must be active to mint nft\");\r\n        _tokenIds.increment();\r\n        uint256 newNftId = _tokenIds.current();\r\n        _safeMint(_to, newNftId);\r\n        emit NftMinted(msg.sender, block.timestamp, newNftId, tokenURI(newNftId));\r\n    }\r\n\r\n}",
  "sourcePath": "D:\\closerLooks\\contracts\\closer-looks-contracts\\contracts\\CloserLookNFTs.sol",
  "compiler": {
    "name": "solc",
    "version": "0.8.10+commit.fc410830.Emscripten.clang"
  },
  "schemaVersion": "3.4.5",
  "updatedAt": "2022-03-09T13:42:38.679Z",
  "networkType": "ethereum",
  "devdoc": {
    "kind": "dev",
    "methods": {
      "approve(address,uint256)": {
        "details": "See {IERC721-approve}."
      },
      "balanceOf(address)": {
        "details": "See {IERC721-balanceOf}."
      },
      "getApproved(uint256)": {
        "details": "See {IERC721-getApproved}."
      },
      "isApprovedForAll(address,address)": {
        "details": "See {IERC721-isApprovedForAll}."
      },
      "name()": {
        "details": "See {IERC721Metadata-name}."
      },
      "owner()": {
        "details": "Returns the address of the current owner."
      },
      "ownerOf(uint256)": {
        "details": "See {IERC721-ownerOf}."
      },
      "renounceOwnership()": {
        "details": "Leaves the contract without owner. It will not be possible to call `onlyOwner` functions anymore. Can only be called by the current owner. NOTE: Renouncing ownership will leave the contract without an owner, thereby removing any functionality that is only available to the owner."
      },
      "safeTransferFrom(address,address,uint256)": {
        "details": "See {IERC721-safeTransferFrom}."
      },
      "safeTransferFrom(address,address,uint256,bytes)": {
        "details": "See {IERC721-safeTransferFrom}."
      },
      "setApprovalForAll(address,bool)": {
        "details": "See {IERC721-setApprovalForAll}."
      },
      "supportsInterface(bytes4)": {
        "details": "See {IERC165-supportsInterface}."
      },
      "symbol()": {
        "details": "See {IERC721Metadata-symbol}."
      },
      "tokenURI(uint256)": {
        "details": "See {IERC721Metadata-tokenURI}."
      },
      "transferFrom(address,address,uint256)": {
        "details": "See {IERC721-transferFrom}."
      },
      "transferOwnership(address)": {
        "details": "Transfers ownership of the contract to a new account (`newOwner`). Can only be called by the current owner."
      }
    },
    "version": 1
  },
  "userdoc": {
    "kind": "user",
    "methods": {},
    "version": 1
  }
}