{
  "contractName": "GeksWorldNFT",
  "abi": [
    {
      "inputs": [
        {
          "internalType": "uint256",
          "name": "maxNftSupply",
          "type": "uint256"
        },
        {
          "internalType": "address payable",
          "name": "_treasury",
          "type": "address"
        }
      ],
      "stateMutability": "nonpayable",
      "type": "constructor"
    },
    {
      "anonymous": false,
      "inputs": [
        {
          "indexed": true,
          "internalType": "address",
          "name": "owner",
          "type": "address"
        },
        {
          "indexed": true,
          "internalType": "address",
          "name": "approved",
          "type": "address"
        },
        {
          "indexed": true,
          "internalType": "uint256",
          "name": "tokenId",
          "type": "uint256"
        }
      ],
      "name": "Approval",
      "type": "event"
    },
    {
      "anonymous": false,
      "inputs": [
        {
          "indexed": true,
          "internalType": "address",
          "name": "owner",
          "type": "address"
        },
        {
          "indexed": true,
          "internalType": "address",
          "name": "operator",
          "type": "address"
        },
        {
          "indexed": false,
          "internalType": "bool",
          "name": "approved",
          "type": "bool"
        }
      ],
      "name": "ApprovalForAll",
      "type": "event"
    },
    {
      "anonymous": false,
      "inputs": [
        {
          "indexed": false,
          "internalType": "address",
          "name": "to",
          "type": "address"
        },
        {
          "indexed": false,
          "internalType": "uint256",
          "name": "date",
          "type": "uint256"
        },
        {
          "indexed": false,
          "internalType": "uint256",
          "name": "tokenId",
          "type": "uint256"
        },
        {
          "indexed": false,
          "internalType": "string",
          "name": "tokenURI",
          "type": "string"
        }
      ],
      "name": "NftMinted",
      "type": "event"
    },
    {
      "anonymous": false,
      "inputs": [
        {
          "indexed": true,
          "internalType": "address",
          "name": "previousOwner",
          "type": "address"
        },
        {
          "indexed": true,
          "internalType": "address",
          "name": "newOwner",
          "type": "address"
        }
      ],
      "name": "OwnershipTransferred",
      "type": "event"
    },
    {
      "anonymous": false,
      "inputs": [
        {
          "indexed": true,
          "internalType": "address",
          "name": "from",
          "type": "address"
        },
        {
          "indexed": true,
          "internalType": "address",
          "name": "to",
          "type": "address"
        },
        {
          "indexed": true,
          "internalType": "uint256",
          "name": "tokenId",
          "type": "uint256"
        }
      ],
      "name": "Transfer",
      "type": "event"
    },
    {
      "inputs": [],
      "name": "GEK_PROVENANCE",
      "outputs": [
        {
          "internalType": "string",
          "name": "",
          "type": "string"
        }
      ],
      "stateMutability": "view",
      "type": "function"
    },
    {
      "inputs": [],
      "name": "MAX_SUPPLY",
      "outputs": [
        {
          "internalType": "uint256",
          "name": "",
          "type": "uint256"
        }
      ],
      "stateMutability": "view",
      "type": "function"
    },
    {
      "inputs": [],
      "name": "MAX_WHITELIST",
      "outputs": [
        {
          "internalType": "uint256",
          "name": "",
          "type": "uint256"
        }
      ],
      "stateMutability": "view",
      "type": "function"
    },
    {
      "inputs": [],
      "name": "PROVENANCE_HASH_TIMESTAMP",
      "outputs": [
        {
          "internalType": "uint256",
          "name": "",
          "type": "uint256"
        }
      ],
      "stateMutability": "view",
      "type": "function"
    },
    {
      "inputs": [
        {
          "internalType": "address",
          "name": "to",
          "type": "address"
        },
        {
          "internalType": "uint256",
          "name": "tokenId",
          "type": "uint256"
        }
      ],
      "name": "approve",
      "outputs": [],
      "stateMutability": "nonpayable",
      "type": "function"
    },
    {
      "inputs": [
        {
          "internalType": "address",
          "name": "owner",
          "type": "address"
        }
      ],
      "name": "balanceOf",
      "outputs": [
        {
          "internalType": "uint256",
          "name": "",
          "type": "uint256"
        }
      ],
      "stateMutability": "view",
      "type": "function"
    },
    {
      "inputs": [],
      "name": "baseTokenURI",
      "outputs": [
        {
          "internalType": "string",
          "name": "",
          "type": "string"
        }
      ],
      "stateMutability": "view",
      "type": "function"
    },
    {
      "inputs": [],
      "name": "defaultURI",
      "outputs": [
        {
          "internalType": "string",
          "name": "",
          "type": "string"
        }
      ],
      "stateMutability": "view",
      "type": "function"
    },
    {
      "inputs": [
        {
          "internalType": "uint256",
          "name": "tokenId",
          "type": "uint256"
        }
      ],
      "name": "getApproved",
      "outputs": [
        {
          "internalType": "address",
          "name": "",
          "type": "address"
        }
      ],
      "stateMutability": "view",
      "type": "function"
    },
    {
      "inputs": [
        {
          "internalType": "address",
          "name": "owner",
          "type": "address"
        },
        {
          "internalType": "address",
          "name": "operator",
          "type": "address"
        }
      ],
      "name": "isApprovedForAll",
      "outputs": [
        {
          "internalType": "bool",
          "name": "",
          "type": "bool"
        }
      ],
      "stateMutability": "view",
      "type": "function"
    },
    {
      "inputs": [],
      "name": "merkleRoot",
      "outputs": [
        {
          "internalType": "bytes32",
          "name": "",
          "type": "bytes32"
        }
      ],
      "stateMutability": "view",
      "type": "function"
    },
    {
      "inputs": [],
      "name": "name",
      "outputs": [
        {
          "internalType": "string",
          "name": "",
          "type": "string"
        }
      ],
      "stateMutability": "view",
      "type": "function"
    },
    {
      "inputs": [],
      "name": "nftPrice",
      "outputs": [
        {
          "internalType": "uint256",
          "name": "",
          "type": "uint256"
        }
      ],
      "stateMutability": "view",
      "type": "function"
    },
    {
      "inputs": [],
      "name": "owner",
      "outputs": [
        {
          "internalType": "address",
          "name": "",
          "type": "address"
        }
      ],
      "stateMutability": "view",
      "type": "function"
    },
    {
      "inputs": [
        {
          "internalType": "uint256",
          "name": "tokenId",
          "type": "uint256"
        }
      ],
      "name": "ownerOf",
      "outputs": [
        {
          "internalType": "address",
          "name": "",
          "type": "address"
        }
      ],
      "stateMutability": "view",
      "type": "function"
    },
    {
      "inputs": [],
      "name": "preMintActive",
      "outputs": [
        {
          "internalType": "bool",
          "name": "",
          "type": "bool"
        }
      ],
      "stateMutability": "view",
      "type": "function"
    },
    {
      "inputs": [],
      "name": "renounceOwnership",
      "outputs": [],
      "stateMutability": "nonpayable",
      "type": "function"
    },
    {
      "inputs": [
        {
          "internalType": "address",
          "name": "from",
          "type": "address"
        },
        {
          "internalType": "address",
          "name": "to",
          "type": "address"
        },
        {
          "internalType": "uint256",
          "name": "tokenId",
          "type": "uint256"
        }
      ],
      "name": "safeTransferFrom",
      "outputs": [],
      "stateMutability": "nonpayable",
      "type": "function"
    },
    {
      "inputs": [
        {
          "internalType": "address",
          "name": "from",
          "type": "address"
        },
        {
          "internalType": "address",
          "name": "to",
          "type": "address"
        },
        {
          "internalType": "uint256",
          "name": "tokenId",
          "type": "uint256"
        },
        {
          "internalType": "bytes",
          "name": "_data",
          "type": "bytes"
        }
      ],
      "name": "safeTransferFrom",
      "outputs": [],
      "stateMutability": "nonpayable",
      "type": "function"
    },
    {
      "inputs": [],
      "name": "saleIsActive",
      "outputs": [
        {
          "internalType": "bool",
          "name": "",
          "type": "bool"
        }
      ],
      "stateMutability": "view",
      "type": "function"
    },
    {
      "inputs": [
        {
          "internalType": "address",
          "name": "operator",
          "type": "address"
        },
        {
          "internalType": "bool",
          "name": "approved",
          "type": "bool"
        }
      ],
      "name": "setApprovalForAll",
      "outputs": [],
      "stateMutability": "nonpayable",
      "type": "function"
    },
    {
      "inputs": [],
      "name": "startingIndex",
      "outputs": [
        {
          "internalType": "uint256",
          "name": "",
          "type": "uint256"
        }
      ],
      "stateMutability": "view",
      "type": "function"
    },
    {
      "inputs": [],
      "name": "startingIndexBlock",
      "outputs": [
        {
          "internalType": "uint256",
          "name": "",
          "type": "uint256"
        }
      ],
      "stateMutability": "view",
      "type": "function"
    },
    {
      "inputs": [
        {
          "internalType": "bytes4",
          "name": "interfaceId",
          "type": "bytes4"
        }
      ],
      "name": "supportsInterface",
      "outputs": [
        {
          "internalType": "bool",
          "name": "",
          "type": "bool"
        }
      ],
      "stateMutability": "view",
      "type": "function"
    },
    {
      "inputs": [],
      "name": "symbol",
      "outputs": [
        {
          "internalType": "string",
          "name": "",
          "type": "string"
        }
      ],
      "stateMutability": "view",
      "type": "function"
    },
    {
      "inputs": [
        {
          "internalType": "address",
          "name": "from",
          "type": "address"
        },
        {
          "internalType": "address",
          "name": "to",
          "type": "address"
        },
        {
          "internalType": "uint256",
          "name": "tokenId",
          "type": "uint256"
        }
      ],
      "name": "transferFrom",
      "outputs": [],
      "stateMutability": "nonpayable",
      "type": "function"
    },
    {
      "inputs": [
        {
          "internalType": "address",
          "name": "newOwner",
          "type": "address"
        }
      ],
      "name": "transferOwnership",
      "outputs": [],
      "stateMutability": "nonpayable",
      "type": "function"
    },
    {
      "inputs": [],
      "name": "treasury",
      "outputs": [
        {
          "internalType": "address payable",
          "name": "",
          "type": "address"
        }
      ],
      "stateMutability": "view",
      "type": "function"
    },
    {
      "inputs": [],
      "name": "whiteListActive",
      "outputs": [
        {
          "internalType": "bool",
          "name": "",
          "type": "bool"
        }
      ],
      "stateMutability": "view",
      "type": "function"
    },
    {
      "inputs": [
        {
          "internalType": "address",
          "name": "",
          "type": "address"
        }
      ],
      "name": "whitelistClaimed",
      "outputs": [
        {
          "internalType": "bool",
          "name": "",
          "type": "bool"
        }
      ],
      "stateMutability": "view",
      "type": "function"
    },
    {
      "inputs": [
        {
          "internalType": "string",
          "name": "_defaultURI",
          "type": "string"
        }
      ],
      "name": "setDefaultURI",
      "outputs": [],
      "stateMutability": "nonpayable",
      "type": "function"
    },
    {
      "inputs": [
        {
          "internalType": "uint256",
          "name": "max",
          "type": "uint256"
        }
      ],
      "name": "setMaxWhitelist",
      "outputs": [],
      "stateMutability": "nonpayable",
      "type": "function"
    },
    {
      "inputs": [
        {
          "internalType": "string",
          "name": "provenanceHash",
          "type": "string"
        }
      ],
      "name": "setProvenanceHash",
      "outputs": [],
      "stateMutability": "nonpayable",
      "type": "function"
    },
    {
      "inputs": [
        {
          "internalType": "uint256",
          "name": "price",
          "type": "uint256"
        }
      ],
      "name": "setSalePrice",
      "outputs": [],
      "stateMutability": "nonpayable",
      "type": "function"
    },
    {
      "inputs": [
        {
          "internalType": "address payable",
          "name": "_newTreasuryAddress",
          "type": "address"
        }
      ],
      "name": "changeTreasuryAddress",
      "outputs": [],
      "stateMutability": "nonpayable",
      "type": "function"
    },
    {
      "inputs": [
        {
          "internalType": "string",
          "name": "_newBaseURI",
          "type": "string"
        }
      ],
      "name": "setBaseURI",
      "outputs": [],
      "stateMutability": "nonpayable",
      "type": "function"
    },
    {
      "inputs": [
        {
          "internalType": "uint256",
          "name": "tokenID",
          "type": "uint256"
        },
        {
          "internalType": "string",
          "name": "uri",
          "type": "string"
        }
      ],
      "name": "setTokenURI",
      "outputs": [],
      "stateMutability": "nonpayable",
      "type": "function"
    },
    {
      "inputs": [
        {
          "internalType": "uint256",
          "name": "tokenId",
          "type": "uint256"
        }
      ],
      "name": "tokenURI",
      "outputs": [
        {
          "internalType": "string",
          "name": "",
          "type": "string"
        }
      ],
      "stateMutability": "view",
      "type": "function"
    },
    {
      "inputs": [],
      "name": "totalSupply",
      "outputs": [
        {
          "internalType": "uint256",
          "name": "",
          "type": "uint256"
        }
      ],
      "stateMutability": "view",
      "type": "function"
    },
    {
      "inputs": [],
      "name": "flipSaleState",
      "outputs": [],
      "stateMutability": "nonpayable",
      "type": "function"
    },
    {
      "inputs": [],
      "name": "flipPremintSaleState",
      "outputs": [],
      "stateMutability": "nonpayable",
      "type": "function"
    },
    {
      "inputs": [],
      "name": "flipWhitelistSaleState",
      "outputs": [],
      "stateMutability": "nonpayable",
      "type": "function"
    },
    {
      "inputs": [
        {
          "internalType": "bytes32[]",
          "name": "_merkleProof",
          "type": "bytes32[]"
        }
      ],
      "name": "whitelistMint",
      "outputs": [],
      "stateMutability": "payable",
      "type": "function"
    },
    {
      "inputs": [
        {
          "internalType": "uint256",
          "name": "nftsToMint",
          "type": "uint256"
        }
      ],
      "name": "publicMint",
      "outputs": [],
      "stateMutability": "payable",
      "type": "function"
    },
    {
      "inputs": [
        {
          "internalType": "address",
          "name": "_to",
          "type": "address"
        }
      ],
      "name": "mintFor",
      "outputs": [],
      "stateMutability": "nonpayable",
      "type": "function"
    }
  ],
  "bytecode": "0x60806040526000600960006101000a81548160ff02191690831515021790555060405180602001604052806000815250600a908051906020019062000046929190620002ed565b506000601060006101000a81548160ff0219169083151502179055506000601060016101000a81548160ff0219169083151502179055506000601060026101000a81548160ff02191690831515021790555060405180606001604052806035815260200162005ad36035913960169080519060200190620000c9929190620002ed565b50348015620000d757600080fd5b5060405162005b0838038062005b088339818101604052810190620000fd919062000442565b6040518060400160405280600c81526020017f47656b73576f726c644e465400000000000000000000000000000000000000008152506040518060400160405280600581526020017f47454b4b4f000000000000000000000000000000000000000000000000000000815250816000908051906020019062000181929190620002ed565b5080600190805190602001906200019a929190620002ed565b505050620001cf620001ba6200021f640100000000026401000000009004565b62000227640100000000026401000000009004565b81600e8190555080601360006101000a81548173ffffffffffffffffffffffffffffffffffffffff021916908373ffffffffffffffffffffffffffffffffffffffff1602179055505050620004ee565b600033905090565b6000600660009054906101000a900473ffffffffffffffffffffffffffffffffffffffff16905081600660006101000a81548173ffffffffffffffffffffffffffffffffffffffff021916908373ffffffffffffffffffffffffffffffffffffffff1602179055508173ffffffffffffffffffffffffffffffffffffffff168173ffffffffffffffffffffffffffffffffffffffff167f8be0079c531659141344cd1fd0a4f28419497f9722a3daafe3b4186f6b6457e060405160405180910390a35050565b828054620002fb90620004b8565b90600052602060002090601f0160209004810192826200031f57600085556200036b565b82601f106200033a57805160ff19168380011785556200036b565b828001600101855582156200036b579182015b828111156200036a5782518255916020019190600101906200034d565b5b5090506200037a91906200037e565b5090565b5b80821115620003995760008160009055506001016200037f565b5090565b600080fd5b6000819050919050565b620003b781620003a2565b8114620003c357600080fd5b50565b600081519050620003d781620003ac565b92915050565b600073ffffffffffffffffffffffffffffffffffffffff82169050919050565b60006200040a82620003dd565b9050919050565b6200041c81620003fd565b81146200042857600080fd5b50565b6000815190506200043c8162000411565b92915050565b600080604083850312156200045c576200045b6200039d565b5b60006200046c85828601620003c6565b92505060206200047f858286016200042b565b9150509250929050565b7f4e487b7100000000000000000000000000000000000000000000000000000000600052602260045260246000fd5b60006002820490506001821680620004d157607f821691505b60208210811415620004e857620004e762000489565b5b50919050565b6155d580620004fe6000396000f3fe60806040526004361061028f576000357c01000000000000000000000000000000000000000000000000000000009004806370a082311161016c578063c87b56dd116100de578063e322a55311610097578063e322a55314610919578063e36d649814610944578063e7cadc9a1461096f578063e985e9c514610986578063eb8d2444146109c3578063f2fde38b146109ee5761028f565b8063c87b56dd14610809578063cb774d4714610846578063d1beca6414610871578063d547cfb714610888578063da1b9e08146108b3578063db4bec44146108dc5761028f565b80639535acef116101305780639535acef1461070d57806395d89b411461073857806395f61c4814610763578063a22cb4651461078e578063a6f353f0146107b7578063b88d4fde146107e05761028f565b806370a082311461063c578063715018a61461067957806371e578dc1461069057806372d9eb1e146106b95780638da5cb5b146106e25761028f565b80632db1154411610205578063372f657c116101c9578063372f657c1461053b5780633a367a671461055757806342842e0e1461058257806355f804b3146105ab57806361d027b3146105d45780636352211e146105ff5761028f565b80632db11544146104875780632e4355cd146104a35780632eb4a7ab146104ce57806332cb6b0c146104f957806334918dfd146105245761028f565b80631096952311610257578063109695231461038d578063162094c4146103b657806318160ddd146103df5780631919fed71461040a5780631a12c91d1461043357806323b872dd1461045e5761028f565b806301ffc9a71461029457806306fdde03146102d1578063081812fc146102fc578063095ea7b3146103395780630d39fc8114610362575b600080fd5b3480156102a057600080fd5b506102bb60048036038101906102b691906137be565b610a17565b6040516102c89190613806565b60405180910390f35b3480156102dd57600080fd5b506102e6610af9565b6040516102f391906138ba565b60405180910390f35b34801561030857600080fd5b50610323600480360381019061031e9190613912565b610b8b565b6040516103309190613980565b60405180910390f35b34801561034557600080fd5b50610360600480360381019061035b91906139c7565b610c10565b005b34801561036e57600080fd5b50610377610d28565b6040516103849190613a16565b60405180910390f35b34801561039957600080fd5b506103b460048036038101906103af9190613b66565b610d2e565b005b3480156103c257600080fd5b506103dd60048036038101906103d89190613baf565b610e10565b005b3480156103eb57600080fd5b506103f4610fee565b6040516104019190613a16565b60405180910390f35b34801561041657600080fd5b50610431600480360381019061042c9190613912565b610fff565b005b34801561043f57600080fd5b506104486110a0565b6040516104559190613806565b60405180910390f35b34801561046a57600080fd5b5061048560048036038101906104809190613c0b565b6110b3565b005b6104a1600480360381019061049c9190613912565b611113565b005b3480156104af57600080fd5b506104b86113fe565b6040516104c59190613806565b60405180910390f35b3480156104da57600080fd5b506104e3611411565b6040516104f09190613c77565b60405180910390f35b34801561050557600080fd5b5061050e611417565b60405161051b9190613a16565b60405180910390f35b34801561053057600080fd5b5061053961141d565b005b61055560048036038101906105509190613cf2565b6114c5565b005b34801561056357600080fd5b5061056c611900565b60405161057991906138ba565b60405180910390f35b34801561058e57600080fd5b506105a960048036038101906105a49190613c0b565b61198e565b005b3480156105b757600080fd5b506105d260048036038101906105cd9190613b66565b6119ae565b005b3480156105e057600080fd5b506105e9611a95565b6040516105f69190613d60565b60405180910390f35b34801561060b57600080fd5b5061062660048036038101906106219190613912565b611abb565b6040516106339190613980565b60405180910390f35b34801561064857600080fd5b50610663600480360381019061065e9190613d7b565b611b6d565b6040516106709190613a16565b60405180910390f35b34801561068557600080fd5b5061068e611c25565b005b34801561069c57600080fd5b506106b760048036038101906106b29190613d7b565b611cad565b005b3480156106c557600080fd5b506106e060048036038101906106db9190613912565b611e3a565b005b3480156106ee57600080fd5b506106f7611ec0565b6040516107049190613980565b60405180910390f35b34801561071957600080fd5b50610722611eea565b60405161072f91906138ba565b60405180910390f35b34801561074457600080fd5b5061074d611f78565b60405161075a91906138ba565b60405180910390f35b34801561076f57600080fd5b5061077861200a565b6040516107859190613a16565b60405180910390f35b34801561079a57600080fd5b506107b560048036038101906107b09190613dd4565b612010565b005b3480156107c357600080fd5b506107de60048036038101906107d99190613e40565b612026565b005b3480156107ec57600080fd5b5061080760048036038101906108029190613f0e565b612156565b005b34801561081557600080fd5b50610830600480360381019061082b9190613912565b6121b8565b60405161083d91906138ba565b60405180910390f35b34801561085257600080fd5b5061085b612466565b6040516108689190613a16565b60405180910390f35b34801561087d57600080fd5b5061088661246c565b005b34801561089457600080fd5b5061089d612514565b6040516108aa91906138ba565b60405180910390f35b3480156108bf57600080fd5b506108da60048036038101906108d59190613b66565b6125a2565b005b3480156108e857600080fd5b5061090360048036038101906108fe9190613d7b565b612638565b6040516109109190613806565b60405180910390f35b34801561092557600080fd5b5061092e612658565b60405161093b9190613a16565b60405180910390f35b34801561095057600080fd5b5061095961265e565b6040516109669190613a16565b60405180910390f35b34801561097b57600080fd5b50610984612664565b005b34801561099257600080fd5b506109ad60048036038101906109a89190613f91565b61270c565b6040516109ba9190613806565b60405180910390f35b3480156109cf57600080fd5b506109d86127a0565b6040516109e59190613806565b60405180910390f35b3480156109fa57600080fd5b50610a156004803603810190610a109190613d7b565b6127b3565b005b60007f80ac58cd000000000000000000000000000000000000000000000000000000007bffffffffffffffffffffffffffffffffffffffffffffffffffffffff1916827bffffffffffffffffffffffffffffffffffffffffffffffffffffffff19161480610ae257507f5b5e139f000000000000000000000000000000000000000000000000000000007bffffffffffffffffffffffffffffffffffffffffffffffffffffffff1916827bffffffffffffffffffffffffffffffffffffffffffffffffffffffff1916145b80610af25750610af1826128ab565b5b9050919050565b606060008054610b0890614000565b80601f0160208091040260200160405190810160405280929190818152602001828054610b3490614000565b8015610b815780601f10610b5657610100808354040283529160200191610b81565b820191906000526020600020905b815481529060010190602001808311610b6457829003601f168201915b5050505050905090565b6000610b9682612915565b610bd5576040517f08c379a0000000000000000000000000000000000000000000000000000000008152600401610bcc906140a4565b60405180910390fd5b6004600083815260200190815260200160002060009054906101000a900473ffffffffffffffffffffffffffffffffffffffff169050919050565b6000610c1b82611abb565b90508073ffffffffffffffffffffffffffffffffffffffff168373ffffffffffffffffffffffffffffffffffffffff161415610c8c576040517f08c379a0000000000000000000000000000000000000000000000000000000008152600401610c8390614136565b60405180910390fd5b8073ffffffffffffffffffffffffffffffffffffffff16610cab612981565b73ffffffffffffffffffffffffffffffffffffffff161480610cda5750610cd981610cd4612981565b61270c565b5b610d19576040517f08c379a0000000000000000000000000000000000000000000000000000000008152600401610d10906141c8565b60405180910390fd5b610d238383612989565b505050565b60085481565b610d36612981565b73ffffffffffffffffffffffffffffffffffffffff16610d54611ec0565b73ffffffffffffffffffffffffffffffffffffffff1614610daa576040517f08c379a0000000000000000000000000000000000000000000000000000000008152600401610da190614234565b60405180910390fd5b6000600b5414610def576040517f08c379a0000000000000000000000000000000000000000000000000000000008152600401610de6906142a0565b60405180910390fd5b42600b8190555080600a9080519060200190610e0c9291906136af565b5050565b610e18612981565b73ffffffffffffffffffffffffffffffffffffffff16610e36611ec0565b73ffffffffffffffffffffffffffffffffffffffff1614610e8c576040517f08c379a0000000000000000000000000000000000000000000000000000000008152600401610e8390614234565b60405180910390fd5b60018210158015610e9e5750600a8211155b610edd576040517f08c379a0000000000000000000000000000000000000000000000000000000008152600401610ed49061430c565b60405180910390fd5b6000601460008481526020019081526020016000208054610efd90614000565b80601f0160208091040260200160405190810160405280929190818152602001828054610f2990614000565b8015610f765780601f10610f4b57610100808354040283529160200191610f76565b820191906000526020600020905b815481529060010190602001808311610f5957829003601f168201915b505050505090506000815114610fc1576040517f08c379a0000000000000000000000000000000000000000000000000000000008152600401610fb890614378565b60405180910390fd5b81601460008581526020019081526020016000209080519060200190610fe89291906136af565b50505050565b6000610ffa6007612a42565b905090565b611007612981565b73ffffffffffffffffffffffffffffffffffffffff16611025611ec0565b73ffffffffffffffffffffffffffffffffffffffff161461107b576040517f08c379a000000000000000000000000000000000000000000000000000000000815260040161107290614234565b60405180910390fd5b806008819055506001600960006101000a81548160ff02191690831515021790555050565b601060009054906101000a900460ff1681565b6110c46110be612981565b82612a50565b611103576040517f08c379a00000000000000000000000000000000000000000000000000000000081526004016110fa9061440a565b60405180910390fd5b61110e838383612b2e565b505050565b600960009054906101000a900460ff16611162576040517f08c379a000000000000000000000000000000000000000000000000000000000815260040161115990614476565b60405180910390fd5b600073ffffffffffffffffffffffffffffffffffffffff16601360009054906101000a900473ffffffffffffffffffffffffffffffffffffffff1673ffffffffffffffffffffffffffffffffffffffff1614156111f4576040517f08c379a00000000000000000000000000000000000000000000000000000000081526004016111eb906144e2565b60405180910390fd5b601060029054906101000a900460ff16611243576040517f08c379a000000000000000000000000000000000000000000000000000000000815260040161123a9061454e565b60405180910390fd5b80600854611251919061459d565b341015611293576040517f08c379a000000000000000000000000000000000000000000000000000000000815260040161128a90614643565b60405180910390fd5b601360009054906101000a900473ffffffffffffffffffffffffffffffffffffffff1673ffffffffffffffffffffffffffffffffffffffff166108fc349081150290604051600060405180830381858888f193505050501580156112fb573d6000803e3d6000fd5b5060005b818110156113fa57600e546001611314610fee565b61131e9190614663565b111561135f576040517f08c379a00000000000000000000000000000000000000000000000000000000081526004016113569061472b565b60405180910390fd5b6113696007612d8a565b60006113756007612a42565b90506113813382612da0565b7f31675a36120d20190f451db2a87457c351f7c3d124c13b6c3bcbd21657172fc83342836113ae856121b8565b6040516113be949392919061474b565b60405180910390a1600e546113d36007612a42565b14156113e65743601181905550506113fa565b5080806113f290614797565b9150506112ff565b5050565b601060019054906101000a900460ff1681565b600c5481565b600e5481565b611425612981565b73ffffffffffffffffffffffffffffffffffffffff16611443611ec0565b73ffffffffffffffffffffffffffffffffffffffff1614611499576040517f08c379a000000000000000000000000000000000000000000000000000000000815260040161149090614234565b60405180910390fd5b601060029054906101000a900460ff1615601060026101000a81548160ff021916908315150217905550565b601060019054906101000a900460ff16611514576040517f08c379a000000000000000000000000000000000000000000000000000000000815260040161150b90614852565b60405180910390fd5b600960009054906101000a900460ff16611563576040517f08c379a000000000000000000000000000000000000000000000000000000000815260040161155a90614476565b60405180910390fd5b6000600f5414156115a9576040517f08c379a00000000000000000000000000000000000000000000000000000000081526004016115a0906148e4565b60405180910390fd5b600f54600a6115b6610fee565b6115c09190614904565b1115611601576040517f08c379a00000000000000000000000000000000000000000000000000000000081526004016115f8906149aa565b60405180910390fd5b600854341015611646576040517f08c379a000000000000000000000000000000000000000000000000000000000815260040161163d90614643565b60405180910390fd5b600d60003373ffffffffffffffffffffffffffffffffffffffff1673ffffffffffffffffffffffffffffffffffffffff16815260200190815260200160002060009054906101000a900460ff16156116d3576040517f08c379a00000000000000000000000000000000000000000000000000000000081526004016116ca90614a16565b60405180910390fd5b6000602060ff161161171a576040517f08c379a000000000000000000000000000000000000000000000000000000000815260040161171190614a82565b60405180910390fd5b60003360405160200161172d9190614af6565b604051602081830303815290604052805190602001209050611793838380806020026020016040519081016040528093929190818152602001838360200280828437600081840152601f19601f82011690508083019250505050505050600c5483612dbe565b6117d2576040517f08c379a00000000000000000000000000000000000000000000000000000000081526004016117c990614b5d565b60405180910390fd5b6001600d60003373ffffffffffffffffffffffffffffffffffffffff1673ffffffffffffffffffffffffffffffffffffffff16815260200190815260200160002060006101000a81548160ff021916908315150217905550601360009054906101000a900473ffffffffffffffffffffffffffffffffffffffff1673ffffffffffffffffffffffffffffffffffffffff166108fc349081150290604051600060405180830381858888f19350505050158015611892573d6000803e3d6000fd5b5061189d6007612d8a565b60006118a96007612a42565b90506118b53382612da0565b7f31675a36120d20190f451db2a87457c351f7c3d124c13b6c3bcbd21657172fc83342836118e2856121b8565b6040516118f2949392919061474b565b60405180910390a150505050565b6016805461190d90614000565b80601f016020809104026020016040519081016040528092919081815260200182805461193990614000565b80156119865780601f1061195b57610100808354040283529160200191611986565b820191906000526020600020905b81548152906001019060200180831161196957829003601f168201915b505050505081565b6119a983838360405180602001604052806000815250612156565b505050565b6119b6612981565b73ffffffffffffffffffffffffffffffffffffffff166119d4611ec0565b73ffffffffffffffffffffffffffffffffffffffff1614611a2a576040517f08c379a0000000000000000000000000000000000000000000000000000000008152600401611a2190614234565b60405180910390fd5b600060158054611a3990614000565b905014611a7b576040517f08c379a0000000000000000000000000000000000000000000000000000000008152600401611a7290614bc9565b60405180910390fd5b8060159080519060200190611a919291906136af565b5050565b601360009054906101000a900473ffffffffffffffffffffffffffffffffffffffff1681565b6000806002600084815260200190815260200160002060009054906101000a900473ffffffffffffffffffffffffffffffffffffffff169050600073ffffffffffffffffffffffffffffffffffffffff168173ffffffffffffffffffffffffffffffffffffffff161415611b64576040517f08c379a0000000000000000000000000000000000000000000000000000000008152600401611b5b90614c5b565b60405180910390fd5b80915050919050565b60008073ffffffffffffffffffffffffffffffffffffffff168273ffffffffffffffffffffffffffffffffffffffff161415611bde576040517f08c379a0000000000000000000000000000000000000000000000000000000008152600401611bd590614ced565b60405180910390fd5b600360008373ffffffffffffffffffffffffffffffffffffffff1673ffffffffffffffffffffffffffffffffffffffff168152602001908152602001600020549050919050565b611c2d612981565b73ffffffffffffffffffffffffffffffffffffffff16611c4b611ec0565b73ffffffffffffffffffffffffffffffffffffffff1614611ca1576040517f08c379a0000000000000000000000000000000000000000000000000000000008152600401611c9890614234565b60405180910390fd5b611cab6000612dd5565b565b611cb5612981565b73ffffffffffffffffffffffffffffffffffffffff16611cd3611ec0565b73ffffffffffffffffffffffffffffffffffffffff1614611d29576040517f08c379a0000000000000000000000000000000000000000000000000000000008152600401611d2090614234565b60405180910390fd5b601060009054906101000a900460ff16611d78576040517f08c379a0000000000000000000000000000000000000000000000000000000008152600401611d6f90614d7f565b60405180910390fd5b600a6001611d84610fee565b611d8e9190614663565b1115611dcf576040517f08c379a0000000000000000000000000000000000000000000000000000000008152600401611dc69061472b565b60405180910390fd5b611dd96007612d8a565b6000611de56007612a42565b9050611df18282612da0565b7f31675a36120d20190f451db2a87457c351f7c3d124c13b6c3bcbd21657172fc8334283611e1e856121b8565b604051611e2e949392919061474b565b60405180910390a15050565b611e42612981565b73ffffffffffffffffffffffffffffffffffffffff16611e60611ec0565b73ffffffffffffffffffffffffffffffffffffffff1614611eb6576040517f08c379a0000000000000000000000000000000000000000000000000000000008152600401611ead90614234565b60405180910390fd5b80600f8190555050565b6000600660009054906101000a900473ffffffffffffffffffffffffffffffffffffffff16905090565b600a8054611ef790614000565b80601f0160208091040260200160405190810160405280929190818152602001828054611f2390614000565b8015611f705780601f10611f4557610100808354040283529160200191611f70565b820191906000526020600020905b815481529060010190602001808311611f5357829003601f168201915b505050505081565b606060018054611f8790614000565b80601f0160208091040260200160405190810160405280929190818152602001828054611fb390614000565b80156120005780601f10611fd557610100808354040283529160200191612000565b820191906000526020600020905b815481529060010190602001808311611fe357829003601f168201915b5050505050905090565b600f5481565b61202261201b612981565b8383612e9b565b5050565b61202e612981565b73ffffffffffffffffffffffffffffffffffffffff1661204c611ec0565b73ffffffffffffffffffffffffffffffffffffffff16146120a2576040517f08c379a000000000000000000000000000000000000000000000000000000000815260040161209990614234565b60405180910390fd5b600073ffffffffffffffffffffffffffffffffffffffff168173ffffffffffffffffffffffffffffffffffffffff161415612112576040517f08c379a000000000000000000000000000000000000000000000000000000000815260040161210990614deb565b60405180910390fd5b80601360006101000a81548173ffffffffffffffffffffffffffffffffffffffff021916908373ffffffffffffffffffffffffffffffffffffffff16021790555050565b612167612161612981565b83612a50565b6121a6576040517f08c379a000000000000000000000000000000000000000000000000000000000815260040161219d9061440a565b60405180910390fd5b6121b284848484613008565b50505050565b60606121c382612915565b612202576040517f08c379a00000000000000000000000000000000000000000000000000000000081526004016121f990614e7d565b60405180910390fd5b600060146000848152602001908152602001600020805461222290614000565b80601f016020809104026020016040519081016040528092919081815260200182805461224e90614000565b801561229b5780601f106122705761010080835404028352916020019161229b565b820191906000526020600020905b81548152906001019060200180831161227e57829003601f168201915b50505050509050600081511461234f576014600084815260200190815260200160002080546122c990614000565b80601f01602080910402602001604051908101604052809291908181526020018280546122f590614000565b80156123425780601f1061231757610100808354040283529160200191612342565b820191906000526020600020905b81548152906001019060200180831161232557829003601f168201915b5050505050915050612461565b6000612359613064565b90506000815114156123f9576016805461237290614000565b80601f016020809104026020016040519081016040528092919081815260200182805461239e90614000565b80156123eb5780601f106123c0576101008083540402835291602001916123eb565b820191906000526020600020905b8154815290600101906020018083116123ce57829003601f168201915b505050505092505050612461565b6000601254856124099190614663565b9050612413610fee565b81111561243057612422610fee565b8161242d9190614904565b90505b601561243b8261307b565b60405160200161244c929190614f6d565b60405160208183030381529060405293505050505b919050565b60125481565b612474612981565b73ffffffffffffffffffffffffffffffffffffffff16612492611ec0565b73ffffffffffffffffffffffffffffffffffffffff16146124e8576040517f08c379a00000000000000000000000000000000000000000000000000000000081526004016124df90614234565b60405180910390fd5b601060019054906101000a900460ff1615601060016101000a81548160ff021916908315150217905550565b6015805461252190614000565b80601f016020809104026020016040519081016040528092919081815260200182805461254d90614000565b801561259a5780601f1061256f5761010080835404028352916020019161259a565b820191906000526020600020905b81548152906001019060200180831161257d57829003601f168201915b505050505081565b6125aa612981565b73ffffffffffffffffffffffffffffffffffffffff166125c8611ec0565b73ffffffffffffffffffffffffffffffffffffffff161461261e576040517f08c379a000000000000000000000000000000000000000000000000000000000815260040161261590614234565b60405180910390fd5b80601690805190602001906126349291906136af565b5050565b600d6020528060005260406000206000915054906101000a900460ff1681565b600b5481565b60115481565b61266c612981565b73ffffffffffffffffffffffffffffffffffffffff1661268a611ec0565b73ffffffffffffffffffffffffffffffffffffffff16146126e0576040517f08c379a00000000000000000000000000000000000000000000000000000000081526004016126d790614234565b60405180910390fd5b601060009054906101000a900460ff1615601060006101000a81548160ff021916908315150217905550565b6000600560008473ffffffffffffffffffffffffffffffffffffffff1673ffffffffffffffffffffffffffffffffffffffff16815260200190815260200160002060008373ffffffffffffffffffffffffffffffffffffffff1673ffffffffffffffffffffffffffffffffffffffff16815260200190815260200160002060009054906101000a900460ff16905092915050565b601060029054906101000a900460ff1681565b6127bb612981565b73ffffffffffffffffffffffffffffffffffffffff166127d9611ec0565b73ffffffffffffffffffffffffffffffffffffffff161461282f576040517f08c379a000000000000000000000000000000000000000000000000000000000815260040161282690614234565b60405180910390fd5b600073ffffffffffffffffffffffffffffffffffffffff168173ffffffffffffffffffffffffffffffffffffffff16141561289f576040517f08c379a000000000000000000000000000000000000000000000000000000000815260040161289690615003565b60405180910390fd5b6128a881612dd5565b50565b60007f01ffc9a7000000000000000000000000000000000000000000000000000000007bffffffffffffffffffffffffffffffffffffffffffffffffffffffff1916827bffffffffffffffffffffffffffffffffffffffffffffffffffffffff1916149050919050565b60008073ffffffffffffffffffffffffffffffffffffffff166002600084815260200190815260200160002060009054906101000a900473ffffffffffffffffffffffffffffffffffffffff1673ffffffffffffffffffffffffffffffffffffffff1614159050919050565b600033905090565b816004600083815260200190815260200160002060006101000a81548173ffffffffffffffffffffffffffffffffffffffff021916908373ffffffffffffffffffffffffffffffffffffffff160217905550808273ffffffffffffffffffffffffffffffffffffffff166129fc83611abb565b73ffffffffffffffffffffffffffffffffffffffff167f8c5be1e5ebec7d5bd14f71427d1e84f3dd0314c0f7b2291e5b200ac8c7c3b92560405160405180910390a45050565b600081600001549050919050565b6000612a5b82612915565b612a9a576040517f08c379a0000000000000000000000000000000000000000000000000000000008152600401612a9190615095565b60405180910390fd5b6000612aa583611abb565b90508073ffffffffffffffffffffffffffffffffffffffff168473ffffffffffffffffffffffffffffffffffffffff161480612b1457508373ffffffffffffffffffffffffffffffffffffffff16612afc84610b8b565b73ffffffffffffffffffffffffffffffffffffffff16145b80612b255750612b24818561270c565b5b91505092915050565b8273ffffffffffffffffffffffffffffffffffffffff16612b4e82611abb565b73ffffffffffffffffffffffffffffffffffffffff1614612ba4576040517f08c379a0000000000000000000000000000000000000000000000000000000008152600401612b9b90615127565b60405180910390fd5b600073ffffffffffffffffffffffffffffffffffffffff168273ffffffffffffffffffffffffffffffffffffffff161415612c14576040517f08c379a0000000000000000000000000000000000000000000000000000000008152600401612c0b906151b9565b60405180910390fd5b612c1f8383836131fb565b612c2a600082612989565b6001600360008573ffffffffffffffffffffffffffffffffffffffff1673ffffffffffffffffffffffffffffffffffffffff1681526020019081526020016000206000828254612c7a9190614904565b925050819055506001600360008473ffffffffffffffffffffffffffffffffffffffff1673ffffffffffffffffffffffffffffffffffffffff1681526020019081526020016000206000828254612cd19190614663565b92505081905550816002600083815260200190815260200160002060006101000a81548173ffffffffffffffffffffffffffffffffffffffff021916908373ffffffffffffffffffffffffffffffffffffffff160217905550808273ffffffffffffffffffffffffffffffffffffffff168473ffffffffffffffffffffffffffffffffffffffff167fddf252ad1be2c89b69c2b068fc378daa952ba7f163c4a11628f55a4df523b3ef60405160405180910390a4505050565b6001816000016000828254019250508190555050565b612dba828260405180602001604052806000815250613200565b5050565b600082612dcb858461325b565b1490509392505050565b6000600660009054906101000a900473ffffffffffffffffffffffffffffffffffffffff16905081600660006101000a81548173ffffffffffffffffffffffffffffffffffffffff021916908373ffffffffffffffffffffffffffffffffffffffff1602179055508173ffffffffffffffffffffffffffffffffffffffff168173ffffffffffffffffffffffffffffffffffffffff167f8be0079c531659141344cd1fd0a4f28419497f9722a3daafe3b4186f6b6457e060405160405180910390a35050565b8173ffffffffffffffffffffffffffffffffffffffff168373ffffffffffffffffffffffffffffffffffffffff161415612f0a576040517f08c379a0000000000000000000000000000000000000000000000000000000008152600401612f0190615225565b60405180910390fd5b80600560008573ffffffffffffffffffffffffffffffffffffffff1673ffffffffffffffffffffffffffffffffffffffff16815260200190815260200160002060008473ffffffffffffffffffffffffffffffffffffffff1673ffffffffffffffffffffffffffffffffffffffff16815260200190815260200160002060006101000a81548160ff0219169083151502179055508173ffffffffffffffffffffffffffffffffffffffff168373ffffffffffffffffffffffffffffffffffffffff167f17307eab39ab6107e8899845ad3d59bd9653f200f220920489ca2b5937696c3183604051612ffb9190613806565b60405180910390a3505050565b613013848484612b2e565b61301f8484848461330e565b61305e576040517f08c379a0000000000000000000000000000000000000000000000000000000008152600401613055906152b7565b60405180910390fd5b50505050565b606060405180602001604052806000815250905090565b606060008214156130c3576040518060400160405280600181526020017f300000000000000000000000000000000000000000000000000000000000000081525090506131f6565b600082905060005b600082146130f55780806130de90614797565b915050600a826130ee9190615306565b91506130cb565b60008167ffffffffffffffff81111561311157613110613a3b565b5b6040519080825280601f01601f1916602001820160405280156131435781602001600182028036833780820191505090505b5090505b600085146131ef5760018261315c9190614904565b9150600a8561316b9190615337565b60306131779190614663565b7f0100000000000000000000000000000000000000000000000000000000000000028183815181106131ac576131ab615368565b5b60200101907effffffffffffffffffffffffffffffffffffffffffffffffffffffffffffff1916908160001a905350600a856131e89190615306565b9450613147565b8093505050505b919050565b505050565b61320a83836134ce565b613217600084848461330e565b613256576040517f08c379a000000000000000000000000000000000000000000000000000000000815260040161324d906152b7565b60405180910390fd5b505050565b60008082905060005b845181101561330357600085828151811061328257613281615368565b5b602002602001015190508083116132c35782816040516020016132a69291906153b8565b6040516020818303038152906040528051906020012092506132ef565b80836040516020016132d69291906153b8565b6040516020818303038152906040528051906020012092505b5080806132fb90614797565b915050613264565b508091505092915050565b600061332f8473ffffffffffffffffffffffffffffffffffffffff1661369c565b156134c1578373ffffffffffffffffffffffffffffffffffffffff1663150b7a02613358612981565b8786866040518563ffffffff167c01000000000000000000000000000000000000000000000000000000000281526004016133969493929190615439565b6020604051808303816000875af19250505080156133d257506040513d601f19601f820116820180604052508101906133cf919061549a565b60015b613455573d8060008114613402576040519150601f19603f3d011682016040523d82523d6000602084013e613407565b606091505b5060008151141561344d576040517f08c379a0000000000000000000000000000000000000000000000000000000008152600401613444906152b7565b60405180910390fd5b805181602001fd5b63150b7a027c0100000000000000000000000000000000000000000000000000000000027bffffffffffffffffffffffffffffffffffffffffffffffffffffffff1916817bffffffffffffffffffffffffffffffffffffffffffffffffffffffff1916149150506134c6565b600190505b949350505050565b600073ffffffffffffffffffffffffffffffffffffffff168273ffffffffffffffffffffffffffffffffffffffff16141561353e576040517f08c379a000000000000000000000000000000000000000000000000000000000815260040161353590615513565b60405180910390fd5b61354781612915565b15613587576040517f08c379a000000000000000000000000000000000000000000000000000000000815260040161357e9061557f565b60405180910390fd5b613593600083836131fb565b6001600360008473ffffffffffffffffffffffffffffffffffffffff1673ffffffffffffffffffffffffffffffffffffffff16815260200190815260200160002060008282546135e39190614663565b92505081905550816002600083815260200190815260200160002060006101000a81548173ffffffffffffffffffffffffffffffffffffffff021916908373ffffffffffffffffffffffffffffffffffffffff160217905550808273ffffffffffffffffffffffffffffffffffffffff16600073ffffffffffffffffffffffffffffffffffffffff167fddf252ad1be2c89b69c2b068fc378daa952ba7f163c4a11628f55a4df523b3ef60405160405180910390a45050565b600080823b905060008111915050919050565b8280546136bb90614000565b90600052602060002090601f0160209004810192826136dd5760008555613724565b82601f106136f657805160ff1916838001178555613724565b82800160010185558215613724579182015b82811115613723578251825591602001919060010190613708565b5b5090506137319190613735565b5090565b5b8082111561374e576000816000905550600101613736565b5090565b6000604051905090565b600080fd5b600080fd5b60007fffffffff0000000000000000000000000000000000000000000000000000000082169050919050565b61379b81613766565b81146137a657600080fd5b50565b6000813590506137b881613792565b92915050565b6000602082840312156137d4576137d361375c565b5b60006137e2848285016137a9565b91505092915050565b60008115159050919050565b613800816137eb565b82525050565b600060208201905061381b60008301846137f7565b92915050565b600081519050919050565b600082825260208201905092915050565b60005b8381101561385b578082015181840152602081019050613840565b8381111561386a576000848401525b50505050565b6000601f19601f8301169050919050565b600061388c82613821565b613896818561382c565b93506138a681856020860161383d565b6138af81613870565b840191505092915050565b600060208201905081810360008301526138d48184613881565b905092915050565b6000819050919050565b6138ef816138dc565b81146138fa57600080fd5b50565b60008135905061390c816138e6565b92915050565b6000602082840312156139285761392761375c565b5b6000613936848285016138fd565b91505092915050565b600073ffffffffffffffffffffffffffffffffffffffff82169050919050565b600061396a8261393f565b9050919050565b61397a8161395f565b82525050565b60006020820190506139956000830184613971565b92915050565b6139a48161395f565b81146139af57600080fd5b50565b6000813590506139c18161399b565b92915050565b600080604083850312156139de576139dd61375c565b5b60006139ec858286016139b2565b92505060206139fd858286016138fd565b9150509250929050565b613a10816138dc565b82525050565b6000602082019050613a2b6000830184613a07565b92915050565b600080fd5b600080fd5b7f4e487b7100000000000000000000000000000000000000000000000000000000600052604160045260246000fd5b613a7382613870565b810181811067ffffffffffffffff82111715613a9257613a91613a3b565b5b80604052505050565b6000613aa5613752565b9050613ab18282613a6a565b919050565b600067ffffffffffffffff821115613ad157613ad0613a3b565b5b613ada82613870565b9050602081019050919050565b82818337600083830152505050565b6000613b09613b0484613ab6565b613a9b565b905082815260208101848484011115613b2557613b24613a36565b5b613b30848285613ae7565b509392505050565b600082601f830112613b4d57613b4c613a31565b5b8135613b5d848260208601613af6565b91505092915050565b600060208284031215613b7c57613b7b61375c565b5b600082013567ffffffffffffffff811115613b9a57613b99613761565b5b613ba684828501613b38565b91505092915050565b60008060408385031215613bc657613bc561375c565b5b6000613bd4858286016138fd565b925050602083013567ffffffffffffffff811115613bf557613bf4613761565b5b613c0185828601613b38565b9150509250929050565b600080600060608486031215613c2457613c2361375c565b5b6000613c32868287016139b2565b9350506020613c43868287016139b2565b9250506040613c54868287016138fd565b9150509250925092565b6000819050919050565b613c7181613c5e565b82525050565b6000602082019050613c8c6000830184613c68565b92915050565b600080fd5b600080fd5b60008083601f840112613cb257613cb1613a31565b5b8235905067ffffffffffffffff811115613ccf57613cce613c92565b5b602083019150836020820283011115613ceb57613cea613c97565b5b9250929050565b60008060208385031215613d0957613d0861375c565b5b600083013567ffffffffffffffff811115613d2757613d26613761565b5b613d3385828601613c9c565b92509250509250929050565b6000613d4a8261393f565b9050919050565b613d5a81613d3f565b82525050565b6000602082019050613d756000830184613d51565b92915050565b600060208284031215613d9157613d9061375c565b5b6000613d9f848285016139b2565b91505092915050565b613db1816137eb565b8114613dbc57600080fd5b50565b600081359050613dce81613da8565b92915050565b60008060408385031215613deb57613dea61375c565b5b6000613df9858286016139b2565b9250506020613e0a85828601613dbf565b9150509250929050565b613e1d81613d3f565b8114613e2857600080fd5b50565b600081359050613e3a81613e14565b92915050565b600060208284031215613e5657613e5561375c565b5b6000613e6484828501613e2b565b91505092915050565b600067ffffffffffffffff821115613e8857613e87613a3b565b5b613e9182613870565b9050602081019050919050565b6000613eb1613eac84613e6d565b613a9b565b905082815260208101848484011115613ecd57613ecc613a36565b5b613ed8848285613ae7565b509392505050565b600082601f830112613ef557613ef4613a31565b5b8135613f05848260208601613e9e565b91505092915050565b60008060008060808587031215613f2857613f2761375c565b5b6000613f36878288016139b2565b9450506020613f47878288016139b2565b9350506040613f58878288016138fd565b925050606085013567ffffffffffffffff811115613f7957613f78613761565b5b613f8587828801613ee0565b91505092959194509250565b60008060408385031215613fa857613fa761375c565b5b6000613fb6858286016139b2565b9250506020613fc7858286016139b2565b9150509250929050565b7f4e487b7100000000000000000000000000000000000000000000000000000000600052602260045260246000fd5b6000600282049050600182168061401857607f821691505b6020821081141561402c5761402b613fd1565b5b50919050565b7f4552433732313a20617070726f76656420717565727920666f72206e6f6e657860008201527f697374656e7420746f6b656e0000000000000000000000000000000000000000602082015250565b600061408e602c8361382c565b915061409982614032565b604082019050919050565b600060208201905081810360008301526140bd81614081565b9050919050565b7f4552433732313a20617070726f76616c20746f2063757272656e74206f776e6560008201527f7200000000000000000000000000000000000000000000000000000000000000602082015250565b600061412060218361382c565b915061412b826140c4565b604082019050919050565b6000602082019050818103600083015261414f81614113565b9050919050565b7f4552433732313a20617070726f76652063616c6c6572206973206e6f74206f7760008201527f6e6572206e6f7220617070726f76656420666f7220616c6c0000000000000000602082015250565b60006141b260388361382c565b91506141bd82614156565b604082019050919050565b600060208201905081810360008301526141e1816141a5565b9050919050565b7f4f776e61626c653a2063616c6c6572206973206e6f7420746865206f776e6572600082015250565b600061421e60208361382c565b9150614229826141e8565b602082019050919050565b6000602082019050818103600083015261424d81614211565b9050919050565b7f50726f76656e616e6365206861736820616c7265616479206265656e20736574600082015250565b600061428a60208361382c565b915061429582614254565b602082019050919050565b600060208201905081810360008301526142b98161427d565b9050919050565b7f496e76616c696420746f6b656e20696400000000000000000000000000000000600082015250565b60006142f660108361382c565b9150614301826142c0565b602082019050919050565b60006020820190508181036000830152614325816142e9565b9050919050565b7f546f6b656e2055524920616c7265616479207365740000000000000000000000600082015250565b600061436260158361382c565b915061436d8261432c565b602082019050919050565b6000602082019050818103600083015261439181614355565b9050919050565b7f4552433732313a207472616e736665722063616c6c6572206973206e6f74206f60008201527f776e6572206e6f7220617070726f766564000000000000000000000000000000602082015250565b60006143f460318361382c565b91506143ff82614398565b604082019050919050565b60006020820190508181036000830152614423816143e7565b9050919050565b7f4e4654207072696365206e6f7420736574207965740000000000000000000000600082015250565b600061446060158361382c565b915061446b8261442a565b602082019050919050565b6000602082019050818103600083015261448f81614453565b9050919050565b7f54726561737572792061646472657373206e6f74207365742079657400000000600082015250565b60006144cc601c8361382c565b91506144d782614496565b602082019050919050565b600060208201905081810360008301526144fb816144bf565b9050919050565b7f53616c65206d7573742062652061637469766520746f206d696e74206e667400600082015250565b6000614538601f8361382c565b915061454382614502565b602082019050919050565b600060208201905081810360008301526145678161452b565b9050919050565b7f4e487b7100000000000000000000000000000000000000000000000000000000600052601160045260246000fd5b60006145a8826138dc565b91506145b3836138dc565b9250817fffffffffffffffffffffffffffffffffffffffffffffffffffffffffffffffff04831182151516156145ec576145eb61456e565b5b828202905092915050565b7f4e6f7420656e6f7567682062616c616e63650000000000000000000000000000600082015250565b600061462d60128361382c565b9150614638826145f7565b602082019050919050565b6000602082019050818103600083015261465c81614620565b9050919050565b600061466e826138dc565b9150614679836138dc565b9250827fffffffffffffffffffffffffffffffffffffffffffffffffffffffffffffffff038211156146ae576146ad61456e565b5b828201905092915050565b7f507572636861736520776f756c6420657863656564206d617820737570706c7960008201527f206f66204e465473000000000000000000000000000000000000000000000000602082015250565b600061471560288361382c565b9150614720826146b9565b604082019050919050565b6000602082019050818103600083015261474481614708565b9050919050565b60006080820190506147606000830187613971565b61476d6020830186613a07565b61477a6040830185613a07565b818103606083015261478c8184613881565b905095945050505050565b60006147a2826138dc565b91507fffffffffffffffffffffffffffffffffffffffffffffffffffffffffffffffff8214156147d5576147d461456e565b5b600182019050919050565b7f57686974656c6973742073616c65206973206e6f74206163746976652079657460008201527f2e00000000000000000000000000000000000000000000000000000000000000602082015250565b600061483c60218361382c565b9150614847826147e0565b604082019050919050565b6000602082019050818103600083015261486b8161482f565b9050919050565b7f4d6178206e756d626572206f662061646472657373657320666f72207768697460008201527f656c697374206e6f742073657420796574000000000000000000000000000000602082015250565b60006148ce60318361382c565b91506148d982614872565b604082019050919050565b600060208201905081810360008301526148fd816148c1565b9050919050565b600061490f826138dc565b915061491a836138dc565b92508282101561492d5761492c61456e565b5b828203905092915050565b7f507572636861736520776f756c6420657863656564206d617820737570706c7960008201527f206f66204e46547320666f722077686974656c69737400000000000000000000602082015250565b600061499460368361382c565b915061499f82614938565b604082019050919050565b600060208201905081810360008301526149c381614987565b9050919050565b7f416464726573732068617320616c726561647920636c61696d65640000000000600082015250565b6000614a00601b8361382c565b9150614a0b826149ca565b602082019050919050565b60006020820190508181036000830152614a2f816149f3565b9050919050565b7f4d65726b6c6520526f6f74206e6f7420646566696e6564207965740000000000600082015250565b6000614a6c601b8361382c565b9150614a7782614a36565b602082019050919050565b60006020820190508181036000830152614a9b81614a5f565b9050919050565b60006c0100000000000000000000000082029050919050565b6000614ac682614aa2565b9050919050565b6000614ad882614abb565b9050919050565b614af0614aeb8261395f565b614acd565b82525050565b6000614b028284614adf565b60148201915081905092915050565b7f496e76616c69642050726f6f6600000000000000000000000000000000000000600082015250565b6000614b47600d8361382c565b9150614b5282614b11565b602082019050919050565b60006020820190508181036000830152614b7681614b3a565b9050919050565b7f4261736555524920697320616c7265616479207365742e000000000000000000600082015250565b6000614bb360178361382c565b9150614bbe82614b7d565b602082019050919050565b60006020820190508181036000830152614be281614ba6565b9050919050565b7f4552433732313a206f776e657220717565727920666f72206e6f6e657869737460008201527f656e7420746f6b656e0000000000000000000000000000000000000000000000602082015250565b6000614c4560298361382c565b9150614c5082614be9565b604082019050919050565b60006020820190508181036000830152614c7481614c38565b9050919050565b7f4552433732313a2062616c616e636520717565727920666f7220746865207a6560008201527f726f206164647265737300000000000000000000000000000000000000000000602082015250565b6000614cd7602a8361382c565b9150614ce282614c7b565b604082019050919050565b60006020820190508181036000830152614d0681614cca565b9050919050565b7f5072656d696e742073616c65206d7573742062652061637469766520746f206d60008201527f696e74206e667400000000000000000000000000000000000000000000000000602082015250565b6000614d6960278361382c565b9150614d7482614d0d565b604082019050919050565b60006020820190508181036000830152614d9881614d5c565b9050919050565b7f63616e6e6f742062652061207a65726f20616464726573730000000000000000600082015250565b6000614dd560188361382c565b9150614de082614d9f565b602082019050919050565b60006020820190508181036000830152614e0481614dc8565b9050919050565b7f4552433732314d657461646174613a2055524920717565727920666f72206e6f60008201527f6e6578697374656e7420746f6b656e0000000000000000000000000000000000602082015250565b6000614e67602f8361382c565b9150614e7282614e0b565b604082019050919050565b60006020820190508181036000830152614e9681614e5a565b9050919050565b600081905092915050565b60008190508160005260206000209050919050565b60008154614eca81614000565b614ed48186614e9d565b94506001821660008114614eef5760018114614f0057614f33565b60ff19831686528186019350614f33565b614f0985614ea8565b60005b83811015614f2b57815481890152600182019150602081019050614f0c565b838801955050505b50505092915050565b6000614f4782613821565b614f518185614e9d565b9350614f6181856020860161383d565b80840191505092915050565b6000614f798285614ebd565b9150614f858284614f3c565b91508190509392505050565b7f4f776e61626c653a206e6577206f776e657220697320746865207a65726f206160008201527f6464726573730000000000000000000000000000000000000000000000000000602082015250565b6000614fed60268361382c565b9150614ff882614f91565b604082019050919050565b6000602082019050818103600083015261501c81614fe0565b9050919050565b7f4552433732313a206f70657261746f7220717565727920666f72206e6f6e657860008201527f697374656e7420746f6b656e0000000000000000000000000000000000000000602082015250565b600061507f602c8361382c565b915061508a82615023565b604082019050919050565b600060208201905081810360008301526150ae81615072565b9050919050565b7f4552433732313a207472616e73666572206f6620746f6b656e2074686174206960008201527f73206e6f74206f776e0000000000000000000000000000000000000000000000602082015250565b600061511160298361382c565b915061511c826150b5565b604082019050919050565b6000602082019050818103600083015261514081615104565b9050919050565b7f4552433732313a207472616e7366657220746f20746865207a65726f2061646460008201527f7265737300000000000000000000000000000000000000000000000000000000602082015250565b60006151a360248361382c565b91506151ae82615147565b604082019050919050565b600060208201905081810360008301526151d281615196565b9050919050565b7f4552433732313a20617070726f766520746f2063616c6c657200000000000000600082015250565b600061520f60198361382c565b915061521a826151d9565b602082019050919050565b6000602082019050818103600083015261523e81615202565b9050919050565b7f4552433732313a207472616e7366657220746f206e6f6e20455243373231526560008201527f63656976657220696d706c656d656e7465720000000000000000000000000000602082015250565b60006152a160328361382c565b91506152ac82615245565b604082019050919050565b600060208201905081810360008301526152d081615294565b9050919050565b7f4e487b7100000000000000000000000000000000000000000000000000000000600052601260045260246000fd5b6000615311826138dc565b915061531c836138dc565b92508261532c5761532b6152d7565b5b828204905092915050565b6000615342826138dc565b915061534d836138dc565b92508261535d5761535c6152d7565b5b828206905092915050565b7f4e487b7100000000000000000000000000000000000000000000000000000000600052603260045260246000fd5b6000819050919050565b6153b26153ad82613c5e565b615397565b82525050565b60006153c482856153a1565b6020820191506153d482846153a1565b6020820191508190509392505050565b600081519050919050565b600082825260208201905092915050565b600061540b826153e4565b61541581856153ef565b935061542581856020860161383d565b61542e81613870565b840191505092915050565b600060808201905061544e6000830187613971565b61545b6020830186613971565b6154686040830185613a07565b818103606083015261547a8184615400565b905095945050505050565b60008151905061549481613792565b92915050565b6000602082840312156154b0576154af61375c565b5b60006154be84828501615485565b91505092915050565b7f4552433732313a206d696e7420746f20746865207a65726f2061646472657373600082015250565b60006154fd60208361382c565b9150615508826154c7565b602082019050919050565b6000602082019050818103600083015261552c816154f0565b9050919050565b7f4552433732313a20746f6b656e20616c7265616479206d696e74656400000000600082015250565b6000615569601c8361382c565b915061557482615533565b602082019050919050565b600060208201905081810360008301526155988161555c565b905091905056fea2646970667358221220eed0eba0fd631f4a9dc6ede35d5709d2f208d8e21f6fe867fba39c58ca8cdba164736f6c634300080a0033697066733a2f2f516d58566e79555453677146586964364e4a335566637574776e425a7a5564777063356939756d32677a50504355",
  "immutableReferences": {},
  "source": "// SPDX-License-Identifier: MIT\r\n\r\n/**\r\n * @title GeksWorldNFT\r\n * @author Saad Sarwar\r\n */\r\n\r\n\r\npragma solidity ^0.8.4;\r\nimport 'openzeppelin-solidity/contracts/token/ERC20/ERC20.sol';\r\nimport \"openzeppelin-solidity/contracts/token/ERC721/ERC721.sol\";\r\nimport \"openzeppelin-solidity/contracts/utils/math/SafeMath.sol\";\r\nimport \"openzeppelin-solidity/contracts/access/Ownable.sol\";\r\nimport \"openzeppelin-solidity/contracts/utils/Counters.sol\";\r\nimport \"openzeppelin-solidity/contracts/utils/cryptography/MerkleProof.sol\";\r\n\r\ncontract GeksWorldNFT is ERC721, Ownable {\r\n    //    using SafeMath for uint256;\r\n    using Strings for uint256;\r\n    using Counters for Counters.Counter;\r\n    Counters.Counter private _tokenIds;\r\n\r\n    uint256 public nftPrice;\r\n    bool isNftPriceSet = false;\r\n\r\n    string public GEK_PROVENANCE = \"\";\r\n\r\n    uint256 public PROVENANCE_HASH_TIMESTAMP; // time when provenance hash was set\r\n\r\n    bytes32 public merkleRoot;\r\n\r\n    mapping(address => bool) public whitelistClaimed;\r\n\r\n    uint256 public MAX_SUPPLY; // max supply of nfts\r\n\r\n    uint public MAX_WHITELIST;\r\n\r\n    bool public preMintActive = false; // for private premint sale\r\n\r\n    bool public whiteListActive = false; // for white listed addressess sale\r\n\r\n    bool public saleIsActive = false; // to control public sale\r\n\r\n    uint256 public startingIndexBlock;\r\n\r\n    uint256 public startingIndex;\r\n\r\n    address payable public treasury;\r\n\r\n    // Optional mapping for token URIs\r\n    mapping(uint256 => string) private _tokenURIs;\r\n\r\n    // Token URI\r\n    string public baseTokenURI;\r\n\r\n    // default URI , before revealing the images or when baseURI is not set\r\n    string public defaultURI = \"ipfs://QmXVnyUTSgqFXid6NJ3UfcutwnBZzUdwpc5i9um2gzPPCU\";\r\n\r\n    event NftMinted(address to, uint date, uint tokenId, string tokenURI); // Used to generate NFT data on external decentralized storage service\r\n\r\n    constructor(uint256 maxNftSupply, address payable _treasury) ERC721(\"GeksWorldNFT\", \"GEKKO\") {\r\n        MAX_SUPPLY = maxNftSupply;\r\n        treasury = _treasury;\r\n    }\r\n\r\n    function setDefaultURI(string memory _defaultURI) public onlyOwner() {\r\n        defaultURI = _defaultURI;\r\n    }\r\n\r\n    function setMaxWhitelist(uint max) public onlyOwner() {\r\n        MAX_WHITELIST = max;\r\n    }\r\n\r\n    function setProvenanceHash(string memory provenanceHash) public onlyOwner() {\r\n        require(PROVENANCE_HASH_TIMESTAMP == 0, \"Provenance hash already been set\");\r\n        PROVENANCE_HASH_TIMESTAMP = block.timestamp;\r\n        GEK_PROVENANCE = provenanceHash;\r\n    }\r\n\r\n    function setSalePrice(uint price) public onlyOwner() {\r\n        nftPrice = price;\r\n        isNftPriceSet = true;\r\n    }\r\n\r\n    function changeTreasuryAddress(address payable _newTreasuryAddress) public onlyOwner() {\r\n        require(_newTreasuryAddress != address(0), \"cannot be a zero address\");\r\n        treasury = _newTreasuryAddress;\r\n    }\r\n\r\n    function setBaseURI(string memory _newBaseURI) public onlyOwner() {\r\n        require(bytes(baseTokenURI).length == 0, 'BaseURI is already set.');\r\n        baseTokenURI = _newBaseURI;\r\n    }\r\n\r\n    function setTokenURI(uint tokenID, string memory uri) public onlyOwner() {\r\n        require(tokenID >= 1 && tokenID <= 10, \"Invalid token id\");\r\n        bytes memory tempEmptyStringTest = bytes(_tokenURIs[tokenID]);\r\n        require(tempEmptyStringTest.length == 0, \"Token URI already set\");\r\n        _tokenURIs[tokenID] = uri;\r\n    }\r\n\r\n    function tokenURI(uint256 tokenId) public view virtual override returns (string memory) {\r\n        require(_exists(tokenId), \"ERC721Metadata: URI query for nonexistent token\");\r\n\r\n        // if token uri is set manually, for first 10 tokens\r\n        bytes memory tokenURIString = bytes(_tokenURIs[tokenId]);\r\n        if (tokenURIString.length != 0) {\r\n            return _tokenURIs[tokenId];\r\n        }\r\n\r\n        // return default hidden address if base URI is not set yet.\r\n        bytes memory baseUriTest = bytes(_baseURI());\r\n        if (baseUriTest.length == 0) {\r\n            return defaultURI;\r\n        }\r\n\r\n        uint256 newTokenID = tokenId + startingIndex;\r\n        if (newTokenID > totalSupply()) {\r\n            newTokenID = newTokenID - totalSupply();\r\n        }\r\n        return string(abi.encodePacked(baseTokenURI, newTokenID.toString()));\r\n\r\n    }\r\n\r\n    function totalSupply() public view returns (uint256) {\r\n        return _tokenIds.current();\r\n    }\r\n\r\n    /*\r\n    * for public sale\r\n    */\r\n    function flipSaleState() public onlyOwner {\r\n        saleIsActive = !saleIsActive;\r\n    }\r\n\r\n    /*\r\n    * for premint private sale\r\n    */\r\n    function flipPremintSaleState() public onlyOwner {\r\n        preMintActive = !preMintActive;\r\n    }\r\n\r\n    /*\r\n    * for whitelist sale\r\n    */\r\n    function flipWhitelistSaleState() public onlyOwner {\r\n        whiteListActive = !whiteListActive;\r\n    }\r\n\r\n    function whitelistMint(bytes32[] calldata _merkleProof) public payable {\r\n        require(whiteListActive, \"Whitelist sale is not active yet.\");\r\n        require(isNftPriceSet, \"NFT price not set yet\");\r\n        require(MAX_WHITELIST != 0, \"Max number of addresses for whitelist not set yet\");\r\n        require((totalSupply() - 10) <= MAX_WHITELIST, \"Purchase would exceed max supply of NFTs for whitelist\");\r\n        require(msg.value >= nftPrice, \"Not enough balance\");\r\n        require(!whitelistClaimed[msg.sender], \"Address has already claimed\");\r\n        require(merkleRoot.length > 0, \"Merkle Root not defined yet\");\r\n        bytes32 leaf = keccak256(abi.encodePacked(msg.sender));\r\n        require(MerkleProof.verify(_merkleProof, merkleRoot, leaf), \"Invalid Proof\");\r\n        whitelistClaimed[msg.sender] = true;\r\n        treasury.transfer(msg.value);\r\n        _tokenIds.increment();\r\n        uint256 newNftId = _tokenIds.current();\r\n        _safeMint(msg.sender, newNftId);\r\n        emit NftMinted(msg.sender, block.timestamp, newNftId, tokenURI(newNftId));\r\n    }\r\n\r\n    // the default mint function for public sale\r\n    function publicMint(uint nftsToMint) public payable {\r\n        require(isNftPriceSet, \"NFT price not set yet\");\r\n        require(treasury != address(0), \"Treasury address not set yet\");\r\n        require(saleIsActive, \"Sale must be active to mint nft\");\r\n        require(msg.value >= nftPrice * nftsToMint, \"Not enough balance\");\r\n        treasury.transfer(msg.value);\r\n        for (uint index = 0; index < nftsToMint; index++) {\r\n            require((totalSupply() + 1) <= MAX_SUPPLY, \"Purchase would exceed max supply of NFTs\");\r\n            _tokenIds.increment();\r\n            uint256 newNftId = _tokenIds.current();\r\n            _safeMint(msg.sender, newNftId);\r\n            emit NftMinted(msg.sender, block.timestamp, newNftId, tokenURI(newNftId));\r\n            if (_tokenIds.current() == MAX_SUPPLY) {\r\n                startingIndexBlock = block.number;\r\n                break;\r\n            }\r\n        }\r\n    }\r\n\r\n    // mint for function to mint an nft for a given address, for private premint sale\r\n    function mintFor(address _to) public onlyOwner() {\r\n        require(preMintActive, \"Premint sale must be active to mint nft\");\r\n        require((totalSupply() + 1) <= 10, \"Purchase would exceed max supply of NFTs\");\r\n        _tokenIds.increment();\r\n        uint256 newNftId = _tokenIds.current();\r\n        _safeMint(_to, newNftId);\r\n        emit NftMinted(msg.sender, block.timestamp, newNftId, tokenURI(newNftId));\r\n    }\r\n\r\n}",
  "sourcePath": "D:\\GeksWorldNFT\\contracts\\GeksWorldNFTContracts\\contracts\\GeksWorldNFT.sol",
  "compiler": {
    "name": "solc",
    "version": "0.8.10+commit.fc410830.Emscripten.clang"
  },
  "schemaVersion": "3.4.3",
  "updatedAt": "2022-02-23T23:30:16.124Z",
  "devdoc": {
    "kind": "dev",
    "methods": {
      "approve(address,uint256)": {
        "details": "See {IERC721-approve}."
      },
      "balanceOf(address)": {
        "details": "See {IERC721-balanceOf}."
      },
      "getApproved(uint256)": {
        "details": "See {IERC721-getApproved}."
      },
      "isApprovedForAll(address,address)": {
        "details": "See {IERC721-isApprovedForAll}."
      },
      "name()": {
        "details": "See {IERC721Metadata-name}."
      },
      "owner()": {
        "details": "Returns the address of the current owner."
      },
      "ownerOf(uint256)": {
        "details": "See {IERC721-ownerOf}."
      },
      "renounceOwnership()": {
        "details": "Leaves the contract without owner. It will not be possible to call `onlyOwner` functions anymore. Can only be called by the current owner. NOTE: Renouncing ownership will leave the contract without an owner, thereby removing any functionality that is only available to the owner."
      },
      "safeTransferFrom(address,address,uint256)": {
        "details": "See {IERC721-safeTransferFrom}."
      },
      "safeTransferFrom(address,address,uint256,bytes)": {
        "details": "See {IERC721-safeTransferFrom}."
      },
      "setApprovalForAll(address,bool)": {
        "details": "See {IERC721-setApprovalForAll}."
      },
      "supportsInterface(bytes4)": {
        "details": "See {IERC165-supportsInterface}."
      },
      "symbol()": {
        "details": "See {IERC721Metadata-symbol}."
      },
      "tokenURI(uint256)": {
        "details": "See {IERC721Metadata-tokenURI}."
      },
      "transferFrom(address,address,uint256)": {
        "details": "See {IERC721-transferFrom}."
      },
      "transferOwnership(address)": {
        "details": "Transfers ownership of the contract to a new account (`newOwner`). Can only be called by the current owner."
      }
    },
    "version": 1
  },
  "userdoc": {
    "kind": "user",
    "methods": {},
    "version": 1
  }
}