{
  "contractName": "MainstreetNFTDistributor",
  "abi": [
    {
      "anonymous": false,
      "inputs": [
        {
          "indexed": true,
          "internalType": "address",
          "name": "previousOwner",
          "type": "address"
        },
        {
          "indexed": true,
          "internalType": "address",
          "name": "newOwner",
          "type": "address"
        }
      ],
      "name": "OwnershipTransferred",
      "type": "event"
    },
    {
      "inputs": [],
      "name": "owner",
      "outputs": [
        {
          "internalType": "address",
          "name": "",
          "type": "address"
        }
      ],
      "stateMutability": "view",
      "type": "function",
      "constant": true
    },
    {
      "inputs": [],
      "name": "renounceOwnership",
      "outputs": [],
      "stateMutability": "nonpayable",
      "type": "function"
    },
    {
      "inputs": [],
      "name": "tokenID",
      "outputs": [
        {
          "internalType": "uint256",
          "name": "",
          "type": "uint256"
        }
      ],
      "stateMutability": "view",
      "type": "function",
      "constant": true
    },
    {
      "inputs": [
        {
          "internalType": "address",
          "name": "newOwner",
          "type": "address"
        }
      ],
      "name": "transferOwnership",
      "outputs": [],
      "stateMutability": "nonpayable",
      "type": "function"
    },
    {
      "inputs": [
        {
          "internalType": "address",
          "name": "NFT_CONTRACT",
          "type": "address"
        },
        {
          "internalType": "address",
          "name": "from",
          "type": "address"
        },
        {
          "internalType": "address[]",
          "name": "addresses",
          "type": "address[]"
        }
      ],
      "name": "distributeNFT",
      "outputs": [],
      "stateMutability": "nonpayable",
      "type": "function"
    }
  ],
  "bytecode": "0x608060405260c860015534801561001557600080fd5b50610044610030610049640100000000026401000000009004565b610051640100000000026401000000009004565b610115565b600033905090565b60008060009054906101000a900473ffffffffffffffffffffffffffffffffffffffff169050816000806101000a81548173ffffffffffffffffffffffffffffffffffffffff021916908373ffffffffffffffffffffffffffffffffffffffff1602179055508173ffffffffffffffffffffffffffffffffffffffff168173ffffffffffffffffffffffffffffffffffffffff167f8be0079c531659141344cd1fd0a4f28419497f9722a3daafe3b4186f6b6457e060405160405180910390a35050565b6109ba806101246000396000f3fe608060405234801561001057600080fd5b5060043610610074576000357c010000000000000000000000000000000000000000000000000000000090048063715018a6146100795780638da5cb5b14610083578063a5c42ef1146100a1578063d9287424146100bf578063f2fde38b146100db575b600080fd5b6100816100f7565b005b61008b61017f565b6040516100989190610513565b60405180910390f35b6100a96101a8565b6040516100b69190610547565b60405180910390f35b6100d960048036038101906100d491906106fb565b6101ae565b005b6100f560048036038101906100f0919061076a565b61030e565b005b6100ff610406565b73ffffffffffffffffffffffffffffffffffffffff1661011d61017f565b73ffffffffffffffffffffffffffffffffffffffff1614610173576040517f08c379a000000000000000000000000000000000000000000000000000000000815260040161016a906107f4565b60405180910390fd5b61017d600061040e565b565b60008060009054906101000a900473ffffffffffffffffffffffffffffffffffffffff16905090565b60015481565b6101b6610406565b73ffffffffffffffffffffffffffffffffffffffff166101d461017f565b73ffffffffffffffffffffffffffffffffffffffff161461022a576040517f08c379a0000000000000000000000000000000000000000000000000000000008152600401610221906107f4565b60405180910390fd5b60005b8151811015610308578373ffffffffffffffffffffffffffffffffffffffff166323b872dd8484848151811061026657610265610814565b5b60200260200101516001546040518463ffffffff167c01000000000000000000000000000000000000000000000000000000000281526004016102ab93929190610843565b600060405180830381600087803b1580156102c557600080fd5b505af11580156102d9573d6000803e3d6000fd5b50505050600160008154809291906102f0906108a9565b91905055508080610300906108a9565b91505061022d565b50505050565b610316610406565b73ffffffffffffffffffffffffffffffffffffffff1661033461017f565b73ffffffffffffffffffffffffffffffffffffffff161461038a576040517f08c379a0000000000000000000000000000000000000000000000000000000008152600401610381906107f4565b60405180910390fd5b600073ffffffffffffffffffffffffffffffffffffffff168173ffffffffffffffffffffffffffffffffffffffff1614156103fa576040517f08c379a00000000000000000000000000000000000000000000000000000000081526004016103f190610964565b60405180910390fd5b6104038161040e565b50565b600033905090565b60008060009054906101000a900473ffffffffffffffffffffffffffffffffffffffff169050816000806101000a81548173ffffffffffffffffffffffffffffffffffffffff021916908373ffffffffffffffffffffffffffffffffffffffff1602179055508173ffffffffffffffffffffffffffffffffffffffff168173ffffffffffffffffffffffffffffffffffffffff167f8be0079c531659141344cd1fd0a4f28419497f9722a3daafe3b4186f6b6457e060405160405180910390a35050565b600073ffffffffffffffffffffffffffffffffffffffff82169050919050565b60006104fd826104d2565b9050919050565b61050d816104f2565b82525050565b60006020820190506105286000830184610504565b92915050565b6000819050919050565b6105418161052e565b82525050565b600060208201905061055c6000830184610538565b92915050565b6000604051905090565b600080fd5b600080fd5b61057f816104f2565b811461058a57600080fd5b50565b60008135905061059c81610576565b92915050565b600080fd5b6000601f19601f8301169050919050565b7f4e487b7100000000000000000000000000000000000000000000000000000000600052604160045260246000fd5b6105f0826105a7565b810181811067ffffffffffffffff8211171561060f5761060e6105b8565b5b80604052505050565b6000610622610562565b905061062e82826105e7565b919050565b600067ffffffffffffffff82111561064e5761064d6105b8565b5b602082029050602081019050919050565b600080fd5b600061067761067284610633565b610618565b9050808382526020820190506020840283018581111561069a5761069961065f565b5b835b818110156106c357806106af888261058d565b84526020840193505060208101905061069c565b5050509392505050565b600082601f8301126106e2576106e16105a2565b5b81356106f2848260208601610664565b91505092915050565b6000806000606084860312156107145761071361056c565b5b60006107228682870161058d565b93505060206107338682870161058d565b925050604084013567ffffffffffffffff81111561075457610753610571565b5b610760868287016106cd565b9150509250925092565b6000602082840312156107805761077f61056c565b5b600061078e8482850161058d565b91505092915050565b600082825260208201905092915050565b7f4f776e61626c653a2063616c6c6572206973206e6f7420746865206f776e6572600082015250565b60006107de602083610797565b91506107e9826107a8565b602082019050919050565b6000602082019050818103600083015261080d816107d1565b9050919050565b7f4e487b7100000000000000000000000000000000000000000000000000000000600052603260045260246000fd5b60006060820190506108586000830186610504565b6108656020830185610504565b6108726040830184610538565b949350505050565b7f4e487b7100000000000000000000000000000000000000000000000000000000600052601160045260246000fd5b60006108b48261052e565b91507fffffffffffffffffffffffffffffffffffffffffffffffffffffffffffffffff8214156108e7576108e661087a565b5b600182019050919050565b7f4f776e61626c653a206e6577206f776e657220697320746865207a65726f206160008201527f6464726573730000000000000000000000000000000000000000000000000000602082015250565b600061094e602683610797565b9150610959826108f2565b604082019050919050565b6000602082019050818103600083015261097d81610941565b905091905056fea26469706673582212204305f62fd56dabad96a15cd4be4ccee2740bc62171bcfa1daf46f780116f684564736f6c634300080a0033",
  "immutableReferences": {},
  "source": "// SPDX-License-Identifier: MIT\r\n\r\n/**\r\n * @title Mainstreet NFT Distributor\r\n * @author Saad Sarwar\r\n */\r\n\r\n\r\nimport \"openzeppelin-solidity/contracts/access/Ownable.sol\";\r\n\r\ninterface INFTContract {\r\n    function transferFrom(address from, address to, uint256 tokenId) external;\r\n}\r\n\r\n\r\npragma solidity ^0.8.4;\r\n\r\ncontract MainstreetNFTDistributor is Ownable{\r\n\r\n//    address public NFT_CONTRACT = 0xAc760d623F0181FDa420271746b7AF39e88F934a;\r\n//\r\n//    address[] public addresses = [\r\n//        0x9511457381144c0ED91854038117349e576452A8,\r\n//        0x620610911c7B9D588FA363Bb53392569812a6b60,\r\n//        0x23aE81B92262B96e6fDe50B6616651Aa1e2ddD60,\r\n//        0x23aE81B92262B96e6fDe50B6616651Aa1e2ddD60,\r\n//        0x2776BD674BcD8c7206938c6f605538F8a74c2024,\r\n//        0x2f7a9cc140e50474846b36e036caac4095F015c5,\r\n//        0x8824e19C90D9d27716Dc98b5ece340FB34F8A271,\r\n//        0x8824e19C90D9d27716Dc98b5ece340FB34F8A271,\r\n//        0x16564a85aEc83d6E62003E1eF93B0DF24D20B17C,\r\n//        0x16564a85aEc83d6E62003E1eF93B0DF24D20B17C,\r\n//        0xDf2628D335991D5DaECEaccF5440692C2C52eE02,\r\n//        0x4c70104795Ac4E9DB353e84Eed05808F3379AeA0,\r\n//        0x4c70104795Ac4E9DB353e84Eed05808F3379AeA0,\r\n//        0x4c70104795Ac4E9DB353e84Eed05808F3379AeA0,\r\n//        0xf1E45CF0D7FFc9bF1Ba3d6ad629885EC0BF08A6F,\r\n//        0xfc39647ED9BAbFa711cf455AF5Fd07B6EC42C308,\r\n//        0xfc39647ED9BAbFa711cf455AF5Fd07B6EC42C308,\r\n//        0xb436141073EFE6C21aC6BE9A5Bb0D1D74F0ce87C,\r\n//        0xb436141073EFE6C21aC6BE9A5Bb0D1D74F0ce87C,\r\n//        0x9a3a55723DC8974289Ec64EE6517FcFb20577B40,\r\n//        0x26Fefa285aa797665F06a61993e485d0d9195309,\r\n//        0xcB45ADCCD82d5379124702bA72904A43a5B6f584,\r\n//        0xcB45ADCCD82d5379124702bA72904A43a5B6f584,\r\n//        0xcB45ADCCD82d5379124702bA72904A43a5B6f584,\r\n//        0x9FD6578d1a624254852A8BC1b1247A0C3c6415dE,\r\n//        0x3c2635A2343F67e9Fd22eb4B8469296066acb88d,\r\n//        0x3c2635A2343F67e9Fd22eb4B8469296066acb88d,\r\n//        0x1082F9E55470626425105301903DC76AE0BBac15,\r\n//        0x1082F9E55470626425105301903DC76AE0BBac15,\r\n//        0xbc83507c89BF6A8F7A8f576c5b4C17327b7C6790,\r\n//        0xbc83507c89BF6A8F7A8f576c5b4C17327b7C6790,\r\n//        0xD6C21557D6c7772B998b9748ddCfE1835c43a845,\r\n//        0x7D668b22494ee10386D14C8fC2E765C503708873,\r\n//        0x6e87e6181304AdD2802E6BBf5dA1bf99b0595E33,\r\n//        0x6e87e6181304AdD2802E6BBf5dA1bf99b0595E33,\r\n//        0x6e87e6181304AdD2802E6BBf5dA1bf99b0595E33,\r\n//        0x58F662c9A54f2000Ce51E44C899BeB78d5292104,\r\n//        0x58F662c9A54f2000Ce51E44C899BeB78d5292104,\r\n//        0x58F662c9A54f2000Ce51E44C899BeB78d5292104,\r\n//        0x58F662c9A54f2000Ce51E44C899BeB78d5292104,\r\n//        0xFaB86ac406A8c9933a697034eabd804467C135FD,\r\n//        0xB882a6328f68B6bBFb5b03c47d2CA32eE4240E37,\r\n//        0xB882a6328f68B6bBFb5b03c47d2CA32eE4240E37,\r\n//        0xB882a6328f68B6bBFb5b03c47d2CA32eE4240E37,\r\n//        0xB882a6328f68B6bBFb5b03c47d2CA32eE4240E37,\r\n//        0xB882a6328f68B6bBFb5b03c47d2CA32eE4240E37,\r\n//        0xB882a6328f68B6bBFb5b03c47d2CA32eE4240E37,\r\n//        0x7c3b6C408F2358Fd768d156ae213B5abd8988BDb,\r\n//        0xEbfB403485478c0A1D5fF8545c49Bd2c4A4E9E7C,\r\n//        0xF8a49c0C8EC960502BBb2BF2f62Ba4d5d81489f6,\r\n//        0x80C212a176C11F16C6EF2d64CB4D856cAe371F34,\r\n//        0x6165fD87C1BC73a4c44b23934e9136fd92df5b01,\r\n//        0x6165fD87C1BC73a4c44b23934e9136fd92df5b01,\r\n//        0x6165fD87C1BC73a4c44b23934e9136fd92df5b01,\r\n//        0x6165fD87C1BC73a4c44b23934e9136fd92df5b01,\r\n//        0x6B5080AF3b66bD4c0d1C38Ed6DB05c2E4F0Ca933,\r\n//        0x724488D8205Eb892A6a70B819B6dF8641635701F,\r\n//        0x9E717376bE87FC4c67Cd7Ca2Fdfdf047Afe99974,\r\n//        0x9E717376bE87FC4c67Cd7Ca2Fdfdf047Afe99974,\r\n//        0x9E717376bE87FC4c67Cd7Ca2Fdfdf047Afe99974,\r\n//        0xA2da3C64F9621283813CA4B328f467FbBEDbd7B5,\r\n//        0xf5c0E2da835343cBe80f476d4e4b3Be860116517,\r\n//        0xE7C526cE8aA8186C0A1e4cB2cd758EA93178651a,\r\n//        0xA3DEc1856Ab4486A521E4b91598499F209b936D0,\r\n//        0xAE2c2B6162c85C9D8A30C69c40e6d83861150e66,\r\n//        0xa3fB7F8Bfc4e3A6D053A219aD5a97933F3c7b359,\r\n//        0x3E8ffc47493D2B1E39604aA156E08Ff5C3198210,\r\n//        0x8Bf25BC8dc6dbD02a2318B78022E0A94188bdAE7,\r\n//        0x8bdc7aDf7Ffd30481DDcf3916bB11EA09687e8f2,\r\n//        0x31714c50420af572A75bE197A11442dBbb93868d,\r\n//        0x75ec7A46e00e755D8b8eDD7d1579b4f08C200F04,\r\n//        0x75ec7A46e00e755D8b8eDD7d1579b4f08C200F04,\r\n//        0x75ec7A46e00e755D8b8eDD7d1579b4f08C200F04,\r\n//        0x75ec7A46e00e755D8b8eDD7d1579b4f08C200F04,\r\n//        0x4c99A781a03Bcce0d09D07aFD5B647566069190a,\r\n//        0x4c99A781a03Bcce0d09D07aFD5B647566069190a,\r\n//        0x275C02502bc086256B35C6785EC1a442f5303C7c,\r\n//        0x091bA5edE1aAB4f3FB73025603654402E396367C,\r\n//        0x708C5f0F00C4C2085a0Abb3b2f035C33B2AE7f9A,\r\n//        0x708C5f0F00C4C2085a0Abb3b2f035C33B2AE7f9A,\r\n//        0x708C5f0F00C4C2085a0Abb3b2f035C33B2AE7f9A,\r\n//        0x3c470da0352B23BD487553cDC97F5bd32322c96a,\r\n//        0xDD809918795178972653cF33A1C6351e5a1E1DEf,\r\n//        0xDD809918795178972653cF33A1C6351e5a1E1DEf,\r\n//        0xDD809918795178972653cF33A1C6351e5a1E1DEf,\r\n//        0x30900eB1a73b694158694D64e7984Ee44bDc01b1,\r\n//        0x31323a71462e2259751Cc0D08EFa6675623B5E8c,\r\n//        0x2265e9EF3A069Cb96aA8215f9d5856988b9c0366,\r\n//        0xBC9177d50b0ED9b367f9C62b6E97640E1778B02E,\r\n//        0xa257413252A3A1C367AE443a60d9d5Ea1921dF17,\r\n//        0x5a87DBdbb1945a0C3BF003f8bD7816832ECAA20a,\r\n//        0x64b3231F1f2BCF346491C4656566828cb720c592,\r\n//        0x05fC8e262557e6f472755cB0351FB73C78A97473,\r\n//        0x05fC8e262557e6f472755cB0351FB73C78A97473,\r\n//        0xd4F4d00cA9C817a33aB7594F2d751A7DBcC5EFae,\r\n//        0xd4F4d00cA9C817a33aB7594F2d751A7DBcC5EFae,\r\n//        0x270B1bfd6b27C4b0570D92F9a559EDF78dBbb98A,\r\n//        0xd629D59a84eD126aa8850c8C46d3b8810c55C646,\r\n//        0xd629D59a84eD126aa8850c8C46d3b8810c55C646,\r\n//        0x88a5e2c5dc93A98afE171f10f1e4373eDe712fa3,\r\n//        0x6D40CA973E30F62A1760FFB856CB459900230a25,\r\n//        0x08eb87Fda95b7e0B4e56C7fE5F76a023B76337fF,\r\n//        0xD9f58C44506efeA820baF832D4d4addD1BDAeB52,\r\n//        0x072D1485C8FEE948FF35550BA36F9072B75BA029,\r\n//        0x2F21A3B7B7f411EA734C3079ba644906123635cD,\r\n//        0x477DA04DA98802E02dEaebfA923Be170558C8644,\r\n//        0x737F1d89D656b88621Dd381b6F379B044Ca18dC2,\r\n//        0x81c61C5fC10bB23380BAEA9D7dFA570203287748,\r\n//        0x943D8d72B751268b790CEBeB898908A3ac5fD469,\r\n//        0x943D8d72B751268b790CEBeB898908A3ac5fD469,\r\n//        0x5067BBFed252a875313C9A19B9Bc6EfFBA837642,\r\n//        0x5067BBFed252a875313C9A19B9Bc6EfFBA837642,\r\n//        0x5067BBFed252a875313C9A19B9Bc6EfFBA837642,\r\n//        0x5067BBFed252a875313C9A19B9Bc6EfFBA837642,\r\n//        0xF58d0e6fc3C021627A49A53f04152409fcc40055,\r\n//        0xF58d0e6fc3C021627A49A53f04152409fcc40055,\r\n//        0xF58d0e6fc3C021627A49A53f04152409fcc40055,\r\n//        0xF58d0e6fc3C021627A49A53f04152409fcc40055,\r\n//        0x0746d445e4A1d906a4701dE4C6F32B5e0fA279eb,\r\n//        0xE0bDd4a0BF7Ab6694F80c70d7DF8B0ec84835DFC,\r\n//        0xE0bDd4a0BF7Ab6694F80c70d7DF8B0ec84835DFC,\r\n//        0xdBE2F9581D8C60A8180443a048E13d2DF3bebD10,\r\n//        0xB34C4bbe1f628Dc31FEd918eAAa82bCEe3eE5586,\r\n//        0xB34C4bbe1f628Dc31FEd918eAAa82bCEe3eE5586,\r\n//        0x7aE15aCD0C224F469F5BB37c8ef7A01654c5F2d0,\r\n//        0x1166Ae53a4d8779532260dfdd84Dc065Bcc5B1a4,\r\n//        0x37737a64226eabbfd12056187A103294A3fC20F7,\r\n//        0x5314003b211Ab223D65258015a198DEC4067936B,\r\n//        0xd812fCC544eE1dC61E477a227E64BdA94fef4E84,\r\n//        0x3a35Bdb71Ae8956E7C7f9efB5a3B399967E4D808,\r\n//        0xEc964b6c91abde8f583F744de48da87b9F43035E,\r\n//        0x071703FF811547CF79612592be1d8f601b05B8F2,\r\n//        0xeA9043fb516efCbFF780c01EBD00B9480c6A7201,\r\n//        0xcd81917ff5313d02d7Da3d47a9Afcd3f635c36e3,\r\n//        0x8De58A62ae74ed1dE328B2c5e5F6b68C16adf399,\r\n//        0x478cDA6b8f61Ef82B8233962c284A615c7Da6271,\r\n//        0xdf923B60d2da0af5A6A92FE5C91CcFfC8848dE68,\r\n//        0xdf923B60d2da0af5A6A92FE5C91CcFfC8848dE68,\r\n//        0xdf923B60d2da0af5A6A92FE5C91CcFfC8848dE68,\r\n//        0xbc83507c89BF6A8F7A8f576c5b4C17327b7C6790,\r\n//        0xbc83507c89BF6A8F7A8f576c5b4C17327b7C6790,\r\n//        0x3CDC87BABF7B4E5d4B39375BD7BaE5034b379bdB,\r\n//        0x3CDC87BABF7B4E5d4B39375BD7BaE5034b379bdB,\r\n//        0x3CDC87BABF7B4E5d4B39375BD7BaE5034b379bdB,\r\n//        0x743fC05850Fac2ce03251704cDa96F5e09146cAc,\r\n//        0x743fC05850Fac2ce03251704cDa96F5e09146cAc,\r\n//        0x743fC05850Fac2ce03251704cDa96F5e09146cAc,\r\n//        0x743fC05850Fac2ce03251704cDa96F5e09146cAc,\r\n//        0x743fC05850Fac2ce03251704cDa96F5e09146cAc,\r\n//        0x743fC05850Fac2ce03251704cDa96F5e09146cAc,\r\n//        0x743fC05850Fac2ce03251704cDa96F5e09146cAc,\r\n//        0x743fC05850Fac2ce03251704cDa96F5e09146cAc,\r\n//        0x743fC05850Fac2ce03251704cDa96F5e09146cAc,\r\n//        0x743fC05850Fac2ce03251704cDa96F5e09146cAc,\r\n//        0x743fC05850Fac2ce03251704cDa96F5e09146cAc,\r\n//        0x743fC05850Fac2ce03251704cDa96F5e09146cAc,\r\n//        0x743fC05850Fac2ce03251704cDa96F5e09146cAc,\r\n//        0x743fC05850Fac2ce03251704cDa96F5e09146cAc,\r\n//        0x743fC05850Fac2ce03251704cDa96F5e09146cAc,\r\n//        0x743fC05850Fac2ce03251704cDa96F5e09146cAc,\r\n//        0x743fC05850Fac2ce03251704cDa96F5e09146cAc,\r\n//        0x743fC05850Fac2ce03251704cDa96F5e09146cAc,\r\n//        0x743fC05850Fac2ce03251704cDa96F5e09146cAc,\r\n//        0x743fC05850Fac2ce03251704cDa96F5e09146cAc,\r\n//        0x743fC05850Fac2ce03251704cDa96F5e09146cAc,\r\n//        0x743fC05850Fac2ce03251704cDa96F5e09146cAc,\r\n//        0x743fC05850Fac2ce03251704cDa96F5e09146cAc,\r\n//        0x743fC05850Fac2ce03251704cDa96F5e09146cAc,\r\n//        0x743fC05850Fac2ce03251704cDa96F5e09146cAc,\r\n//        0x743fC05850Fac2ce03251704cDa96F5e09146cAc,\r\n//        0x743fC05850Fac2ce03251704cDa96F5e09146cAc,\r\n//        0x743fC05850Fac2ce03251704cDa96F5e09146cAc,\r\n//        0x743fC05850Fac2ce03251704cDa96F5e09146cAc,\r\n//        0x743fC05850Fac2ce03251704cDa96F5e09146cAc,\r\n//        0x743fC05850Fac2ce03251704cDa96F5e09146cAc,\r\n//        0x743fC05850Fac2ce03251704cDa96F5e09146cAc,\r\n//        0x743fC05850Fac2ce03251704cDa96F5e09146cAc,\r\n//        0x743fC05850Fac2ce03251704cDa96F5e09146cAc,\r\n//        0x743fC05850Fac2ce03251704cDa96F5e09146cAc,\r\n//        0x743fC05850Fac2ce03251704cDa96F5e09146cAc,\r\n//        0x743fC05850Fac2ce03251704cDa96F5e09146cAc,\r\n//        0x743fC05850Fac2ce03251704cDa96F5e09146cAc,\r\n//        0x743fC05850Fac2ce03251704cDa96F5e09146cAc,\r\n//        0x743fC05850Fac2ce03251704cDa96F5e09146cAc,\r\n//        0x743fC05850Fac2ce03251704cDa96F5e09146cAc,\r\n//        0x743fC05850Fac2ce03251704cDa96F5e09146cAc,\r\n//        0x743fC05850Fac2ce03251704cDa96F5e09146cAc,\r\n//        0x743fC05850Fac2ce03251704cDa96F5e09146cAc,\r\n//        0x743fC05850Fac2ce03251704cDa96F5e09146cAc,\r\n//        0x743fC05850Fac2ce03251704cDa96F5e09146cAc,\r\n//        0x743fC05850Fac2ce03251704cDa96F5e09146cAc,\r\n//        0x743fC05850Fac2ce03251704cDa96F5e09146cAc,\r\n//        0x743fC05850Fac2ce03251704cDa96F5e09146cAc,\r\n//        0x743fC05850Fac2ce03251704cDa96F5e09146cAc,\r\n//        0x743fC05850Fac2ce03251704cDa96F5e09146cAc,\r\n//        0x743fC05850Fac2ce03251704cDa96F5e09146cAc,\r\n//        0x743fC05850Fac2ce03251704cDa96F5e09146cAc,\r\n//        0x743fC05850Fac2ce03251704cDa96F5e09146cAc,\r\n//        0x743fC05850Fac2ce03251704cDa96F5e09146cAc,\r\n//        0x743fC05850Fac2ce03251704cDa96F5e09146cAc,\r\n//        0x743fC05850Fac2ce03251704cDa96F5e09146cAc,\r\n//        0x743fC05850Fac2ce03251704cDa96F5e09146cAc,\r\n//        0x743fC05850Fac2ce03251704cDa96F5e09146cAc,\r\n//        0x743fC05850Fac2ce03251704cDa96F5e09146cAc,\r\n//        0x743fC05850Fac2ce03251704cDa96F5e09146cAc,\r\n//        0xBF90e9E29F342A5DE69aAd99A6f307F9b9A373D1,\r\n//        0xBF90e9E29F342A5DE69aAd99A6f307F9b9A373D1,\r\n//        0xBF90e9E29F342A5DE69aAd99A6f307F9b9A373D1,\r\n//        0xBF90e9E29F342A5DE69aAd99A6f307F9b9A373D1,\r\n//        0xBF90e9E29F342A5DE69aAd99A6f307F9b9A373D1,\r\n//        0x6EE87166Ae581D586c26E594798a5553AC5F077c,\r\n//        0x6EE87166Ae581D586c26E594798a5553AC5F077c,\r\n//        0x6EE87166Ae581D586c26E594798a5553AC5F077c,\r\n//        0x6EE87166Ae581D586c26E594798a5553AC5F077c,\r\n//        0x6EE87166Ae581D586c26E594798a5553AC5F077c,\r\n//        0x6EE87166Ae581D586c26E594798a5553AC5F077c,\r\n//        0x6EE87166Ae581D586c26E594798a5553AC5F077c,\r\n//        0x6EE87166Ae581D586c26E594798a5553AC5F077c,\r\n//        0xc2163626675Ee9162CD68AAdBcc28D797F3966aF,\r\n//        0xc2163626675Ee9162CD68AAdBcc28D797F3966aF,\r\n//        0xc2163626675Ee9162CD68AAdBcc28D797F3966aF,\r\n//        0xc2163626675Ee9162CD68AAdBcc28D797F3966aF,\r\n//        0xc2163626675Ee9162CD68AAdBcc28D797F3966aF,\r\n//        0xc2163626675Ee9162CD68AAdBcc28D797F3966aF,\r\n//        0xc2163626675Ee9162CD68AAdBcc28D797F3966aF,\r\n//        0xc2163626675Ee9162CD68AAdBcc28D797F3966aF,\r\n//        0xc2163626675Ee9162CD68AAdBcc28D797F3966aF,\r\n//        0xc2163626675Ee9162CD68AAdBcc28D797F3966aF,\r\n//        0xc2163626675Ee9162CD68AAdBcc28D797F3966aF,\r\n//        0xc2163626675Ee9162CD68AAdBcc28D797F3966aF,\r\n//        0xc2163626675Ee9162CD68AAdBcc28D797F3966aF,\r\n//        0xc2163626675Ee9162CD68AAdBcc28D797F3966aF,\r\n//        0xc2163626675Ee9162CD68AAdBcc28D797F3966aF,\r\n//        0xc2163626675Ee9162CD68AAdBcc28D797F3966aF,\r\n//        0xE60D435E3eDAF6E1a4ed1F3eDA357c3D08465ceE,\r\n//        0xE60D435E3eDAF6E1a4ed1F3eDA357c3D08465ceE,\r\n//        0xE60D435E3eDAF6E1a4ed1F3eDA357c3D08465ceE,\r\n//        0xE60D435E3eDAF6E1a4ed1F3eDA357c3D08465ceE,\r\n//        0xE60D435E3eDAF6E1a4ed1F3eDA357c3D08465ceE,\r\n//        0xE60D435E3eDAF6E1a4ed1F3eDA357c3D08465ceE,\r\n//        0xE60D435E3eDAF6E1a4ed1F3eDA357c3D08465ceE,\r\n//        0xE60D435E3eDAF6E1a4ed1F3eDA357c3D08465ceE,\r\n//        0xE60D435E3eDAF6E1a4ed1F3eDA357c3D08465ceE,\r\n//        0xE60D435E3eDAF6E1a4ed1F3eDA357c3D08465ceE,\r\n//        0xf7c55eFB10C5432d30891f05115Fca42061A6268,\r\n//        0xf7c55eFB10C5432d30891f05115Fca42061A6268,\r\n//        0xf7c55eFB10C5432d30891f05115Fca42061A6268,\r\n//        0xf7c55eFB10C5432d30891f05115Fca42061A6268,\r\n//        0xf7c55eFB10C5432d30891f05115Fca42061A6268,\r\n//        0xf7c55eFB10C5432d30891f05115Fca42061A6268,\r\n//        0xf7c55eFB10C5432d30891f05115Fca42061A6268,\r\n//        0xf7c55eFB10C5432d30891f05115Fca42061A6268,\r\n//        0x2069C633a4Eb3DEa24d9f7546AE2cD72cAA8feaF,\r\n//        0x2069C633a4Eb3DEa24d9f7546AE2cD72cAA8feaF,\r\n//        0x2069C633a4Eb3DEa24d9f7546AE2cD72cAA8feaF,\r\n//        0x2069C633a4Eb3DEa24d9f7546AE2cD72cAA8feaF,\r\n//        0x2069C633a4Eb3DEa24d9f7546AE2cD72cAA8feaF,\r\n//        0x2069C633a4Eb3DEa24d9f7546AE2cD72cAA8feaF,\r\n//        0x2069C633a4Eb3DEa24d9f7546AE2cD72cAA8feaF,\r\n//        0x2069C633a4Eb3DEa24d9f7546AE2cD72cAA8feaF,\r\n//        0x2069C633a4Eb3DEa24d9f7546AE2cD72cAA8feaF,\r\n//        0x2069C633a4Eb3DEa24d9f7546AE2cD72cAA8feaF,\r\n//        0x6B5080AF3b66bD4c0d1C38Ed6DB05c2E4F0Ca933,\r\n//        0x6B5080AF3b66bD4c0d1C38Ed6DB05c2E4F0Ca933,\r\n//        0x6B5080AF3b66bD4c0d1C38Ed6DB05c2E4F0Ca933,\r\n//        0x6B5080AF3b66bD4c0d1C38Ed6DB05c2E4F0Ca933,\r\n//        0x6B5080AF3b66bD4c0d1C38Ed6DB05c2E4F0Ca933,\r\n//        0x6B5080AF3b66bD4c0d1C38Ed6DB05c2E4F0Ca933,\r\n//        0x6B5080AF3b66bD4c0d1C38Ed6DB05c2E4F0Ca933,\r\n//        0x6B5080AF3b66bD4c0d1C38Ed6DB05c2E4F0Ca933,\r\n//        0x6B5080AF3b66bD4c0d1C38Ed6DB05c2E4F0Ca933,\r\n//        0x6B5080AF3b66bD4c0d1C38Ed6DB05c2E4F0Ca933,\r\n//        0xBD8EAD472E51283230b93f290bC1506ea4D6209b,\r\n//        0xBD8EAD472E51283230b93f290bC1506ea4D6209b,\r\n//        0xBD8EAD472E51283230b93f290bC1506ea4D6209b,\r\n//        0xBD8EAD472E51283230b93f290bC1506ea4D6209b,\r\n//        0xF82e9D2De3e22fda38284484cCc5C1013Fb6b472,\r\n//        0xF82e9D2De3e22fda38284484cCc5C1013Fb6b472,\r\n//        0xF82e9D2De3e22fda38284484cCc5C1013Fb6b472,\r\n//        0xF82e9D2De3e22fda38284484cCc5C1013Fb6b472,\r\n//        0xF82e9D2De3e22fda38284484cCc5C1013Fb6b472,\r\n//        0xF82e9D2De3e22fda38284484cCc5C1013Fb6b472,\r\n//        0xF82e9D2De3e22fda38284484cCc5C1013Fb6b472,\r\n//        0xF82e9D2De3e22fda38284484cCc5C1013Fb6b472,\r\n//        0xF82e9D2De3e22fda38284484cCc5C1013Fb6b472,\r\n//        0xF82e9D2De3e22fda38284484cCc5C1013Fb6b472,\r\n//        0xF82e9D2De3e22fda38284484cCc5C1013Fb6b472,\r\n//        0xF82e9D2De3e22fda38284484cCc5C1013Fb6b472,\r\n//        0xF82e9D2De3e22fda38284484cCc5C1013Fb6b472,\r\n//        0xF82e9D2De3e22fda38284484cCc5C1013Fb6b472,\r\n//        0xF82e9D2De3e22fda38284484cCc5C1013Fb6b472,\r\n//        0xF82e9D2De3e22fda38284484cCc5C1013Fb6b472,\r\n//        0xF82e9D2De3e22fda38284484cCc5C1013Fb6b472,\r\n//        0xF82e9D2De3e22fda38284484cCc5C1013Fb6b472,\r\n//        0xF82e9D2De3e22fda38284484cCc5C1013Fb6b472,\r\n//        0xF82e9D2De3e22fda38284484cCc5C1013Fb6b472,\r\n//        0xF82e9D2De3e22fda38284484cCc5C1013Fb6b472,\r\n//        0xF82e9D2De3e22fda38284484cCc5C1013Fb6b472,\r\n//        0xF82e9D2De3e22fda38284484cCc5C1013Fb6b472,\r\n//        0xF82e9D2De3e22fda38284484cCc5C1013Fb6b472,\r\n//        0xF82e9D2De3e22fda38284484cCc5C1013Fb6b472,\r\n//        0xF82e9D2De3e22fda38284484cCc5C1013Fb6b472,\r\n//        0xF82e9D2De3e22fda38284484cCc5C1013Fb6b472,\r\n//        0xF82e9D2De3e22fda38284484cCc5C1013Fb6b472,\r\n//        0xF82e9D2De3e22fda38284484cCc5C1013Fb6b472,\r\n//        0xF82e9D2De3e22fda38284484cCc5C1013Fb6b472,\r\n//        0xF82e9D2De3e22fda38284484cCc5C1013Fb6b472,\r\n//        0xF82e9D2De3e22fda38284484cCc5C1013Fb6b472,\r\n//        0xF82e9D2De3e22fda38284484cCc5C1013Fb6b472,\r\n//        0xF82e9D2De3e22fda38284484cCc5C1013Fb6b472,\r\n//        0xF82e9D2De3e22fda38284484cCc5C1013Fb6b472,\r\n//        0xF82e9D2De3e22fda38284484cCc5C1013Fb6b472,\r\n//        0xF82e9D2De3e22fda38284484cCc5C1013Fb6b472,\r\n//        0xF82e9D2De3e22fda38284484cCc5C1013Fb6b472,\r\n//        0xF82e9D2De3e22fda38284484cCc5C1013Fb6b472,\r\n//        0xF82e9D2De3e22fda38284484cCc5C1013Fb6b472,\r\n//        0xF82e9D2De3e22fda38284484cCc5C1013Fb6b472,\r\n//        0xF82e9D2De3e22fda38284484cCc5C1013Fb6b472,\r\n//        0xF82e9D2De3e22fda38284484cCc5C1013Fb6b472,\r\n//        0xF82e9D2De3e22fda38284484cCc5C1013Fb6b472,\r\n//        0xF82e9D2De3e22fda38284484cCc5C1013Fb6b472,\r\n//        0xF82e9D2De3e22fda38284484cCc5C1013Fb6b472,\r\n//        0xF82e9D2De3e22fda38284484cCc5C1013Fb6b472,\r\n//        0xF82e9D2De3e22fda38284484cCc5C1013Fb6b472,\r\n//        0xF82e9D2De3e22fda38284484cCc5C1013Fb6b472,\r\n//        0xF82e9D2De3e22fda38284484cCc5C1013Fb6b472,\r\n//        0xF82e9D2De3e22fda38284484cCc5C1013Fb6b472,\r\n//        0xF82e9D2De3e22fda38284484cCc5C1013Fb6b472,\r\n//        0xF82e9D2De3e22fda38284484cCc5C1013Fb6b472,\r\n//        0xF82e9D2De3e22fda38284484cCc5C1013Fb6b472,\r\n//        0xF82e9D2De3e22fda38284484cCc5C1013Fb6b472,\r\n//        0xF82e9D2De3e22fda38284484cCc5C1013Fb6b472,\r\n//        0xF82e9D2De3e22fda38284484cCc5C1013Fb6b472,\r\n//        0xF82e9D2De3e22fda38284484cCc5C1013Fb6b472,\r\n//        0xF82e9D2De3e22fda38284484cCc5C1013Fb6b472,\r\n//        0xF82e9D2De3e22fda38284484cCc5C1013Fb6b472,\r\n//        0xF82e9D2De3e22fda38284484cCc5C1013Fb6b472,\r\n//        0xF82e9D2De3e22fda38284484cCc5C1013Fb6b472,\r\n//        0xF82e9D2De3e22fda38284484cCc5C1013Fb6b472,\r\n//        0xF82e9D2De3e22fda38284484cCc5C1013Fb6b472,\r\n//        0xF82e9D2De3e22fda38284484cCc5C1013Fb6b472,\r\n//        0xF82e9D2De3e22fda38284484cCc5C1013Fb6b472,\r\n//        0xF82e9D2De3e22fda38284484cCc5C1013Fb6b472,\r\n//        0xF82e9D2De3e22fda38284484cCc5C1013Fb6b472,\r\n//        0xF82e9D2De3e22fda38284484cCc5C1013Fb6b472,\r\n//        0xF82e9D2De3e22fda38284484cCc5C1013Fb6b472,\r\n//        0xF82e9D2De3e22fda38284484cCc5C1013Fb6b472,\r\n//        0xF82e9D2De3e22fda38284484cCc5C1013Fb6b472,\r\n//        0xF82e9D2De3e22fda38284484cCc5C1013Fb6b472,\r\n//        0xF82e9D2De3e22fda38284484cCc5C1013Fb6b472,\r\n//        0xF82e9D2De3e22fda38284484cCc5C1013Fb6b472,\r\n//        0xF82e9D2De3e22fda38284484cCc5C1013Fb6b472,\r\n//        0xF82e9D2De3e22fda38284484cCc5C1013Fb6b472,\r\n//        0xF82e9D2De3e22fda38284484cCc5C1013Fb6b472,\r\n//        0xF82e9D2De3e22fda38284484cCc5C1013Fb6b472,\r\n//        0xF82e9D2De3e22fda38284484cCc5C1013Fb6b472,\r\n//        0xF82e9D2De3e22fda38284484cCc5C1013Fb6b472,\r\n//        0xF82e9D2De3e22fda38284484cCc5C1013Fb6b472,\r\n//        0xF82e9D2De3e22fda38284484cCc5C1013Fb6b472,\r\n//        0xF82e9D2De3e22fda38284484cCc5C1013Fb6b472,\r\n//        0xF82e9D2De3e22fda38284484cCc5C1013Fb6b472,\r\n//        0xF82e9D2De3e22fda38284484cCc5C1013Fb6b472,\r\n//        0xF82e9D2De3e22fda38284484cCc5C1013Fb6b472,\r\n//        0xF82e9D2De3e22fda38284484cCc5C1013Fb6b472,\r\n//        0xF82e9D2De3e22fda38284484cCc5C1013Fb6b472,\r\n//        0xF82e9D2De3e22fda38284484cCc5C1013Fb6b472,\r\n//        0xF82e9D2De3e22fda38284484cCc5C1013Fb6b472,\r\n//        0xF82e9D2De3e22fda38284484cCc5C1013Fb6b472,\r\n//        0xF82e9D2De3e22fda38284484cCc5C1013Fb6b472,\r\n//        0xF82e9D2De3e22fda38284484cCc5C1013Fb6b472,\r\n//        0xF82e9D2De3e22fda38284484cCc5C1013Fb6b472,\r\n//        0xF82e9D2De3e22fda38284484cCc5C1013Fb6b472,\r\n//        0xF82e9D2De3e22fda38284484cCc5C1013Fb6b472,\r\n//        0xF82e9D2De3e22fda38284484cCc5C1013Fb6b472,\r\n//        0xF82e9D2De3e22fda38284484cCc5C1013Fb6b472,\r\n//        0xF82e9D2De3e22fda38284484cCc5C1013Fb6b472,\r\n//        0xF82e9D2De3e22fda38284484cCc5C1013Fb6b472,\r\n//        0xF82e9D2De3e22fda38284484cCc5C1013Fb6b472,\r\n//        0xF82e9D2De3e22fda38284484cCc5C1013Fb6b472,\r\n//        0xF82e9D2De3e22fda38284484cCc5C1013Fb6b472,\r\n//        0xF82e9D2De3e22fda38284484cCc5C1013Fb6b472,\r\n//        0xF82e9D2De3e22fda38284484cCc5C1013Fb6b472,\r\n//        0xF82e9D2De3e22fda38284484cCc5C1013Fb6b472,\r\n//        0xF82e9D2De3e22fda38284484cCc5C1013Fb6b472,\r\n//        0xF82e9D2De3e22fda38284484cCc5C1013Fb6b472,\r\n//        0xF82e9D2De3e22fda38284484cCc5C1013Fb6b472,\r\n//        0xF82e9D2De3e22fda38284484cCc5C1013Fb6b472,\r\n//        0xF82e9D2De3e22fda38284484cCc5C1013Fb6b472,\r\n//        0xF82e9D2De3e22fda38284484cCc5C1013Fb6b472,\r\n//        0xF82e9D2De3e22fda38284484cCc5C1013Fb6b472,\r\n//        0xF82e9D2De3e22fda38284484cCc5C1013Fb6b472,\r\n//        0xF82e9D2De3e22fda38284484cCc5C1013Fb6b472,\r\n//        0xF82e9D2De3e22fda38284484cCc5C1013Fb6b472,\r\n//        0xF82e9D2De3e22fda38284484cCc5C1013Fb6b472,\r\n//        0xF82e9D2De3e22fda38284484cCc5C1013Fb6b472,\r\n//        0xF82e9D2De3e22fda38284484cCc5C1013Fb6b472,\r\n//        0xF82e9D2De3e22fda38284484cCc5C1013Fb6b472,\r\n//        0xF82e9D2De3e22fda38284484cCc5C1013Fb6b472,\r\n//        0xF82e9D2De3e22fda38284484cCc5C1013Fb6b472,\r\n//        0x9FD6578d1a624254852A8BC1b1247A0C3c6415dE,\r\n//        0x511E061641494FA876741c2588DcD117afb51e91,\r\n//        0x511E061641494FA876741c2588DcD117afb51e91,\r\n//        0x511E061641494FA876741c2588DcD117afb51e91,\r\n//        0x511E061641494FA876741c2588DcD117afb51e91,\r\n//        0x8427E0C443cd8cFE3A638C31be5f2258c9cD3f35,\r\n//        0x2f7a9cc140e50474846b36e036caac4095F015c5,\r\n//        0x2f7a9cc140e50474846b36e036caac4095F015c5,\r\n//        0x2f7a9cc140e50474846b36e036caac4095F015c5,\r\n//        0x2f7a9cc140e50474846b36e036caac4095F015c5,\r\n//        0x2f7a9cc140e50474846b36e036caac4095F015c5,\r\n//        0x15D332d65eE3F6F48dE05B850458e37031B7EED7,\r\n//        0x15D332d65eE3F6F48dE05B850458e37031B7EED7,\r\n//        0x15D332d65eE3F6F48dE05B850458e37031B7EED7,\r\n//        0x15D332d65eE3F6F48dE05B850458e37031B7EED7,\r\n//        0x15D332d65eE3F6F48dE05B850458e37031B7EED7,\r\n//        0x15D332d65eE3F6F48dE05B850458e37031B7EED7,\r\n//        0x15D332d65eE3F6F48dE05B850458e37031B7EED7,\r\n//        0x15D332d65eE3F6F48dE05B850458e37031B7EED7,\r\n//        0x15D332d65eE3F6F48dE05B850458e37031B7EED7,\r\n//        0x15D332d65eE3F6F48dE05B850458e37031B7EED7,\r\n//        0x15D332d65eE3F6F48dE05B850458e37031B7EED7,\r\n//        0x15D332d65eE3F6F48dE05B850458e37031B7EED7,\r\n//        0x15D332d65eE3F6F48dE05B850458e37031B7EED7,\r\n//        0x15D332d65eE3F6F48dE05B850458e37031B7EED7,\r\n//        0x15D332d65eE3F6F48dE05B850458e37031B7EED7,\r\n//        0xBFbc9D70641B64b17BC6FffaF69baD0284D99Cf8,\r\n//        0xBFbc9D70641B64b17BC6FffaF69baD0284D99Cf8,\r\n//        0xBFbc9D70641B64b17BC6FffaF69baD0284D99Cf8,\r\n//        0x49622D56b0a1E758de95E24900C6192F743BbFa5,\r\n//        0x478cDA6b8f61Ef82B8233962c284A615c7Da6271,\r\n//        0x478cDA6b8f61Ef82B8233962c284A615c7Da6271,\r\n//        0x478cDA6b8f61Ef82B8233962c284A615c7Da6271,\r\n//        0x478cDA6b8f61Ef82B8233962c284A615c7Da6271,\r\n//        0x478cDA6b8f61Ef82B8233962c284A615c7Da6271,\r\n//        0x478cDA6b8f61Ef82B8233962c284A615c7Da6271,\r\n//        0x478cDA6b8f61Ef82B8233962c284A615c7Da6271,\r\n//        0x478cDA6b8f61Ef82B8233962c284A615c7Da6271,\r\n//        0x279EE46b0027609194874909a8385C9c58271206,\r\n//        0x6992Dd3cECC0bDDE46665eaAC48f7Ea344782E68,\r\n//        0xEfd36256e41A6478deC47Bd0e62E10af3832dBA2,\r\n//        0xEfd36256e41A6478deC47Bd0e62E10af3832dBA2,\r\n//        0xEfd36256e41A6478deC47Bd0e62E10af3832dBA2,\r\n//        0xEfd36256e41A6478deC47Bd0e62E10af3832dBA2,\r\n//        0xEfd36256e41A6478deC47Bd0e62E10af3832dBA2,\r\n//        0xEfd36256e41A6478deC47Bd0e62E10af3832dBA2,\r\n//        0xEfd36256e41A6478deC47Bd0e62E10af3832dBA2,\r\n//        0x0E6eccDdD1cCF310C47B15BAB8A52523a8A9E861,\r\n//        0x0E6eccDdD1cCF310C47B15BAB8A52523a8A9E861,\r\n//        0x0E6eccDdD1cCF310C47B15BAB8A52523a8A9E861,\r\n//        0x0E6eccDdD1cCF310C47B15BAB8A52523a8A9E861,\r\n//        0x0E6eccDdD1cCF310C47B15BAB8A52523a8A9E861,\r\n//        0x0E6eccDdD1cCF310C47B15BAB8A52523a8A9E861,\r\n//        0x0E6eccDdD1cCF310C47B15BAB8A52523a8A9E861,\r\n//        0x0E6eccDdD1cCF310C47B15BAB8A52523a8A9E861,\r\n//        0x0E6eccDdD1cCF310C47B15BAB8A52523a8A9E861,\r\n//        0x0E6eccDdD1cCF310C47B15BAB8A52523a8A9E861,\r\n//        0x0E6eccDdD1cCF310C47B15BAB8A52523a8A9E861,\r\n//        0x0E6eccDdD1cCF310C47B15BAB8A52523a8A9E861,\r\n//        0x0E6eccDdD1cCF310C47B15BAB8A52523a8A9E861,\r\n//        0x0E6eccDdD1cCF310C47B15BAB8A52523a8A9E861,\r\n//        0x0E6eccDdD1cCF310C47B15BAB8A52523a8A9E861,\r\n//        0x0E6eccDdD1cCF310C47B15BAB8A52523a8A9E861,\r\n//        0x0E6eccDdD1cCF310C47B15BAB8A52523a8A9E861,\r\n//        0x0E6eccDdD1cCF310C47B15BAB8A52523a8A9E861,\r\n//        0x0E6eccDdD1cCF310C47B15BAB8A52523a8A9E861,\r\n//        0x0E6eccDdD1cCF310C47B15BAB8A52523a8A9E861,\r\n//        0x0E6eccDdD1cCF310C47B15BAB8A52523a8A9E861,\r\n//        0x0E6eccDdD1cCF310C47B15BAB8A52523a8A9E861,\r\n//        0x0E6eccDdD1cCF310C47B15BAB8A52523a8A9E861,\r\n//        0x0E6eccDdD1cCF310C47B15BAB8A52523a8A9E861,\r\n//        0x0E6eccDdD1cCF310C47B15BAB8A52523a8A9E861,\r\n//        0x0E6eccDdD1cCF310C47B15BAB8A52523a8A9E861,\r\n//        0x0E6eccDdD1cCF310C47B15BAB8A52523a8A9E861,\r\n//        0x0E6eccDdD1cCF310C47B15BAB8A52523a8A9E861,\r\n//        0x0E6eccDdD1cCF310C47B15BAB8A52523a8A9E861,\r\n//        0x0E6eccDdD1cCF310C47B15BAB8A52523a8A9E861,\r\n//        0x0E6eccDdD1cCF310C47B15BAB8A52523a8A9E861,\r\n//        0x0E6eccDdD1cCF310C47B15BAB8A52523a8A9E861,\r\n//        0x0E6eccDdD1cCF310C47B15BAB8A52523a8A9E861,\r\n//        0x0E6eccDdD1cCF310C47B15BAB8A52523a8A9E861,\r\n//        0x0E6eccDdD1cCF310C47B15BAB8A52523a8A9E861,\r\n//        0x0E6eccDdD1cCF310C47B15BAB8A52523a8A9E861,\r\n//        0x0E6eccDdD1cCF310C47B15BAB8A52523a8A9E861,\r\n//        0x0E6eccDdD1cCF310C47B15BAB8A52523a8A9E861,\r\n//        0x0E6eccDdD1cCF310C47B15BAB8A52523a8A9E861,\r\n//        0x0E6eccDdD1cCF310C47B15BAB8A52523a8A9E861,\r\n//        0x0E6eccDdD1cCF310C47B15BAB8A52523a8A9E861,\r\n//        0x68Ef0bb43A545f865B6f39916d19ad4E030eC782,\r\n//        0x68Ef0bb43A545f865B6f39916d19ad4E030eC782,\r\n//        0x68Ef0bb43A545f865B6f39916d19ad4E030eC782,\r\n//        0x68Ef0bb43A545f865B6f39916d19ad4E030eC782,\r\n//        0x68Ef0bb43A545f865B6f39916d19ad4E030eC782,\r\n//        0x68Ef0bb43A545f865B6f39916d19ad4E030eC782,\r\n//        0x68Ef0bb43A545f865B6f39916d19ad4E030eC782,\r\n//        0x68Ef0bb43A545f865B6f39916d19ad4E030eC782,\r\n//        0x68Ef0bb43A545f865B6f39916d19ad4E030eC782,\r\n//        0x68Ef0bb43A545f865B6f39916d19ad4E030eC782,\r\n//        0xfB575370852870d567Ec24Bea93d7c1096cA3067,\r\n//        0xfB575370852870d567Ec24Bea93d7c1096cA3067,\r\n//        0xfB575370852870d567Ec24Bea93d7c1096cA3067,\r\n//        0xfB575370852870d567Ec24Bea93d7c1096cA3067,\r\n//        0xfB575370852870d567Ec24Bea93d7c1096cA3067,\r\n//        0xfB575370852870d567Ec24Bea93d7c1096cA3067,\r\n//        0xfB575370852870d567Ec24Bea93d7c1096cA3067,\r\n//        0xfB575370852870d567Ec24Bea93d7c1096cA3067,\r\n//        0xfB575370852870d567Ec24Bea93d7c1096cA3067,\r\n//        0xfB575370852870d567Ec24Bea93d7c1096cA3067,\r\n//        0xfB575370852870d567Ec24Bea93d7c1096cA3067,\r\n//        0xfB575370852870d567Ec24Bea93d7c1096cA3067,\r\n//        0xfB575370852870d567Ec24Bea93d7c1096cA3067,\r\n//        0xfB575370852870d567Ec24Bea93d7c1096cA3067,\r\n//        0xfB575370852870d567Ec24Bea93d7c1096cA3067,\r\n//        0xfB575370852870d567Ec24Bea93d7c1096cA3067,\r\n//        0xfB575370852870d567Ec24Bea93d7c1096cA3067,\r\n//        0xfB575370852870d567Ec24Bea93d7c1096cA3067,\r\n//        0xfB575370852870d567Ec24Bea93d7c1096cA3067,\r\n//        0xfB575370852870d567Ec24Bea93d7c1096cA3067,\r\n//        0xfB575370852870d567Ec24Bea93d7c1096cA3067,\r\n//        0xD6C21557D6c7772B998b9748ddCfE1835c43a845,\r\n//        0xD6C21557D6c7772B998b9748ddCfE1835c43a845,\r\n//        0xD6C21557D6c7772B998b9748ddCfE1835c43a845,\r\n//        0xD6C21557D6c7772B998b9748ddCfE1835c43a845,\r\n//        0xD6C21557D6c7772B998b9748ddCfE1835c43a845,\r\n//        0xD6C21557D6c7772B998b9748ddCfE1835c43a845,\r\n//        0xD6C21557D6c7772B998b9748ddCfE1835c43a845,\r\n//        0x3Cf58B8c135F5457B0541637356FA183B5A4aA98,\r\n//        0x3Cf58B8c135F5457B0541637356FA183B5A4aA98,\r\n//        0x3Cf58B8c135F5457B0541637356FA183B5A4aA98,\r\n//        0x31714c50420af572A75bE197A11442dBbb93868d,\r\n//        0x31714c50420af572A75bE197A11442dBbb93868d,\r\n//        0x31714c50420af572A75bE197A11442dBbb93868d,\r\n//        0x631e8b45bD1a8eD4564D40A80DF72d93fF5f11bd,\r\n//        0x631e8b45bD1a8eD4564D40A80DF72d93fF5f11bd,\r\n//        0x631e8b45bD1a8eD4564D40A80DF72d93fF5f11bd,\r\n//        0x631e8b45bD1a8eD4564D40A80DF72d93fF5f11bd,\r\n//        0x631e8b45bD1a8eD4564D40A80DF72d93fF5f11bd,\r\n//        0xA7EDe5CE31317E0087665D0679319B225490801B,\r\n//        0xeA9043fb516efCbFF780c01EBD00B9480c6A7201,\r\n//        0xDa6d2760F416fE7Bb400735AB378F0Fff85Aec14,\r\n//        0xDa6d2760F416fE7Bb400735AB378F0Fff85Aec14,\r\n//        0xDa6d2760F416fE7Bb400735AB378F0Fff85Aec14,\r\n//        0xDa6d2760F416fE7Bb400735AB378F0Fff85Aec14,\r\n//        0xDa6d2760F416fE7Bb400735AB378F0Fff85Aec14,\r\n//        0xDa6d2760F416fE7Bb400735AB378F0Fff85Aec14,\r\n//        0x9A537eA9C3B543af101bEd325d30C87BC7522BDE,\r\n//        0x54cCcedff57811b5ee8626aE6291d7c72c52D6F6,\r\n//        0x54cCcedff57811b5ee8626aE6291d7c72c52D6F6,\r\n//        0x54cCcedff57811b5ee8626aE6291d7c72c52D6F6,\r\n//        0x54cCcedff57811b5ee8626aE6291d7c72c52D6F6,\r\n//        0x54cCcedff57811b5ee8626aE6291d7c72c52D6F6,\r\n//        0x54cCcedff57811b5ee8626aE6291d7c72c52D6F6,\r\n//        0x54cCcedff57811b5ee8626aE6291d7c72c52D6F6,\r\n//        0x54cCcedff57811b5ee8626aE6291d7c72c52D6F6,\r\n//        0x54cCcedff57811b5ee8626aE6291d7c72c52D6F6,\r\n//        0x54cCcedff57811b5ee8626aE6291d7c72c52D6F6,\r\n//        0x54cCcedff57811b5ee8626aE6291d7c72c52D6F6,\r\n//        0x534152A17960B09F3869349a390E449126748410,\r\n//        0x534152A17960B09F3869349a390E449126748410,\r\n//        0xc8CAc7985E716Aa5E87621E567e3e49c08B489A1,\r\n//        0xb18e8a85043E0adaAEBd1E91541f56e3265925c3,\r\n//        0xb18e8a85043E0adaAEBd1E91541f56e3265925c3,\r\n//        0xb18e8a85043E0adaAEBd1E91541f56e3265925c3,\r\n//        0xb18e8a85043E0adaAEBd1E91541f56e3265925c3,\r\n//        0xb18e8a85043E0adaAEBd1E91541f56e3265925c3,\r\n//        0xB30f8D48E57738174Bfbc0e89E6a319ef9c3b91b,\r\n//        0xB34C4bbe1f628Dc31FEd918eAAa82bCEe3eE5586,\r\n//        0xB34C4bbe1f628Dc31FEd918eAAa82bCEe3eE5586,\r\n//        0xB34C4bbe1f628Dc31FEd918eAAa82bCEe3eE5586,\r\n//        0xB34C4bbe1f628Dc31FEd918eAAa82bCEe3eE5586,\r\n//        0xB34C4bbe1f628Dc31FEd918eAAa82bCEe3eE5586,\r\n//        0xB34C4bbe1f628Dc31FEd918eAAa82bCEe3eE5586,\r\n//        0xB34C4bbe1f628Dc31FEd918eAAa82bCEe3eE5586,\r\n//        0xe2Ad5f71D33f8495bd96c63f567DB1BD3Ba82D6B,\r\n//        0xe2Ad5f71D33f8495bd96c63f567DB1BD3Ba82D6B,\r\n//        0xe2Ad5f71D33f8495bd96c63f567DB1BD3Ba82D6B,\r\n//        0xe2Ad5f71D33f8495bd96c63f567DB1BD3Ba82D6B,\r\n//        0xe2Ad5f71D33f8495bd96c63f567DB1BD3Ba82D6B,\r\n//        0xe2Ad5f71D33f8495bd96c63f567DB1BD3Ba82D6B,\r\n//        0xe2Ad5f71D33f8495bd96c63f567DB1BD3Ba82D6B,\r\n//        0xe2Ad5f71D33f8495bd96c63f567DB1BD3Ba82D6B,\r\n//        0xe2Ad5f71D33f8495bd96c63f567DB1BD3Ba82D6B,\r\n//        0xe2Ad5f71D33f8495bd96c63f567DB1BD3Ba82D6B,\r\n//        0x64e6236FB72bbe4DEb5C7B881386944207f80d8b,\r\n//        0x64e6236FB72bbe4DEb5C7B881386944207f80d8b,\r\n//        0x64e6236FB72bbe4DEb5C7B881386944207f80d8b,\r\n//        0xE59C09D6Aa3a479D74E1E9E379d31d834BE438C0,\r\n//        0xE59C09D6Aa3a479D74E1E9E379d31d834BE438C0,\r\n//        0xE59C09D6Aa3a479D74E1E9E379d31d834BE438C0,\r\n//        0x87f28Fc31e72C2bc230229f23de20000DCBdd9Fc,\r\n//        0x87f28Fc31e72C2bc230229f23de20000DCBdd9Fc,\r\n//        0x87f28Fc31e72C2bc230229f23de20000DCBdd9Fc,\r\n//        0xce38E59eD1c4aDd056c3b43Bb806707d4E479c18,\r\n//        0xc6451E75EAF1066b908014E7537238B01dcc4D4d,\r\n//        0xc6451E75EAF1066b908014E7537238B01dcc4D4d,\r\n//        0xc6451E75EAF1066b908014E7537238B01dcc4D4d,\r\n//        0x702d12AE935C9A8CE883F2f42Cd4e3A66357D17A,\r\n//        0x702d12AE935C9A8CE883F2f42Cd4e3A66357D17A,\r\n//        0xA1b342ef9cf077407C261D59BB481DF0b92d5b54,\r\n//        0xA1b342ef9cf077407C261D59BB481DF0b92d5b54,\r\n//        0xA1b342ef9cf077407C261D59BB481DF0b92d5b54,\r\n//        0xA1b342ef9cf077407C261D59BB481DF0b92d5b54,\r\n//        0x6EE579455E55c23AB64ca6e9934222bE62E62a36,\r\n//        0x6EE579455E55c23AB64ca6e9934222bE62E62a36,\r\n//        0x6EE579455E55c23AB64ca6e9934222bE62E62a36,\r\n//        0x6EE579455E55c23AB64ca6e9934222bE62E62a36,\r\n//        0x0381C7b64971cA12613EA03C228bD8E9189C8aB4,\r\n//        0x0381C7b64971cA12613EA03C228bD8E9189C8aB4,\r\n//        0x0381C7b64971cA12613EA03C228bD8E9189C8aB4,\r\n//        0x0381C7b64971cA12613EA03C228bD8E9189C8aB4,\r\n//        0x0381C7b64971cA12613EA03C228bD8E9189C8aB4,\r\n//        0x0381C7b64971cA12613EA03C228bD8E9189C8aB4,\r\n//        0x0381C7b64971cA12613EA03C228bD8E9189C8aB4,\r\n//        0x0381C7b64971cA12613EA03C228bD8E9189C8aB4,\r\n//        0x0381C7b64971cA12613EA03C228bD8E9189C8aB4,\r\n//        0x0381C7b64971cA12613EA03C228bD8E9189C8aB4,\r\n//        0x1B7BCcA9d760CC85f482df2F82f4309892fd0fc5,\r\n//        0xa8FaE6b4959B8bcB393d2d54fd168599e4DaAE1b,\r\n//        0xa8FaE6b4959B8bcB393d2d54fd168599e4DaAE1b,\r\n//        0xa8FaE6b4959B8bcB393d2d54fd168599e4DaAE1b,\r\n//        0x157739953D07352683E7A315dF1a9F145935fD9e,\r\n//        0x157739953D07352683E7A315dF1a9F145935fD9e,\r\n//        0x8EF2BBE9E05B7469bd257b0FA0d670d51A9bf2f4,\r\n//        0x8EF2BBE9E05B7469bd257b0FA0d670d51A9bf2f4,\r\n//        0x8EF2BBE9E05B7469bd257b0FA0d670d51A9bf2f4,\r\n//        0x8EF2BBE9E05B7469bd257b0FA0d670d51A9bf2f4,\r\n//        0xbE8f43B36B60eAa135cE7aA12cBD057700a9FBd6,\r\n//        0xbE8f43B36B60eAa135cE7aA12cBD057700a9FBd6,\r\n//        0x0699F7bF76A26d24C68778e1Ae26e5439ce3CF62,\r\n//        0x0699F7bF76A26d24C68778e1Ae26e5439ce3CF62,\r\n//        0x0699F7bF76A26d24C68778e1Ae26e5439ce3CF62,\r\n//        0x74E3a06361B0c67d736020C3B09196AA84019bFF,\r\n//        0x74E3a06361B0c67d736020C3B09196AA84019bFF,\r\n//        0x74E3a06361B0c67d736020C3B09196AA84019bFF,\r\n//        0x74E3a06361B0c67d736020C3B09196AA84019bFF,\r\n//        0xA24bd512D81ab7a949267f14e3085702f2848931,\r\n//        0xA24bd512D81ab7a949267f14e3085702f2848931,\r\n//        0xA24bd512D81ab7a949267f14e3085702f2848931,\r\n//        0xA24bd512D81ab7a949267f14e3085702f2848931,\r\n//        0xA24bd512D81ab7a949267f14e3085702f2848931,\r\n//        0xA24bd512D81ab7a949267f14e3085702f2848931,\r\n//        0xA24bd512D81ab7a949267f14e3085702f2848931,\r\n//        0xA24bd512D81ab7a949267f14e3085702f2848931,\r\n//        0xA24bd512D81ab7a949267f14e3085702f2848931,\r\n//        0xA24bd512D81ab7a949267f14e3085702f2848931,\r\n//        0xA24bd512D81ab7a949267f14e3085702f2848931,\r\n//        0xA24bd512D81ab7a949267f14e3085702f2848931,\r\n//        0xA24bd512D81ab7a949267f14e3085702f2848931,\r\n//        0xA24bd512D81ab7a949267f14e3085702f2848931,\r\n//        0xA24bd512D81ab7a949267f14e3085702f2848931,\r\n//        0xA24bd512D81ab7a949267f14e3085702f2848931,\r\n//        0xA24bd512D81ab7a949267f14e3085702f2848931,\r\n//        0xA24bd512D81ab7a949267f14e3085702f2848931,\r\n//        0xA24bd512D81ab7a949267f14e3085702f2848931,\r\n//        0xA24bd512D81ab7a949267f14e3085702f2848931,\r\n//        0xA24bd512D81ab7a949267f14e3085702f2848931,\r\n//        0xA24bd512D81ab7a949267f14e3085702f2848931,\r\n//        0xA24bd512D81ab7a949267f14e3085702f2848931,\r\n//        0xA24bd512D81ab7a949267f14e3085702f2848931,\r\n//        0xA24bd512D81ab7a949267f14e3085702f2848931,\r\n//        0xA24bd512D81ab7a949267f14e3085702f2848931,\r\n//        0xA24bd512D81ab7a949267f14e3085702f2848931,\r\n//        0xA24bd512D81ab7a949267f14e3085702f2848931,\r\n//        0xA24bd512D81ab7a949267f14e3085702f2848931,\r\n//        0xA24bd512D81ab7a949267f14e3085702f2848931,\r\n//        0xA24bd512D81ab7a949267f14e3085702f2848931,\r\n//        0xA24bd512D81ab7a949267f14e3085702f2848931,\r\n//        0xA24bd512D81ab7a949267f14e3085702f2848931,\r\n//        0xA24bd512D81ab7a949267f14e3085702f2848931,\r\n//        0xA24bd512D81ab7a949267f14e3085702f2848931,\r\n//        0xA24bd512D81ab7a949267f14e3085702f2848931,\r\n//        0xA24bd512D81ab7a949267f14e3085702f2848931,\r\n//        0xA24bd512D81ab7a949267f14e3085702f2848931,\r\n//        0xA24bd512D81ab7a949267f14e3085702f2848931,\r\n//        0xA24bd512D81ab7a949267f14e3085702f2848931,\r\n//        0xA24bd512D81ab7a949267f14e3085702f2848931,\r\n//        0xd932A7735AB6de3f1C11FC62cC449393F6418985,\r\n//        0xd932A7735AB6de3f1C11FC62cC449393F6418985,\r\n//        0xd932A7735AB6de3f1C11FC62cC449393F6418985,\r\n//        0x26Fefa285aa797665F06a61993e485d0d9195309,\r\n//        0x61b395fae2255B7f22Ab9Dd8CB54edE88B66b2D6,\r\n//        0x3ec73fC792Ca878F17d48E8e16A822284AAb2F41,\r\n//        0x4b7BCE154aeD501572173Ea661B27d717Bd6562C,\r\n//        0x4b7BCE154aeD501572173Ea661B27d717Bd6562C,\r\n//        0x4b7BCE154aeD501572173Ea661B27d717Bd6562C,\r\n//        0x04C04c3662B1bA3d7954E4C795C19178C3793341,\r\n//        0x04C04c3662B1bA3d7954E4C795C19178C3793341,\r\n//        0xC2BCE275Aa0879A21Cc2b968e29A00B7e0Cf3E43,\r\n//        0xC2BCE275Aa0879A21Cc2b968e29A00B7e0Cf3E43,\r\n//        0xC2BCE275Aa0879A21Cc2b968e29A00B7e0Cf3E43,\r\n//        0x5ca1047D199fBF70b0675D930896270D0652EdC7,\r\n//        0xDDf8dA887a1D5C07d05A948856b79DaB091efc78,\r\n//        0xd9544F2aFDe2422A1F72630D45b58198e3239fB8,\r\n//        0xd9544F2aFDe2422A1F72630D45b58198e3239fB8,\r\n//        0xd9544F2aFDe2422A1F72630D45b58198e3239fB8,\r\n//        0xd9544F2aFDe2422A1F72630D45b58198e3239fB8,\r\n//        0xd9544F2aFDe2422A1F72630D45b58198e3239fB8,\r\n//        0xd9544F2aFDe2422A1F72630D45b58198e3239fB8,\r\n//        0xd9544F2aFDe2422A1F72630D45b58198e3239fB8,\r\n//        0xF726f45b78FFB79c1B30E1cA5A923437AeA1E1e7,\r\n//        0xF726f45b78FFB79c1B30E1cA5A923437AeA1E1e7,\r\n//        0xF726f45b78FFB79c1B30E1cA5A923437AeA1E1e7,\r\n//        0x87Ad7427A667A8D9B8a5888BA0e20c47Fef80f97,\r\n//        0x87Ad7427A667A8D9B8a5888BA0e20c47Fef80f97,\r\n//        0x87Ad7427A667A8D9B8a5888BA0e20c47Fef80f97,\r\n//        0x4C2D35ca0a64f15aC64c93D2B80a34357393F2a2,\r\n//        0x4559aA5E6A9Ac32fbA29F88A37F96b00290f2398,\r\n//        0x4559aA5E6A9Ac32fbA29F88A37F96b00290f2398,\r\n//        0x4559aA5E6A9Ac32fbA29F88A37F96b00290f2398,\r\n//        0x4559aA5E6A9Ac32fbA29F88A37F96b00290f2398,\r\n//        0x4559aA5E6A9Ac32fbA29F88A37F96b00290f2398,\r\n//        0x4559aA5E6A9Ac32fbA29F88A37F96b00290f2398,\r\n//        0x4559aA5E6A9Ac32fbA29F88A37F96b00290f2398,\r\n//        0x9FB6f88AC2fF866C51e3150Eb22e389aF1468b66,\r\n//        0x9FB6f88AC2fF866C51e3150Eb22e389aF1468b66,\r\n//        0xDdF0F74Cf4113E21A2FCbfD4BbE3f1bf50bCb0b9,\r\n//        0xDdF0F74Cf4113E21A2FCbfD4BbE3f1bf50bCb0b9,\r\n//        0xDdF0F74Cf4113E21A2FCbfD4BbE3f1bf50bCb0b9,\r\n//        0x13d873246Bb01c5c0528bC144DA9d0732cCf31A2,\r\n//        0x13d873246Bb01c5c0528bC144DA9d0732cCf31A2,\r\n//        0x2440460FbB9D15fdc6889aaCD5BC6B420A34e944,\r\n//        0x2440460FbB9D15fdc6889aaCD5BC6B420A34e944,\r\n//        0x2440460FbB9D15fdc6889aaCD5BC6B420A34e944,\r\n//        0x2440460FbB9D15fdc6889aaCD5BC6B420A34e944,\r\n//        0x2440460FbB9D15fdc6889aaCD5BC6B420A34e944,\r\n//        0x2440460FbB9D15fdc6889aaCD5BC6B420A34e944,\r\n//        0x2440460FbB9D15fdc6889aaCD5BC6B420A34e944,\r\n//        0x2440460FbB9D15fdc6889aaCD5BC6B420A34e944,\r\n//        0x9d0fFdcfA7CDfB2fE2592b5B53e3b65567AD0A2C,\r\n//        0xa2541e1D7f98BA24c41E2535905d92b8bb88d897,\r\n//        0xa2541e1D7f98BA24c41E2535905d92b8bb88d897,\r\n//        0x253b3bE2ABc11Be2fA9F31a5aFb04174E1fa0B51,\r\n//        0x253b3bE2ABc11Be2fA9F31a5aFb04174E1fa0B51,\r\n//        0x253b3bE2ABc11Be2fA9F31a5aFb04174E1fa0B51,\r\n//        0xdA6F16134921d88643316eE080875a3C9FCAb3d0,\r\n//        0xa5B7b4eb029295159D9b3df038B343a2169032d3,\r\n//        0x3F195179eA6202B603490b57A7265FD93c24f553,\r\n//        0x3F195179eA6202B603490b57A7265FD93c24f553,\r\n//        0xe5EdeA54596B385C3c8dFd5010C3Cf892d547Acb,\r\n//        0x0224AaC8cbBe4039558dd91b7E1FDaC6339a8425,\r\n//        0x0224AaC8cbBe4039558dd91b7E1FDaC6339a8425,\r\n//        0x0224AaC8cbBe4039558dd91b7E1FDaC6339a8425,\r\n//        0x1d19C45424f623488827C308B14811933210F828,\r\n//        0x1d19C45424f623488827C308B14811933210F828,\r\n//        0x1d19C45424f623488827C308B14811933210F828,\r\n//        0x1d19C45424f623488827C308B14811933210F828,\r\n//        0x1d19C45424f623488827C308B14811933210F828,\r\n//        0x1d19C45424f623488827C308B14811933210F828,\r\n//        0x1d19C45424f623488827C308B14811933210F828,\r\n//        0x1d19C45424f623488827C308B14811933210F828,\r\n//        0x1d19C45424f623488827C308B14811933210F828,\r\n//        0x1d19C45424f623488827C308B14811933210F828,\r\n//        0x1d19C45424f623488827C308B14811933210F828,\r\n//        0x1d19C45424f623488827C308B14811933210F828,\r\n//        0x1d19C45424f623488827C308B14811933210F828,\r\n//        0x1d19C45424f623488827C308B14811933210F828,\r\n//        0x2aDdE568bbCab1ad53b5A339544BC8eD6B21C1F3,\r\n//        0x2aDdE568bbCab1ad53b5A339544BC8eD6B21C1F3,\r\n//        0x976dE4991de2EF5a733aD70030BC5F5172FcCdF2,\r\n//        0x976dE4991de2EF5a733aD70030BC5F5172FcCdF2,\r\n//        0x3B910E02a48F3c91B1adcD99B20d58d91E74F441,\r\n//        0x3DE5937AC58b07641C3114DD9546b0B437a01cAd,\r\n//        0x3DE5937AC58b07641C3114DD9546b0B437a01cAd,\r\n//        0xA228a5950e79C7a89F836C34d34Ec42B80E57499,\r\n//        0xdE3d3491a3a7bCF4E643f1c699fd7B39Bd692944,\r\n//        0xCe621E1Db598A3A60006F402D7530aF7F3ae737f,\r\n//        0xCe621E1Db598A3A60006F402D7530aF7F3ae737f,\r\n//        0xCe621E1Db598A3A60006F402D7530aF7F3ae737f,\r\n//        0xCe621E1Db598A3A60006F402D7530aF7F3ae737f,\r\n//        0xCe621E1Db598A3A60006F402D7530aF7F3ae737f,\r\n//        0xCe621E1Db598A3A60006F402D7530aF7F3ae737f,\r\n//        0xCe621E1Db598A3A60006F402D7530aF7F3ae737f,\r\n//        0xCe621E1Db598A3A60006F402D7530aF7F3ae737f,\r\n//        0xba3019e09F881477DA564dab79A952f5AE274343,\r\n//        0x36fc63A184a21866b95B65242fc312Af641401Fe,\r\n//        0x9A521cAf497Ac901E17C990A3AE1F361C6f580AA,\r\n//        0x9A521cAf497Ac901E17C990A3AE1F361C6f580AA,\r\n//        0x079592eD30CA513e163beaDa021B2028C05cb15F,\r\n//        0x079592eD30CA513e163beaDa021B2028C05cb15F,\r\n//        0x079592eD30CA513e163beaDa021B2028C05cb15F,\r\n//        0x3f64aC32eFfe872541eE3085DF127f47653f14dC,\r\n//        0x3f64aC32eFfe872541eE3085DF127f47653f14dC,\r\n//        0x8c12602024b4545c7E9ab1aEe6193c359b86ce97,\r\n//        0x585e50361d4C2D67EF84e98B84Ca85A5173A3E8E,\r\n//        0x66AA0f589f3bbad15fBDC24d9A97bE1d3282F6D9,\r\n//        0x66AA0f589f3bbad15fBDC24d9A97bE1d3282F6D9,\r\n//        0x66AA0f589f3bbad15fBDC24d9A97bE1d3282F6D9,\r\n//        0x66AA0f589f3bbad15fBDC24d9A97bE1d3282F6D9,\r\n//        0x66AA0f589f3bbad15fBDC24d9A97bE1d3282F6D9,\r\n//        0x66AA0f589f3bbad15fBDC24d9A97bE1d3282F6D9,\r\n//        0x66AA0f589f3bbad15fBDC24d9A97bE1d3282F6D9,\r\n//        0x66AA0f589f3bbad15fBDC24d9A97bE1d3282F6D9,\r\n//        0x66AA0f589f3bbad15fBDC24d9A97bE1d3282F6D9,\r\n//        0x66AA0f589f3bbad15fBDC24d9A97bE1d3282F6D9,\r\n//        0x66AA0f589f3bbad15fBDC24d9A97bE1d3282F6D9,\r\n//        0x66AA0f589f3bbad15fBDC24d9A97bE1d3282F6D9,\r\n//        0x66AA0f589f3bbad15fBDC24d9A97bE1d3282F6D9,\r\n//        0x66AA0f589f3bbad15fBDC24d9A97bE1d3282F6D9,\r\n//        0x66AA0f589f3bbad15fBDC24d9A97bE1d3282F6D9,\r\n//        0x4d67Bb6802E6F68AF2e22428F157A4A7a261CE45,\r\n//        0x4d67Bb6802E6F68AF2e22428F157A4A7a261CE45,\r\n//        0x4d67Bb6802E6F68AF2e22428F157A4A7a261CE45,\r\n//        0x47a01fCB08c8e7E29EDFe53e5824B79eaF5cF6E2,\r\n//        0x47a01fCB08c8e7E29EDFe53e5824B79eaF5cF6E2,\r\n//        0xf4b785ef2c10D5662A053043E362e7E74E14A206,\r\n//        0xf4b785ef2c10D5662A053043E362e7E74E14A206,\r\n//        0x02A3eb940250Ec205fFD38Af0c0CE275f668bdeb,\r\n//        0x02A3eb940250Ec205fFD38Af0c0CE275f668bdeb,\r\n//        0x04F4A2780106B5AF0eE693Ba2084d8B9318596BB,\r\n//        0x2a197337a819B9D6AD6220dd0E3E432f1285a914,\r\n//        0xf2F0f0338d9C3162683465D88cDE2d18eCa32696,\r\n//        0xf2F0f0338d9C3162683465D88cDE2d18eCa32696,\r\n//        0xB47bcCc4B7343b385cE09064649246b09c2549Ff,\r\n//        0xB47bcCc4B7343b385cE09064649246b09c2549Ff,\r\n//        0xB47bcCc4B7343b385cE09064649246b09c2549Ff,\r\n//        0x41Eea72fE552814BC98541e16Bf702F377d6E531,\r\n//        0x67924D2D42F24646444C78428654B2620A0cf733,\r\n//        0x527Bf8c25e78F9d58992FEA80F0677D3576870A9,\r\n//        0x0A69E7000A4E8C6d3B982d7e58022Cf2E48440b1,\r\n//        0x0A69E7000A4E8C6d3B982d7e58022Cf2E48440b1,\r\n//        0x0A69E7000A4E8C6d3B982d7e58022Cf2E48440b1,\r\n//        0x5Ecdf626d3ab597B2A7E0c4DE23869E4ab6781c1,\r\n//        0x3281d8f4d78C89Ad8312D001d9d07949CC606E7d,\r\n//        0x3281d8f4d78C89Ad8312D001d9d07949CC606E7d,\r\n//        0xed7F03c5Dd52498b383aCB6ab0eBD0C8E3E7478D,\r\n//        0xfa6fae951E0A4118363d8f3560423d86f519e741,\r\n//        0xfa6fae951E0A4118363d8f3560423d86f519e741,\r\n//        0x69C8E0F25009674bCa63D420b7EEf623c69c968F,\r\n//        0x164f8653eC39C40CF343D4F77b0F839D2eB776BB,\r\n//        0x972C86bB0f91D7EAB503ea8EdF17Ecce3a68dDAE,\r\n//        0xfbD2ec3B10B961DbAD088C007ee1EB68267f441C,\r\n//        0x31e0e75f2d486fBF7c61E11995Eae6DCD078F9F4,\r\n//        0x8eB3E91CdB937941BFDe3673151B1980bCa062d7,\r\n//        0x8eB3E91CdB937941BFDe3673151B1980bCa062d7,\r\n//        0xe3632Ec30FbC0cFDcd72886e62DEDcdbd20DCb6C,\r\n//        0xf15Ce5Da0cF72a4bD35C0ffc588b6E55EdD3aE4D,\r\n//        0xeC2CF9bdC29fA132c397a0c9E6254B0c19C54984,\r\n//        0x7252aDdCF940a75c76EF8C016b61b25d171c725F,\r\n//        0xF24BfD02a161960004aEbEB25d3bdA95f19ED7c1,\r\n//        0xb674Fc84BC733E6E8637164326B2262322E13c0c,\r\n//        0xb674Fc84BC733E6E8637164326B2262322E13c0c,\r\n//        0x995897afa1EFBFc2094b157a768a0fbE19fC6F7d,\r\n//        0x10495E143d79296d5222497b7245294dc9e2D596,\r\n//        0x5C5Eb866e198e1936E18521422F0e4535C8fb69F,\r\n//        0xc92AB6fDdBCBd5f3E24898f2Fd5fE5e54Cc75D9F,\r\n//        0xc92AB6fDdBCBd5f3E24898f2Fd5fE5e54Cc75D9F,\r\n//        0xc92AB6fDdBCBd5f3E24898f2Fd5fE5e54Cc75D9F,\r\n//        0xc31dF445eaE41d57f3DEc40FfaAeDCAcB5De69cE,\r\n//        0x46b78c4E9c3DB632FE85F831f03beF9C73F43874,\r\n//        0xA447e2B48AC061f3489443273e489731CccEeEaA,\r\n//        0xA447e2B48AC061f3489443273e489731CccEeEaA,\r\n//        0xA447e2B48AC061f3489443273e489731CccEeEaA,\r\n//        0x34BC7cdC5E7eE9682e8Dd1B91D453A72aEEB6d08,\r\n//        0x5E82adBC357E00906534DF8eC91C2A77ED88DbBf,\r\n//        0x84f8eF27F0f5c7cCA59af645e4cc58ED2D340531,\r\n//        0xC636A99bE47bE04329dCb376E1c0A93c4c2cE76F,\r\n//        0xC636A99bE47bE04329dCb376E1c0A93c4c2cE76F,\r\n//        0x07213c3240AC5a39d34F52736D06a97cBcF9C249,\r\n//        0xc1287F8Ad0f1E4629c1cA64F90FCc3A3b24E03eE,\r\n//        0xc1287F8Ad0f1E4629c1cA64F90FCc3A3b24E03eE,\r\n//        0xF3Cb47cf59A71b36a371DCE1f6b1B5c9f1fB0d19,\r\n//        0x04d4Ef7BD43ed4B87502228970212559498772d0,\r\n//        0xBe5A1eeB0bFB7eF02AF870DF05e75013Bd016973,\r\n//        0xBe5A1eeB0bFB7eF02AF870DF05e75013Bd016973,\r\n//        0xA8266eC35690FFC853028D3feC1F4b46982d5edb,\r\n//        0xA8266eC35690FFC853028D3feC1F4b46982d5edb,\r\n//        0x542a3Ee877c164c5c8c0Ad0a257a0552431c9347,\r\n//        0x542a3Ee877c164c5c8c0Ad0a257a0552431c9347,\r\n//        0x542a3Ee877c164c5c8c0Ad0a257a0552431c9347,\r\n//        0x1Ad8cae2047d19b1FB41a15c3FF567A46d968d97,\r\n//        0x5B4AeC53D653DFCabef77E687da2Ad08d2B2a512,\r\n//        0xf11C4A899b6A95A78331e48ce8eE690b97484A12,\r\n//        0x6Eb351abBC231a42c2F4d2449E9e198FAF99f2BB,\r\n//        0xBeAf6a453b4EDaC9685400221264D20eDBE3dd6e,\r\n//        0x983E964b5C44B2d5F95e707EBfD82F53312f7d2a,\r\n//        0x1B45764a489720ffC9478edA7EB9c89AED8F7e41,\r\n//        0x534686ad88f278D227055a57983d51a63BDEa2d2,\r\n//        0xc8dD392B5096f2B5F3e528fb7473fb883bcc1cf9,\r\n//        0x367041Ac2b325b71591c14fc4B779d223B0D00D7,\r\n//        0x92a099d7680eA2b97518526D552451b9a5Ef96A2,\r\n//        0xCf01d6282d9DB887D3A7e45Dd03e13192cb6C838,\r\n//        0xCf01d6282d9DB887D3A7e45Dd03e13192cb6C838,\r\n//        0x02541840a2cb0669cA6d123D8941F3eB3D8b7B7F,\r\n//        0x1AD989CA0511caa74F2Eb26f8654D7e00356a286,\r\n//        0x1AD989CA0511caa74F2Eb26f8654D7e00356a286,\r\n//        0x0c8dE6c981206F981C4a3C228b4ebd63b79Ea297,\r\n//        0x0c8dE6c981206F981C4a3C228b4ebd63b79Ea297,\r\n//        0x4A3E5477B96286eF62120ceEFb46eCDf352B634E,\r\n//        0xF44AACFe5680710c4952d448d65A2F03A09B038d,\r\n//        0x49De41D1814eA1D131643447ffcb1aBe5FBD07E0,\r\n//        0xf6045C8F74064f6D488E284f8Be018e41cF909D5,\r\n//        0x35D15Ea8baC5812e3F1229909E557f23F0c66642,\r\n//        0x35D15Ea8baC5812e3F1229909E557f23F0c66642,\r\n//        0x9ff0337F54Faf4F5f0Beb266c79dA9d6Ef7FE1a0,\r\n//        0xA380087b590B409550D544f3bfd08966199b3019,\r\n//        0x2cB6Cc661b06Bc4C6cA040519D999c28f2B5E8c5,\r\n//        0xE19cA478A0aA0670Ee4C80d856ac10ADF8CAF449,\r\n//        0x92E60FB8eCdb756C3260E509aDbbb9aF67A57A01,\r\n//        0x53323EABA54Dcad710EebcA4A4352a60bf9EA26C,\r\n//        0x1b1a5aF70c900344A250DC451Bc726dA346035f2,\r\n//        0x0dBAC9141A06c338e6e38e84a5c8556BcEe33117,\r\n//        0xCA5b8793dc2C9F973485b6D2C216C65715F8206b,\r\n//        0x1B0b1C33cd0410c52369f756B7Bd6b70040Df94A,\r\n//        0x86341c7cEde8f699207c59CC43721106cF25ffe0,\r\n//        0x4d9040Fe9d9077D70a6Ca1ea7dE1cAc43775572d,\r\n//        0xbcBEF0265866b3fd1682a95Ed8c7A97c85d01Bb2,\r\n//        0x79b35f7c372b1622392D090bC4c09974fEbd094D,\r\n//        0x943A473a92e1f44507647335BbE9bAf50dCE4b50,\r\n//        0xF74F39140B490AA2091d8b30B0AeA76Fd3639432,\r\n//        0xF74F39140B490AA2091d8b30B0AeA76Fd3639432,\r\n//        0xF0721ffdFF9818C6dcC5E1bC9F3B2a63c3AA65D9,\r\n//        0x9b8ebeC7B2A0c3b603A95D0D5ec73E02a38c0885,\r\n//        0x594F1Db7C356DF5DC49b650e0D2B0A8c16922442,\r\n//        0xaF32582b01CeDfF545F48357980C9f5214216890,\r\n//        0x686044fE83e1d6923D5670C6B18966324345F903,\r\n//        0xFA8BbCfC0A4EA1a0c405bd72a840E39Ab74a2b14,\r\n//        0x1310bDa0cded1Bbe606664d547C6dc6578088910,\r\n//        0x1310bDa0cded1Bbe606664d547C6dc6578088910,\r\n//        0x1310bDa0cded1Bbe606664d547C6dc6578088910,\r\n//        0x89082a56fA47446911b9709C97cbEb53966f2B00,\r\n//        0xB7d1491a90422EeafCbDE9BfeC3200c6Da21cCFF,\r\n//        0x7d844D78865340596Ef9Cdb43c5384E88B9FEAF0,\r\n//        0x591BFd13DF94d2151b995fa5a3DdCbe4203e3B3f,\r\n//        0x75feE0DeF33C1738035bdB751e65B60055bf46Cd,\r\n//        0xc09fD6C5aE24D4D23874F2Dbf00FE8e8896EE5d7,\r\n//        0xc09fD6C5aE24D4D23874F2Dbf00FE8e8896EE5d7,\r\n//        0xcF2001A16B69543fD4BFb54f1d4528b6c5307a3b,\r\n//        0x852618494770C0F6879C208a5eE804EbB6055e46,\r\n//        0x6Cc3364F606d704be273E730Dfb1aE185614a59d,\r\n//        0x6Cc3364F606d704be273E730Dfb1aE185614a59d,\r\n//        0x6Cc3364F606d704be273E730Dfb1aE185614a59d,\r\n//        0x6Cc3364F606d704be273E730Dfb1aE185614a59d,\r\n//        0x6Cc3364F606d704be273E730Dfb1aE185614a59d,\r\n//        0x6Cc3364F606d704be273E730Dfb1aE185614a59d,\r\n//        0x6Cc3364F606d704be273E730Dfb1aE185614a59d,\r\n//        0x6Cc3364F606d704be273E730Dfb1aE185614a59d,\r\n//        0x6Cc3364F606d704be273E730Dfb1aE185614a59d,\r\n//        0x6Cc3364F606d704be273E730Dfb1aE185614a59d,\r\n//        0xd8b4451342Ca1f5628eEEdBC01057AbEAEa19a71,\r\n//        0xd8b4451342Ca1f5628eEEdBC01057AbEAEa19a71,\r\n//        0x8f9D80bE23e9b739C49eCcd0CF59bA7d890ce66D,\r\n//        0x3D55fE67e535DFACd4aFE77C1608ccEcFe241C5e,\r\n//        0xbE8811E6EF7a7fb542C4FF308f5F595B806BF047,\r\n//        0x567C3Cf5A14AA2E8a32589FE3eA38C6680756026,\r\n//        0xcEae4FcD03917d417389Eb0fC96EBeC1e89414d1,\r\n//        0x532fd36EA87Cf9F316FaD40b39385a4716065B8c,\r\n//        0x63D22ce061ada7247B2367c05f324C52Db34660b,\r\n//        0x63D22ce061ada7247B2367c05f324C52Db34660b,\r\n//        0x9a908DB106003823B289c55D89faC14597e221D1,\r\n//        0x26Cc7cAdB9418728Fd053413534C27b78f935a7f\r\n//    ];// SPDX-License-Identifier: MIT\r\n//\r\n///**\r\n// * @title Mainstreet NFT Distributor\r\n// * @author Saad Sarwar\r\n// */\r\n//\r\n//\r\n//import \"openzeppelin-solidity/contracts/access/Ownable.sol\";\r\n//\r\n//interface INFTContract {\r\n//    function transferFrom(address from, address to, uint256 tokenId) external;\r\n//}\r\n//\r\n//\r\n//pragma solidity ^0.8.4;\r\n//\r\n//contract MainstreetNFTDistributor is Ownable{\r\n//\r\n//    address public NFT_CONTRACT = 0xAc760d623F0181FDa420271746b7AF39e88F934a;\r\n//\r\n//    address[] public addresses = [\r\n//        0x9511457381144c0ED91854038117349e576452A8,\r\n//        0x620610911c7B9D588FA363Bb53392569812a6b60,\r\n//        0x23aE81B92262B96e6fDe50B6616651Aa1e2ddD60,\r\n//        0x23aE81B92262B96e6fDe50B6616651Aa1e2ddD60,\r\n//        0x2776BD674BcD8c7206938c6f605538F8a74c2024,\r\n//        0x2f7a9cc140e50474846b36e036caac4095F015c5,\r\n//        0x8824e19C90D9d27716Dc98b5ece340FB34F8A271,\r\n//        0x8824e19C90D9d27716Dc98b5ece340FB34F8A271,\r\n//        0x16564a85aEc83d6E62003E1eF93B0DF24D20B17C,\r\n//        0x16564a85aEc83d6E62003E1eF93B0DF24D20B17C,\r\n//        0xDf2628D335991D5DaECEaccF5440692C2C52eE02,\r\n//        0x4c70104795Ac4E9DB353e84Eed05808F3379AeA0,\r\n//        0x4c70104795Ac4E9DB353e84Eed05808F3379AeA0,\r\n//        0x4c70104795Ac4E9DB353e84Eed05808F3379AeA0,\r\n//        0xf1E45CF0D7FFc9bF1Ba3d6ad629885EC0BF08A6F,\r\n//        0xfc39647ED9BAbFa711cf455AF5Fd07B6EC42C308,\r\n//        0xfc39647ED9BAbFa711cf455AF5Fd07B6EC42C308,\r\n//        0xb436141073EFE6C21aC6BE9A5Bb0D1D74F0ce87C,\r\n//        0xb436141073EFE6C21aC6BE9A5Bb0D1D74F0ce87C,\r\n//        0x9a3a55723DC8974289Ec64EE6517FcFb20577B40,\r\n//        0x26Fefa285aa797665F06a61993e485d0d9195309,\r\n//        0xcB45ADCCD82d5379124702bA72904A43a5B6f584,\r\n//        0xcB45ADCCD82d5379124702bA72904A43a5B6f584,\r\n//        0xcB45ADCCD82d5379124702bA72904A43a5B6f584,\r\n//        0x9FD6578d1a624254852A8BC1b1247A0C3c6415dE,\r\n//        0x3c2635A2343F67e9Fd22eb4B8469296066acb88d,\r\n//        0x3c2635A2343F67e9Fd22eb4B8469296066acb88d,\r\n//        0x1082F9E55470626425105301903DC76AE0BBac15,\r\n//        0x1082F9E55470626425105301903DC76AE0BBac15,\r\n//        0xbc83507c89BF6A8F7A8f576c5b4C17327b7C6790,\r\n//        0xbc83507c89BF6A8F7A8f576c5b4C17327b7C6790,\r\n//        0xD6C21557D6c7772B998b9748ddCfE1835c43a845,\r\n//        0x7D668b22494ee10386D14C8fC2E765C503708873,\r\n//        0x6e87e6181304AdD2802E6BBf5dA1bf99b0595E33,\r\n//        0x6e87e6181304AdD2802E6BBf5dA1bf99b0595E33,\r\n//        0x6e87e6181304AdD2802E6BBf5dA1bf99b0595E33,\r\n//        0x58F662c9A54f2000Ce51E44C899BeB78d5292104,\r\n//        0x58F662c9A54f2000Ce51E44C899BeB78d5292104,\r\n//        0x58F662c9A54f2000Ce51E44C899BeB78d5292104,\r\n//        0x58F662c9A54f2000Ce51E44C899BeB78d5292104,\r\n//        0xFaB86ac406A8c9933a697034eabd804467C135FD,\r\n//        0xB882a6328f68B6bBFb5b03c47d2CA32eE4240E37,\r\n//        0xB882a6328f68B6bBFb5b03c47d2CA32eE4240E37,\r\n//        0xB882a6328f68B6bBFb5b03c47d2CA32eE4240E37,\r\n//        0xB882a6328f68B6bBFb5b03c47d2CA32eE4240E37,\r\n//        0xB882a6328f68B6bBFb5b03c47d2CA32eE4240E37,\r\n//        0xB882a6328f68B6bBFb5b03c47d2CA32eE4240E37,\r\n//        0x7c3b6C408F2358Fd768d156ae213B5abd8988BDb,\r\n//        0xEbfB403485478c0A1D5fF8545c49Bd2c4A4E9E7C,\r\n//        0xF8a49c0C8EC960502BBb2BF2f62Ba4d5d81489f6,\r\n//        0x80C212a176C11F16C6EF2d64CB4D856cAe371F34,\r\n//        0x6165fD87C1BC73a4c44b23934e9136fd92df5b01,\r\n//        0x6165fD87C1BC73a4c44b23934e9136fd92df5b01,\r\n//        0x6165fD87C1BC73a4c44b23934e9136fd92df5b01,\r\n//        0x6165fD87C1BC73a4c44b23934e9136fd92df5b01,\r\n//        0x6B5080AF3b66bD4c0d1C38Ed6DB05c2E4F0Ca933,\r\n//        0x724488D8205Eb892A6a70B819B6dF8641635701F,\r\n//        0x9E717376bE87FC4c67Cd7Ca2Fdfdf047Afe99974,\r\n//        0x9E717376bE87FC4c67Cd7Ca2Fdfdf047Afe99974,\r\n//        0x9E717376bE87FC4c67Cd7Ca2Fdfdf047Afe99974,\r\n//        0xA2da3C64F9621283813CA4B328f467FbBEDbd7B5,\r\n//        0xf5c0E2da835343cBe80f476d4e4b3Be860116517,\r\n//        0xE7C526cE8aA8186C0A1e4cB2cd758EA93178651a,\r\n//        0xA3DEc1856Ab4486A521E4b91598499F209b936D0,\r\n//        0xAE2c2B6162c85C9D8A30C69c40e6d83861150e66,\r\n//        0xa3fB7F8Bfc4e3A6D053A219aD5a97933F3c7b359,\r\n//        0x3E8ffc47493D2B1E39604aA156E08Ff5C3198210,\r\n//        0x8Bf25BC8dc6dbD02a2318B78022E0A94188bdAE7,\r\n//        0x8bdc7aDf7Ffd30481DDcf3916bB11EA09687e8f2,\r\n//        0x31714c50420af572A75bE197A11442dBbb93868d,\r\n//        0x75ec7A46e00e755D8b8eDD7d1579b4f08C200F04,\r\n//        0x75ec7A46e00e755D8b8eDD7d1579b4f08C200F04,\r\n//        0x75ec7A46e00e755D8b8eDD7d1579b4f08C200F04,\r\n//        0x75ec7A46e00e755D8b8eDD7d1579b4f08C200F04,\r\n//        0x4c99A781a03Bcce0d09D07aFD5B647566069190a,\r\n//        0x4c99A781a03Bcce0d09D07aFD5B647566069190a,\r\n//        0x275C02502bc086256B35C6785EC1a442f5303C7c,\r\n//        0x091bA5edE1aAB4f3FB73025603654402E396367C,\r\n//        0x708C5f0F00C4C2085a0Abb3b2f035C33B2AE7f9A,\r\n//        0x708C5f0F00C4C2085a0Abb3b2f035C33B2AE7f9A,\r\n//        0x708C5f0F00C4C2085a0Abb3b2f035C33B2AE7f9A,\r\n//        0x3c470da0352B23BD487553cDC97F5bd32322c96a,\r\n//        0xDD809918795178972653cF33A1C6351e5a1E1DEf,\r\n//        0xDD809918795178972653cF33A1C6351e5a1E1DEf,\r\n//        0xDD809918795178972653cF33A1C6351e5a1E1DEf,\r\n//        0x30900eB1a73b694158694D64e7984Ee44bDc01b1,\r\n//        0x31323a71462e2259751Cc0D08EFa6675623B5E8c,\r\n//        0x2265e9EF3A069Cb96aA8215f9d5856988b9c0366,\r\n//        0xBC9177d50b0ED9b367f9C62b6E97640E1778B02E,\r\n//        0xa257413252A3A1C367AE443a60d9d5Ea1921dF17,\r\n//        0x5a87DBdbb1945a0C3BF003f8bD7816832ECAA20a,\r\n//        0x64b3231F1f2BCF346491C4656566828cb720c592,\r\n//        0x05fC8e262557e6f472755cB0351FB73C78A97473,\r\n//        0x05fC8e262557e6f472755cB0351FB73C78A97473,\r\n//        0xd4F4d00cA9C817a33aB7594F2d751A7DBcC5EFae,\r\n//        0xd4F4d00cA9C817a33aB7594F2d751A7DBcC5EFae,\r\n//        0x270B1bfd6b27C4b0570D92F9a559EDF78dBbb98A,\r\n//        0xd629D59a84eD126aa8850c8C46d3b8810c55C646,\r\n//        0xd629D59a84eD126aa8850c8C46d3b8810c55C646,\r\n//        0x88a5e2c5dc93A98afE171f10f1e4373eDe712fa3,\r\n//        0x6D40CA973E30F62A1760FFB856CB459900230a25,\r\n//        0x08eb87Fda95b7e0B4e56C7fE5F76a023B76337fF,\r\n//        0xD9f58C44506efeA820baF832D4d4addD1BDAeB52,\r\n//        0x072D1485C8FEE948FF35550BA36F9072B75BA029,\r\n//        0x2F21A3B7B7f411EA734C3079ba644906123635cD,\r\n//        0x477DA04DA98802E02dEaebfA923Be170558C8644,\r\n//        0x737F1d89D656b88621Dd381b6F379B044Ca18dC2,\r\n//        0x81c61C5fC10bB23380BAEA9D7dFA570203287748,\r\n//        0x943D8d72B751268b790CEBeB898908A3ac5fD469,\r\n//        0x943D8d72B751268b790CEBeB898908A3ac5fD469,\r\n//        0x5067BBFed252a875313C9A19B9Bc6EfFBA837642,\r\n//        0x5067BBFed252a875313C9A19B9Bc6EfFBA837642,\r\n//        0x5067BBFed252a875313C9A19B9Bc6EfFBA837642,\r\n//        0x5067BBFed252a875313C9A19B9Bc6EfFBA837642,\r\n//        0xF58d0e6fc3C021627A49A53f04152409fcc40055,\r\n//        0xF58d0e6fc3C021627A49A53f04152409fcc40055,\r\n//        0xF58d0e6fc3C021627A49A53f04152409fcc40055,\r\n//        0xF58d0e6fc3C021627A49A53f04152409fcc40055,\r\n//        0x0746d445e4A1d906a4701dE4C6F32B5e0fA279eb,\r\n//        0xE0bDd4a0BF7Ab6694F80c70d7DF8B0ec84835DFC,\r\n//        0xE0bDd4a0BF7Ab6694F80c70d7DF8B0ec84835DFC,\r\n//        0xdBE2F9581D8C60A8180443a048E13d2DF3bebD10,\r\n//        0xB34C4bbe1f628Dc31FEd918eAAa82bCEe3eE5586,\r\n//        0xB34C4bbe1f628Dc31FEd918eAAa82bCEe3eE5586,\r\n//        0x7aE15aCD0C224F469F5BB37c8ef7A01654c5F2d0,\r\n//        0x1166Ae53a4d8779532260dfdd84Dc065Bcc5B1a4,\r\n//        0x37737a64226eabbfd12056187A103294A3fC20F7,\r\n//        0x5314003b211Ab223D65258015a198DEC4067936B,\r\n//        0xd812fCC544eE1dC61E477a227E64BdA94fef4E84,\r\n//        0x3a35Bdb71Ae8956E7C7f9efB5a3B399967E4D808,\r\n//        0xEc964b6c91abde8f583F744de48da87b9F43035E,\r\n//        0x071703FF811547CF79612592be1d8f601b05B8F2,\r\n//        0xeA9043fb516efCbFF780c01EBD00B9480c6A7201,\r\n//        0xcd81917ff5313d02d7Da3d47a9Afcd3f635c36e3,\r\n//        0x8De58A62ae74ed1dE328B2c5e5F6b68C16adf399,\r\n//        0x478cDA6b8f61Ef82B8233962c284A615c7Da6271,\r\n//        0xdf923B60d2da0af5A6A92FE5C91CcFfC8848dE68,\r\n//        0xdf923B60d2da0af5A6A92FE5C91CcFfC8848dE68,\r\n//        0xdf923B60d2da0af5A6A92FE5C91CcFfC8848dE68,\r\n//        0xbc83507c89BF6A8F7A8f576c5b4C17327b7C6790,\r\n//        0xbc83507c89BF6A8F7A8f576c5b4C17327b7C6790,\r\n//        0x3CDC87BABF7B4E5d4B39375BD7BaE5034b379bdB,\r\n//        0x3CDC87BABF7B4E5d4B39375BD7BaE5034b379bdB,\r\n//        0x3CDC87BABF7B4E5d4B39375BD7BaE5034b379bdB,\r\n//        0x743fC05850Fac2ce03251704cDa96F5e09146cAc,\r\n//        0x743fC05850Fac2ce03251704cDa96F5e09146cAc,\r\n//        0x743fC05850Fac2ce03251704cDa96F5e09146cAc,\r\n//        0x743fC05850Fac2ce03251704cDa96F5e09146cAc,\r\n//        0x743fC05850Fac2ce03251704cDa96F5e09146cAc,\r\n//        0x743fC05850Fac2ce03251704cDa96F5e09146cAc,\r\n//        0x743fC05850Fac2ce03251704cDa96F5e09146cAc,\r\n//        0x743fC05850Fac2ce03251704cDa96F5e09146cAc,\r\n//        0x743fC05850Fac2ce03251704cDa96F5e09146cAc,\r\n//        0x743fC05850Fac2ce03251704cDa96F5e09146cAc,\r\n//        0x743fC05850Fac2ce03251704cDa96F5e09146cAc,\r\n//        0x743fC05850Fac2ce03251704cDa96F5e09146cAc,\r\n//        0x743fC05850Fac2ce03251704cDa96F5e09146cAc,\r\n//        0x743fC05850Fac2ce03251704cDa96F5e09146cAc,\r\n//        0x743fC05850Fac2ce03251704cDa96F5e09146cAc,\r\n//        0x743fC05850Fac2ce03251704cDa96F5e09146cAc,\r\n//        0x743fC05850Fac2ce03251704cDa96F5e09146cAc,\r\n//        0x743fC05850Fac2ce03251704cDa96F5e09146cAc,\r\n//        0x743fC05850Fac2ce03251704cDa96F5e09146cAc,\r\n//        0x743fC05850Fac2ce03251704cDa96F5e09146cAc,\r\n//        0x743fC05850Fac2ce03251704cDa96F5e09146cAc,\r\n//        0x743fC05850Fac2ce03251704cDa96F5e09146cAc,\r\n//        0x743fC05850Fac2ce03251704cDa96F5e09146cAc,\r\n//        0x743fC05850Fac2ce03251704cDa96F5e09146cAc,\r\n//        0x743fC05850Fac2ce03251704cDa96F5e09146cAc,\r\n//        0x743fC05850Fac2ce03251704cDa96F5e09146cAc,\r\n//        0x743fC05850Fac2ce03251704cDa96F5e09146cAc,\r\n//        0x743fC05850Fac2ce03251704cDa96F5e09146cAc,\r\n//        0x743fC05850Fac2ce03251704cDa96F5e09146cAc,\r\n//        0x743fC05850Fac2ce03251704cDa96F5e09146cAc,\r\n//        0x743fC05850Fac2ce03251704cDa96F5e09146cAc,\r\n//        0x743fC05850Fac2ce03251704cDa96F5e09146cAc,\r\n//        0x743fC05850Fac2ce03251704cDa96F5e09146cAc,\r\n//        0x743fC05850Fac2ce03251704cDa96F5e09146cAc,\r\n//        0x743fC05850Fac2ce03251704cDa96F5e09146cAc,\r\n//        0x743fC05850Fac2ce03251704cDa96F5e09146cAc,\r\n//        0x743fC05850Fac2ce03251704cDa96F5e09146cAc,\r\n//        0x743fC05850Fac2ce03251704cDa96F5e09146cAc,\r\n//        0x743fC05850Fac2ce03251704cDa96F5e09146cAc,\r\n//        0x743fC05850Fac2ce03251704cDa96F5e09146cAc,\r\n//        0x743fC05850Fac2ce03251704cDa96F5e09146cAc,\r\n//        0x743fC05850Fac2ce03251704cDa96F5e09146cAc,\r\n//        0x743fC05850Fac2ce03251704cDa96F5e09146cAc,\r\n//        0x743fC05850Fac2ce03251704cDa96F5e09146cAc,\r\n//        0x743fC05850Fac2ce03251704cDa96F5e09146cAc,\r\n//        0x743fC05850Fac2ce03251704cDa96F5e09146cAc,\r\n//        0x743fC05850Fac2ce03251704cDa96F5e09146cAc,\r\n//        0x743fC05850Fac2ce03251704cDa96F5e09146cAc,\r\n//        0x743fC05850Fac2ce03251704cDa96F5e09146cAc,\r\n//        0x743fC05850Fac2ce03251704cDa96F5e09146cAc,\r\n//        0x743fC05850Fac2ce03251704cDa96F5e09146cAc,\r\n//        0x743fC05850Fac2ce03251704cDa96F5e09146cAc,\r\n//        0x743fC05850Fac2ce03251704cDa96F5e09146cAc,\r\n//        0x743fC05850Fac2ce03251704cDa96F5e09146cAc,\r\n//        0x743fC05850Fac2ce03251704cDa96F5e09146cAc,\r\n//        0x743fC05850Fac2ce03251704cDa96F5e09146cAc,\r\n//        0x743fC05850Fac2ce03251704cDa96F5e09146cAc,\r\n//        0x743fC05850Fac2ce03251704cDa96F5e09146cAc,\r\n//        0x743fC05850Fac2ce03251704cDa96F5e09146cAc,\r\n//        0x743fC05850Fac2ce03251704cDa96F5e09146cAc,\r\n//        0x743fC05850Fac2ce03251704cDa96F5e09146cAc,\r\n//        0xBF90e9E29F342A5DE69aAd99A6f307F9b9A373D1,\r\n//        0xBF90e9E29F342A5DE69aAd99A6f307F9b9A373D1,\r\n//        0xBF90e9E29F342A5DE69aAd99A6f307F9b9A373D1,\r\n//        0xBF90e9E29F342A5DE69aAd99A6f307F9b9A373D1,\r\n//        0xBF90e9E29F342A5DE69aAd99A6f307F9b9A373D1,\r\n//        0x6EE87166Ae581D586c26E594798a5553AC5F077c,\r\n//        0x6EE87166Ae581D586c26E594798a5553AC5F077c,\r\n//        0x6EE87166Ae581D586c26E594798a5553AC5F077c,\r\n//        0x6EE87166Ae581D586c26E594798a5553AC5F077c,\r\n//        0x6EE87166Ae581D586c26E594798a5553AC5F077c,\r\n//        0x6EE87166Ae581D586c26E594798a5553AC5F077c,\r\n//        0x6EE87166Ae581D586c26E594798a5553AC5F077c,\r\n//        0x6EE87166Ae581D586c26E594798a5553AC5F077c,\r\n//        0xc2163626675Ee9162CD68AAdBcc28D797F3966aF,\r\n//        0xc2163626675Ee9162CD68AAdBcc28D797F3966aF,\r\n//        0xc2163626675Ee9162CD68AAdBcc28D797F3966aF,\r\n//        0xc2163626675Ee9162CD68AAdBcc28D797F3966aF,\r\n//        0xc2163626675Ee9162CD68AAdBcc28D797F3966aF,\r\n//        0xc2163626675Ee9162CD68AAdBcc28D797F3966aF,\r\n//        0xc2163626675Ee9162CD68AAdBcc28D797F3966aF,\r\n//        0xc2163626675Ee9162CD68AAdBcc28D797F3966aF,\r\n//        0xc2163626675Ee9162CD68AAdBcc28D797F3966aF,\r\n//        0xc2163626675Ee9162CD68AAdBcc28D797F3966aF,\r\n//        0xc2163626675Ee9162CD68AAdBcc28D797F3966aF,\r\n//        0xc2163626675Ee9162CD68AAdBcc28D797F3966aF,\r\n//        0xc2163626675Ee9162CD68AAdBcc28D797F3966aF,\r\n//        0xc2163626675Ee9162CD68AAdBcc28D797F3966aF,\r\n//        0xc2163626675Ee9162CD68AAdBcc28D797F3966aF,\r\n//        0xc2163626675Ee9162CD68AAdBcc28D797F3966aF,\r\n//        0xE60D435E3eDAF6E1a4ed1F3eDA357c3D08465ceE,\r\n//        0xE60D435E3eDAF6E1a4ed1F3eDA357c3D08465ceE,\r\n//        0xE60D435E3eDAF6E1a4ed1F3eDA357c3D08465ceE,\r\n//        0xE60D435E3eDAF6E1a4ed1F3eDA357c3D08465ceE,\r\n//        0xE60D435E3eDAF6E1a4ed1F3eDA357c3D08465ceE,\r\n//        0xE60D435E3eDAF6E1a4ed1F3eDA357c3D08465ceE,\r\n//        0xE60D435E3eDAF6E1a4ed1F3eDA357c3D08465ceE,\r\n//        0xE60D435E3eDAF6E1a4ed1F3eDA357c3D08465ceE,\r\n//        0xE60D435E3eDAF6E1a4ed1F3eDA357c3D08465ceE,\r\n//        0xE60D435E3eDAF6E1a4ed1F3eDA357c3D08465ceE,\r\n//        0xf7c55eFB10C5432d30891f05115Fca42061A6268,\r\n//        0xf7c55eFB10C5432d30891f05115Fca42061A6268,\r\n//        0xf7c55eFB10C5432d30891f05115Fca42061A6268,\r\n//        0xf7c55eFB10C5432d30891f05115Fca42061A6268,\r\n//        0xf7c55eFB10C5432d30891f05115Fca42061A6268,\r\n//        0xf7c55eFB10C5432d30891f05115Fca42061A6268,\r\n//        0xf7c55eFB10C5432d30891f05115Fca42061A6268,\r\n//        0xf7c55eFB10C5432d30891f05115Fca42061A6268,\r\n//        0x2069C633a4Eb3DEa24d9f7546AE2cD72cAA8feaF,\r\n//        0x2069C633a4Eb3DEa24d9f7546AE2cD72cAA8feaF,\r\n//        0x2069C633a4Eb3DEa24d9f7546AE2cD72cAA8feaF,\r\n//        0x2069C633a4Eb3DEa24d9f7546AE2cD72cAA8feaF,\r\n//        0x2069C633a4Eb3DEa24d9f7546AE2cD72cAA8feaF,\r\n//        0x2069C633a4Eb3DEa24d9f7546AE2cD72cAA8feaF,\r\n//        0x2069C633a4Eb3DEa24d9f7546AE2cD72cAA8feaF,\r\n//        0x2069C633a4Eb3DEa24d9f7546AE2cD72cAA8feaF,\r\n//        0x2069C633a4Eb3DEa24d9f7546AE2cD72cAA8feaF,\r\n//        0x2069C633a4Eb3DEa24d9f7546AE2cD72cAA8feaF,\r\n//        0x6B5080AF3b66bD4c0d1C38Ed6DB05c2E4F0Ca933,\r\n//        0x6B5080AF3b66bD4c0d1C38Ed6DB05c2E4F0Ca933,\r\n//        0x6B5080AF3b66bD4c0d1C38Ed6DB05c2E4F0Ca933,\r\n//        0x6B5080AF3b66bD4c0d1C38Ed6DB05c2E4F0Ca933,\r\n//        0x6B5080AF3b66bD4c0d1C38Ed6DB05c2E4F0Ca933,\r\n//        0x6B5080AF3b66bD4c0d1C38Ed6DB05c2E4F0Ca933,\r\n//        0x6B5080AF3b66bD4c0d1C38Ed6DB05c2E4F0Ca933,\r\n//        0x6B5080AF3b66bD4c0d1C38Ed6DB05c2E4F0Ca933,\r\n//        0x6B5080AF3b66bD4c0d1C38Ed6DB05c2E4F0Ca933,\r\n//        0x6B5080AF3b66bD4c0d1C38Ed6DB05c2E4F0Ca933,\r\n//        0xBD8EAD472E51283230b93f290bC1506ea4D6209b,\r\n//        0xBD8EAD472E51283230b93f290bC1506ea4D6209b,\r\n//        0xBD8EAD472E51283230b93f290bC1506ea4D6209b,\r\n//        0xBD8EAD472E51283230b93f290bC1506ea4D6209b,\r\n//        0xF82e9D2De3e22fda38284484cCc5C1013Fb6b472,\r\n//        0xF82e9D2De3e22fda38284484cCc5C1013Fb6b472,\r\n//        0xF82e9D2De3e22fda38284484cCc5C1013Fb6b472,\r\n//        0xF82e9D2De3e22fda38284484cCc5C1013Fb6b472,\r\n//        0xF82e9D2De3e22fda38284484cCc5C1013Fb6b472,\r\n//        0xF82e9D2De3e22fda38284484cCc5C1013Fb6b472,\r\n//        0xF82e9D2De3e22fda38284484cCc5C1013Fb6b472,\r\n//        0xF82e9D2De3e22fda38284484cCc5C1013Fb6b472,\r\n//        0xF82e9D2De3e22fda38284484cCc5C1013Fb6b472,\r\n//        0xF82e9D2De3e22fda38284484cCc5C1013Fb6b472,\r\n//        0xF82e9D2De3e22fda38284484cCc5C1013Fb6b472,\r\n//        0xF82e9D2De3e22fda38284484cCc5C1013Fb6b472,\r\n//        0xF82e9D2De3e22fda38284484cCc5C1013Fb6b472,\r\n//        0xF82e9D2De3e22fda38284484cCc5C1013Fb6b472,\r\n//        0xF82e9D2De3e22fda38284484cCc5C1013Fb6b472,\r\n//        0xF82e9D2De3e22fda38284484cCc5C1013Fb6b472,\r\n//        0xF82e9D2De3e22fda38284484cCc5C1013Fb6b472,\r\n//        0xF82e9D2De3e22fda38284484cCc5C1013Fb6b472,\r\n//        0xF82e9D2De3e22fda38284484cCc5C1013Fb6b472,\r\n//        0xF82e9D2De3e22fda38284484cCc5C1013Fb6b472,\r\n//        0xF82e9D2De3e22fda38284484cCc5C1013Fb6b472,\r\n//        0xF82e9D2De3e22fda38284484cCc5C1013Fb6b472,\r\n//        0xF82e9D2De3e22fda38284484cCc5C1013Fb6b472,\r\n//        0xF82e9D2De3e22fda38284484cCc5C1013Fb6b472,\r\n//        0xF82e9D2De3e22fda38284484cCc5C1013Fb6b472,\r\n//        0xF82e9D2De3e22fda38284484cCc5C1013Fb6b472,\r\n//        0xF82e9D2De3e22fda38284484cCc5C1013Fb6b472,\r\n//        0xF82e9D2De3e22fda38284484cCc5C1013Fb6b472,\r\n//        0xF82e9D2De3e22fda38284484cCc5C1013Fb6b472,\r\n//        0xF82e9D2De3e22fda38284484cCc5C1013Fb6b472,\r\n//        0xF82e9D2De3e22fda38284484cCc5C1013Fb6b472,\r\n//        0xF82e9D2De3e22fda38284484cCc5C1013Fb6b472,\r\n//        0xF82e9D2De3e22fda38284484cCc5C1013Fb6b472,\r\n//        0xF82e9D2De3e22fda38284484cCc5C1013Fb6b472,\r\n//        0xF82e9D2De3e22fda38284484cCc5C1013Fb6b472,\r\n//        0xF82e9D2De3e22fda38284484cCc5C1013Fb6b472,\r\n//        0xF82e9D2De3e22fda38284484cCc5C1013Fb6b472,\r\n//        0xF82e9D2De3e22fda38284484cCc5C1013Fb6b472,\r\n//        0xF82e9D2De3e22fda38284484cCc5C1013Fb6b472,\r\n//        0xF82e9D2De3e22fda38284484cCc5C1013Fb6b472,\r\n//        0xF82e9D2De3e22fda38284484cCc5C1013Fb6b472,\r\n//        0xF82e9D2De3e22fda38284484cCc5C1013Fb6b472,\r\n//        0xF82e9D2De3e22fda38284484cCc5C1013Fb6b472,\r\n//        0xF82e9D2De3e22fda38284484cCc5C1013Fb6b472,\r\n//        0xF82e9D2De3e22fda38284484cCc5C1013Fb6b472,\r\n//        0xF82e9D2De3e22fda38284484cCc5C1013Fb6b472,\r\n//        0xF82e9D2De3e22fda38284484cCc5C1013Fb6b472,\r\n//        0xF82e9D2De3e22fda38284484cCc5C1013Fb6b472,\r\n//        0xF82e9D2De3e22fda38284484cCc5C1013Fb6b472,\r\n//        0xF82e9D2De3e22fda38284484cCc5C1013Fb6b472,\r\n//        0xF82e9D2De3e22fda38284484cCc5C1013Fb6b472,\r\n//        0xF82e9D2De3e22fda38284484cCc5C1013Fb6b472,\r\n//        0xF82e9D2De3e22fda38284484cCc5C1013Fb6b472,\r\n//        0xF82e9D2De3e22fda38284484cCc5C1013Fb6b472,\r\n//        0xF82e9D2De3e22fda38284484cCc5C1013Fb6b472,\r\n//        0xF82e9D2De3e22fda38284484cCc5C1013Fb6b472,\r\n//        0xF82e9D2De3e22fda38284484cCc5C1013Fb6b472,\r\n//        0xF82e9D2De3e22fda38284484cCc5C1013Fb6b472,\r\n//        0xF82e9D2De3e22fda38284484cCc5C1013Fb6b472,\r\n//        0xF82e9D2De3e22fda38284484cCc5C1013Fb6b472,\r\n//        0xF82e9D2De3e22fda38284484cCc5C1013Fb6b472,\r\n//        0xF82e9D2De3e22fda38284484cCc5C1013Fb6b472,\r\n//        0xF82e9D2De3e22fda38284484cCc5C1013Fb6b472,\r\n//        0xF82e9D2De3e22fda38284484cCc5C1013Fb6b472,\r\n//        0xF82e9D2De3e22fda38284484cCc5C1013Fb6b472,\r\n//        0xF82e9D2De3e22fda38284484cCc5C1013Fb6b472,\r\n//        0xF82e9D2De3e22fda38284484cCc5C1013Fb6b472,\r\n//        0xF82e9D2De3e22fda38284484cCc5C1013Fb6b472,\r\n//        0xF82e9D2De3e22fda38284484cCc5C1013Fb6b472,\r\n//        0xF82e9D2De3e22fda38284484cCc5C1013Fb6b472,\r\n//        0xF82e9D2De3e22fda38284484cCc5C1013Fb6b472,\r\n//        0xF82e9D2De3e22fda38284484cCc5C1013Fb6b472,\r\n//        0xF82e9D2De3e22fda38284484cCc5C1013Fb6b472,\r\n//        0xF82e9D2De3e22fda38284484cCc5C1013Fb6b472,\r\n//        0xF82e9D2De3e22fda38284484cCc5C1013Fb6b472,\r\n//        0xF82e9D2De3e22fda38284484cCc5C1013Fb6b472,\r\n//        0xF82e9D2De3e22fda38284484cCc5C1013Fb6b472,\r\n//        0xF82e9D2De3e22fda38284484cCc5C1013Fb6b472,\r\n//        0xF82e9D2De3e22fda38284484cCc5C1013Fb6b472,\r\n//        0xF82e9D2De3e22fda38284484cCc5C1013Fb6b472,\r\n//        0xF82e9D2De3e22fda38284484cCc5C1013Fb6b472,\r\n//        0xF82e9D2De3e22fda38284484cCc5C1013Fb6b472,\r\n//        0xF82e9D2De3e22fda38284484cCc5C1013Fb6b472,\r\n//        0xF82e9D2De3e22fda38284484cCc5C1013Fb6b472,\r\n//        0xF82e9D2De3e22fda38284484cCc5C1013Fb6b472,\r\n//        0xF82e9D2De3e22fda38284484cCc5C1013Fb6b472,\r\n//        0xF82e9D2De3e22fda38284484cCc5C1013Fb6b472,\r\n//        0xF82e9D2De3e22fda38284484cCc5C1013Fb6b472,\r\n//        0xF82e9D2De3e22fda38284484cCc5C1013Fb6b472,\r\n//        0xF82e9D2De3e22fda38284484cCc5C1013Fb6b472,\r\n//        0xF82e9D2De3e22fda38284484cCc5C1013Fb6b472,\r\n//        0xF82e9D2De3e22fda38284484cCc5C1013Fb6b472,\r\n//        0xF82e9D2De3e22fda38284484cCc5C1013Fb6b472,\r\n//        0xF82e9D2De3e22fda38284484cCc5C1013Fb6b472,\r\n//        0xF82e9D2De3e22fda38284484cCc5C1013Fb6b472,\r\n//        0xF82e9D2De3e22fda38284484cCc5C1013Fb6b472,\r\n//        0xF82e9D2De3e22fda38284484cCc5C1013Fb6b472,\r\n//        0xF82e9D2De3e22fda38284484cCc5C1013Fb6b472,\r\n//        0xF82e9D2De3e22fda38284484cCc5C1013Fb6b472,\r\n//        0xF82e9D2De3e22fda38284484cCc5C1013Fb6b472,\r\n//        0xF82e9D2De3e22fda38284484cCc5C1013Fb6b472,\r\n//        0xF82e9D2De3e22fda38284484cCc5C1013Fb6b472,\r\n//        0xF82e9D2De3e22fda38284484cCc5C1013Fb6b472,\r\n//        0xF82e9D2De3e22fda38284484cCc5C1013Fb6b472,\r\n//        0xF82e9D2De3e22fda38284484cCc5C1013Fb6b472,\r\n//        0xF82e9D2De3e22fda38284484cCc5C1013Fb6b472,\r\n//        0xF82e9D2De3e22fda38284484cCc5C1013Fb6b472,\r\n//        0xF82e9D2De3e22fda38284484cCc5C1013Fb6b472,\r\n//        0xF82e9D2De3e22fda38284484cCc5C1013Fb6b472,\r\n//        0xF82e9D2De3e22fda38284484cCc5C1013Fb6b472,\r\n//        0xF82e9D2De3e22fda38284484cCc5C1013Fb6b472,\r\n//        0xF82e9D2De3e22fda38284484cCc5C1013Fb6b472,\r\n//        0xF82e9D2De3e22fda38284484cCc5C1013Fb6b472,\r\n//        0xF82e9D2De3e22fda38284484cCc5C1013Fb6b472,\r\n//        0xF82e9D2De3e22fda38284484cCc5C1013Fb6b472,\r\n//        0xF82e9D2De3e22fda38284484cCc5C1013Fb6b472,\r\n//        0xF82e9D2De3e22fda38284484cCc5C1013Fb6b472,\r\n//        0xF82e9D2De3e22fda38284484cCc5C1013Fb6b472,\r\n//        0xF82e9D2De3e22fda38284484cCc5C1013Fb6b472,\r\n//        0xF82e9D2De3e22fda38284484cCc5C1013Fb6b472,\r\n//        0xF82e9D2De3e22fda38284484cCc5C1013Fb6b472,\r\n//        0xF82e9D2De3e22fda38284484cCc5C1013Fb6b472,\r\n//        0xF82e9D2De3e22fda38284484cCc5C1013Fb6b472,\r\n//        0x9FD6578d1a624254852A8BC1b1247A0C3c6415dE,\r\n//        0x511E061641494FA876741c2588DcD117afb51e91,\r\n//        0x511E061641494FA876741c2588DcD117afb51e91,\r\n//        0x511E061641494FA876741c2588DcD117afb51e91,\r\n//        0x511E061641494FA876741c2588DcD117afb51e91,\r\n//        0x8427E0C443cd8cFE3A638C31be5f2258c9cD3f35,\r\n//        0x2f7a9cc140e50474846b36e036caac4095F015c5,\r\n//        0x2f7a9cc140e50474846b36e036caac4095F015c5,\r\n//        0x2f7a9cc140e50474846b36e036caac4095F015c5,\r\n//        0x2f7a9cc140e50474846b36e036caac4095F015c5,\r\n//        0x2f7a9cc140e50474846b36e036caac4095F015c5,\r\n//        0x15D332d65eE3F6F48dE05B850458e37031B7EED7,\r\n//        0x15D332d65eE3F6F48dE05B850458e37031B7EED7,\r\n//        0x15D332d65eE3F6F48dE05B850458e37031B7EED7,\r\n//        0x15D332d65eE3F6F48dE05B850458e37031B7EED7,\r\n//        0x15D332d65eE3F6F48dE05B850458e37031B7EED7,\r\n//        0x15D332d65eE3F6F48dE05B850458e37031B7EED7,\r\n//        0x15D332d65eE3F6F48dE05B850458e37031B7EED7,\r\n//        0x15D332d65eE3F6F48dE05B850458e37031B7EED7,\r\n//        0x15D332d65eE3F6F48dE05B850458e37031B7EED7,\r\n//        0x15D332d65eE3F6F48dE05B850458e37031B7EED7,\r\n//        0x15D332d65eE3F6F48dE05B850458e37031B7EED7,\r\n//        0x15D332d65eE3F6F48dE05B850458e37031B7EED7,\r\n//        0x15D332d65eE3F6F48dE05B850458e37031B7EED7,\r\n//        0x15D332d65eE3F6F48dE05B850458e37031B7EED7,\r\n//        0x15D332d65eE3F6F48dE05B850458e37031B7EED7,\r\n//        0xBFbc9D70641B64b17BC6FffaF69baD0284D99Cf8,\r\n//        0xBFbc9D70641B64b17BC6FffaF69baD0284D99Cf8,\r\n//        0xBFbc9D70641B64b17BC6FffaF69baD0284D99Cf8,\r\n//        0x49622D56b0a1E758de95E24900C6192F743BbFa5,\r\n//        0x478cDA6b8f61Ef82B8233962c284A615c7Da6271,\r\n//        0x478cDA6b8f61Ef82B8233962c284A615c7Da6271,\r\n//        0x478cDA6b8f61Ef82B8233962c284A615c7Da6271,\r\n//        0x478cDA6b8f61Ef82B8233962c284A615c7Da6271,\r\n//        0x478cDA6b8f61Ef82B8233962c284A615c7Da6271,\r\n//        0x478cDA6b8f61Ef82B8233962c284A615c7Da6271,\r\n//        0x478cDA6b8f61Ef82B8233962c284A615c7Da6271,\r\n//        0x478cDA6b8f61Ef82B8233962c284A615c7Da6271,\r\n//        0x279EE46b0027609194874909a8385C9c58271206,\r\n//        0x6992Dd3cECC0bDDE46665eaAC48f7Ea344782E68,\r\n//        0xEfd36256e41A6478deC47Bd0e62E10af3832dBA2,\r\n//        0xEfd36256e41A6478deC47Bd0e62E10af3832dBA2,\r\n//        0xEfd36256e41A6478deC47Bd0e62E10af3832dBA2,\r\n//        0xEfd36256e41A6478deC47Bd0e62E10af3832dBA2,\r\n//        0xEfd36256e41A6478deC47Bd0e62E10af3832dBA2,\r\n//        0xEfd36256e41A6478deC47Bd0e62E10af3832dBA2,\r\n//        0xEfd36256e41A6478deC47Bd0e62E10af3832dBA2,\r\n//        0x0E6eccDdD1cCF310C47B15BAB8A52523a8A9E861,\r\n//        0x0E6eccDdD1cCF310C47B15BAB8A52523a8A9E861,\r\n//        0x0E6eccDdD1cCF310C47B15BAB8A52523a8A9E861,\r\n//        0x0E6eccDdD1cCF310C47B15BAB8A52523a8A9E861,\r\n//        0x0E6eccDdD1cCF310C47B15BAB8A52523a8A9E861,\r\n//        0x0E6eccDdD1cCF310C47B15BAB8A52523a8A9E861,\r\n//        0x0E6eccDdD1cCF310C47B15BAB8A52523a8A9E861,\r\n//        0x0E6eccDdD1cCF310C47B15BAB8A52523a8A9E861,\r\n//        0x0E6eccDdD1cCF310C47B15BAB8A52523a8A9E861,\r\n//        0x0E6eccDdD1cCF310C47B15BAB8A52523a8A9E861,\r\n//        0x0E6eccDdD1cCF310C47B15BAB8A52523a8A9E861,\r\n//        0x0E6eccDdD1cCF310C47B15BAB8A52523a8A9E861,\r\n//        0x0E6eccDdD1cCF310C47B15BAB8A52523a8A9E861,\r\n//        0x0E6eccDdD1cCF310C47B15BAB8A52523a8A9E861,\r\n//        0x0E6eccDdD1cCF310C47B15BAB8A52523a8A9E861,\r\n//        0x0E6eccDdD1cCF310C47B15BAB8A52523a8A9E861,\r\n//        0x0E6eccDdD1cCF310C47B15BAB8A52523a8A9E861,\r\n//        0x0E6eccDdD1cCF310C47B15BAB8A52523a8A9E861,\r\n//        0x0E6eccDdD1cCF310C47B15BAB8A52523a8A9E861,\r\n//        0x0E6eccDdD1cCF310C47B15BAB8A52523a8A9E861,\r\n//        0x0E6eccDdD1cCF310C47B15BAB8A52523a8A9E861,\r\n//        0x0E6eccDdD1cCF310C47B15BAB8A52523a8A9E861,\r\n//        0x0E6eccDdD1cCF310C47B15BAB8A52523a8A9E861,\r\n//        0x0E6eccDdD1cCF310C47B15BAB8A52523a8A9E861,\r\n//        0x0E6eccDdD1cCF310C47B15BAB8A52523a8A9E861,\r\n//        0x0E6eccDdD1cCF310C47B15BAB8A52523a8A9E861,\r\n//        0x0E6eccDdD1cCF310C47B15BAB8A52523a8A9E861,\r\n//        0x0E6eccDdD1cCF310C47B15BAB8A52523a8A9E861,\r\n//        0x0E6eccDdD1cCF310C47B15BAB8A52523a8A9E861,\r\n//        0x0E6eccDdD1cCF310C47B15BAB8A52523a8A9E861,\r\n//        0x0E6eccDdD1cCF310C47B15BAB8A52523a8A9E861,\r\n//        0x0E6eccDdD1cCF310C47B15BAB8A52523a8A9E861,\r\n//        0x0E6eccDdD1cCF310C47B15BAB8A52523a8A9E861,\r\n//        0x0E6eccDdD1cCF310C47B15BAB8A52523a8A9E861,\r\n//        0x0E6eccDdD1cCF310C47B15BAB8A52523a8A9E861,\r\n//        0x0E6eccDdD1cCF310C47B15BAB8A52523a8A9E861,\r\n//        0x0E6eccDdD1cCF310C47B15BAB8A52523a8A9E861,\r\n//        0x0E6eccDdD1cCF310C47B15BAB8A52523a8A9E861,\r\n//        0x0E6eccDdD1cCF310C47B15BAB8A52523a8A9E861,\r\n//        0x0E6eccDdD1cCF310C47B15BAB8A52523a8A9E861,\r\n//        0x0E6eccDdD1cCF310C47B15BAB8A52523a8A9E861,\r\n//        0x68Ef0bb43A545f865B6f39916d19ad4E030eC782,\r\n//        0x68Ef0bb43A545f865B6f39916d19ad4E030eC782,\r\n//        0x68Ef0bb43A545f865B6f39916d19ad4E030eC782,\r\n//        0x68Ef0bb43A545f865B6f39916d19ad4E030eC782,\r\n//        0x68Ef0bb43A545f865B6f39916d19ad4E030eC782,\r\n//        0x68Ef0bb43A545f865B6f39916d19ad4E030eC782,\r\n//        0x68Ef0bb43A545f865B6f39916d19ad4E030eC782,\r\n//        0x68Ef0bb43A545f865B6f39916d19ad4E030eC782,\r\n//        0x68Ef0bb43A545f865B6f39916d19ad4E030eC782,\r\n//        0x68Ef0bb43A545f865B6f39916d19ad4E030eC782,\r\n//        0xfB575370852870d567Ec24Bea93d7c1096cA3067,\r\n//        0xfB575370852870d567Ec24Bea93d7c1096cA3067,\r\n//        0xfB575370852870d567Ec24Bea93d7c1096cA3067,\r\n//        0xfB575370852870d567Ec24Bea93d7c1096cA3067,\r\n//        0xfB575370852870d567Ec24Bea93d7c1096cA3067,\r\n//        0xfB575370852870d567Ec24Bea93d7c1096cA3067,\r\n//        0xfB575370852870d567Ec24Bea93d7c1096cA3067,\r\n//        0xfB575370852870d567Ec24Bea93d7c1096cA3067,\r\n//        0xfB575370852870d567Ec24Bea93d7c1096cA3067,\r\n//        0xfB575370852870d567Ec24Bea93d7c1096cA3067,\r\n//        0xfB575370852870d567Ec24Bea93d7c1096cA3067,\r\n//        0xfB575370852870d567Ec24Bea93d7c1096cA3067,\r\n//        0xfB575370852870d567Ec24Bea93d7c1096cA3067,\r\n//        0xfB575370852870d567Ec24Bea93d7c1096cA3067,\r\n//        0xfB575370852870d567Ec24Bea93d7c1096cA3067,\r\n//        0xfB575370852870d567Ec24Bea93d7c1096cA3067,\r\n//        0xfB575370852870d567Ec24Bea93d7c1096cA3067,\r\n//        0xfB575370852870d567Ec24Bea93d7c1096cA3067,\r\n//        0xfB575370852870d567Ec24Bea93d7c1096cA3067,\r\n//        0xfB575370852870d567Ec24Bea93d7c1096cA3067,\r\n//        0xfB575370852870d567Ec24Bea93d7c1096cA3067,\r\n//        0xD6C21557D6c7772B998b9748ddCfE1835c43a845,\r\n//        0xD6C21557D6c7772B998b9748ddCfE1835c43a845,\r\n//        0xD6C21557D6c7772B998b9748ddCfE1835c43a845,\r\n//        0xD6C21557D6c7772B998b9748ddCfE1835c43a845,\r\n//        0xD6C21557D6c7772B998b9748ddCfE1835c43a845,\r\n//        0xD6C21557D6c7772B998b9748ddCfE1835c43a845,\r\n//        0xD6C21557D6c7772B998b9748ddCfE1835c43a845,\r\n//        0x3Cf58B8c135F5457B0541637356FA183B5A4aA98,\r\n//        0x3Cf58B8c135F5457B0541637356FA183B5A4aA98,\r\n//        0x3Cf58B8c135F5457B0541637356FA183B5A4aA98,\r\n//        0x31714c50420af572A75bE197A11442dBbb93868d,\r\n//        0x31714c50420af572A75bE197A11442dBbb93868d,\r\n//        0x31714c50420af572A75bE197A11442dBbb93868d,\r\n//        0x631e8b45bD1a8eD4564D40A80DF72d93fF5f11bd,\r\n//        0x631e8b45bD1a8eD4564D40A80DF72d93fF5f11bd,\r\n//        0x631e8b45bD1a8eD4564D40A80DF72d93fF5f11bd,\r\n//        0x631e8b45bD1a8eD4564D40A80DF72d93fF5f11bd,\r\n//        0x631e8b45bD1a8eD4564D40A80DF72d93fF5f11bd,\r\n//        0xA7EDe5CE31317E0087665D0679319B225490801B,\r\n//        0xeA9043fb516efCbFF780c01EBD00B9480c6A7201,\r\n//        0xDa6d2760F416fE7Bb400735AB378F0Fff85Aec14,\r\n//        0xDa6d2760F416fE7Bb400735AB378F0Fff85Aec14,\r\n//        0xDa6d2760F416fE7Bb400735AB378F0Fff85Aec14,\r\n//        0xDa6d2760F416fE7Bb400735AB378F0Fff85Aec14,\r\n//        0xDa6d2760F416fE7Bb400735AB378F0Fff85Aec14,\r\n//        0xDa6d2760F416fE7Bb400735AB378F0Fff85Aec14,\r\n//        0x9A537eA9C3B543af101bEd325d30C87BC7522BDE,\r\n//        0x54cCcedff57811b5ee8626aE6291d7c72c52D6F6,\r\n//        0x54cCcedff57811b5ee8626aE6291d7c72c52D6F6,\r\n//        0x54cCcedff57811b5ee8626aE6291d7c72c52D6F6,\r\n//        0x54cCcedff57811b5ee8626aE6291d7c72c52D6F6,\r\n//        0x54cCcedff57811b5ee8626aE6291d7c72c52D6F6,\r\n//        0x54cCcedff57811b5ee8626aE6291d7c72c52D6F6,\r\n//        0x54cCcedff57811b5ee8626aE6291d7c72c52D6F6,\r\n//        0x54cCcedff57811b5ee8626aE6291d7c72c52D6F6,\r\n//        0x54cCcedff57811b5ee8626aE6291d7c72c52D6F6,\r\n//        0x54cCcedff57811b5ee8626aE6291d7c72c52D6F6,\r\n//        0x54cCcedff57811b5ee8626aE6291d7c72c52D6F6,\r\n//        0x534152A17960B09F3869349a390E449126748410,\r\n//        0x534152A17960B09F3869349a390E449126748410,\r\n//        0xc8CAc7985E716Aa5E87621E567e3e49c08B489A1,\r\n//        0xb18e8a85043E0adaAEBd1E91541f56e3265925c3,\r\n//        0xb18e8a85043E0adaAEBd1E91541f56e3265925c3,\r\n//        0xb18e8a85043E0adaAEBd1E91541f56e3265925c3,\r\n//        0xb18e8a85043E0adaAEBd1E91541f56e3265925c3,\r\n//        0xb18e8a85043E0adaAEBd1E91541f56e3265925c3,\r\n//        0xB30f8D48E57738174Bfbc0e89E6a319ef9c3b91b,\r\n//        0xB34C4bbe1f628Dc31FEd918eAAa82bCEe3eE5586,\r\n//        0xB34C4bbe1f628Dc31FEd918eAAa82bCEe3eE5586,\r\n//        0xB34C4bbe1f628Dc31FEd918eAAa82bCEe3eE5586,\r\n//        0xB34C4bbe1f628Dc31FEd918eAAa82bCEe3eE5586,\r\n//        0xB34C4bbe1f628Dc31FEd918eAAa82bCEe3eE5586,\r\n//        0xB34C4bbe1f628Dc31FEd918eAAa82bCEe3eE5586,\r\n//        0xB34C4bbe1f628Dc31FEd918eAAa82bCEe3eE5586,\r\n//        0xe2Ad5f71D33f8495bd96c63f567DB1BD3Ba82D6B,\r\n//        0xe2Ad5f71D33f8495bd96c63f567DB1BD3Ba82D6B,\r\n//        0xe2Ad5f71D33f8495bd96c63f567DB1BD3Ba82D6B,\r\n//        0xe2Ad5f71D33f8495bd96c63f567DB1BD3Ba82D6B,\r\n//        0xe2Ad5f71D33f8495bd96c63f567DB1BD3Ba82D6B,\r\n//        0xe2Ad5f71D33f8495bd96c63f567DB1BD3Ba82D6B,\r\n//        0xe2Ad5f71D33f8495bd96c63f567DB1BD3Ba82D6B,\r\n//        0xe2Ad5f71D33f8495bd96c63f567DB1BD3Ba82D6B,\r\n//        0xe2Ad5f71D33f8495bd96c63f567DB1BD3Ba82D6B,\r\n//        0xe2Ad5f71D33f8495bd96c63f567DB1BD3Ba82D6B,\r\n//        0x64e6236FB72bbe4DEb5C7B881386944207f80d8b,\r\n//        0x64e6236FB72bbe4DEb5C7B881386944207f80d8b,\r\n//        0x64e6236FB72bbe4DEb5C7B881386944207f80d8b,\r\n//        0xE59C09D6Aa3a479D74E1E9E379d31d834BE438C0,\r\n//        0xE59C09D6Aa3a479D74E1E9E379d31d834BE438C0,\r\n//        0xE59C09D6Aa3a479D74E1E9E379d31d834BE438C0,\r\n//        0x87f28Fc31e72C2bc230229f23de20000DCBdd9Fc,\r\n//        0x87f28Fc31e72C2bc230229f23de20000DCBdd9Fc,\r\n//        0x87f28Fc31e72C2bc230229f23de20000DCBdd9Fc,\r\n//        0xce38E59eD1c4aDd056c3b43Bb806707d4E479c18,\r\n//        0xc6451E75EAF1066b908014E7537238B01dcc4D4d,\r\n//        0xc6451E75EAF1066b908014E7537238B01dcc4D4d,\r\n//        0xc6451E75EAF1066b908014E7537238B01dcc4D4d,\r\n//        0x702d12AE935C9A8CE883F2f42Cd4e3A66357D17A,\r\n//        0x702d12AE935C9A8CE883F2f42Cd4e3A66357D17A,\r\n//        0xA1b342ef9cf077407C261D59BB481DF0b92d5b54,\r\n//        0xA1b342ef9cf077407C261D59BB481DF0b92d5b54,\r\n//        0xA1b342ef9cf077407C261D59BB481DF0b92d5b54,\r\n//        0xA1b342ef9cf077407C261D59BB481DF0b92d5b54,\r\n//        0x6EE579455E55c23AB64ca6e9934222bE62E62a36,\r\n//        0x6EE579455E55c23AB64ca6e9934222bE62E62a36,\r\n//        0x6EE579455E55c23AB64ca6e9934222bE62E62a36,\r\n//        0x6EE579455E55c23AB64ca6e9934222bE62E62a36,\r\n//        0x0381C7b64971cA12613EA03C228bD8E9189C8aB4,\r\n//        0x0381C7b64971cA12613EA03C228bD8E9189C8aB4,\r\n//        0x0381C7b64971cA12613EA03C228bD8E9189C8aB4,\r\n//        0x0381C7b64971cA12613EA03C228bD8E9189C8aB4,\r\n//        0x0381C7b64971cA12613EA03C228bD8E9189C8aB4,\r\n//        0x0381C7b64971cA12613EA03C228bD8E9189C8aB4,\r\n//        0x0381C7b64971cA12613EA03C228bD8E9189C8aB4,\r\n//        0x0381C7b64971cA12613EA03C228bD8E9189C8aB4,\r\n//        0x0381C7b64971cA12613EA03C228bD8E9189C8aB4,\r\n//        0x0381C7b64971cA12613EA03C228bD8E9189C8aB4,\r\n//        0x1B7BCcA9d760CC85f482df2F82f4309892fd0fc5,\r\n//        0xa8FaE6b4959B8bcB393d2d54fd168599e4DaAE1b,\r\n//        0xa8FaE6b4959B8bcB393d2d54fd168599e4DaAE1b,\r\n//        0xa8FaE6b4959B8bcB393d2d54fd168599e4DaAE1b,\r\n//        0x157739953D07352683E7A315dF1a9F145935fD9e,\r\n//        0x157739953D07352683E7A315dF1a9F145935fD9e,\r\n//        0x8EF2BBE9E05B7469bd257b0FA0d670d51A9bf2f4,\r\n//        0x8EF2BBE9E05B7469bd257b0FA0d670d51A9bf2f4,\r\n//        0x8EF2BBE9E05B7469bd257b0FA0d670d51A9bf2f4,\r\n//        0x8EF2BBE9E05B7469bd257b0FA0d670d51A9bf2f4,\r\n//        0xbE8f43B36B60eAa135cE7aA12cBD057700a9FBd6,\r\n//        0xbE8f43B36B60eAa135cE7aA12cBD057700a9FBd6,\r\n//        0x0699F7bF76A26d24C68778e1Ae26e5439ce3CF62,\r\n//        0x0699F7bF76A26d24C68778e1Ae26e5439ce3CF62,\r\n//        0x0699F7bF76A26d24C68778e1Ae26e5439ce3CF62,\r\n//        0x74E3a06361B0c67d736020C3B09196AA84019bFF,\r\n//        0x74E3a06361B0c67d736020C3B09196AA84019bFF,\r\n//        0x74E3a06361B0c67d736020C3B09196AA84019bFF,\r\n//        0x74E3a06361B0c67d736020C3B09196AA84019bFF,\r\n//        0xA24bd512D81ab7a949267f14e3085702f2848931,\r\n//        0xA24bd512D81ab7a949267f14e3085702f2848931,\r\n//        0xA24bd512D81ab7a949267f14e3085702f2848931,\r\n//        0xA24bd512D81ab7a949267f14e3085702f2848931,\r\n//        0xA24bd512D81ab7a949267f14e3085702f2848931,\r\n//        0xA24bd512D81ab7a949267f14e3085702f2848931,\r\n//        0xA24bd512D81ab7a949267f14e3085702f2848931,\r\n//        0xA24bd512D81ab7a949267f14e3085702f2848931,\r\n//        0xA24bd512D81ab7a949267f14e3085702f2848931,\r\n//        0xA24bd512D81ab7a949267f14e3085702f2848931,\r\n//        0xA24bd512D81ab7a949267f14e3085702f2848931,\r\n//        0xA24bd512D81ab7a949267f14e3085702f2848931,\r\n//        0xA24bd512D81ab7a949267f14e3085702f2848931,\r\n//        0xA24bd512D81ab7a949267f14e3085702f2848931,\r\n//        0xA24bd512D81ab7a949267f14e3085702f2848931,\r\n//        0xA24bd512D81ab7a949267f14e3085702f2848931,\r\n//        0xA24bd512D81ab7a949267f14e3085702f2848931,\r\n//        0xA24bd512D81ab7a949267f14e3085702f2848931,\r\n//        0xA24bd512D81ab7a949267f14e3085702f2848931,\r\n//        0xA24bd512D81ab7a949267f14e3085702f2848931,\r\n//        0xA24bd512D81ab7a949267f14e3085702f2848931,\r\n//        0xA24bd512D81ab7a949267f14e3085702f2848931,\r\n//        0xA24bd512D81ab7a949267f14e3085702f2848931,\r\n//        0xA24bd512D81ab7a949267f14e3085702f2848931,\r\n//        0xA24bd512D81ab7a949267f14e3085702f2848931,\r\n//        0xA24bd512D81ab7a949267f14e3085702f2848931,\r\n//        0xA24bd512D81ab7a949267f14e3085702f2848931,\r\n//        0xA24bd512D81ab7a949267f14e3085702f2848931,\r\n//        0xA24bd512D81ab7a949267f14e3085702f2848931,\r\n//        0xA24bd512D81ab7a949267f14e3085702f2848931,\r\n//        0xA24bd512D81ab7a949267f14e3085702f2848931,\r\n//        0xA24bd512D81ab7a949267f14e3085702f2848931,\r\n//        0xA24bd512D81ab7a949267f14e3085702f2848931,\r\n//        0xA24bd512D81ab7a949267f14e3085702f2848931,\r\n//        0xA24bd512D81ab7a949267f14e3085702f2848931,\r\n//        0xA24bd512D81ab7a949267f14e3085702f2848931,\r\n//        0xA24bd512D81ab7a949267f14e3085702f2848931,\r\n//        0xA24bd512D81ab7a949267f14e3085702f2848931,\r\n//        0xA24bd512D81ab7a949267f14e3085702f2848931,\r\n//        0xA24bd512D81ab7a949267f14e3085702f2848931,\r\n//        0xA24bd512D81ab7a949267f14e3085702f2848931,\r\n//        0xd932A7735AB6de3f1C11FC62cC449393F6418985,\r\n//        0xd932A7735AB6de3f1C11FC62cC449393F6418985,\r\n//        0xd932A7735AB6de3f1C11FC62cC449393F6418985,\r\n//        0x26Fefa285aa797665F06a61993e485d0d9195309,\r\n//        0x61b395fae2255B7f22Ab9Dd8CB54edE88B66b2D6,\r\n//        0x3ec73fC792Ca878F17d48E8e16A822284AAb2F41,\r\n//        0x4b7BCE154aeD501572173Ea661B27d717Bd6562C,\r\n//        0x4b7BCE154aeD501572173Ea661B27d717Bd6562C,\r\n//        0x4b7BCE154aeD501572173Ea661B27d717Bd6562C,\r\n//        0x04C04c3662B1bA3d7954E4C795C19178C3793341,\r\n//        0x04C04c3662B1bA3d7954E4C795C19178C3793341,\r\n//        0xC2BCE275Aa0879A21Cc2b968e29A00B7e0Cf3E43,\r\n//        0xC2BCE275Aa0879A21Cc2b968e29A00B7e0Cf3E43,\r\n//        0xC2BCE275Aa0879A21Cc2b968e29A00B7e0Cf3E43,\r\n//        0x5ca1047D199fBF70b0675D930896270D0652EdC7,\r\n//        0xDDf8dA887a1D5C07d05A948856b79DaB091efc78,\r\n//        0xd9544F2aFDe2422A1F72630D45b58198e3239fB8,\r\n//        0xd9544F2aFDe2422A1F72630D45b58198e3239fB8,\r\n//        0xd9544F2aFDe2422A1F72630D45b58198e3239fB8,\r\n//        0xd9544F2aFDe2422A1F72630D45b58198e3239fB8,\r\n//        0xd9544F2aFDe2422A1F72630D45b58198e3239fB8,\r\n//        0xd9544F2aFDe2422A1F72630D45b58198e3239fB8,\r\n//        0xd9544F2aFDe2422A1F72630D45b58198e3239fB8,\r\n//        0xF726f45b78FFB79c1B30E1cA5A923437AeA1E1e7,\r\n//        0xF726f45b78FFB79c1B30E1cA5A923437AeA1E1e7,\r\n//        0xF726f45b78FFB79c1B30E1cA5A923437AeA1E1e7,\r\n//        0x87Ad7427A667A8D9B8a5888BA0e20c47Fef80f97,\r\n//        0x87Ad7427A667A8D9B8a5888BA0e20c47Fef80f97,\r\n//        0x87Ad7427A667A8D9B8a5888BA0e20c47Fef80f97,\r\n//        0x4C2D35ca0a64f15aC64c93D2B80a34357393F2a2,\r\n//        0x4559aA5E6A9Ac32fbA29F88A37F96b00290f2398,\r\n//        0x4559aA5E6A9Ac32fbA29F88A37F96b00290f2398,\r\n//        0x4559aA5E6A9Ac32fbA29F88A37F96b00290f2398,\r\n//        0x4559aA5E6A9Ac32fbA29F88A37F96b00290f2398,\r\n//        0x4559aA5E6A9Ac32fbA29F88A37F96b00290f2398,\r\n//        0x4559aA5E6A9Ac32fbA29F88A37F96b00290f2398,\r\n//        0x4559aA5E6A9Ac32fbA29F88A37F96b00290f2398,\r\n//        0x9FB6f88AC2fF866C51e3150Eb22e389aF1468b66,\r\n//        0x9FB6f88AC2fF866C51e3150Eb22e389aF1468b66,\r\n//        0xDdF0F74Cf4113E21A2FCbfD4BbE3f1bf50bCb0b9,\r\n//        0xDdF0F74Cf4113E21A2FCbfD4BbE3f1bf50bCb0b9,\r\n//        0xDdF0F74Cf4113E21A2FCbfD4BbE3f1bf50bCb0b9,\r\n//        0x13d873246Bb01c5c0528bC144DA9d0732cCf31A2,\r\n//        0x13d873246Bb01c5c0528bC144DA9d0732cCf31A2,\r\n//        0x2440460FbB9D15fdc6889aaCD5BC6B420A34e944,\r\n//        0x2440460FbB9D15fdc6889aaCD5BC6B420A34e944,\r\n//        0x2440460FbB9D15fdc6889aaCD5BC6B420A34e944,\r\n//        0x2440460FbB9D15fdc6889aaCD5BC6B420A34e944,\r\n//        0x2440460FbB9D15fdc6889aaCD5BC6B420A34e944,\r\n//        0x2440460FbB9D15fdc6889aaCD5BC6B420A34e944,\r\n//        0x2440460FbB9D15fdc6889aaCD5BC6B420A34e944,\r\n//        0x2440460FbB9D15fdc6889aaCD5BC6B420A34e944,\r\n//        0x9d0fFdcfA7CDfB2fE2592b5B53e3b65567AD0A2C,\r\n//        0xa2541e1D7f98BA24c41E2535905d92b8bb88d897,\r\n//        0xa2541e1D7f98BA24c41E2535905d92b8bb88d897,\r\n//        0x253b3bE2ABc11Be2fA9F31a5aFb04174E1fa0B51,\r\n//        0x253b3bE2ABc11Be2fA9F31a5aFb04174E1fa0B51,\r\n//        0x253b3bE2ABc11Be2fA9F31a5aFb04174E1fa0B51,\r\n//        0xdA6F16134921d88643316eE080875a3C9FCAb3d0,\r\n//        0xa5B7b4eb029295159D9b3df038B343a2169032d3,\r\n//        0x3F195179eA6202B603490b57A7265FD93c24f553,\r\n//        0x3F195179eA6202B603490b57A7265FD93c24f553,\r\n//        0xe5EdeA54596B385C3c8dFd5010C3Cf892d547Acb,\r\n//        0x0224AaC8cbBe4039558dd91b7E1FDaC6339a8425,\r\n//        0x0224AaC8cbBe4039558dd91b7E1FDaC6339a8425,\r\n//        0x0224AaC8cbBe4039558dd91b7E1FDaC6339a8425,\r\n//        0x1d19C45424f623488827C308B14811933210F828,\r\n//        0x1d19C45424f623488827C308B14811933210F828,\r\n//        0x1d19C45424f623488827C308B14811933210F828,\r\n//        0x1d19C45424f623488827C308B14811933210F828,\r\n//        0x1d19C45424f623488827C308B14811933210F828,\r\n//        0x1d19C45424f623488827C308B14811933210F828,\r\n//        0x1d19C45424f623488827C308B14811933210F828,\r\n//        0x1d19C45424f623488827C308B14811933210F828,\r\n//        0x1d19C45424f623488827C308B14811933210F828,\r\n//        0x1d19C45424f623488827C308B14811933210F828,\r\n//        0x1d19C45424f623488827C308B14811933210F828,\r\n//        0x1d19C45424f623488827C308B14811933210F828,\r\n//        0x1d19C45424f623488827C308B14811933210F828,\r\n//        0x1d19C45424f623488827C308B14811933210F828,\r\n//        0x2aDdE568bbCab1ad53b5A339544BC8eD6B21C1F3,\r\n//        0x2aDdE568bbCab1ad53b5A339544BC8eD6B21C1F3,\r\n//        0x976dE4991de2EF5a733aD70030BC5F5172FcCdF2,\r\n//        0x976dE4991de2EF5a733aD70030BC5F5172FcCdF2,\r\n//        0x3B910E02a48F3c91B1adcD99B20d58d91E74F441,\r\n//        0x3DE5937AC58b07641C3114DD9546b0B437a01cAd,\r\n//        0x3DE5937AC58b07641C3114DD9546b0B437a01cAd,\r\n//        0xA228a5950e79C7a89F836C34d34Ec42B80E57499,\r\n//        0xdE3d3491a3a7bCF4E643f1c699fd7B39Bd692944,\r\n//        0xCe621E1Db598A3A60006F402D7530aF7F3ae737f,\r\n//        0xCe621E1Db598A3A60006F402D7530aF7F3ae737f,\r\n//        0xCe621E1Db598A3A60006F402D7530aF7F3ae737f,\r\n//        0xCe621E1Db598A3A60006F402D7530aF7F3ae737f,\r\n//        0xCe621E1Db598A3A60006F402D7530aF7F3ae737f,\r\n//        0xCe621E1Db598A3A60006F402D7530aF7F3ae737f,\r\n//        0xCe621E1Db598A3A60006F402D7530aF7F3ae737f,\r\n//        0xCe621E1Db598A3A60006F402D7530aF7F3ae737f,\r\n//        0xba3019e09F881477DA564dab79A952f5AE274343,\r\n//        0x36fc63A184a21866b95B65242fc312Af641401Fe,\r\n//        0x9A521cAf497Ac901E17C990A3AE1F361C6f580AA,\r\n//        0x9A521cAf497Ac901E17C990A3AE1F361C6f580AA,\r\n//        0x079592eD30CA513e163beaDa021B2028C05cb15F,\r\n//        0x079592eD30CA513e163beaDa021B2028C05cb15F,\r\n//        0x079592eD30CA513e163beaDa021B2028C05cb15F,\r\n//        0x3f64aC32eFfe872541eE3085DF127f47653f14dC,\r\n//        0x3f64aC32eFfe872541eE3085DF127f47653f14dC,\r\n//        0x8c12602024b4545c7E9ab1aEe6193c359b86ce97,\r\n//        0x585e50361d4C2D67EF84e98B84Ca85A5173A3E8E,\r\n//        0x66AA0f589f3bbad15fBDC24d9A97bE1d3282F6D9,\r\n//        0x66AA0f589f3bbad15fBDC24d9A97bE1d3282F6D9,\r\n//        0x66AA0f589f3bbad15fBDC24d9A97bE1d3282F6D9,\r\n//        0x66AA0f589f3bbad15fBDC24d9A97bE1d3282F6D9,\r\n//        0x66AA0f589f3bbad15fBDC24d9A97bE1d3282F6D9,\r\n//        0x66AA0f589f3bbad15fBDC24d9A97bE1d3282F6D9,\r\n//        0x66AA0f589f3bbad15fBDC24d9A97bE1d3282F6D9,\r\n//        0x66AA0f589f3bbad15fBDC24d9A97bE1d3282F6D9,\r\n//        0x66AA0f589f3bbad15fBDC24d9A97bE1d3282F6D9,\r\n//        0x66AA0f589f3bbad15fBDC24d9A97bE1d3282F6D9,\r\n//        0x66AA0f589f3bbad15fBDC24d9A97bE1d3282F6D9,\r\n//        0x66AA0f589f3bbad15fBDC24d9A97bE1d3282F6D9,\r\n//        0x66AA0f589f3bbad15fBDC24d9A97bE1d3282F6D9,\r\n//        0x66AA0f589f3bbad15fBDC24d9A97bE1d3282F6D9,\r\n//        0x66AA0f589f3bbad15fBDC24d9A97bE1d3282F6D9,\r\n//        0x4d67Bb6802E6F68AF2e22428F157A4A7a261CE45,\r\n//        0x4d67Bb6802E6F68AF2e22428F157A4A7a261CE45,\r\n//        0x4d67Bb6802E6F68AF2e22428F157A4A7a261CE45,\r\n//        0x47a01fCB08c8e7E29EDFe53e5824B79eaF5cF6E2,\r\n//        0x47a01fCB08c8e7E29EDFe53e5824B79eaF5cF6E2,\r\n//        0xf4b785ef2c10D5662A053043E362e7E74E14A206,\r\n//        0xf4b785ef2c10D5662A053043E362e7E74E14A206,\r\n//        0x02A3eb940250Ec205fFD38Af0c0CE275f668bdeb,\r\n//        0x02A3eb940250Ec205fFD38Af0c0CE275f668bdeb,\r\n//        0x04F4A2780106B5AF0eE693Ba2084d8B9318596BB,\r\n//        0x2a197337a819B9D6AD6220dd0E3E432f1285a914,\r\n//        0xf2F0f0338d9C3162683465D88cDE2d18eCa32696,\r\n//        0xf2F0f0338d9C3162683465D88cDE2d18eCa32696,\r\n//        0xB47bcCc4B7343b385cE09064649246b09c2549Ff,\r\n//        0xB47bcCc4B7343b385cE09064649246b09c2549Ff,\r\n//        0xB47bcCc4B7343b385cE09064649246b09c2549Ff,\r\n//        0x41Eea72fE552814BC98541e16Bf702F377d6E531,\r\n//        0x67924D2D42F24646444C78428654B2620A0cf733,\r\n//        0x527Bf8c25e78F9d58992FEA80F0677D3576870A9,\r\n//        0x0A69E7000A4E8C6d3B982d7e58022Cf2E48440b1,\r\n//        0x0A69E7000A4E8C6d3B982d7e58022Cf2E48440b1,\r\n//        0x0A69E7000A4E8C6d3B982d7e58022Cf2E48440b1,\r\n//        0x5Ecdf626d3ab597B2A7E0c4DE23869E4ab6781c1,\r\n//        0x3281d8f4d78C89Ad8312D001d9d07949CC606E7d,\r\n//        0x3281d8f4d78C89Ad8312D001d9d07949CC606E7d,\r\n//        0xed7F03c5Dd52498b383aCB6ab0eBD0C8E3E7478D,\r\n//        0xfa6fae951E0A4118363d8f3560423d86f519e741,\r\n//        0xfa6fae951E0A4118363d8f3560423d86f519e741,\r\n//        0x69C8E0F25009674bCa63D420b7EEf623c69c968F,\r\n//        0x164f8653eC39C40CF343D4F77b0F839D2eB776BB,\r\n//        0x972C86bB0f91D7EAB503ea8EdF17Ecce3a68dDAE,\r\n//        0xfbD2ec3B10B961DbAD088C007ee1EB68267f441C,\r\n//        0x31e0e75f2d486fBF7c61E11995Eae6DCD078F9F4,\r\n//        0x8eB3E91CdB937941BFDe3673151B1980bCa062d7,\r\n//        0x8eB3E91CdB937941BFDe3673151B1980bCa062d7,\r\n//        0xe3632Ec30FbC0cFDcd72886e62DEDcdbd20DCb6C,\r\n//        0xf15Ce5Da0cF72a4bD35C0ffc588b6E55EdD3aE4D,\r\n//        0xeC2CF9bdC29fA132c397a0c9E6254B0c19C54984,\r\n//        0x7252aDdCF940a75c76EF8C016b61b25d171c725F,\r\n//        0xF24BfD02a161960004aEbEB25d3bdA95f19ED7c1,\r\n//        0xb674Fc84BC733E6E8637164326B2262322E13c0c,\r\n//        0xb674Fc84BC733E6E8637164326B2262322E13c0c,\r\n//        0x995897afa1EFBFc2094b157a768a0fbE19fC6F7d,\r\n//        0x10495E143d79296d5222497b7245294dc9e2D596,\r\n//        0x5C5Eb866e198e1936E18521422F0e4535C8fb69F,\r\n//        0xc92AB6fDdBCBd5f3E24898f2Fd5fE5e54Cc75D9F,\r\n//        0xc92AB6fDdBCBd5f3E24898f2Fd5fE5e54Cc75D9F,\r\n//        0xc92AB6fDdBCBd5f3E24898f2Fd5fE5e54Cc75D9F,\r\n//        0xc31dF445eaE41d57f3DEc40FfaAeDCAcB5De69cE,\r\n//        0x46b78c4E9c3DB632FE85F831f03beF9C73F43874,\r\n//        0xA447e2B48AC061f3489443273e489731CccEeEaA,\r\n//        0xA447e2B48AC061f3489443273e489731CccEeEaA,\r\n//        0xA447e2B48AC061f3489443273e489731CccEeEaA,\r\n//        0x34BC7cdC5E7eE9682e8Dd1B91D453A72aEEB6d08,\r\n//        0x5E82adBC357E00906534DF8eC91C2A77ED88DbBf,\r\n//        0x84f8eF27F0f5c7cCA59af645e4cc58ED2D340531,\r\n//        0xC636A99bE47bE04329dCb376E1c0A93c4c2cE76F,\r\n//        0xC636A99bE47bE04329dCb376E1c0A93c4c2cE76F,\r\n//        0x07213c3240AC5a39d34F52736D06a97cBcF9C249,\r\n//        0xc1287F8Ad0f1E4629c1cA64F90FCc3A3b24E03eE,\r\n//        0xc1287F8Ad0f1E4629c1cA64F90FCc3A3b24E03eE,\r\n//        0xF3Cb47cf59A71b36a371DCE1f6b1B5c9f1fB0d19,\r\n//        0x04d4Ef7BD43ed4B87502228970212559498772d0,\r\n//        0xBe5A1eeB0bFB7eF02AF870DF05e75013Bd016973,\r\n//        0xBe5A1eeB0bFB7eF02AF870DF05e75013Bd016973,\r\n//        0xA8266eC35690FFC853028D3feC1F4b46982d5edb,\r\n//        0xA8266eC35690FFC853028D3feC1F4b46982d5edb,\r\n//        0x542a3Ee877c164c5c8c0Ad0a257a0552431c9347,\r\n//        0x542a3Ee877c164c5c8c0Ad0a257a0552431c9347,\r\n//        0x542a3Ee877c164c5c8c0Ad0a257a0552431c9347,\r\n//        0x1Ad8cae2047d19b1FB41a15c3FF567A46d968d97,\r\n//        0x5B4AeC53D653DFCabef77E687da2Ad08d2B2a512,\r\n//        0xf11C4A899b6A95A78331e48ce8eE690b97484A12,\r\n//        0x6Eb351abBC231a42c2F4d2449E9e198FAF99f2BB,\r\n//        0xBeAf6a453b4EDaC9685400221264D20eDBE3dd6e,\r\n//        0x983E964b5C44B2d5F95e707EBfD82F53312f7d2a,\r\n//        0x1B45764a489720ffC9478edA7EB9c89AED8F7e41,\r\n//        0x534686ad88f278D227055a57983d51a63BDEa2d2,\r\n//        0xc8dD392B5096f2B5F3e528fb7473fb883bcc1cf9,\r\n//        0x367041Ac2b325b71591c14fc4B779d223B0D00D7,\r\n//        0x92a099d7680eA2b97518526D552451b9a5Ef96A2,\r\n//        0xCf01d6282d9DB887D3A7e45Dd03e13192cb6C838,\r\n//        0xCf01d6282d9DB887D3A7e45Dd03e13192cb6C838,\r\n//        0x02541840a2cb0669cA6d123D8941F3eB3D8b7B7F,\r\n//        0x1AD989CA0511caa74F2Eb26f8654D7e00356a286,\r\n//        0x1AD989CA0511caa74F2Eb26f8654D7e00356a286,\r\n//        0x0c8dE6c981206F981C4a3C228b4ebd63b79Ea297,\r\n//        0x0c8dE6c981206F981C4a3C228b4ebd63b79Ea297,\r\n//        0x4A3E5477B96286eF62120ceEFb46eCDf352B634E,\r\n//        0xF44AACFe5680710c4952d448d65A2F03A09B038d,\r\n//        0x49De41D1814eA1D131643447ffcb1aBe5FBD07E0,\r\n//        0xf6045C8F74064f6D488E284f8Be018e41cF909D5,\r\n//        0x35D15Ea8baC5812e3F1229909E557f23F0c66642,\r\n//        0x35D15Ea8baC5812e3F1229909E557f23F0c66642,\r\n//        0x9ff0337F54Faf4F5f0Beb266c79dA9d6Ef7FE1a0,\r\n//        0xA380087b590B409550D544f3bfd08966199b3019,\r\n//        0x2cB6Cc661b06Bc4C6cA040519D999c28f2B5E8c5,\r\n//        0xE19cA478A0aA0670Ee4C80d856ac10ADF8CAF449,\r\n//        0x92E60FB8eCdb756C3260E509aDbbb9aF67A57A01,\r\n//        0x53323EABA54Dcad710EebcA4A4352a60bf9EA26C,\r\n//        0x1b1a5aF70c900344A250DC451Bc726dA346035f2,\r\n//        0x0dBAC9141A06c338e6e38e84a5c8556BcEe33117,\r\n//        0xCA5b8793dc2C9F973485b6D2C216C65715F8206b,\r\n//        0x1B0b1C33cd0410c52369f756B7Bd6b70040Df94A,\r\n//        0x86341c7cEde8f699207c59CC43721106cF25ffe0,\r\n//        0x4d9040Fe9d9077D70a6Ca1ea7dE1cAc43775572d,\r\n//        0xbcBEF0265866b3fd1682a95Ed8c7A97c85d01Bb2,\r\n//        0x79b35f7c372b1622392D090bC4c09974fEbd094D,\r\n//        0x943A473a92e1f44507647335BbE9bAf50dCE4b50,\r\n//        0xF74F39140B490AA2091d8b30B0AeA76Fd3639432,\r\n//        0xF74F39140B490AA2091d8b30B0AeA76Fd3639432,\r\n//        0xF0721ffdFF9818C6dcC5E1bC9F3B2a63c3AA65D9,\r\n//        0x9b8ebeC7B2A0c3b603A95D0D5ec73E02a38c0885,\r\n//        0x594F1Db7C356DF5DC49b650e0D2B0A8c16922442,\r\n//        0xaF32582b01CeDfF545F48357980C9f5214216890,\r\n//        0x686044fE83e1d6923D5670C6B18966324345F903,\r\n//        0xFA8BbCfC0A4EA1a0c405bd72a840E39Ab74a2b14,\r\n//        0x1310bDa0cded1Bbe606664d547C6dc6578088910,\r\n//        0x1310bDa0cded1Bbe606664d547C6dc6578088910,\r\n//        0x1310bDa0cded1Bbe606664d547C6dc6578088910,\r\n//        0x89082a56fA47446911b9709C97cbEb53966f2B00,\r\n//        0xB7d1491a90422EeafCbDE9BfeC3200c6Da21cCFF,\r\n//        0x7d844D78865340596Ef9Cdb43c5384E88B9FEAF0,\r\n//        0x591BFd13DF94d2151b995fa5a3DdCbe4203e3B3f,\r\n//        0x75feE0DeF33C1738035bdB751e65B60055bf46Cd,\r\n//        0xc09fD6C5aE24D4D23874F2Dbf00FE8e8896EE5d7,\r\n//        0xc09fD6C5aE24D4D23874F2Dbf00FE8e8896EE5d7,\r\n//        0xcF2001A16B69543fD4BFb54f1d4528b6c5307a3b,\r\n//        0x852618494770C0F6879C208a5eE804EbB6055e46,\r\n//        0x6Cc3364F606d704be273E730Dfb1aE185614a59d,\r\n//        0x6Cc3364F606d704be273E730Dfb1aE185614a59d,\r\n//        0x6Cc3364F606d704be273E730Dfb1aE185614a59d,\r\n//        0x6Cc3364F606d704be273E730Dfb1aE185614a59d,\r\n//        0x6Cc3364F606d704be273E730Dfb1aE185614a59d,\r\n//        0x6Cc3364F606d704be273E730Dfb1aE185614a59d,\r\n//        0x6Cc3364F606d704be273E730Dfb1aE185614a59d,\r\n//        0x6Cc3364F606d704be273E730Dfb1aE185614a59d,\r\n//        0x6Cc3364F606d704be273E730Dfb1aE185614a59d,\r\n//        0x6Cc3364F606d704be273E730Dfb1aE185614a59d,\r\n//        0xd8b4451342Ca1f5628eEEdBC01057AbEAEa19a71,\r\n//        0xd8b4451342Ca1f5628eEEdBC01057AbEAEa19a71,\r\n//        0x8f9D80bE23e9b739C49eCcd0CF59bA7d890ce66D,\r\n//        0x3D55fE67e535DFACd4aFE77C1608ccEcFe241C5e,\r\n//        0xbE8811E6EF7a7fb542C4FF308f5F595B806BF047,\r\n//        0x567C3Cf5A14AA2E8a32589FE3eA38C6680756026,\r\n//        0xcEae4FcD03917d417389Eb0fC96EBeC1e89414d1,\r\n//        0x532fd36EA87Cf9F316FaD40b39385a4716065B8c,\r\n//        0x63D22ce061ada7247B2367c05f324C52Db34660b,\r\n//        0x63D22ce061ada7247B2367c05f324C52Db34660b,\r\n//        0x9a908DB106003823B289c55D89faC14597e221D1,\r\n//        0x26Cc7cAdB9418728Fd053413534C27b78f935a7f\r\n//    ];\r\n\r\n    uint public tokenID = 200;\r\n\r\n    function distributeNFT(address NFT_CONTRACT, address from, address[] memory addresses) public onlyOwner {\r\n        for(uint index = 0; index < addresses.length; index++) {\r\n            INFTContract(NFT_CONTRACT).transferFrom(from, addresses[index], tokenID);\r\n            tokenID++;\r\n        }\r\n    }\r\n\r\n}",
  "sourcePath": "D:\\GeksWorldNFT\\contracts\\GeksWorldNFTContracts\\contracts\\MainstreetNFTDistributor.sol",
  "compiler": {
    "name": "solc",
    "version": "0.8.10+commit.fc410830.Emscripten.clang"
  },
  "schemaVersion": "3.4.3",
  "updatedAt": "2022-02-23T23:31:17.631Z",
  "networkType": "ethereum",
  "devdoc": {
    "kind": "dev",
    "methods": {
      "owner()": {
        "details": "Returns the address of the current owner."
      },
      "renounceOwnership()": {
        "details": "Leaves the contract without owner. It will not be possible to call `onlyOwner` functions anymore. Can only be called by the current owner. NOTE: Renouncing ownership will leave the contract without an owner, thereby removing any functionality that is only available to the owner."
      },
      "transferOwnership(address)": {
        "details": "Transfers ownership of the contract to a new account (`newOwner`). Can only be called by the current owner."
      }
    },
    "version": 1
  },
  "userdoc": {
    "kind": "user",
    "methods": {
      "tokenID()": {
        "notice": "**"
      }
    },
    "version": 1
  }
}