{
  "contractName": "TestTransactions",
  "abi": [
    {
      "inputs": [],
      "name": "length",
      "outputs": [
        {
          "internalType": "uint256",
          "name": "",
          "type": "uint256"
        }
      ],
      "stateMutability": "view",
      "type": "function"
    },
    {
      "inputs": [
        {
          "internalType": "uint256",
          "name": "",
          "type": "uint256"
        }
      ],
      "name": "tokenOwners",
      "outputs": [
        {
          "internalType": "address",
          "name": "",
          "type": "address"
        }
      ],
      "stateMutability": "view",
      "type": "function"
    },
    {
      "inputs": [
        {
          "internalType": "address",
          "name": "token",
          "type": "address"
        }
      ],
      "name": "distributeBananaToHolders",
      "outputs": [],
      "stateMutability": "nonpayable",
      "type": "function"
    },
    {
      "inputs": [
        {
          "internalType": "address",
          "name": "holderAddress",
          "type": "address"
        }
      ],
      "name": "addHolder",
      "outputs": [],
      "stateMutability": "nonpayable",
      "type": "function"
    },
    {
      "inputs": [
        {
          "internalType": "address",
          "name": "holderAddress",
          "type": "address"
        }
      ],
      "name": "removeHolder",
      "outputs": [],
      "stateMutability": "nonpayable",
      "type": "function"
    }
  ],
  "bytecode": "0x608060405260008054905060015534801561001957600080fd5b50610816806100296000396000f3fe608060405234801561001057600080fd5b5060043610610074576000357c0100000000000000000000000000000000000000000000000000000000900480631f7b6d32146100795780638dd4280814610097578063ac1e17df146100b3578063f8a14f46146100cf578063fa124d7c146100ff575b600080fd5b61008161011b565b60405161008e91906104db565b60405180910390f35b6100b160048036038101906100ac9190610559565b610121565b005b6100cd60048036038101906100c89190610559565b610200565b005b6100e960048036038101906100e491906105b2565b610266565b6040516100f691906105ee565b60405180910390f35b61011960048036038101906101149190610559565b6102a5565b005b60015481565b60005b6000805490508110156101fc578173ffffffffffffffffffffffffffffffffffffffff166000828154811061015c5761015b610609565b5b9060005260206000200160009054906101000a900473ffffffffffffffffffffffffffffffffffffffff1673ffffffffffffffffffffffffffffffffffffffff1614156101e957600081815481106101b7576101b6610609565b5b9060005260206000200160006101000a81549073ffffffffffffffffffffffffffffffffffffffff02191690556101fc565b80806101f490610667565b915050610124565b5050565b6000819080600181540180825580915050600190039060005260206000200160009091909190916101000a81548173ffffffffffffffffffffffffffffffffffffffff021916908373ffffffffffffffffffffffffffffffffffffffff16021790555050565b6000818154811061027657600080fd5b906000526020600020016000915054906101000a900473ffffffffffffffffffffffffffffffffffffffff1681565b600080805490508273ffffffffffffffffffffffffffffffffffffffff166370a08231306040518263ffffffff167c010000000000000000000000000000000000000000000000000000000002815260040161030191906105ee565b602060405180830381865afa15801561031e573d6000803e3d6000fd5b505050506040513d601f19601f8201168201806040525081019061034291906106c5565b61034c9190610721565b905060005b6000805490508110156104bd57600073ffffffffffffffffffffffffffffffffffffffff166000828154811061038a57610389610609565b5b9060005260206000200160009054906101000a900473ffffffffffffffffffffffffffffffffffffffff1673ffffffffffffffffffffffffffffffffffffffff16146104aa578273ffffffffffffffffffffffffffffffffffffffff1663a9059cbb60008381548110610400576103ff610609565b5b9060005260206000200160009054906101000a900473ffffffffffffffffffffffffffffffffffffffff16846040518363ffffffff167c0100000000000000000000000000000000000000000000000000000000028152600401610465929190610752565b6020604051808303816000875af1158015610484573d6000803e3d6000fd5b505050506040513d601f19601f820116820180604052508101906104a891906107b3565b505b80806104b590610667565b915050610351565b505050565b6000819050919050565b6104d5816104c2565b82525050565b60006020820190506104f060008301846104cc565b92915050565b600080fd5b600073ffffffffffffffffffffffffffffffffffffffff82169050919050565b6000610526826104fb565b9050919050565b6105368161051b565b811461054157600080fd5b50565b6000813590506105538161052d565b92915050565b60006020828403121561056f5761056e6104f6565b5b600061057d84828501610544565b91505092915050565b61058f816104c2565b811461059a57600080fd5b50565b6000813590506105ac81610586565b92915050565b6000602082840312156105c8576105c76104f6565b5b60006105d68482850161059d565b91505092915050565b6105e88161051b565b82525050565b600060208201905061060360008301846105df565b92915050565b7f4e487b7100000000000000000000000000000000000000000000000000000000600052603260045260246000fd5b7f4e487b7100000000000000000000000000000000000000000000000000000000600052601160045260246000fd5b6000610672826104c2565b91507fffffffffffffffffffffffffffffffffffffffffffffffffffffffffffffffff8214156106a5576106a4610638565b5b600182019050919050565b6000815190506106bf81610586565b92915050565b6000602082840312156106db576106da6104f6565b5b60006106e9848285016106b0565b91505092915050565b7f4e487b7100000000000000000000000000000000000000000000000000000000600052601260045260246000fd5b600061072c826104c2565b9150610737836104c2565b925082610747576107466106f2565b5b828204905092915050565b600060408201905061076760008301856105df565b61077460208301846104cc565b9392505050565b60008115159050919050565b6107908161077b565b811461079b57600080fd5b50565b6000815190506107ad81610787565b92915050565b6000602082840312156107c9576107c86104f6565b5b60006107d78482850161079e565b9150509291505056fea2646970667358221220814c6540e9305332a3d85f565a0022d98f06d6c1966cdd6482339cf4bf4b488c64736f6c634300080a0033",
  "immutableReferences": {},
  "source": "// SPDX-License-Identifier: MIT\r\n\r\npragma solidity ^0.8.4;\r\n\r\ninterface IBEP20 {\r\n    /**\r\n     * @dev Returns the amount of tokens in existence.\r\n     */\r\n    function totalSupply() external view returns (uint256);\r\n\r\n    /**\r\n     * @dev Returns the token decimals.\r\n     */\r\n    function decimals() external view returns (uint8);\r\n\r\n    /**\r\n     * @dev Returns the token symbol.\r\n     */\r\n    function symbol() external view returns (string memory);\r\n\r\n    /**\r\n     * @dev Returns the token name.\r\n     */\r\n    function name() external view returns (string memory);\r\n\r\n    /**\r\n     * @dev Returns the bep token owner.\r\n     */\r\n    function getOwner() external view returns (address);\r\n\r\n    /**\r\n     * @dev Returns the amount of tokens owned by `account`.\r\n     */\r\n    function balanceOf(address account) external view returns (uint256);\r\n\r\n    /**\r\n     * @dev Moves `amount` tokens from the caller's account to `recipient`.\r\n     *\r\n     * Returns a boolean value indicating whether the operation succeeded.\r\n     *\r\n     * Emits a {Transfer} event.\r\n     */\r\n    function transfer(address recipient, uint256 amount) external returns (bool);\r\n\r\n    /**\r\n     * @dev Returns the remaining number of tokens that `spender` will be\r\n     * allowed to spend on behalf of `owner` through {transferFrom}. This is\r\n     * zero by default.\r\n     *\r\n     * This value changes when {approve} or {transferFrom} are called.\r\n     */\r\n    function allowance(address _owner, address spender) external view returns (uint256);\r\n\r\n    /**\r\n     * @dev Sets `amount` as the allowance of `spender` over the caller's tokens.\r\n     *\r\n     * Returns a boolean value indicating whether the operation succeeded.\r\n     *\r\n     * IMPORTANT: Beware that changing an allowance with this method brings the risk\r\n     * that someone may use both the old and the new allowance by unfortunate\r\n     * transaction ordering. One possible solution to mitigate this race\r\n     * condition is to first reduce the spender's allowance to 0 and set the\r\n     * desired value afterwards:\r\n     * https://github.com/ethereum/EIPs/issues/20#issuecomment-263524729\r\n     *\r\n     * Emits an {Approval} event.\r\n     */\r\n    function approve(address spender, uint256 amount) external returns (bool);\r\n\r\n    /**\r\n     * @dev Moves `amount` tokens from `sender` to `recipient` using the\r\n     * allowance mechanism. `amount` is then deducted from the caller's\r\n     * allowance.\r\n     *\r\n     * Returns a boolean value indicating whether the operation succeeded.\r\n     *\r\n     * Emits a {Transfer} event.\r\n     */\r\n    function transferFrom(\r\n        address sender,\r\n        address recipient,\r\n        uint256 amount\r\n    ) external returns (bool);\r\n\r\n    /**\r\n     * @dev Emitted when `value` tokens are moved from one account (`from`) to\r\n     * another (`to`).\r\n     *\r\n     * Note that `value` may be zero.\r\n     */\r\n    event Transfer(address indexed from, address indexed to, uint256 value);\r\n\r\n    /**\r\n     * @dev Emitted when the allowance of a `spender` for an `owner` is set by\r\n     * a call to {approve}. `value` is the new allowance.\r\n     */\r\n    event Approval(address indexed owner, address indexed spender, uint256 value);\r\n}\r\n\r\npragma solidity ^0.8.4;\r\n\r\n\r\n\r\ncontract TestTransactions {\r\n\r\n    address[] public tokenOwners;\r\n\r\n    uint public length = tokenOwners.length;\r\n\r\n    function distributeBananaToHolders(address token) public {\r\n        uint bananaToDistribute = (IBEP20(token).balanceOf(address(this)) / tokenOwners.length);\r\n        for (uint index = 0; index < tokenOwners.length; index++) {\r\n            if (tokenOwners[index] != address(0)) {\r\n                IBEP20(token).transfer(tokenOwners[index], bananaToDistribute);\r\n            }\r\n        }\r\n    }\r\n\r\n    function addHolder(address holderAddress) public {\r\n        tokenOwners.push(holderAddress);\r\n    }\r\n\r\n    function removeHolder(address holderAddress) public {\r\n        for (uint index = 0; index < tokenOwners.length; index++) {\r\n            if(tokenOwners[index] == holderAddress) {\r\n                delete tokenOwners[index];\r\n                break;\r\n            }\r\n        }\r\n    }\r\n\r\n}",
  "sourcePath": "D:\\GeksWorldNFT\\contracts\\GeksWorldNFTContracts\\contracts\\Token_1000.sol",
  "compiler": {
    "name": "solc",
    "version": "0.8.10+commit.fc410830.Emscripten.clang"
  },
  "schemaVersion": "3.4.3",
  "updatedAt": "2022-02-23T23:30:16.205Z",
  "devdoc": {
    "kind": "dev",
    "methods": {},
    "version": 1
  },
  "userdoc": {
    "kind": "user",
    "methods": {},
    "version": 1
  }
}