{
  "contractName": "WhiteList",
  "abi": [
    {
      "inputs": [],
      "stateMutability": "nonpayable",
      "type": "constructor"
    },
    {
      "inputs": [
        {
          "internalType": "uint256",
          "name": "",
          "type": "uint256"
        }
      ],
      "name": "whiteList",
      "outputs": [
        {
          "internalType": "address",
          "name": "",
          "type": "address"
        }
      ],
      "stateMutability": "view",
      "type": "function"
    },
    {
      "inputs": [
        {
          "internalType": "address",
          "name": "_address",
          "type": "address"
        }
      ],
      "name": "whitelistAddress",
      "outputs": [],
      "stateMutability": "nonpayable",
      "type": "function"
    },
    {
      "inputs": [],
      "name": "totalHolders",
      "outputs": [
        {
          "internalType": "uint256",
          "name": "length",
          "type": "uint256"
        }
      ],
      "stateMutability": "view",
      "type": "function"
    },
    {
      "inputs": [
        {
          "internalType": "address",
          "name": "_address",
          "type": "address"
        }
      ],
      "name": "checkWhiteListed",
      "outputs": [
        {
          "internalType": "bool",
          "name": "whitelisted",
          "type": "bool"
        }
      ],
      "stateMutability": "view",
      "type": "function"
    }
  ],
  "bytecode": "0x608060405260405180610ca0016040528073a97f7eb14da5568153ea06b2656ccf7c338d942f73ffffffffffffffffffffffffffffffffffffffff1673ffffffffffffffffffffffffffffffffffffffff16815260200173a97f7eb14da5568153ea06b2656ccf7c338d942f73ffffffffffffffffffffffffffffffffffffffff1673ffffffffffffffffffffffffffffffffffffffff16815260200173a97f7eb14da5568153ea06b2656ccf7c338d942f73ffffffffffffffffffffffffffffffffffffffff1673ffffffffffffffffffffffffffffffffffffffff16815260200173a97f7eb14da5568153ea06b2656ccf7c338d942f73ffffffffffffffffffffffffffffffffffffffff1673ffffffffffffffffffffffffffffffffffffffff16815260200173a97f7eb14da5568153ea06b2656ccf7c338d942f73ffffffffffffffffffffffffffffffffffffffff1673ffffffffffffffffffffffffffffffffffffffff16815260200173a97f7eb14da5568153ea06b2656ccf7c338d942f73ffffffffffffffffffffffffffffffffffffffff1673ffffffffffffffffffffffffffffffffffffffff16815260200173a97f7eb14da5568153ea06b2656ccf7c338d942f73ffffffffffffffffffffffffffffffffffffffff1673ffffffffffffffffffffffffffffffffffffffff16815260200173a97f7eb14da5568153ea06b2656ccf7c338d942f73ffffffffffffffffffffffffffffffffffffffff1673ffffffffffffffffffffffffffffffffffffffff16815260200173a97f7eb14da5568153ea06b2656ccf7c338d942f73ffffffffffffffffffffffffffffffffffffffff1673ffffffffffffffffffffffffffffffffffffffff16815260200173a97f7eb14da5568153ea06b2656ccf7c338d942f73ffffffffffffffffffffffffffffffffffffffff1673ffffffffffffffffffffffffffffffffffffffff16815260200173a97f7eb14da5568153ea06b2656ccf7c338d942f73ffffffffffffffffffffffffffffffffffffffff1673ffffffffffffffffffffffffffffffffffffffff16815260200173a97f7eb14da5568153ea06b2656ccf7c338d942f73ffffffffffffffffffffffffffffffffffffffff1673ffffffffffffffffffffffffffffffffffffffff16815260200173a97f7eb14da5568153ea06b2656ccf7c338d942f73ffffffffffffffffffffffffffffffffffffffff1673ffffffffffffffffffffffffffffffffffffffff16815260200173a97f7eb14da5568153ea06b2656ccf7c338d942f73ffffffffffffffffffffffffffffffffffffffff1673ffffffffffffffffffffffffffffffffffffffff16815260200173a97f7eb14da5568153ea06b2656ccf7c338d942f73ffffffffffffffffffffffffffffffffffffffff1673ffffffffffffffffffffffffffffffffffffffff16815260200173a97f7eb14da5568153ea06b2656ccf7c338d942f73ffffffffffffffffffffffffffffffffffffffff1673ffffffffffffffffffffffffffffffffffffffff16815260200173a97f7eb14da5568153ea06b2656ccf7c338d942f73ffffffffffffffffffffffffffffffffffffffff1673ffffffffffffffffffffffffffffffffffffffff16815260200173a97f7eb14da5568153ea06b2656ccf7c338d942f73ffffffffffffffffffffffffffffffffffffffff1673ffffffffffffffffffffffffffffffffffffffff16815260200173a97f7eb14da5568153ea06b2656ccf7c338d942f73ffffffffffffffffffffffffffffffffffffffff1673ffffffffffffffffffffffffffffffffffffffff16815260200173a97f7eb14da5568153ea06b2656ccf7c338d942f73ffffffffffffffffffffffffffffffffffffffff1673ffffffffffffffffffffffffffffffffffffffff16815260200173a97f7eb14da5568153ea06b2656ccf7c338d942f73ffffffffffffffffffffffffffffffffffffffff1673ffffffffffffffffffffffffffffffffffffffff16815260200173a97f7eb14da5568153ea06b2656ccf7c338d942f73ffffffffffffffffffffffffffffffffffffffff1673ffffffffffffffffffffffffffffffffffffffff16815260200173a97f7eb14da5568153ea06b2656ccf7c338d942f73ffffffffffffffffffffffffffffffffffffffff1673ffffffffffffffffffffffffffffffffffffffff16815260200173a97f7eb14da5568153ea06b2656ccf7c338d942f73ffffffffffffffffffffffffffffffffffffffff1673ffffffffffffffffffffffffffffffffffffffff16815260200173a97f7eb14da5568153ea06b2656ccf7c338d942f73ffffffffffffffffffffffffffffffffffffffff1673ffffffffffffffffffffffffffffffffffffffff16815260200173a97f7eb14da5568153ea06b2656ccf7c338d942f73ffffffffffffffffffffffffffffffffffffffff1673ffffffffffffffffffffffffffffffffffffffff16815260200173a97f7eb14da5568153ea06b2656ccf7c338d942f73ffffffffffffffffffffffffffffffffffffffff1673ffffffffffffffffffffffffffffffffffffffff16815260200173a97f7eb14da5568153ea06b2656ccf7c338d942f73ffffffffffffffffffffffffffffffffffffffff1673ffffffffffffffffffffffffffffffffffffffff16815260200173a97f7eb14da5568153ea06b2656ccf7c338d942f73ffffffffffffffffffffffffffffffffffffffff1673ffffffffffffffffffffffffffffffffffffffff16815260200173a97f7eb14da5568153ea06b2656ccf7c338d942f73ffffffffffffffffffffffffffffffffffffffff1673ffffffffffffffffffffffffffffffffffffffff16815260200173a97f7eb14da5568153ea06b2656ccf7c338d942f73ffffffffffffffffffffffffffffffffffffffff1673ffffffffffffffffffffffffffffffffffffffff16815260200173a97f7eb14da5568153ea06b2656ccf7c338d942f73ffffffffffffffffffffffffffffffffffffffff1673ffffffffffffffffffffffffffffffffffffffff16815260200173a97f7eb14da5568153ea06b2656ccf7c338d942f73ffffffffffffffffffffffffffffffffffffffff1673ffffffffffffffffffffffffffffffffffffffff16815260200173a97f7eb14da5568153ea06b2656ccf7c338d942f73ffffffffffffffffffffffffffffffffffffffff1673ffffffffffffffffffffffffffffffffffffffff16815260200173a97f7eb14da5568153ea06b2656ccf7c338d942f73ffffffffffffffffffffffffffffffffffffffff1673ffffffffffffffffffffffffffffffffffffffff16815260200173a97f7eb14da5568153ea06b2656ccf7c338d942f73ffffffffffffffffffffffffffffffffffffffff1673ffffffffffffffffffffffffffffffffffffffff16815260200173a97f7eb14da5568153ea06b2656ccf7c338d942f73ffffffffffffffffffffffffffffffffffffffff1673ffffffffffffffffffffffffffffffffffffffff16815260200173a97f7eb14da5568153ea06b2656ccf7c338d942f73ffffffffffffffffffffffffffffffffffffffff1673ffffffffffffffffffffffffffffffffffffffff16815260200173a97f7eb14da5568153ea06b2656ccf7c338d942f73ffffffffffffffffffffffffffffffffffffffff1673ffffffffffffffffffffffffffffffffffffffff16815260200173a97f7eb14da5568153ea06b2656ccf7c338d942f73ffffffffffffffffffffffffffffffffffffffff1673ffffffffffffffffffffffffffffffffffffffff16815260200173a97f7eb14da5568153ea06b2656ccf7c338d942f73ffffffffffffffffffffffffffffffffffffffff1673ffffffffffffffffffffffffffffffffffffffff16815260200173a97f7eb14da5568153ea06b2656ccf7c338d942f73ffffffffffffffffffffffffffffffffffffffff1673ffffffffffffffffffffffffffffffffffffffff16815260200173a97f7eb14da5568153ea06b2656ccf7c338d942f73ffffffffffffffffffffffffffffffffffffffff1673ffffffffffffffffffffffffffffffffffffffff16815260200173a97f7eb14da5568153ea06b2656ccf7c338d942f73ffffffffffffffffffffffffffffffffffffffff1673ffffffffffffffffffffffffffffffffffffffff16815260200173a97f7eb14da5568153ea06b2656ccf7c338d942f73ffffffffffffffffffffffffffffffffffffffff1673ffffffffffffffffffffffffffffffffffffffff16815260200173a97f7eb14da5568153ea06b2656ccf7c338d942f73ffffffffffffffffffffffffffffffffffffffff1673ffffffffffffffffffffffffffffffffffffffff16815260200173a97f7eb14da5568153ea06b2656ccf7c338d942f73ffffffffffffffffffffffffffffffffffffffff1673ffffffffffffffffffffffffffffffffffffffff16815260200173a97f7eb14da5568153ea06b2656ccf7c338d942f73ffffffffffffffffffffffffffffffffffffffff1673ffffffffffffffffffffffffffffffffffffffff16815260200173a97f7eb14da5568153ea06b2656ccf7c338d942f73ffffffffffffffffffffffffffffffffffffffff1673ffffffffffffffffffffffffffffffffffffffff16815260200173a97f7eb14da5568153ea06b2656ccf7c338d942f73ffffffffffffffffffffffffffffffffffffffff1673ffffffffffffffffffffffffffffffffffffffff16815260200173a97f7eb14da5568153ea06b2656ccf7c338d942f73ffffffffffffffffffffffffffffffffffffffff1673ffffffffffffffffffffffffffffffffffffffff16815260200173a97f7eb14da5568153ea06b2656ccf7c338d942f73ffffffffffffffffffffffffffffffffffffffff1673ffffffffffffffffffffffffffffffffffffffff16815260200173a97f7eb14da5568153ea06b2656ccf7c338d942f73ffffffffffffffffffffffffffffffffffffffff1673ffffffffffffffffffffffffffffffffffffffff16815260200173a97f7eb14da5568153ea06b2656ccf7c338d942f73ffffffffffffffffffffffffffffffffffffffff1673ffffffffffffffffffffffffffffffffffffffff16815260200173a97f7eb14da5568153ea06b2656ccf7c338d942f73ffffffffffffffffffffffffffffffffffffffff1673ffffffffffffffffffffffffffffffffffffffff16815260200173a97f7eb14da5568153ea06b2656ccf7c338d942f73ffffffffffffffffffffffffffffffffffffffff1673ffffffffffffffffffffffffffffffffffffffff16815260200173a97f7eb14da5568153ea06b2656ccf7c338d942f73ffffffffffffffffffffffffffffffffffffffff1673ffffffffffffffffffffffffffffffffffffffff16815260200173a97f7eb14da5568153ea06b2656ccf7c338d942f73ffffffffffffffffffffffffffffffffffffffff1673ffffffffffffffffffffffffffffffffffffffff16815260200173a97f7eb14da5568153ea06b2656ccf7c338d942f73ffffffffffffffffffffffffffffffffffffffff1673ffffffffffffffffffffffffffffffffffffffff16815260200173a97f7eb14da5568153ea06b2656ccf7c338d942f73ffffffffffffffffffffffffffffffffffffffff1673ffffffffffffffffffffffffffffffffffffffff16815260200173a97f7eb14da5568153ea06b2656ccf7c338d942f73ffffffffffffffffffffffffffffffffffffffff1673ffffffffffffffffffffffffffffffffffffffff16815260200173a97f7eb14da5568153ea06b2656ccf7c338d942f73ffffffffffffffffffffffffffffffffffffffff1673ffffffffffffffffffffffffffffffffffffffff16815260200173a97f7eb14da5568153ea06b2656ccf7c338d942f73ffffffffffffffffffffffffffffffffffffffff1673ffffffffffffffffffffffffffffffffffffffff16815260200173a97f7eb14da5568153ea06b2656ccf7c338d942f73ffffffffffffffffffffffffffffffffffffffff1673ffffffffffffffffffffffffffffffffffffffff16815260200173a97f7eb14da5568153ea06b2656ccf7c338d942f73ffffffffffffffffffffffffffffffffffffffff1673ffffffffffffffffffffffffffffffffffffffff16815260200173a97f7eb14da5568153ea06b2656ccf7c338d942f73ffffffffffffffffffffffffffffffffffffffff1673ffffffffffffffffffffffffffffffffffffffff16815260200173a97f7eb14da5568153ea06b2656ccf7c338d942f73ffffffffffffffffffffffffffffffffffffffff1673ffffffffffffffffffffffffffffffffffffffff16815260200173a97f7eb14da5568153ea06b2656ccf7c338d942f73ffffffffffffffffffffffffffffffffffffffff1673ffffffffffffffffffffffffffffffffffffffff16815260200173a97f7eb14da5568153ea06b2656ccf7c338d942f73ffffffffffffffffffffffffffffffffffffffff1673ffffffffffffffffffffffffffffffffffffffff16815260200173a97f7eb14da5568153ea06b2656ccf7c338d942f73ffffffffffffffffffffffffffffffffffffffff1673ffffffffffffffffffffffffffffffffffffffff16815260200173a97f7eb14da5568153ea06b2656ccf7c338d942f73ffffffffffffffffffffffffffffffffffffffff1673ffffffffffffffffffffffffffffffffffffffff16815260200173a97f7eb14da5568153ea06b2656ccf7c338d942f73ffffffffffffffffffffffffffffffffffffffff1673ffffffffffffffffffffffffffffffffffffffff16815260200173a97f7eb14da5568153ea06b2656ccf7c338d942f73ffffffffffffffffffffffffffffffffffffffff1673ffffffffffffffffffffffffffffffffffffffff16815260200173a97f7eb14da5568153ea06b2656ccf7c338d942f73ffffffffffffffffffffffffffffffffffffffff1673ffffffffffffffffffffffffffffffffffffffff16815260200173a97f7eb14da5568153ea06b2656ccf7c338d942f73ffffffffffffffffffffffffffffffffffffffff1673ffffffffffffffffffffffffffffffffffffffff16815260200173a97f7eb14da5568153ea06b2656ccf7c338d942f73ffffffffffffffffffffffffffffffffffffffff1673ffffffffffffffffffffffffffffffffffffffff16815260200173a97f7eb14da5568153ea06b2656ccf7c338d942f73ffffffffffffffffffffffffffffffffffffffff1673ffffffffffffffffffffffffffffffffffffffff16815260200173a97f7eb14da5568153ea06b2656ccf7c338d942f73ffffffffffffffffffffffffffffffffffffffff1673ffffffffffffffffffffffffffffffffffffffff16815260200173a97f7eb14da5568153ea06b2656ccf7c338d942f73ffffffffffffffffffffffffffffffffffffffff1673ffffffffffffffffffffffffffffffffffffffff16815260200173a97f7eb14da5568153ea06b2656ccf7c338d942f73ffffffffffffffffffffffffffffffffffffffff1673ffffffffffffffffffffffffffffffffffffffff16815260200173a97f7eb14da5568153ea06b2656ccf7c338d942f73ffffffffffffffffffffffffffffffffffffffff1673ffffffffffffffffffffffffffffffffffffffff16815260200173a97f7eb14da5568153ea06b2656ccf7c338d942f73ffffffffffffffffffffffffffffffffffffffff1673ffffffffffffffffffffffffffffffffffffffff16815260200173a97f7eb14da5568153ea06b2656ccf7c338d942f73ffffffffffffffffffffffffffffffffffffffff1673ffffffffffffffffffffffffffffffffffffffff16815260200173a97f7eb14da5568153ea06b2656ccf7c338d942f73ffffffffffffffffffffffffffffffffffffffff1673ffffffffffffffffffffffffffffffffffffffff16815260200173a97f7eb14da5568153ea06b2656ccf7c338d942f73ffffffffffffffffffffffffffffffffffffffff1673ffffffffffffffffffffffffffffffffffffffff16815260200173a97f7eb14da5568153ea06b2656ccf7c338d942f73ffffffffffffffffffffffffffffffffffffffff1673ffffffffffffffffffffffffffffffffffffffff16815260200173a97f7eb14da5568153ea06b2656ccf7c338d942f73ffffffffffffffffffffffffffffffffffffffff1673ffffffffffffffffffffffffffffffffffffffff16815260200173a97f7eb14da5568153ea06b2656ccf7c338d942f73ffffffffffffffffffffffffffffffffffffffff1673ffffffffffffffffffffffffffffffffffffffff16815260200173a97f7eb14da5568153ea06b2656ccf7c338d942f73ffffffffffffffffffffffffffffffffffffffff1673ffffffffffffffffffffffffffffffffffffffff16815260200173a97f7eb14da5568153ea06b2656ccf7c338d942f73ffffffffffffffffffffffffffffffffffffffff1673ffffffffffffffffffffffffffffffffffffffff16815260200173a97f7eb14da5568153ea06b2656ccf7c338d942f73ffffffffffffffffffffffffffffffffffffffff1673ffffffffffffffffffffffffffffffffffffffff16815260200173a97f7eb14da5568153ea06b2656ccf7c338d942f73ffffffffffffffffffffffffffffffffffffffff1673ffffffffffffffffffffffffffffffffffffffff16815260200173a97f7eb14da5568153ea06b2656ccf7c338d942f73ffffffffffffffffffffffffffffffffffffffff1673ffffffffffffffffffffffffffffffffffffffff16815260200173a97f7eb14da5568153ea06b2656ccf7c338d942f73ffffffffffffffffffffffffffffffffffffffff1673ffffffffffffffffffffffffffffffffffffffff16815260200173a97f7eb14da5568153ea06b2656ccf7c338d942f73ffffffffffffffffffffffffffffffffffffffff1673ffffffffffffffffffffffffffffffffffffffff16815260200173a97f7eb14da5568153ea06b2656ccf7c338d942f73ffffffffffffffffffffffffffffffffffffffff1673ffffffffffffffffffffffffffffffffffffffff16815260200173a97f7eb14da5568153ea06b2656ccf7c338d942f73ffffffffffffffffffffffffffffffffffffffff1673ffffffffffffffffffffffffffffffffffffffff16815260200173a97f7eb14da5568153ea06b2656ccf7c338d942f73ffffffffffffffffffffffffffffffffffffffff1673ffffffffffffffffffffffffffffffffffffffff16815260200173a97f7eb14da5568153ea06b2656ccf7c338d942f73ffffffffffffffffffffffffffffffffffffffff1673ffffffffffffffffffffffffffffffffffffffff16815260200173a97f7eb14da5568153ea06b2656ccf7c338d942f73ffffffffffffffffffffffffffffffffffffffff1673ffffffffffffffffffffffffffffffffffffffff16815260200173a97f7eb14da5568153ea06b2656ccf7c338d942f73ffffffffffffffffffffffffffffffffffffffff1673ffffffffffffffffffffffffffffffffffffffff168152506000906065611bbc929190611bcf565b50348015611bc957600080fd5b50611c76565b828054828255906000526020600020908101928215611c48579160200282015b82811115611c475782518260006101000a81548173ffffffffffffffffffffffffffffffffffffffff021916908373ffffffffffffffffffffffffffffffffffffffff16021790555091602001919060010190611bef565b5b509050611c559190611c59565b5090565b5b80821115611c72576000816000905550600101611c5a565b5090565b6104c280611c856000396000f3fe608060405234801561001057600080fd5b5060043610610069576000357c010000000000000000000000000000000000000000000000000000000090048063415665851461006e5780634da563651461008a57806353d74fdf146100ba5780635c475d42146100d8575b600080fd5b610088600480360381019061008391906102cb565b610108565b005b6100a4600480360381019061009f91906102cb565b61016e565b6040516100b19190610313565b60405180910390f35b6100c261021d565b6040516100cf9190610347565b60405180910390f35b6100f260048036038101906100ed919061038e565b610229565b6040516100ff91906103ca565b60405180910390f35b6000819080600181540180825580915050600190039060005260206000200160009091909190916101000a81548173ffffffffffffffffffffffffffffffffffffffff021916908373ffffffffffffffffffffffffffffffffffffffff16021790555050565b600080600090505b600080549050811015610212578273ffffffffffffffffffffffffffffffffffffffff16600082815481106101ae576101ad6103e5565b5b9060005260206000200160009054906101000a900473ffffffffffffffffffffffffffffffffffffffff1673ffffffffffffffffffffffffffffffffffffffff1614156101ff576001915050610218565b808061020a90610443565b915050610176565b50600090505b919050565b60008080549050905090565b6000818154811061023957600080fd5b906000526020600020016000915054906101000a900473ffffffffffffffffffffffffffffffffffffffff1681565b600080fd5b600073ffffffffffffffffffffffffffffffffffffffff82169050919050565b60006102988261026d565b9050919050565b6102a88161028d565b81146102b357600080fd5b50565b6000813590506102c58161029f565b92915050565b6000602082840312156102e1576102e0610268565b5b60006102ef848285016102b6565b91505092915050565b60008115159050919050565b61030d816102f8565b82525050565b60006020820190506103286000830184610304565b92915050565b6000819050919050565b6103418161032e565b82525050565b600060208201905061035c6000830184610338565b92915050565b61036b8161032e565b811461037657600080fd5b50565b60008135905061038881610362565b92915050565b6000602082840312156103a4576103a3610268565b5b60006103b284828501610379565b91505092915050565b6103c48161028d565b82525050565b60006020820190506103df60008301846103bb565b92915050565b7f4e487b7100000000000000000000000000000000000000000000000000000000600052603260045260246000fd5b7f4e487b7100000000000000000000000000000000000000000000000000000000600052601160045260246000fd5b600061044e8261032e565b91507fffffffffffffffffffffffffffffffffffffffffffffffffffffffffffffffff82141561048157610480610414565b5b60018201905091905056fea26469706673582212204d427f17701ca9df622485995a2292989b05495b92945cc0534822b5f9a2683b64736f6c634300080a0033",
  "immutableReferences": {},
  "source": "// SPDX-License-Identifier: MIT\r\n\r\n/**\r\n * @title xxxTentacionNFT whitelist\r\n * @author Saad Sarwar\r\n */\r\n\r\n\r\npragma solidity ^0.8.4;\r\n\r\n\r\ncontract WhiteList {\r\n\r\n    address[] public whiteList = [\r\n        0xA97F7EB14da5568153Ea06b2656ccF7c338d942f,\r\n        0xA97F7EB14da5568153Ea06b2656ccF7c338d942f,\r\n        0xA97F7EB14da5568153Ea06b2656ccF7c338d942f,\r\n        0xA97F7EB14da5568153Ea06b2656ccF7c338d942f,\r\n        0xA97F7EB14da5568153Ea06b2656ccF7c338d942f,\r\n        0xA97F7EB14da5568153Ea06b2656ccF7c338d942f,\r\n        0xA97F7EB14da5568153Ea06b2656ccF7c338d942f,\r\n        0xA97F7EB14da5568153Ea06b2656ccF7c338d942f,\r\n        0xA97F7EB14da5568153Ea06b2656ccF7c338d942f,\r\n        0xA97F7EB14da5568153Ea06b2656ccF7c338d942f,\r\n        0xA97F7EB14da5568153Ea06b2656ccF7c338d942f,\r\n        0xA97F7EB14da5568153Ea06b2656ccF7c338d942f,\r\n        0xA97F7EB14da5568153Ea06b2656ccF7c338d942f,\r\n        0xA97F7EB14da5568153Ea06b2656ccF7c338d942f,\r\n        0xA97F7EB14da5568153Ea06b2656ccF7c338d942f,\r\n        0xA97F7EB14da5568153Ea06b2656ccF7c338d942f,\r\n        0xA97F7EB14da5568153Ea06b2656ccF7c338d942f,\r\n        0xA97F7EB14da5568153Ea06b2656ccF7c338d942f,\r\n        0xA97F7EB14da5568153Ea06b2656ccF7c338d942f,\r\n        0xA97F7EB14da5568153Ea06b2656ccF7c338d942f,\r\n        0xA97F7EB14da5568153Ea06b2656ccF7c338d942f,\r\n        0xA97F7EB14da5568153Ea06b2656ccF7c338d942f,\r\n        0xA97F7EB14da5568153Ea06b2656ccF7c338d942f,\r\n        0xA97F7EB14da5568153Ea06b2656ccF7c338d942f,\r\n        0xA97F7EB14da5568153Ea06b2656ccF7c338d942f,\r\n        0xA97F7EB14da5568153Ea06b2656ccF7c338d942f,\r\n        0xA97F7EB14da5568153Ea06b2656ccF7c338d942f,\r\n        0xA97F7EB14da5568153Ea06b2656ccF7c338d942f,\r\n        0xA97F7EB14da5568153Ea06b2656ccF7c338d942f,\r\n        0xA97F7EB14da5568153Ea06b2656ccF7c338d942f,\r\n        0xA97F7EB14da5568153Ea06b2656ccF7c338d942f,\r\n        0xA97F7EB14da5568153Ea06b2656ccF7c338d942f,\r\n        0xA97F7EB14da5568153Ea06b2656ccF7c338d942f,\r\n        0xA97F7EB14da5568153Ea06b2656ccF7c338d942f,\r\n        0xA97F7EB14da5568153Ea06b2656ccF7c338d942f,\r\n        0xA97F7EB14da5568153Ea06b2656ccF7c338d942f,\r\n        0xA97F7EB14da5568153Ea06b2656ccF7c338d942f,\r\n        0xA97F7EB14da5568153Ea06b2656ccF7c338d942f,\r\n        0xA97F7EB14da5568153Ea06b2656ccF7c338d942f,\r\n        0xA97F7EB14da5568153Ea06b2656ccF7c338d942f,\r\n        0xA97F7EB14da5568153Ea06b2656ccF7c338d942f,\r\n        0xA97F7EB14da5568153Ea06b2656ccF7c338d942f,\r\n        0xA97F7EB14da5568153Ea06b2656ccF7c338d942f,\r\n        0xA97F7EB14da5568153Ea06b2656ccF7c338d942f,\r\n        0xA97F7EB14da5568153Ea06b2656ccF7c338d942f,\r\n        0xA97F7EB14da5568153Ea06b2656ccF7c338d942f,\r\n        0xA97F7EB14da5568153Ea06b2656ccF7c338d942f,\r\n        0xA97F7EB14da5568153Ea06b2656ccF7c338d942f,\r\n        0xA97F7EB14da5568153Ea06b2656ccF7c338d942f,\r\n        0xA97F7EB14da5568153Ea06b2656ccF7c338d942f,\r\n        0xA97F7EB14da5568153Ea06b2656ccF7c338d942f,\r\n        0xA97F7EB14da5568153Ea06b2656ccF7c338d942f,\r\n        0xA97F7EB14da5568153Ea06b2656ccF7c338d942f,\r\n        0xA97F7EB14da5568153Ea06b2656ccF7c338d942f,\r\n        0xA97F7EB14da5568153Ea06b2656ccF7c338d942f,\r\n        0xA97F7EB14da5568153Ea06b2656ccF7c338d942f,\r\n        0xA97F7EB14da5568153Ea06b2656ccF7c338d942f,\r\n        0xA97F7EB14da5568153Ea06b2656ccF7c338d942f,\r\n        0xA97F7EB14da5568153Ea06b2656ccF7c338d942f,\r\n        0xA97F7EB14da5568153Ea06b2656ccF7c338d942f,\r\n        0xA97F7EB14da5568153Ea06b2656ccF7c338d942f,\r\n        0xA97F7EB14da5568153Ea06b2656ccF7c338d942f,\r\n        0xA97F7EB14da5568153Ea06b2656ccF7c338d942f,\r\n        0xA97F7EB14da5568153Ea06b2656ccF7c338d942f,\r\n        0xA97F7EB14da5568153Ea06b2656ccF7c338d942f,\r\n        0xA97F7EB14da5568153Ea06b2656ccF7c338d942f,\r\n        0xA97F7EB14da5568153Ea06b2656ccF7c338d942f,\r\n        0xA97F7EB14da5568153Ea06b2656ccF7c338d942f,\r\n        0xA97F7EB14da5568153Ea06b2656ccF7c338d942f,\r\n        0xA97F7EB14da5568153Ea06b2656ccF7c338d942f,\r\n        0xA97F7EB14da5568153Ea06b2656ccF7c338d942f,\r\n        0xA97F7EB14da5568153Ea06b2656ccF7c338d942f,\r\n        0xA97F7EB14da5568153Ea06b2656ccF7c338d942f,\r\n        0xA97F7EB14da5568153Ea06b2656ccF7c338d942f,\r\n        0xA97F7EB14da5568153Ea06b2656ccF7c338d942f,\r\n        0xA97F7EB14da5568153Ea06b2656ccF7c338d942f,\r\n        0xA97F7EB14da5568153Ea06b2656ccF7c338d942f,\r\n        0xA97F7EB14da5568153Ea06b2656ccF7c338d942f,\r\n        0xA97F7EB14da5568153Ea06b2656ccF7c338d942f,\r\n        0xA97F7EB14da5568153Ea06b2656ccF7c338d942f,\r\n        0xA97F7EB14da5568153Ea06b2656ccF7c338d942f,\r\n        0xA97F7EB14da5568153Ea06b2656ccF7c338d942f,\r\n        0xA97F7EB14da5568153Ea06b2656ccF7c338d942f,\r\n        0xA97F7EB14da5568153Ea06b2656ccF7c338d942f,\r\n        0xA97F7EB14da5568153Ea06b2656ccF7c338d942f,\r\n        0xA97F7EB14da5568153Ea06b2656ccF7c338d942f,\r\n        0xA97F7EB14da5568153Ea06b2656ccF7c338d942f,\r\n        0xA97F7EB14da5568153Ea06b2656ccF7c338d942f,\r\n        0xA97F7EB14da5568153Ea06b2656ccF7c338d942f,\r\n        0xA97F7EB14da5568153Ea06b2656ccF7c338d942f,\r\n        0xA97F7EB14da5568153Ea06b2656ccF7c338d942f,\r\n        0xA97F7EB14da5568153Ea06b2656ccF7c338d942f,\r\n        0xA97F7EB14da5568153Ea06b2656ccF7c338d942f,\r\n        0xA97F7EB14da5568153Ea06b2656ccF7c338d942f,\r\n        0xA97F7EB14da5568153Ea06b2656ccF7c338d942f,\r\n        0xA97F7EB14da5568153Ea06b2656ccF7c338d942f,\r\n        0xA97F7EB14da5568153Ea06b2656ccF7c338d942f,\r\n        0xA97F7EB14da5568153Ea06b2656ccF7c338d942f,\r\n        0xA97F7EB14da5568153Ea06b2656ccF7c338d942f,\r\n        0xA97F7EB14da5568153Ea06b2656ccF7c338d942f,\r\n        0xA97F7EB14da5568153Ea06b2656ccF7c338d942f\r\n    ];\r\n\r\n    constructor() {\r\n    }\r\n\r\n    function whitelistAddress(address _address) public {\r\n        whiteList.push(_address);\r\n    }\r\n\r\n    function totalHolders() public view returns (uint length) {\r\n        return whiteList.length;\r\n    }\r\n\r\n    function checkWhiteListed(address _address) public view returns (bool whitelisted) {\r\n        for (uint index = 0; index < whiteList.length; index++) {\r\n            if (whiteList[index] == _address) {\r\n                return true;\r\n            }\r\n        }\r\n        return false;\r\n    }\r\n}",
  "sourcePath": "D:\\xxxTentacionContracts\\contracts\\xxxTentacionContracts\\contracts\\whiteList.sol",
  "compiler": {
    "name": "solc",
    "version": "0.8.10+commit.fc410830.Emscripten.clang"
  },
  "schemaVersion": "3.4.3",
  "updatedAt": "2022-01-17T19:39:54.162Z",
  "devdoc": {
    "kind": "dev",
    "methods": {},
    "version": 1
  },
  "userdoc": {
    "kind": "user",
    "methods": {},
    "version": 1
  }
}