{
  "contractName": "xxxTentacionNFT",
  "abi": [
    {
      "inputs": [
        {
          "internalType": "uint256",
          "name": "maxNftSupply",
          "type": "uint256"
        },
        {
          "internalType": "address payable",
          "name": "_treasury",
          "type": "address"
        }
      ],
      "stateMutability": "nonpayable",
      "type": "constructor"
    },
    {
      "anonymous": false,
      "inputs": [
        {
          "indexed": true,
          "internalType": "address",
          "name": "owner",
          "type": "address"
        },
        {
          "indexed": true,
          "internalType": "address",
          "name": "approved",
          "type": "address"
        },
        {
          "indexed": true,
          "internalType": "uint256",
          "name": "tokenId",
          "type": "uint256"
        }
      ],
      "name": "Approval",
      "type": "event"
    },
    {
      "anonymous": false,
      "inputs": [
        {
          "indexed": true,
          "internalType": "address",
          "name": "owner",
          "type": "address"
        },
        {
          "indexed": true,
          "internalType": "address",
          "name": "operator",
          "type": "address"
        },
        {
          "indexed": false,
          "internalType": "bool",
          "name": "approved",
          "type": "bool"
        }
      ],
      "name": "ApprovalForAll",
      "type": "event"
    },
    {
      "anonymous": false,
      "inputs": [
        {
          "indexed": false,
          "internalType": "address",
          "name": "to",
          "type": "address"
        },
        {
          "indexed": false,
          "internalType": "uint256",
          "name": "date",
          "type": "uint256"
        },
        {
          "indexed": false,
          "internalType": "uint256",
          "name": "tokenId",
          "type": "uint256"
        },
        {
          "indexed": false,
          "internalType": "string",
          "name": "tokenURI",
          "type": "string"
        }
      ],
      "name": "NftMinted",
      "type": "event"
    },
    {
      "anonymous": false,
      "inputs": [
        {
          "indexed": true,
          "internalType": "address",
          "name": "previousOwner",
          "type": "address"
        },
        {
          "indexed": true,
          "internalType": "address",
          "name": "newOwner",
          "type": "address"
        }
      ],
      "name": "OwnershipTransferred",
      "type": "event"
    },
    {
      "anonymous": false,
      "inputs": [
        {
          "indexed": true,
          "internalType": "address",
          "name": "from",
          "type": "address"
        },
        {
          "indexed": true,
          "internalType": "address",
          "name": "to",
          "type": "address"
        },
        {
          "indexed": true,
          "internalType": "uint256",
          "name": "tokenId",
          "type": "uint256"
        }
      ],
      "name": "Transfer",
      "type": "event"
    },
    {
      "inputs": [],
      "name": "MAX_SUPPLY",
      "outputs": [
        {
          "internalType": "uint256",
          "name": "",
          "type": "uint256"
        }
      ],
      "stateMutability": "view",
      "type": "function",
      "constant": true
    },
    {
      "inputs": [
        {
          "internalType": "address",
          "name": "to",
          "type": "address"
        },
        {
          "internalType": "uint256",
          "name": "tokenId",
          "type": "uint256"
        }
      ],
      "name": "approve",
      "outputs": [],
      "stateMutability": "nonpayable",
      "type": "function"
    },
    {
      "inputs": [
        {
          "internalType": "address",
          "name": "owner",
          "type": "address"
        }
      ],
      "name": "balanceOf",
      "outputs": [
        {
          "internalType": "uint256",
          "name": "",
          "type": "uint256"
        }
      ],
      "stateMutability": "view",
      "type": "function",
      "constant": true
    },
    {
      "inputs": [],
      "name": "baseTokenURI",
      "outputs": [
        {
          "internalType": "string",
          "name": "",
          "type": "string"
        }
      ],
      "stateMutability": "view",
      "type": "function",
      "constant": true
    },
    {
      "inputs": [
        {
          "internalType": "uint256",
          "name": "tokenId",
          "type": "uint256"
        }
      ],
      "name": "getApproved",
      "outputs": [
        {
          "internalType": "address",
          "name": "",
          "type": "address"
        }
      ],
      "stateMutability": "view",
      "type": "function",
      "constant": true
    },
    {
      "inputs": [
        {
          "internalType": "address",
          "name": "owner",
          "type": "address"
        },
        {
          "internalType": "address",
          "name": "operator",
          "type": "address"
        }
      ],
      "name": "isApprovedForAll",
      "outputs": [
        {
          "internalType": "bool",
          "name": "",
          "type": "bool"
        }
      ],
      "stateMutability": "view",
      "type": "function",
      "constant": true
    },
    {
      "inputs": [],
      "name": "name",
      "outputs": [
        {
          "internalType": "string",
          "name": "",
          "type": "string"
        }
      ],
      "stateMutability": "view",
      "type": "function",
      "constant": true
    },
    {
      "inputs": [],
      "name": "nftPrice",
      "outputs": [
        {
          "internalType": "uint256",
          "name": "",
          "type": "uint256"
        }
      ],
      "stateMutability": "view",
      "type": "function",
      "constant": true
    },
    {
      "inputs": [],
      "name": "owner",
      "outputs": [
        {
          "internalType": "address",
          "name": "",
          "type": "address"
        }
      ],
      "stateMutability": "view",
      "type": "function",
      "constant": true
    },
    {
      "inputs": [
        {
          "internalType": "uint256",
          "name": "tokenId",
          "type": "uint256"
        }
      ],
      "name": "ownerOf",
      "outputs": [
        {
          "internalType": "address",
          "name": "",
          "type": "address"
        }
      ],
      "stateMutability": "view",
      "type": "function",
      "constant": true
    },
    {
      "inputs": [],
      "name": "renounceOwnership",
      "outputs": [],
      "stateMutability": "nonpayable",
      "type": "function"
    },
    {
      "inputs": [
        {
          "internalType": "address",
          "name": "from",
          "type": "address"
        },
        {
          "internalType": "address",
          "name": "to",
          "type": "address"
        },
        {
          "internalType": "uint256",
          "name": "tokenId",
          "type": "uint256"
        }
      ],
      "name": "safeTransferFrom",
      "outputs": [],
      "stateMutability": "nonpayable",
      "type": "function"
    },
    {
      "inputs": [
        {
          "internalType": "address",
          "name": "from",
          "type": "address"
        },
        {
          "internalType": "address",
          "name": "to",
          "type": "address"
        },
        {
          "internalType": "uint256",
          "name": "tokenId",
          "type": "uint256"
        },
        {
          "internalType": "bytes",
          "name": "_data",
          "type": "bytes"
        }
      ],
      "name": "safeTransferFrom",
      "outputs": [],
      "stateMutability": "nonpayable",
      "type": "function"
    },
    {
      "inputs": [],
      "name": "saleIsActive",
      "outputs": [
        {
          "internalType": "bool",
          "name": "",
          "type": "bool"
        }
      ],
      "stateMutability": "view",
      "type": "function",
      "constant": true
    },
    {
      "inputs": [
        {
          "internalType": "address",
          "name": "operator",
          "type": "address"
        },
        {
          "internalType": "bool",
          "name": "approved",
          "type": "bool"
        }
      ],
      "name": "setApprovalForAll",
      "outputs": [],
      "stateMutability": "nonpayable",
      "type": "function"
    },
    {
      "inputs": [
        {
          "internalType": "bytes4",
          "name": "interfaceId",
          "type": "bytes4"
        }
      ],
      "name": "supportsInterface",
      "outputs": [
        {
          "internalType": "bool",
          "name": "",
          "type": "bool"
        }
      ],
      "stateMutability": "view",
      "type": "function",
      "constant": true
    },
    {
      "inputs": [],
      "name": "symbol",
      "outputs": [
        {
          "internalType": "string",
          "name": "",
          "type": "string"
        }
      ],
      "stateMutability": "view",
      "type": "function",
      "constant": true
    },
    {
      "inputs": [
        {
          "internalType": "address",
          "name": "from",
          "type": "address"
        },
        {
          "internalType": "address",
          "name": "to",
          "type": "address"
        },
        {
          "internalType": "uint256",
          "name": "tokenId",
          "type": "uint256"
        }
      ],
      "name": "transferFrom",
      "outputs": [],
      "stateMutability": "nonpayable",
      "type": "function"
    },
    {
      "inputs": [
        {
          "internalType": "address",
          "name": "newOwner",
          "type": "address"
        }
      ],
      "name": "transferOwnership",
      "outputs": [],
      "stateMutability": "nonpayable",
      "type": "function"
    },
    {
      "inputs": [],
      "name": "treasury",
      "outputs": [
        {
          "internalType": "address payable",
          "name": "",
          "type": "address"
        }
      ],
      "stateMutability": "view",
      "type": "function",
      "constant": true
    },
    {
      "inputs": [
        {
          "internalType": "uint256",
          "name": "price",
          "type": "uint256"
        }
      ],
      "name": "setSalePrice",
      "outputs": [],
      "stateMutability": "nonpayable",
      "type": "function"
    },
    {
      "inputs": [
        {
          "internalType": "address payable",
          "name": "_newTreasuryAddress",
          "type": "address"
        }
      ],
      "name": "changeTreasuryAddress",
      "outputs": [],
      "stateMutability": "nonpayable",
      "type": "function"
    },
    {
      "inputs": [
        {
          "internalType": "string",
          "name": "_newBaseURI",
          "type": "string"
        }
      ],
      "name": "setBaseURI",
      "outputs": [],
      "stateMutability": "nonpayable",
      "type": "function"
    },
    {
      "inputs": [
        {
          "internalType": "uint256",
          "name": "tokenId",
          "type": "uint256"
        }
      ],
      "name": "tokenURI",
      "outputs": [
        {
          "internalType": "string",
          "name": "",
          "type": "string"
        }
      ],
      "stateMutability": "view",
      "type": "function",
      "constant": true
    },
    {
      "inputs": [],
      "name": "totalSupply",
      "outputs": [
        {
          "internalType": "uint256",
          "name": "",
          "type": "uint256"
        }
      ],
      "stateMutability": "view",
      "type": "function",
      "constant": true
    },
    {
      "inputs": [],
      "name": "flipSaleState",
      "outputs": [],
      "stateMutability": "nonpayable",
      "type": "function"
    },
    {
      "inputs": [],
      "name": "mint",
      "outputs": [],
      "stateMutability": "payable",
      "type": "function",
      "payable": true
    },
    {
      "inputs": [
        {
          "internalType": "address",
          "name": "_to",
          "type": "address"
        }
      ],
      "name": "mintFor",
      "outputs": [],
      "stateMutability": "nonpayable",
      "type": "function"
    },
    {
      "inputs": [
        {
          "internalType": "address[]",
          "name": "addresses",
          "type": "address[]"
        }
      ],
      "name": "massMint",
      "outputs": [],
      "stateMutability": "nonpayable",
      "type": "function"
    }
  ],
  "bytecode": "0x60806040526000600960006101000a81548160ff0219169083151502179055506000600b60006101000a81548160ff0219169083151502179055503480156200004757600080fd5b50604051620043db380380620043db83398181016040528101906200006d919062000374565b6040518060400160405280600c81526020017f78787854656e746163696f6e00000000000000000000000000000000000000008152506040518060400160405280600381526020017f58544300000000000000000000000000000000000000000000000000000000008152508160009080519060200190620000f19291906200021f565b5080600190805190602001906200010a9291906200021f565b50505060006200012862000217640100000000026401000000009004565b905080600660006101000a81548173ffffffffffffffffffffffffffffffffffffffff021916908373ffffffffffffffffffffffffffffffffffffffff1602179055508073ffffffffffffffffffffffffffffffffffffffff16600073ffffffffffffffffffffffffffffffffffffffff167f8be0079c531659141344cd1fd0a4f28419497f9722a3daafe3b4186f6b6457e060405160405180910390a35081600a8190555080600b60016101000a81548173ffffffffffffffffffffffffffffffffffffffff021916908373ffffffffffffffffffffffffffffffffffffffff160217905550505062000420565b600033905090565b8280546200022d90620003ea565b90600052602060002090601f0160209004810192826200025157600085556200029d565b82601f106200026c57805160ff19168380011785556200029d565b828001600101855582156200029d579182015b828111156200029c5782518255916020019190600101906200027f565b5b509050620002ac9190620002b0565b5090565b5b80821115620002cb576000816000905550600101620002b1565b5090565b600080fd5b6000819050919050565b620002e981620002d4565b8114620002f557600080fd5b50565b6000815190506200030981620002de565b92915050565b600073ffffffffffffffffffffffffffffffffffffffff82169050919050565b60006200033c826200030f565b9050919050565b6200034e816200032f565b81146200035a57600080fd5b50565b6000815190506200036e8162000343565b92915050565b600080604083850312156200038e576200038d620002cf565b5b60006200039e85828601620002f8565b9250506020620003b1858286016200035d565b9150509250929050565b7f4e487b7100000000000000000000000000000000000000000000000000000000600052602260045260246000fd5b600060028204905060018216806200040357607f821691505b602082108114156200041a5762000419620003bb565b5b50919050565b613fab80620004306000396000f3fe6080604052600436106101df576000357c0100000000000000000000000000000000000000000000000000000000900480636352211e11610114578063a6f353f0116100b2578063e3d8bbe511610081578063e3d8bbe514610616578063e985e9c51461063f578063eb8d24441461067c578063f2fde38b146106a7576101df565b8063a6f353f01461055c578063b88d4fde14610585578063c87b56dd146105ae578063d547cfb7146105eb576101df565b806371e578dc116100ee57806371e578dc146104b45780638da5cb5b146104dd57806395d89b4114610508578063a22cb46514610533576101df565b80636352211e1461042357806370a0823114610460578063715018a61461049d576101df565b80631919fed71161018157806334918dfd1161015b57806334918dfd1461038f57806342842e0e146103a657806355f804b3146103cf57806361d027b3146103f8576101df565b80631919fed71461031257806323b872dd1461033b57806332cb6b0c14610364576101df565b8063095ea7b3116101bd578063095ea7b3146102895780630d39fc81146102b25780631249c58b146102dd57806318160ddd146102e7576101df565b806301ffc9a7146101e457806306fdde0314610221578063081812fc1461024c575b600080fd5b3480156101f057600080fd5b5061020b600480360381019061020691906127a6565b6106d0565b60405161021891906127ee565b60405180910390f35b34801561022d57600080fd5b506102366107b2565b60405161024391906128a2565b60405180910390f35b34801561025857600080fd5b50610273600480360381019061026e91906128fa565b610844565b6040516102809190612968565b60405180910390f35b34801561029557600080fd5b506102b060048036038101906102ab91906129af565b6108c9565b005b3480156102be57600080fd5b506102c76109e1565b6040516102d491906129fe565b60405180910390f35b6102e56109e7565b005b3480156102f357600080fd5b506102fc610c46565b60405161030991906129fe565b60405180910390f35b34801561031e57600080fd5b50610339600480360381019061033491906128fa565b610c57565b005b34801561034757600080fd5b50610362600480360381019061035d9190612a19565b610cf8565b005b34801561037057600080fd5b50610379610d58565b60405161038691906129fe565b60405180910390f35b34801561039b57600080fd5b506103a4610d5e565b005b3480156103b257600080fd5b506103cd60048036038101906103c89190612a19565b610e06565b005b3480156103db57600080fd5b506103f660048036038101906103f19190612ba1565b610e26565b005b34801561040457600080fd5b5061040d610f0d565b60405161041a9190612c0b565b60405180910390f35b34801561042f57600080fd5b5061044a600480360381019061044591906128fa565b610f33565b6040516104579190612968565b60405180910390f35b34801561046c57600080fd5b5061048760048036038101906104829190612c26565b610fe5565b60405161049491906129fe565b60405180910390f35b3480156104a957600080fd5b506104b261109d565b005b3480156104c057600080fd5b506104db60048036038101906104d69190612c26565b6111da565b005b3480156104e957600080fd5b506104f26113b9565b6040516104ff9190612968565b60405180910390f35b34801561051457600080fd5b5061051d6113e3565b60405161052a91906128a2565b60405180910390f35b34801561053f57600080fd5b5061055a60048036038101906105559190612c7f565b611475565b005b34801561056857600080fd5b50610583600480360381019061057e9190612ceb565b6115f6565b005b34801561059157600080fd5b506105ac60048036038101906105a79190612db9565b611726565b005b3480156105ba57600080fd5b506105d560048036038101906105d091906128fa565b611788565b6040516105e291906128a2565b60405180910390f35b3480156105f757600080fd5b50610600611804565b60405161060d91906128a2565b60405180910390f35b34801561062257600080fd5b5061063d60048036038101906106389190612f04565b611892565b005b34801561064b57600080fd5b5061066660048036038101906106619190612f4d565b611954565b60405161067391906127ee565b60405180910390f35b34801561068857600080fd5b506106916119e8565b60405161069e91906127ee565b60405180910390f35b3480156106b357600080fd5b506106ce60048036038101906106c99190612c26565b6119fb565b005b60007f80ac58cd000000000000000000000000000000000000000000000000000000007bffffffffffffffffffffffffffffffffffffffffffffffffffffffff1916827bffffffffffffffffffffffffffffffffffffffffffffffffffffffff1916148061079b57507f5b5e139f000000000000000000000000000000000000000000000000000000007bffffffffffffffffffffffffffffffffffffffffffffffffffffffff1916827bffffffffffffffffffffffffffffffffffffffffffffffffffffffff1916145b806107ab57506107aa82611ba7565b5b9050919050565b6060600080546107c190612fbc565b80601f01602080910402602001604051908101604052809291908181526020018280546107ed90612fbc565b801561083a5780601f1061080f5761010080835404028352916020019161083a565b820191906000526020600020905b81548152906001019060200180831161081d57829003601f168201915b5050505050905090565b600061084f82611c11565b61088e576040517f08c379a000000000000000000000000000000000000000000000000000000000815260040161088590613060565b60405180910390fd5b6004600083815260200190815260200160002060009054906101000a900473ffffffffffffffffffffffffffffffffffffffff169050919050565b60006108d482610f33565b90508073ffffffffffffffffffffffffffffffffffffffff168373ffffffffffffffffffffffffffffffffffffffff161415610945576040517f08c379a000000000000000000000000000000000000000000000000000000000815260040161093c906130f2565b60405180910390fd5b8073ffffffffffffffffffffffffffffffffffffffff16610964611c7d565b73ffffffffffffffffffffffffffffffffffffffff16148061099357506109928161098d611c7d565b611954565b5b6109d2576040517f08c379a00000000000000000000000000000000000000000000000000000000081526004016109c990613184565b60405180910390fd5b6109dc8383611c85565b505050565b60085481565b600960009054906101000a900460ff16610a36576040517f08c379a0000000000000000000000000000000000000000000000000000000008152600401610a2d906131f0565b60405180910390fd5b6000600d8054610a4590612fbc565b905011610a87576040517f08c379a0000000000000000000000000000000000000000000000000000000008152600401610a7e9061325c565b60405180910390fd5b600b60009054906101000a900460ff16610ad6576040517f08c379a0000000000000000000000000000000000000000000000000000000008152600401610acd906132c8565b60405180910390fd5b600a546001610ae3610c46565b610aed9190613317565b1115610b2e576040517f08c379a0000000000000000000000000000000000000000000000000000000008152600401610b25906133df565b60405180910390fd5b600854341015610b73576040517f08c379a0000000000000000000000000000000000000000000000000000000008152600401610b6a9061344b565b60405180910390fd5b600b60019054906101000a900473ffffffffffffffffffffffffffffffffffffffff1673ffffffffffffffffffffffffffffffffffffffff166108fc349081150290604051600060405180830381858888f19350505050158015610bdb573d6000803e3d6000fd5b50610be66007611d3e565b6000610bf26007611d54565b9050610bfe3382611d62565b7f31675a36120d20190f451db2a87457c351f7c3d124c13b6c3bcbd21657172fc8334283610c2b85611788565b604051610c3b949392919061346b565b60405180910390a150565b6000610c526007611d54565b905090565b610c5f611c7d565b73ffffffffffffffffffffffffffffffffffffffff16610c7d6113b9565b73ffffffffffffffffffffffffffffffffffffffff1614610cd3576040517f08c379a0000000000000000000000000000000000000000000000000000000008152600401610cca90613503565b60405180910390fd5b806008819055506001600960006101000a81548160ff02191690831515021790555050565b610d09610d03611c7d565b82611d80565b610d48576040517f08c379a0000000000000000000000000000000000000000000000000000000008152600401610d3f90613595565b60405180910390fd5b610d53838383611e5e565b505050565b600a5481565b610d66611c7d565b73ffffffffffffffffffffffffffffffffffffffff16610d846113b9565b73ffffffffffffffffffffffffffffffffffffffff1614610dda576040517f08c379a0000000000000000000000000000000000000000000000000000000008152600401610dd190613503565b60405180910390fd5b600b60009054906101000a900460ff1615600b60006101000a81548160ff021916908315150217905550565b610e2183838360405180602001604052806000815250611726565b505050565b610e2e611c7d565b73ffffffffffffffffffffffffffffffffffffffff16610e4c6113b9565b73ffffffffffffffffffffffffffffffffffffffff1614610ea2576040517f08c379a0000000000000000000000000000000000000000000000000000000008152600401610e9990613503565b60405180910390fd5b6000600d8054610eb190612fbc565b905014610ef3576040517f08c379a0000000000000000000000000000000000000000000000000000000008152600401610eea90613601565b60405180910390fd5b80600d9080519060200190610f09929190612697565b5050565b600b60019054906101000a900473ffffffffffffffffffffffffffffffffffffffff1681565b6000806002600084815260200190815260200160002060009054906101000a900473ffffffffffffffffffffffffffffffffffffffff169050600073ffffffffffffffffffffffffffffffffffffffff168173ffffffffffffffffffffffffffffffffffffffff161415610fdc576040517f08c379a0000000000000000000000000000000000000000000000000000000008152600401610fd390613693565b60405180910390fd5b80915050919050565b60008073ffffffffffffffffffffffffffffffffffffffff168273ffffffffffffffffffffffffffffffffffffffff161415611056576040517f08c379a000000000000000000000000000000000000000000000000000000000815260040161104d90613725565b60405180910390fd5b600360008373ffffffffffffffffffffffffffffffffffffffff1673ffffffffffffffffffffffffffffffffffffffff168152602001908152602001600020549050919050565b6110a5611c7d565b73ffffffffffffffffffffffffffffffffffffffff166110c36113b9565b73ffffffffffffffffffffffffffffffffffffffff1614611119576040517f08c379a000000000000000000000000000000000000000000000000000000000815260040161111090613503565b60405180910390fd5b600073ffffffffffffffffffffffffffffffffffffffff16600660009054906101000a900473ffffffffffffffffffffffffffffffffffffffff1673ffffffffffffffffffffffffffffffffffffffff167f8be0079c531659141344cd1fd0a4f28419497f9722a3daafe3b4186f6b6457e060405160405180910390a36000600660006101000a81548173ffffffffffffffffffffffffffffffffffffffff021916908373ffffffffffffffffffffffffffffffffffffffff160217905550565b6111e2611c7d565b73ffffffffffffffffffffffffffffffffffffffff166112006113b9565b73ffffffffffffffffffffffffffffffffffffffff1614611256576040517f08c379a000000000000000000000000000000000000000000000000000000000815260040161124d90613503565b60405180910390fd5b6000600d805461126590612fbc565b9050116112a7576040517f08c379a000000000000000000000000000000000000000000000000000000000815260040161129e9061325c565b60405180910390fd5b600b60009054906101000a900460ff166112f6576040517f08c379a00000000000000000000000000000000000000000000000000000000081526004016112ed906132c8565b60405180910390fd5b600a546001611303610c46565b61130d9190613317565b111561134e576040517f08c379a0000000000000000000000000000000000000000000000000000000008152600401611345906133df565b60405180910390fd5b6113586007611d3e565b60006113646007611d54565b90506113708282611d62565b7f31675a36120d20190f451db2a87457c351f7c3d124c13b6c3bcbd21657172fc833428361139d85611788565b6040516113ad949392919061346b565b60405180910390a15050565b6000600660009054906101000a900473ffffffffffffffffffffffffffffffffffffffff16905090565b6060600180546113f290612fbc565b80601f016020809104026020016040519081016040528092919081815260200182805461141e90612fbc565b801561146b5780601f106114405761010080835404028352916020019161146b565b820191906000526020600020905b81548152906001019060200180831161144e57829003601f168201915b5050505050905090565b61147d611c7d565b73ffffffffffffffffffffffffffffffffffffffff168273ffffffffffffffffffffffffffffffffffffffff1614156114eb576040517f08c379a00000000000000000000000000000000000000000000000000000000081526004016114e290613791565b60405180910390fd5b80600560006114f8611c7d565b73ffffffffffffffffffffffffffffffffffffffff1673ffffffffffffffffffffffffffffffffffffffff16815260200190815260200160002060008473ffffffffffffffffffffffffffffffffffffffff1673ffffffffffffffffffffffffffffffffffffffff16815260200190815260200160002060006101000a81548160ff0219169083151502179055508173ffffffffffffffffffffffffffffffffffffffff166115a5611c7d565b73ffffffffffffffffffffffffffffffffffffffff167f17307eab39ab6107e8899845ad3d59bd9653f200f220920489ca2b5937696c31836040516115ea91906127ee565b60405180910390a35050565b6115fe611c7d565b73ffffffffffffffffffffffffffffffffffffffff1661161c6113b9565b73ffffffffffffffffffffffffffffffffffffffff1614611672576040517f08c379a000000000000000000000000000000000000000000000000000000000815260040161166990613503565b60405180910390fd5b600073ffffffffffffffffffffffffffffffffffffffff168173ffffffffffffffffffffffffffffffffffffffff1614156116e2576040517f08c379a00000000000000000000000000000000000000000000000000000000081526004016116d9906137fd565b60405180910390fd5b80600b60016101000a81548173ffffffffffffffffffffffffffffffffffffffff021916908373ffffffffffffffffffffffffffffffffffffffff16021790555050565b611737611731611c7d565b83611d80565b611776576040517f08c379a000000000000000000000000000000000000000000000000000000000815260040161176d90613595565b60405180910390fd5b611782848484846120ba565b50505050565b606061179382611c11565b6117d2576040517f08c379a00000000000000000000000000000000000000000000000000000000081526004016117c99061388f565b60405180910390fd5b600d6117dd83612116565b6040516020016117ee92919061397f565b6040516020818303038152906040529050919050565b600d805461181190612fbc565b80601f016020809104026020016040519081016040528092919081815260200182805461183d90612fbc565b801561188a5780601f1061185f5761010080835404028352916020019161188a565b820191906000526020600020905b81548152906001019060200180831161186d57829003601f168201915b505050505081565b61189a611c7d565b73ffffffffffffffffffffffffffffffffffffffff166118b86113b9565b73ffffffffffffffffffffffffffffffffffffffff161461190e576040517f08c379a000000000000000000000000000000000000000000000000000000000815260040161190590613503565b60405180910390fd5b60005b81518110156119505761193d8282815181106119305761192f6139a3565b5b60200260200101516111da565b8080611948906139d2565b915050611911565b5050565b6000600560008473ffffffffffffffffffffffffffffffffffffffff1673ffffffffffffffffffffffffffffffffffffffff16815260200190815260200160002060008373ffffffffffffffffffffffffffffffffffffffff1673ffffffffffffffffffffffffffffffffffffffff16815260200190815260200160002060009054906101000a900460ff16905092915050565b600b60009054906101000a900460ff1681565b611a03611c7d565b73ffffffffffffffffffffffffffffffffffffffff16611a216113b9565b73ffffffffffffffffffffffffffffffffffffffff1614611a77576040517f08c379a0000000000000000000000000000000000000000000000000000000008152600401611a6e90613503565b60405180910390fd5b600073ffffffffffffffffffffffffffffffffffffffff168173ffffffffffffffffffffffffffffffffffffffff161415611ae7576040517f08c379a0000000000000000000000000000000000000000000000000000000008152600401611ade90613a8d565b60405180910390fd5b8073ffffffffffffffffffffffffffffffffffffffff16600660009054906101000a900473ffffffffffffffffffffffffffffffffffffffff1673ffffffffffffffffffffffffffffffffffffffff167f8be0079c531659141344cd1fd0a4f28419497f9722a3daafe3b4186f6b6457e060405160405180910390a380600660006101000a81548173ffffffffffffffffffffffffffffffffffffffff021916908373ffffffffffffffffffffffffffffffffffffffff16021790555050565b60007f01ffc9a7000000000000000000000000000000000000000000000000000000007bffffffffffffffffffffffffffffffffffffffffffffffffffffffff1916827bffffffffffffffffffffffffffffffffffffffffffffffffffffffff1916149050919050565b60008073ffffffffffffffffffffffffffffffffffffffff166002600084815260200190815260200160002060009054906101000a900473ffffffffffffffffffffffffffffffffffffffff1673ffffffffffffffffffffffffffffffffffffffff1614159050919050565b600033905090565b816004600083815260200190815260200160002060006101000a81548173ffffffffffffffffffffffffffffffffffffffff021916908373ffffffffffffffffffffffffffffffffffffffff160217905550808273ffffffffffffffffffffffffffffffffffffffff16611cf883610f33565b73ffffffffffffffffffffffffffffffffffffffff167f8c5be1e5ebec7d5bd14f71427d1e84f3dd0314c0f7b2291e5b200ac8c7c3b92560405160405180910390a45050565b6001816000016000828254019250508190555050565b600081600001549050919050565b611d7c828260405180602001604052806000815250612296565b5050565b6000611d8b82611c11565b611dca576040517f08c379a0000000000000000000000000000000000000000000000000000000008152600401611dc190613b1f565b60405180910390fd5b6000611dd583610f33565b90508073ffffffffffffffffffffffffffffffffffffffff168473ffffffffffffffffffffffffffffffffffffffff161480611e4457508373ffffffffffffffffffffffffffffffffffffffff16611e2c84610844565b73ffffffffffffffffffffffffffffffffffffffff16145b80611e555750611e548185611954565b5b91505092915050565b8273ffffffffffffffffffffffffffffffffffffffff16611e7e82610f33565b73ffffffffffffffffffffffffffffffffffffffff1614611ed4576040517f08c379a0000000000000000000000000000000000000000000000000000000008152600401611ecb90613bb1565b60405180910390fd5b600073ffffffffffffffffffffffffffffffffffffffff168273ffffffffffffffffffffffffffffffffffffffff161415611f44576040517f08c379a0000000000000000000000000000000000000000000000000000000008152600401611f3b90613c43565b60405180910390fd5b611f4f8383836122f1565b611f5a600082611c85565b6001600360008573ffffffffffffffffffffffffffffffffffffffff1673ffffffffffffffffffffffffffffffffffffffff1681526020019081526020016000206000828254611faa9190613c63565b925050819055506001600360008473ffffffffffffffffffffffffffffffffffffffff1673ffffffffffffffffffffffffffffffffffffffff16815260200190815260200160002060008282546120019190613317565b92505081905550816002600083815260200190815260200160002060006101000a81548173ffffffffffffffffffffffffffffffffffffffff021916908373ffffffffffffffffffffffffffffffffffffffff160217905550808273ffffffffffffffffffffffffffffffffffffffff168473ffffffffffffffffffffffffffffffffffffffff167fddf252ad1be2c89b69c2b068fc378daa952ba7f163c4a11628f55a4df523b3ef60405160405180910390a4505050565b6120c5848484611e5e565b6120d1848484846122f6565b612110576040517f08c379a000000000000000000000000000000000000000000000000000000000815260040161210790613d09565b60405180910390fd5b50505050565b6060600082141561215e576040518060400160405280600181526020017f30000000000000000000000000000000000000000000000000000000000000008152509050612291565b600082905060005b60008214612190578080612179906139d2565b915050600a826121899190613d58565b9150612166565b60008167ffffffffffffffff8111156121ac576121ab612a76565b5b6040519080825280601f01601f1916602001820160405280156121de5781602001600182028036833780820191505090505b5090505b6000851461228a576001826121f79190613c63565b9150600a856122069190613d89565b60306122129190613317565b7f010000000000000000000000000000000000000000000000000000000000000002818381518110612247576122466139a3565b5b60200101907effffffffffffffffffffffffffffffffffffffffffffffffffffffffffffff1916908160001a905350600a856122839190613d58565b94506121e2565b8093505050505b919050565b6122a083836124b6565b6122ad60008484846122f6565b6122ec576040517f08c379a00000000000000000000000000000000000000000000000000000000081526004016122e390613d09565b60405180910390fd5b505050565b505050565b60006123178473ffffffffffffffffffffffffffffffffffffffff16612684565b156124a9578373ffffffffffffffffffffffffffffffffffffffff1663150b7a02612340611c7d565b8786866040518563ffffffff167c010000000000000000000000000000000000000000000000000000000002815260040161237e9493929190613e0f565b6020604051808303816000875af19250505080156123ba57506040513d601f19601f820116820180604052508101906123b79190613e70565b60015b61243d573d80600081146123ea576040519150601f19603f3d011682016040523d82523d6000602084013e6123ef565b606091505b50600081511415612435576040517f08c379a000000000000000000000000000000000000000000000000000000000815260040161242c90613d09565b60405180910390fd5b805181602001fd5b63150b7a027c0100000000000000000000000000000000000000000000000000000000027bffffffffffffffffffffffffffffffffffffffffffffffffffffffff1916817bffffffffffffffffffffffffffffffffffffffffffffffffffffffff1916149150506124ae565b600190505b949350505050565b600073ffffffffffffffffffffffffffffffffffffffff168273ffffffffffffffffffffffffffffffffffffffff161415612526576040517f08c379a000000000000000000000000000000000000000000000000000000000815260040161251d90613ee9565b60405180910390fd5b61252f81611c11565b1561256f576040517f08c379a000000000000000000000000000000000000000000000000000000000815260040161256690613f55565b60405180910390fd5b61257b600083836122f1565b6001600360008473ffffffffffffffffffffffffffffffffffffffff1673ffffffffffffffffffffffffffffffffffffffff16815260200190815260200160002060008282546125cb9190613317565b92505081905550816002600083815260200190815260200160002060006101000a81548173ffffffffffffffffffffffffffffffffffffffff021916908373ffffffffffffffffffffffffffffffffffffffff160217905550808273ffffffffffffffffffffffffffffffffffffffff16600073ffffffffffffffffffffffffffffffffffffffff167fddf252ad1be2c89b69c2b068fc378daa952ba7f163c4a11628f55a4df523b3ef60405160405180910390a45050565b600080823b905060008111915050919050565b8280546126a390612fbc565b90600052602060002090601f0160209004810192826126c5576000855561270c565b82601f106126de57805160ff191683800117855561270c565b8280016001018555821561270c579182015b8281111561270b5782518255916020019190600101906126f0565b5b509050612719919061271d565b5090565b5b8082111561273657600081600090555060010161271e565b5090565b6000604051905090565b600080fd5b600080fd5b60007fffffffff0000000000000000000000000000000000000000000000000000000082169050919050565b6127838161274e565b811461278e57600080fd5b50565b6000813590506127a08161277a565b92915050565b6000602082840312156127bc576127bb612744565b5b60006127ca84828501612791565b91505092915050565b60008115159050919050565b6127e8816127d3565b82525050565b600060208201905061280360008301846127df565b92915050565b600081519050919050565b600082825260208201905092915050565b60005b83811015612843578082015181840152602081019050612828565b83811115612852576000848401525b50505050565b6000601f19601f8301169050919050565b600061287482612809565b61287e8185612814565b935061288e818560208601612825565b61289781612858565b840191505092915050565b600060208201905081810360008301526128bc8184612869565b905092915050565b6000819050919050565b6128d7816128c4565b81146128e257600080fd5b50565b6000813590506128f4816128ce565b92915050565b6000602082840312156129105761290f612744565b5b600061291e848285016128e5565b91505092915050565b600073ffffffffffffffffffffffffffffffffffffffff82169050919050565b600061295282612927565b9050919050565b61296281612947565b82525050565b600060208201905061297d6000830184612959565b92915050565b61298c81612947565b811461299757600080fd5b50565b6000813590506129a981612983565b92915050565b600080604083850312156129c6576129c5612744565b5b60006129d48582860161299a565b92505060206129e5858286016128e5565b9150509250929050565b6129f8816128c4565b82525050565b6000602082019050612a1360008301846129ef565b92915050565b600080600060608486031215612a3257612a31612744565b5b6000612a408682870161299a565b9350506020612a518682870161299a565b9250506040612a62868287016128e5565b9150509250925092565b600080fd5b600080fd5b7f4e487b7100000000000000000000000000000000000000000000000000000000600052604160045260246000fd5b612aae82612858565b810181811067ffffffffffffffff82111715612acd57612acc612a76565b5b80604052505050565b6000612ae061273a565b9050612aec8282612aa5565b919050565b600067ffffffffffffffff821115612b0c57612b0b612a76565b5b612b1582612858565b9050602081019050919050565b82818337600083830152505050565b6000612b44612b3f84612af1565b612ad6565b905082815260208101848484011115612b6057612b5f612a71565b5b612b6b848285612b22565b509392505050565b600082601f830112612b8857612b87612a6c565b5b8135612b98848260208601612b31565b91505092915050565b600060208284031215612bb757612bb6612744565b5b600082013567ffffffffffffffff811115612bd557612bd4612749565b5b612be184828501612b73565b91505092915050565b6000612bf582612927565b9050919050565b612c0581612bea565b82525050565b6000602082019050612c206000830184612bfc565b92915050565b600060208284031215612c3c57612c3b612744565b5b6000612c4a8482850161299a565b91505092915050565b612c5c816127d3565b8114612c6757600080fd5b50565b600081359050612c7981612c53565b92915050565b60008060408385031215612c9657612c95612744565b5b6000612ca48582860161299a565b9250506020612cb585828601612c6a565b9150509250929050565b612cc881612bea565b8114612cd357600080fd5b50565b600081359050612ce581612cbf565b92915050565b600060208284031215612d0157612d00612744565b5b6000612d0f84828501612cd6565b91505092915050565b600067ffffffffffffffff821115612d3357612d32612a76565b5b612d3c82612858565b9050602081019050919050565b6000612d5c612d5784612d18565b612ad6565b905082815260208101848484011115612d7857612d77612a71565b5b612d83848285612b22565b509392505050565b600082601f830112612da057612d9f612a6c565b5b8135612db0848260208601612d49565b91505092915050565b60008060008060808587031215612dd357612dd2612744565b5b6000612de18782880161299a565b9450506020612df28782880161299a565b9350506040612e03878288016128e5565b925050606085013567ffffffffffffffff811115612e2457612e23612749565b5b612e3087828801612d8b565b91505092959194509250565b600067ffffffffffffffff821115612e5757612e56612a76565b5b602082029050602081019050919050565b600080fd5b6000612e80612e7b84612e3c565b612ad6565b90508083825260208201905060208402830185811115612ea357612ea2612e68565b5b835b81811015612ecc5780612eb8888261299a565b845260208401935050602081019050612ea5565b5050509392505050565b600082601f830112612eeb57612eea612a6c565b5b8135612efb848260208601612e6d565b91505092915050565b600060208284031215612f1a57612f19612744565b5b600082013567ffffffffffffffff811115612f3857612f37612749565b5b612f4484828501612ed6565b91505092915050565b60008060408385031215612f6457612f63612744565b5b6000612f728582860161299a565b9250506020612f838582860161299a565b9150509250929050565b7f4e487b7100000000000000000000000000000000000000000000000000000000600052602260045260246000fd5b60006002820490506001821680612fd457607f821691505b60208210811415612fe857612fe7612f8d565b5b50919050565b7f4552433732313a20617070726f76656420717565727920666f72206e6f6e657860008201527f697374656e7420746f6b656e0000000000000000000000000000000000000000602082015250565b600061304a602c83612814565b915061305582612fee565b604082019050919050565b600060208201905081810360008301526130798161303d565b9050919050565b7f4552433732313a20617070726f76616c20746f2063757272656e74206f776e6560008201527f7200000000000000000000000000000000000000000000000000000000000000602082015250565b60006130dc602183612814565b91506130e782613080565b604082019050919050565b6000602082019050818103600083015261310b816130cf565b9050919050565b7f4552433732313a20617070726f76652063616c6c6572206973206e6f74206f7760008201527f6e6572206e6f7220617070726f76656420666f7220616c6c0000000000000000602082015250565b600061316e603883612814565b915061317982613112565b604082019050919050565b6000602082019050818103600083015261319d81613161565b9050919050565b7f4e4654207072696365206e6f7420736574207965740000000000000000000000600082015250565b60006131da601583612814565b91506131e5826131a4565b602082019050919050565b60006020820190508181036000830152613209816131cd565b9050919050565b7f4261736520555249206973206e6f74207365742e000000000000000000000000600082015250565b6000613246601483612814565b915061325182613210565b602082019050919050565b6000602082019050818103600083015261327581613239565b9050919050565b7f53616c65206d7573742062652061637469766520746f206d696e74206e667400600082015250565b60006132b2601f83612814565b91506132bd8261327c565b602082019050919050565b600060208201905081810360008301526132e1816132a5565b9050919050565b7f4e487b7100000000000000000000000000000000000000000000000000000000600052601160045260246000fd5b6000613322826128c4565b915061332d836128c4565b9250827fffffffffffffffffffffffffffffffffffffffffffffffffffffffffffffffff03821115613362576133616132e8565b5b828201905092915050565b7f507572636861736520776f756c6420657863656564206d617820737570706c7960008201527f206f66204e465473000000000000000000000000000000000000000000000000602082015250565b60006133c9602883612814565b91506133d48261336d565b604082019050919050565b600060208201905081810360008301526133f8816133bc565b9050919050565b7f4e6f7420656e6f7567682062616c616e63650000000000000000000000000000600082015250565b6000613435601283612814565b9150613440826133ff565b602082019050919050565b6000602082019050818103600083015261346481613428565b9050919050565b60006080820190506134806000830187612959565b61348d60208301866129ef565b61349a60408301856129ef565b81810360608301526134ac8184612869565b905095945050505050565b7f4f776e61626c653a2063616c6c6572206973206e6f7420746865206f776e6572600082015250565b60006134ed602083612814565b91506134f8826134b7565b602082019050919050565b6000602082019050818103600083015261351c816134e0565b9050919050565b7f4552433732313a207472616e736665722063616c6c6572206973206e6f74206f60008201527f776e6572206e6f7220617070726f766564000000000000000000000000000000602082015250565b600061357f603183612814565b915061358a82613523565b604082019050919050565b600060208201905081810360008301526135ae81613572565b9050919050565b7f4261736555524920697320616c7265616479207365742e000000000000000000600082015250565b60006135eb601783612814565b91506135f6826135b5565b602082019050919050565b6000602082019050818103600083015261361a816135de565b9050919050565b7f4552433732313a206f776e657220717565727920666f72206e6f6e657869737460008201527f656e7420746f6b656e0000000000000000000000000000000000000000000000602082015250565b600061367d602983612814565b915061368882613621565b604082019050919050565b600060208201905081810360008301526136ac81613670565b9050919050565b7f4552433732313a2062616c616e636520717565727920666f7220746865207a6560008201527f726f206164647265737300000000000000000000000000000000000000000000602082015250565b600061370f602a83612814565b915061371a826136b3565b604082019050919050565b6000602082019050818103600083015261373e81613702565b9050919050565b7f4552433732313a20617070726f766520746f2063616c6c657200000000000000600082015250565b600061377b601983612814565b915061378682613745565b602082019050919050565b600060208201905081810360008301526137aa8161376e565b9050919050565b7f63616e6e6f742062652061207a65726f20616464726573730000000000000000600082015250565b60006137e7601883612814565b91506137f2826137b1565b602082019050919050565b60006020820190508181036000830152613816816137da565b9050919050565b7f4552433732314d657461646174613a2055524920717565727920666f72206e6f60008201527f6e6578697374656e7420746f6b656e0000000000000000000000000000000000602082015250565b6000613879602f83612814565b91506138848261381d565b604082019050919050565b600060208201905081810360008301526138a88161386c565b9050919050565b600081905092915050565b60008190508160005260206000209050919050565b600081546138dc81612fbc565b6138e681866138af565b94506001821660008114613901576001811461391257613945565b60ff19831686528186019350613945565b61391b856138ba565b60005b8381101561393d5781548189015260018201915060208101905061391e565b838801955050505b50505092915050565b600061395982612809565b61396381856138af565b9350613973818560208601612825565b80840191505092915050565b600061398b82856138cf565b9150613997828461394e565b91508190509392505050565b7f4e487b7100000000000000000000000000000000000000000000000000000000600052603260045260246000fd5b60006139dd826128c4565b91507fffffffffffffffffffffffffffffffffffffffffffffffffffffffffffffffff821415613a1057613a0f6132e8565b5b600182019050919050565b7f4f776e61626c653a206e6577206f776e657220697320746865207a65726f206160008201527f6464726573730000000000000000000000000000000000000000000000000000602082015250565b6000613a77602683612814565b9150613a8282613a1b565b604082019050919050565b60006020820190508181036000830152613aa681613a6a565b9050919050565b7f4552433732313a206f70657261746f7220717565727920666f72206e6f6e657860008201527f697374656e7420746f6b656e0000000000000000000000000000000000000000602082015250565b6000613b09602c83612814565b9150613b1482613aad565b604082019050919050565b60006020820190508181036000830152613b3881613afc565b9050919050565b7f4552433732313a207472616e73666572206f6620746f6b656e2074686174206960008201527f73206e6f74206f776e0000000000000000000000000000000000000000000000602082015250565b6000613b9b602983612814565b9150613ba682613b3f565b604082019050919050565b60006020820190508181036000830152613bca81613b8e565b9050919050565b7f4552433732313a207472616e7366657220746f20746865207a65726f2061646460008201527f7265737300000000000000000000000000000000000000000000000000000000602082015250565b6000613c2d602483612814565b9150613c3882613bd1565b604082019050919050565b60006020820190508181036000830152613c5c81613c20565b9050919050565b6000613c6e826128c4565b9150613c79836128c4565b925082821015613c8c57613c8b6132e8565b5b828203905092915050565b7f4552433732313a207472616e7366657220746f206e6f6e20455243373231526560008201527f63656976657220696d706c656d656e7465720000000000000000000000000000602082015250565b6000613cf3603283612814565b9150613cfe82613c97565b604082019050919050565b60006020820190508181036000830152613d2281613ce6565b9050919050565b7f4e487b7100000000000000000000000000000000000000000000000000000000600052601260045260246000fd5b6000613d63826128c4565b9150613d6e836128c4565b925082613d7e57613d7d613d29565b5b828204905092915050565b6000613d94826128c4565b9150613d9f836128c4565b925082613daf57613dae613d29565b5b828206905092915050565b600081519050919050565b600082825260208201905092915050565b6000613de182613dba565b613deb8185613dc5565b9350613dfb818560208601612825565b613e0481612858565b840191505092915050565b6000608082019050613e246000830187612959565b613e316020830186612959565b613e3e60408301856129ef565b8181036060830152613e508184613dd6565b905095945050505050565b600081519050613e6a8161277a565b92915050565b600060208284031215613e8657613e85612744565b5b6000613e9484828501613e5b565b91505092915050565b7f4552433732313a206d696e7420746f20746865207a65726f2061646472657373600082015250565b6000613ed3602083612814565b9150613ede82613e9d565b602082019050919050565b60006020820190508181036000830152613f0281613ec6565b9050919050565b7f4552433732313a20746f6b656e20616c7265616479206d696e74656400000000600082015250565b6000613f3f601c83612814565b9150613f4a82613f09565b602082019050919050565b60006020820190508181036000830152613f6e81613f32565b905091905056fea26469706673582212206176556ce243dc2284738fb02063c88db9b211a3e1c5f18127904249a390573c64736f6c634300080a0033",
  "immutableReferences": {},
  "source": "// SPDX-License-Identifier: MIT\r\n\r\n/**\r\n * @title xxxTentacionNFT\r\n * @author Saad Sarwar\r\n */\r\n\r\n\r\npragma solidity ^0.8.4;\r\n\r\nimport \"./token/ERC721/ERC721.sol\";\r\nimport \"./math/SafeMath.sol\";\r\nimport \"./access/Ownable.sol\";\r\nimport \"./utils/Counters.sol\";\r\n\r\n\r\ncontract xxxTentacionNFT is ERC721, Ownable {\r\n    //    using SafeMath for uint256;\r\n    using Strings for uint256;\r\n    using Counters for Counters.Counter;\r\n    Counters.Counter private _tokenIds;\r\n\r\n    uint256 public nftPrice;\r\n    bool isNftPriceSet = false;\r\n\r\n    uint256 public MAX_SUPPLY; // max supply of nfts\r\n\r\n    bool public saleIsActive = false; // to control sale\r\n\r\n    address payable public treasury;\r\n\r\n    // Optional mapping for token URIs\r\n    mapping(uint256 => string) private _tokenURIs;\r\n\r\n    // Token URI\r\n    string public baseTokenURI;\r\n\r\n    event NftMinted(address to, uint date, uint tokenId, string tokenURI); // Used to generate NFT data on external decentralized storage service\r\n\r\n    constructor(uint256 maxNftSupply, address payable _treasury) ERC721(\"xxxTentacion\", \"XTC\") {\r\n        MAX_SUPPLY = maxNftSupply;\r\n        treasury = _treasury;\r\n    }\r\n\r\n    function setSalePrice(uint price) public onlyOwner {\r\n        nftPrice = price;\r\n        isNftPriceSet = true;\r\n    }\r\n\r\n    function changeTreasuryAddress(address payable _newTreasuryAddress) public onlyOwner {\r\n        require(_newTreasuryAddress != address(0), \"cannot be a zero address\");\r\n        treasury = _newTreasuryAddress;\r\n    }\r\n\r\n    function setBaseURI(string memory _newBaseURI) public onlyOwner {\r\n        require(bytes(baseTokenURI).length == 0, 'BaseURI is already set.');\r\n        baseTokenURI = _newBaseURI;\r\n    }\r\n\r\n    function tokenURI(uint256 tokenId) public view virtual override returns (string memory) {\r\n        require(_exists(tokenId), \"ERC721Metadata: URI query for nonexistent token\");\r\n        return string(abi.encodePacked(baseTokenURI, tokenId.toString()));\r\n    }\r\n\r\n    function totalSupply() public view returns (uint256) {\r\n        return _tokenIds.current();\r\n    }\r\n\r\n    /*\r\n    * Pause sale if active, make active if paused\r\n    */\r\n    function flipSaleState() public onlyOwner {\r\n        saleIsActive = !saleIsActive;\r\n    }\r\n\r\n    // the default mint function for public sale\r\n    function mint() public payable {\r\n        require(isNftPriceSet, \"NFT price not set yet\");\r\n        require(bytes(baseTokenURI).length > 0, 'Base URI is not set.');\r\n        require(saleIsActive, \"Sale must be active to mint nft\");\r\n        require((totalSupply() + 1) <= MAX_SUPPLY, \"Purchase would exceed max supply of NFTs\");\r\n        require(msg.value >= nftPrice, \"Not enough balance\");\r\n        treasury.transfer(msg.value);\r\n        _tokenIds.increment();\r\n        uint256 newNftId = _tokenIds.current();\r\n        _safeMint(msg.sender, newNftId);\r\n        emit NftMinted(msg.sender, block.timestamp, newNftId, tokenURI(newNftId));\r\n    }\r\n\r\n    // mint for function to mint an nft for a given address, can be called only by owner\r\n    function mintFor(address _to) public onlyOwner() {\r\n        require(bytes(baseTokenURI).length > 0, 'Base URI is not set.');\r\n        require(saleIsActive, \"Sale must be active to mint nft\");\r\n        require((totalSupply() + 1) <= MAX_SUPPLY, \"Purchase would exceed max supply of NFTs\");\r\n        _tokenIds.increment();\r\n        uint256 newNftId = _tokenIds.current();\r\n        _safeMint(_to, newNftId);\r\n        emit NftMinted(msg.sender, block.timestamp, newNftId, tokenURI(newNftId));\r\n    }\r\n\r\n    // mass minting function\r\n    function massMint(address[] memory addresses) public onlyOwner() {\r\n        uint index;\r\n        for (index = 0; index < addresses.length; index++) {\r\n            mintFor(addresses[index]);\r\n        }\r\n    }\r\n\r\n}",
  "sourcePath": "D:\\xxxTentacionContracts\\contracts\\xxxTentacionContracts\\contracts\\nftContract.sol",
  "compiler": {
    "name": "solc",
    "version": "0.8.10+commit.fc410830.Emscripten.clang"
  },
  "schemaVersion": "3.4.3",
  "updatedAt": "2022-01-24T21:00:23.535Z",
  "networkType": "ethereum",
  "devdoc": {
    "kind": "dev",
    "methods": {
      "approve(address,uint256)": {
        "details": "See {IERC721-approve}."
      },
      "balanceOf(address)": {
        "details": "See {IERC721-balanceOf}."
      },
      "getApproved(uint256)": {
        "details": "See {IERC721-getApproved}."
      },
      "isApprovedForAll(address,address)": {
        "details": "See {IERC721-isApprovedForAll}."
      },
      "name()": {
        "details": "See {IERC721Metadata-name}."
      },
      "owner()": {
        "details": "Returns the address of the current owner."
      },
      "ownerOf(uint256)": {
        "details": "See {IERC721-ownerOf}."
      },
      "renounceOwnership()": {
        "details": "Leaves the contract without owner. It will not be possible to call `onlyOwner` functions anymore. Can only be called by the current owner. NOTE: Renouncing ownership will leave the contract without an owner, thereby removing any functionality that is only available to the owner."
      },
      "safeTransferFrom(address,address,uint256)": {
        "details": "See {IERC721-safeTransferFrom}."
      },
      "safeTransferFrom(address,address,uint256,bytes)": {
        "details": "See {IERC721-safeTransferFrom}."
      },
      "setApprovalForAll(address,bool)": {
        "details": "See {IERC721-setApprovalForAll}."
      },
      "supportsInterface(bytes4)": {
        "details": "See {IERC165-supportsInterface}."
      },
      "symbol()": {
        "details": "See {IERC721Metadata-symbol}."
      },
      "tokenURI(uint256)": {
        "details": "See {IERC721Metadata-tokenURI}."
      },
      "transferFrom(address,address,uint256)": {
        "details": "See {IERC721-transferFrom}."
      },
      "transferOwnership(address)": {
        "details": "Transfers ownership of the contract to a new account (`newOwner`). Can only be called by the current owner."
      }
    },
    "version": 1
  },
  "userdoc": {
    "kind": "user",
    "methods": {},
    "version": 1
  }
}