{
  "contractName": "xxxTentacionNFTWhiteList",
  "abi": [
    {
      "inputs": [],
      "stateMutability": "nonpayable",
      "type": "constructor"
    },
    {
      "inputs": [
        {
          "internalType": "uint256",
          "name": "",
          "type": "uint256"
        }
      ],
      "name": "holders",
      "outputs": [
        {
          "internalType": "address",
          "name": "",
          "type": "address"
        }
      ],
      "stateMutability": "view",
      "type": "function"
    }
  ],
  "bytecode": "0x6080604052604051806040016040528073a97f7eb14da5568153ea06b2656ccf7c338d942f73ffffffffffffffffffffffffffffffffffffffff1673ffffffffffffffffffffffffffffffffffffffff16815260200173a97f7eb14da5568153ea06b2656ccf7c338d942f73ffffffffffffffffffffffffffffffffffffffff1673ffffffffffffffffffffffffffffffffffffffff1681525060019060026100a99291906100bc565b503480156100b657600080fd5b50610163565b828054828255906000526020600020908101928215610135579160200282015b828111156101345782518260006101000a81548173ffffffffffffffffffffffffffffffffffffffff021916908373ffffffffffffffffffffffffffffffffffffffff160217905550916020019190600101906100dc565b5b5090506101429190610146565b5090565b5b8082111561015f576000816000905550600101610147565b5090565b6101b6806101726000396000f3fe608060405234801561001057600080fd5b5060043610610048576000357c0100000000000000000000000000000000000000000000000000000000900480632a11ced01461004d575b600080fd5b610067600480360381019061006291906100f7565b61007d565b6040516100749190610165565b60405180910390f35b6001818154811061008d57600080fd5b906000526020600020016000915054906101000a900473ffffffffffffffffffffffffffffffffffffffff1681565b600080fd5b6000819050919050565b6100d4816100c1565b81146100df57600080fd5b50565b6000813590506100f1816100cb565b92915050565b60006020828403121561010d5761010c6100bc565b5b600061011b848285016100e2565b91505092915050565b600073ffffffffffffffffffffffffffffffffffffffff82169050919050565b600061014f82610124565b9050919050565b61015f81610144565b82525050565b600060208201905061017a6000830184610156565b9291505056fea2646970667358221220d5dd578831c988297a574c6620c1639da58c70006fd1b710d99ea209c41d059064736f6c634300080a0033",
  "immutableReferences": {},
  "source": "// SPDX-License-Identifier: MIT\r\n\r\n/**\r\n * @title xxxTentacionNFT whitelist\r\n * @author Saad Sarwar\r\n */\r\n\r\n\r\npragma solidity ^0.8.4;\r\n\r\nimport \"./utils/Counters.sol\";\r\n\r\n\r\ncontract xxxTentacionNFTWhiteList {\r\n\r\n    using Counters for Counters.Counter;\r\n    Counters.Counter private _tokenIds;\r\n\r\n    address[] public holders = [\r\n        0xA97F7EB14da5568153Ea06b2656ccF7c338d942f,\r\n        0xA97F7EB14da5568153Ea06b2656ccF7c338d942f\r\n    ];\r\n\r\n    constructor() {\r\n    }\r\n\r\n    function addHolder(address holderAddress) private {\r\n        holders.push(holderAddress);\r\n    }\r\n\r\n}",
  "sourcePath": "D:\\xxxTentacionContracts\\contracts\\xxxTentacionContracts\\contracts\\whiteList.sol",
  "compiler": {
    "name": "solc",
    "version": "0.8.10+commit.fc410830.Emscripten.clang"
  },
  "schemaVersion": "3.4.3",
  "updatedAt": "2022-01-17T17:42:06.624Z",
  "devdoc": {
    "kind": "dev",
    "methods": {},
    "version": 1
  },
  "userdoc": {
    "kind": "user",
    "methods": {},
    "version": 1
  }
}